:1000000007C100000C94F23B0C941D3C0C94483C3E
:100010000C94733C0C949E3C0C94C93C0C94F43CA2
:100020000C941F3D43C40000E4C400001EC5000042
:1000300020C100001EC100001CC100001AC1000048
:1000400018C1000016C1000014C1000012C1000058
:1000500010C100000EC100000CC100000C944A3D0C
:1000600008C100000C941E410C94544102C10000D0
:1000700000C10000FEC00000FCC00000FAC000008B
:10008000F8C00000F6C00000F4C00000F2C000009C
:100090000C94AA410C94E041ECC00000EAC00000BE
:1000A000E8C00000E6C00000E4C00000E2C00000BC
:1000B000E0C00000DEC00000DCC00000DAC00000CC
:1000C000D8C00000D6C000000C9412360C94364202
:1000D0000C946C42CEC000000C94C2420C94F842C6
:1000E000C8C0000005A84CCDB2D44EB93836A9021C
:1000F0000C50B9918688083CA6AAAA2ABE00000026
:10010000803F00000A0B02090C0D0E0807030401D2
:1001100000000000000000000000000000000000DF
:1001200000000000000000000000000000001211AC
:1001300010000000000000000000000000000000AF
:10014000000000000000000001021020200808103C
:100150002040102040800201020108040201010237
:100160000408102040808040201008040201800410
:10017000020180402010080402010804020101026B
:10018000040810204080010204081020408005056A
:100190000505070508080808020202020A0A0808FD
:1001A000040404040101010101010101030303032B
:1001B00003030303040707070C0C0C0C0C0C0C0CBA
:1001C0000202020206060606060606060B0B0B0BCB
:1001D0000B0B0B0B00002200250028002B002E002B
:1001E0003100340002010000050108010B0100008C
:1001F0002100240027002A002D00300033000101D7
:100200000000040107010A017D4109429542214392
:1002100011241FBECFEFD1E2DEBFCDBF00E00CBF87
:1002200014E0A0E0B2E0E4E1FAE800E00BBF02C0B5
:1002300007900D92AE3CB107D9F72DE0AEECB4E0DB
:1002400001C01D92A33FB207E1F711E0C8E0D1E081
:1002500000E006C021970109802FFE010E94B243F1
:10026000C430D10780E00807A9F70E94B5370C9485
:100270000845C6CECF92DF92EF92FF92CF938823AC
:1002800051F16A017B01CFEFC80F20E030E0A901F6
:10029000CB01B6010E94AB3818168CF0C701B6012D
:1002A00090580E941C399B01AC016C2F70E090E0CB
:1002B00080E0CF91FF90EF90DF90CF90B2C0C70168
:1002C000B6010E9417398C2FCF91FF90EF90DF90ED
:1002D000CF900C94513ECF91FF90EF90DF90CF9054
:1002E00008950F931F938B019C0183E0369527950A
:1002F000179507958A95D1F702531B4F462F4770E4
:1003000021E030E0F90102C0EE0FFF1F4A95E2F74D
:10031000AF01F80120812423CB010196211102C0F5
:1003200090E080E01F910F9108950F931F938B0130
:100330009C0183E036952795179507958A95D1F707
:10034000677081E090E001C0880F6A95EAF7F801D4
:10035000E253FB4F2081452B31F48095822380832B
:100360001F910F910895822BFACF2F923F924F92B7
:100370005F926F927F928F929F92AF92BF92CF9235
:10038000DF92EF92FF920F931F93CF93DF93D62EBE
:10039000C72E782E692E49015A01280161E08D2D62
:1003A0000E948B3FCD2DDC2D8E010F5F1F4FA801CA
:1003B0006D2D7C2D872D962DB8DF20E030E0A90132
:1003C000C201B7010E949B3A181664F4C201B7013A
:1003D0000E941C392B01C501B4010E941C39A201E5
:1003E000CE0123D0C801DF91CF911F910F91FF90D3
:1003F000EF90DF90CF90BF90AF909F908F907F90C5
:100400006F905F904F903F902F900895882341F018
:100410008150682F70E090E080E050E040E085CFB0
:100420000895862FB9010C94513E9C01FC01EE5FAA
:10043000FE4FE491E150E231E0F4F0E08827EC5D1A
:10044000FD4F8F4F0C94B24336023D0240025702DB
:100450006C02390281028D029102A802BD02D20211
:10046000E902FE02390213032A033F0384B58068C0
:1004700084BD60E0822F0C94C73F84B58062F8CFC2
:10048000809180008C7F82608093800080918100C9
:10049000807E8061682B6093810050938700409339
:1004A000860080918000806880938000E2CF8091F8
:1004B00080008C7F82608093800080918100807EAC
:1004C0008061682B60938100509387004093860081
:1004D000809180008062E8CF809180008C7F826074
:1004E0008093800080918100807E8061682B609382
:1004F000810050938700409386008091800088603F
:10050000D3CF8091B00080688093B0008091B1001B
:10051000887F682B6093B100ACCF8091B00080627F
:10052000F3CF809190008C7F8260809390008091C7
:100530009100807E8061682B6093910050939700BA
:10054000409396008091900080688093900091CFB6
:10055000809190008C7F82608093900080919100C8
:10056000807E8061682B6093910050939700409348
:100570009600809190008062E8CF809190008C7FFF
:1005800082608093900080919100807E8061682BD2
:100590006093910050939700409396008091900053
:1005A0008860D3CF8091A0008C7F82608093A00070
:1005B0008091A100807E8061682B6093A1005093A0
:1005C000A7004093A6008091A00080688093A000BF
:1005D00050CF8091A0008C7F82608093A00080919A
:1005E000A100807E8061682B6093A1005093A700DA
:1005F0004093A6008091A0008062E8CF8091A00087
:100600008C7F82608093A0008091A100807E8061B9
:10061000682B6093A1005093A7004093A60080919F
:10062000A0008860D3CF809120018C7F826080936E
:10063000200180912101807E8061682B60932101DF
:100640005093270140932601809120018068809378
:1006500020010FCF809120018C7F82608093200148
:1006600080912101807E8061682B609321015093ED
:10067000270140932601809120018062E8CF80917C
:1006800020018C7F82608093200180912101807EF7
:100690008061682B609321015093270140932601CC
:1006A000809120018860D3CF9CB1892F807294FF04
:1006B00016C0811116C08091DB049091DC04A091DA
:1006C000DD04B091DE040196A11DB11D8093DB0411
:1006D0009093DC04A093DD04B093DE0408958111AF
:1006E000EACF8091DB049091DC04A091DD04B0910D
:1006F000DE040197A109B109E9CF99B1892F84706E
:1007000093FF16C08823B1F08091E9049091EA0428
:10071000A091EB04B091EC040196A11DB11D809352
:10072000E9049093EA04A093EB04B093EC040895D9
:10073000882351F38091E9049091EA04A091EB049D
:10074000B091EC040197A109B109E9CF8CB190E017
:100750009C01220F232F221F330B86FF16C080918E
:10076000F7049091F804A091F904B091FA04232BB6
:10077000B9F40196A11DB11D8093F7049093F8047C
:10078000A093F904B093FA0408958091F70490912E
:10079000F804A091F904B091FA042130310549F32D
:1007A0000197A109B109E8CF9CB1892F807195FF0C
:1007B00016C08823B1F08091DB049091DC04A091F5
:1007C000DD04B091DE040196A11DB11D8093DB0410
:1007D0009093DC04A093DD04B093DE040895882395
:1007E00051F38091DB049091DC04A091DD04B09181
:1007F000DE040197A109B109E9CF99B1892F887069
:1008000092FF16C0811116C08091E9049091EA040C
:10081000A091EB04B091EC040196A11DB11D809351
:10082000E9049093EA04A093EB04B093EC040895D8
:100830008111EACF8091E9049091EA04A091EB0440
:10084000B091EC040197A109B109E9CF8CB190E016
:1008500086FB222720F930E0880F892F881F990B0B
:100860000197B1F48091F7049091F804A091F904F4
:10087000B091FA04232BB1F00196A11DB11D809314
:10088000F7049093F804A093F904B093FA04089540
:100890008091F7049091F804A091F904B091FA04C2
:1008A000232B51F30197A109B109E9CF1F920F92B0
:1008B0000FB60F9211242F933F934F935F938F9313
:1008C0009F93AF93BF9383B121E030E0982F907254
:1008D00085FD02C030E020E0807440911B055091FE
:1008E0001C054217530709F062C021E030E0811176
:1008F00002C030E020E030931A05209319058823C8
:1009000009F1911121C08091130590911405A091D6
:100910001505B09116050196A11DB11D8093130513
:1009200090931405A0931505B093160580911305B7
:1009300090911405A0911505B09116050196A11D81
:10094000B11D20C09111DFCF809113059091140546
:10095000A0911505B09116050197A109B1098093E1
:10096000130590931405A0931505B0931605809177
:10097000130590911405A0911505B09116050197E6
:10098000A109B1098093130590931405A09315054F
:10099000B0931605BF91AF919F918F915F914F9149
:1009A0003F912F910F900FBE0F901F90189530938D
:1009B0001C0520931B05992371F0882371F0809109
:1009C000130590911405A0911505B0911605019697
:1009D000A11DB11DC4CF882391F38091130590917F
:1009E0001405A0911505B09116050197A109B1094B
:1009F00095CF1F920F920FB60F9211248F939F9352
:100A0000AF93BF938091060181709091030190FF95
:100A10001EC081111EC08091050590910605A09110
:100A20000705B09108050196A11DB11D809305052C
:100A300090930605A0930705B0930805BF91AF9169
:100A40009F918F910F900FBE0F901F90189581115D
:100A5000E2CF8091050590910605A0910705B09120
:100A600008050197A109B109E1CF1F920F920FB6B6
:100A70000F9211248F939F93AF93BF9380910301A3
:100A800081709091060190FF1EC08823F1F0809143
:100A9000050590910605A0910705B09108050196FE
:100AA000A11DB11D8093050590930605A093070530
:100AB000B0930805BF91AF919F918F910F900FBE9A
:100AC0000F901F901895882311F380910505909140
:100AD0000605A0910705B09108050197A109B10984
:100AE000E1CF0F931F93CF93DF938C018EE0809F14
:100AF000E001819FD00D1124C952DB4F79836883B7
:100B00005B834A838881998160E00E948B3F8A8160
:100B10009B8160E00E948B3F8881998161E00E9407
:100B2000C73F8A819B8161E00E94C73F0230110567
:100B300009F487C064F40115110501F101301105B4
:100B400009F450C0DF91CF911F910F9108950330A8
:100B5000110509F4A5C004301105A1F780916800C2
:100B600081608093680080916B00806280936B004D
:100B700080916B00806480936B00E4CF8091D704F8
:100B80009091D80402978431910530F5815F9B4F95
:100B9000FC018081082E000C990B41E050E064E5D7
:100BA00073E00E94783B8091D9049091DA04029717
:100BB00084319105A0F4815F9B4FFC018081082E58
:100BC000000C990B41E050E064ED73E0DF91CF91B0
:100BD0001F910F910C94783B8FEF9FEFDECF8FEF3B
:100BE0009FEFF0CF8091E5049091E6040297843165
:100BF000910508F5815F9B4FFC018081082E000C58
:100C0000990B41E050E06DEF73E00E94783B8091DA
:100C1000E7049091E80402978431910578F4815FAC
:100C20009B4FFC018081082E000C990B41E050E0A5
:100C30006DE773E0CBCF8FEF9FEFE3CF8FEF9FEFA9
:100C4000F5CF8091F3049091F404029784319105DB
:100C500008F5815F9B4FFC018081082E000C990BE9
:100C600041E050E066EA73E00E94783B8091F50431
:100C70009091F60402978431910578F4815F9B4F3F
:100C8000FC018081082E000C990B41E050E066E2E7
:100C900074E09CCF8FEF9FEFE3CF8FEF9FEFF5CF07
:100CA0008091680084608093680080916800826011
:100CB0008093680080916D00816080936D008091C9
:100CC0006C00826080936C003DCF2EE0269FF00187
:100CD000279FF00D1124E952FB4F648175818681B5
:100CE0009781089590E080E008950F931F930097F7
:100CF00009F48DC06115710509F489C00091D6030E
:100D00001091D7032091D8033091D9030E3F1F4F84
:100D10002F4F3F4F09F06CC04FEF5FEFBA01409388
:100D2000D6035093D7036093D8037093D9034091AF
:100D3000D6035091D7036091D8037091D903DC0199
:100D40001296ED91FC9180819181A281B381809373
:100D5000360690933706A0933806B09339068481FF
:100D60009581A681B7818093320690933306A09334
:100D70003406B093350680859185A285B38580932E
:100D80002E0690932F06A0933006B09331068485EB
:100D90009585A685B78580932A0690932B06A09308
:100DA0002C06B0932D06109226061092270610925C
:100DB0002806109229060E94C5198AEE99E190939F
:100DC0001E0580931D059093200580931F05909329
:100DD0002205809321050E94B418009731F421E088
:100DE00030E030933B0620933A061F910F9108950F
:100DF0000091D6031091D7032091D8033091D903E5
:100E0000DB010D931D932D933C93139790CF8FEFA0
:100E10009FEFEBCF8F929F92AF92BF92CF92DF92D4
:100E2000EF92FF921F93CF93DF934B015C011091E0
:100E30003D0682E090E090933B0680933A06811451
:100E40009104A104B10441F480913D06811104C0D4
:100E500080913C06C1E08111C0E0C12CD12C76010B
:100E600080913D06811106C080913C06811102C02F
:100E7000CC23D9F083E090E090933B0680933A0630
:100E8000CC2381F1CCE9DFEF111102C00E944F1D8C
:100E9000CE01DF91CF911F91FF90EF90DF90CF9027
:100EA000BF90AF909F908F9008956AE070E080E0CF
:100EB00090E00E94B93D80E1C80E87E2D81EE11C97
:100EC000F11C8FEF88169806A806B80631F0C1E02D
:100ED0008C149D04AE04BF0408F0C0E080E00E94C2
:100EE000E818BECFD0E0C0E0CFCFCF92DF92EF9234
:100EF000FF920F931F93CF93DF938F3F910511F0D4
:100F000008F051C020913A0630913B06233031055C
:100F100039F020913A0630913B062130310531F409
:100F200024E030E030933B0620933A066A017B01CF
:100F3000EC0183309105A8F011E0AE01C701B601C4
:100F40000E94B318AB01BC01CE011123F9F0DF916F
:100F5000CF911F910F91FF90EF90DF90CF900C9465
:100F60007B1F8C01000F111F035E1A4FD8018D915A
:100F70009C91892B09F30E94851F0297E9F6D801FD
:100F8000ED91FC91CE011995182FD7CF0E949D1F8E
:100F900090E080E0DF91CF911F910F91FF90EF9053
:100FA000DF90CF9008958FEF9FEFF4CF80E00C9407
:100FB000E818CF93DF9386E090E090933B06809310
:100FC0003A060E944119EC01EDE1F5E086E0DF010F
:100FD0001D928A95E9F70E94E71C10923B06109239
:100FE0003A06CE01DF91CF91089580913C06089595
:100FF0008091250608956093D6037093D70380935C
:10100000D8039093D90390E080E00895AF92BF9207
:10101000CF92DF92EF92FF920F931F93CF93DF93C4
:10102000FC014681578181E090E030E020E0241708
:1010300035070CF444C0C481D581C817D907A4F57D
:10104000C031D10514F4C0E1D0E0C817D9070CF4C1
:101050004BC05B018F01CE01880F991F880F991F2C
:101060000E94D3437C01F801C080D180C114D10417
:10107000A1F0A501B7FE02C050E040E0440F551FAB
:10108000440F551FB601C7010E94F844F80180853E
:10109000882319F0C6010E946F44F801F182E082B2
:1010A000D583C48381E08087DF91CF911F910F9119
:1010B000FF90EF90DF90CF90BF90AF900895E9013F
:1010C000CC0FDD1FA281B381AC0FBD1F0D90BC9171
:1010D000A02DEC01CA9FC001CB9F900DDA9F900D0F
:1010E00011242F5F3F4FA3CFC11520E4D2071CF47A
:1010F000CC0FDD1FAACFCFEFDFE7A7CFCF93DF93D2
:10110000DC01ED91FC913097A9F0EC018081918197
:10111000009721F0208521110E946F44E881F98118
:10112000828193810E946F44888199810E946F44DB
:1011300019821882DF91CF9108952F923F926F927A
:101140007F928F929F92AF92BF92CF92DF92EF9257
:10115000FF920F931F93CF93DF9300D000D0CDB7B2
:10116000DEB71B013C0189014E835D8320E030E046
:10117000A901B8018E819D810E94AB38811125C0E3
:1011800020E030E0A901B101C3010E94AB388823FF
:1011900009F46BC061017301B601C70126960FB651
:1011A000F894DEBF0FBECDBFDF91CF911F910F919D
:1011B000FF90EF90DF90CF90BF90AF909F908F9077
:1011C0007F906F903F902F900895B101C3010E94CE
:1011D000B017882349F0C090E10DD090E20DE09067
:1011E000E30DF090E40DD8CFB8018E819D810E946F
:1011F000B0178111F0CFB101C3010E946B178111AB
:10120000EACF20E030E0A901B101C3010E94AB3870
:1012100081110BC098014E815D8160E070E0CB01CF
:101220000E94AF386B017C01B7CFB8018E819D81E0
:101230000E946B178823E9F020E030E0A901B80193
:101240008E819D810E94AB38F82EFF1CFF24FF1C6D
:1012500020E030E0A901B101C3010E94AB38881F32
:101260008827881FF81609F495CF6801EE80FD8065
:1012700093CF98014E815D81B101C3010E949F39D6
:101280006B017C01BB24B39420E030E0A9010E94F3
:10129000AB388111B12C20E030E0A901B601C701C3
:1012A0000E94AB38882309F447C0B8018E819D8124
:1012B0000E9485399B01AC01B8018E819D810E94FD
:1012C0009B3A1816CCF598014E815D81B101C3019E
:1012D0000E94AF384B015C01E894B7F820E030E0A1
:1012E00040E05FE3C501B4010E9447380E948539A0
:1012F0009B01AC01C501B4010E9446389B01AC01C1
:101300005F7729833A834B835C8320E030E040E8B9
:1013100055E2C501B4010E949F3A9B01AC01BB2478
:10132000B39469817A818B819C810E949B3A1816C3
:101330000CF0B12C81E0B82620E030E0A901BB2000
:1013400031F0B8018E819D810E949F3A6BCFB1012F
:10135000C3010E94AB38B82EBB1CBB24BB1C20E0D1
:1013600030E0A901B8018E819D810E94AB38881FB1
:101370008827881FB81609F40FCF98014E815D8128
:10138000B601C7010E9447384DCF0F931F93CF93EB
:10139000DF938C0189E090E00E94D343EC01F801D7
:1013A000918380831982188282E090E09F838E83EC
:1013B00084E090E00E94D3439B838A831D821C8239
:1013C00021E02887FC011182108213821282DF91B2
:1013D000CF911F910F910895FC0191E08091F2054A
:1013E000811190E0928308952F923F924F925F92E5
:1013F0006F927F928F929F92AF92BF92CF92DF9225
:10140000EF92FF920F931F93CF93DF93CDB7DEB789
:101410002E970FB6F894DEBF0FBECDBF8091F205B8
:101420009091F105911105C091E0811190E09093A8
:10143000F3058F5F823308F0EFC08093F20560916F
:1014400016027091170280911802909119029B0167
:10145000AC010E9447382BED3FE049E450E40E9484
:101460009F3AE091FB05F091FC052081318142819A
:1014700053810E949F3A2091B2033091B30340916F
:10148000B4035091B5030E9447380E94023B20915B
:10149000AA033091AB034091AC035091AD030E947D
:1014A0009F3A2091AE033091AF034091B003509129
:1014B000B1030E9447382091B6033091B7034091A1
:1014C000B8035091B9030E949F3A6093990D7093AD
:1014D0009A0D80939B0D90939C0D60939D0D70933E
:1014E0009E0D80939F0D9093A00D2091D00C309174
:1014F000D10C4091D20C5091D30C2093A10D30937C
:10150000A20D4093A30D5093A40D0E9446386B0189
:101510007C01C092A50DD092A60DE092A70DF0928D
:10152000A80D2091A6033091A7034091A8035091E4
:10153000A90360E070E08FE793E40E94AF38A70151
:1015400096010E949F3A0E9485396093BD0D709369
:10155000BE0D8093BF0D9093C00D0E94B0178823DD
:1015600009F45DC01092BD0D1092BE0D1092BF0D1A
:101570001092C00DC090BD0DD090BE0DE090BF0D7B
:10158000F090C00D20E030E0A901C701B6010E9433
:10159000AB3887FF67C0C701B60190580E941C395D
:1015A00000271127061B170BB80117FF04C0662779
:1015B0007727601B710B072E000C880B990B0E947C
:1015C0004A392091A2033091A3034091A403509182
:1015D000A5030E9447386B017C01C092C10DD092D7
:1015E000C20DE092C30DF092C40D8090BE039090A6
:1015F000BF03A090C003B090C103A50194010E9455
:101600009B3A1816ACF58092C10D9092C20DA09233
:10161000C30DB092C40D3CC01092F20510CF609182
:10162000BD0D7091BE0D8091BF0D9091C00D0E94B7
:101630006B17811197CF6091BD0D7091BE0D809198
:10164000BF0D9091C00D20E030E040E857E40E94CB
:101650009F396093BD0D7093BE0D8093BF0D909325
:10166000C00D88CFC701B6010E941C398B019CCFE9
:101670008090C2039090C303A090C403B090C503B0
:10168000A5019401C701B6010E94AB3887FDBBCF0D
:101690002091C10D3091C20D4091C30D5091C40DE8
:1016A0006091C6037091C7038091C8039091C903EC
:1016B0000E9446389F776093D10D7093D20D80932E
:1016C000D30D9093D40D67E070E080E090E00E942D
:1016D00071019093C90C8093C80C8091D2039091B2
:1016E000D303081719070CF409C28091D10D90910A
:1016F000D20DA091D30DB091D40D8093BD0D9093D8
:10170000BE0DA093BF0DB093C00D6091BD0D709143
:10171000BE0D8091BF0D9091C00D0E9485396093E0
:10172000BD0D7093BE0D8093BF0D9093C00D0E94B0
:10173000B017882309F4EBC11092BD0D1092BE0DB5
:101740001092BF0D1092C00DC090BD0DD090BE0D77
:10175000E090BF0DF090C00D20E030E0A901C7017E
:10176000B6010E94AB3887FFF5C1C701B60190589A
:101770000E941C39619570E090E080E00E944A3937
:10178000AB01BC018091C80C9091C90C0E943A0138
:1017900066E070E080E090E00E9471019093C10CDF
:1017A0008093C00C8091D4039091D503081719073A
:1017B00084F08091C6039091C703A091C803B091B3
:1017C000C9038093D10D9093D20DA093D30DB09304
:1017D000D40D6091D10D7091D20D8091D30D909167
:1017E000D40D0E9485396093BD0D7093BE0D80931A
:1017F000BF0D9093C00D0E94B017882309F4AFC1AC
:101800001092BD0D1092BE0D1092BF0D1092C00D22
:10181000C090BD0DD090BE0DE090BF0DF090C00DFA
:1018200020E030E0A901C701B6010E94AB3887FF74
:10183000B9C1C701B60190580E941C39619570E08A
:1018400090E080E00E944A39AB01BC018091C00C5D
:101850009091C10C0E943A018091F305882381F098
:101860008091600D9091610DA091620DB091630D1A
:101870008093A90D9093AA0DA093AB0DB093AC0DDE
:10188000E091FB05F091FC0580819181A281B381FB
:101890008093AD0D9093AE0DA093AF0DB093B00DAE
:1018A0008FEF9FEFDC0180938C0D90938D0DA093B3
:1018B0008E0DB0938F0D8091940D811167C0609152
:1018C0001202709113028091140290911502E0901F
:1018D0008A0DF0908B0DD70112960D911C91F80195
:1018E0004081518122813381429F5001439FB00C3E
:1018F000529FB00C112421E030E03183208320E09E
:1019000030E040E850E40E949F3A20E030E040E8B8
:101910005FE30E9447380E9417392B01D8011396C4
:101920007C936E931297B501C70170DB14141504F4
:101930007CF4A201440F551F440F551FE0918A0DFE
:10194000F0918B0D70E060E0808191810E940145F3
:10195000E0918A0DF0918B0D0280F381E02D81E002
:1019600022813381232B09F480E08093940D80E061
:1019700090E0A0E8BFE38093780D9093790DA09359
:101980007A0DB0937B0D81E08093950D20E030E0DF
:1019900040E85FE36091700D7091710D8091720D60
:1019A0009091730D0E9447386093700D7093710D84
:1019B0008093720D9093730DC0901202D090130219
:1019C000E0901402F090150220E030E040E85FE380
:1019D0000E944638A7019601B0DB20E030E0A90163
:1019E0000E94AB38811116C020E030E040E85FE390
:1019F0006091740D7091750D8091760D9091770DB9
:101A00000E9447386093740D7093750D8093760D26
:101A10009093770D4090740D5090750D6090760DF9
:101A20007090770DC0901202D0901302E0901402D3
:101A3000F090150220E030E040E85FE3C301B2011E
:101A40000E944638A70196010E949F3A9B01AC0173
:101A50006091700D7091710D8091720D9091730D68
:101A60000E94463820E030E040E85FE30E944638BC
:101A70004B015C018092BD0D9092BE0DA092BF0DF6
:101A8000B092C00D20E030E040E050E4C301B2016C
:101A90000E94AB3887FFC0C120E030E0A901C5013A
:101AA000B4010E94AB38811182C08091680D909181
:101AB000690DA0916A0DB0916B0D80936C0D9093A0
:101AC0006D0DA0936E0DB0936F0D8091A90D909147
:101AD000AA0DA091AB0DB091AC0D8093680D9093C1
:101AE000690DA0936A0DB0936B0D8093B10D909327
:101AF000B20DA093B30DB093B40D61C08091C60335
:101B00009091C703A091C803B091C903F6CD60912D
:101B1000BD0D7091BE0D8091BF0D9091C00D0E94C2
:101B20006B17811109CE6091BD0D7091BE0D809132
:101B3000BF0D9091C00D20E030E040E853E40E94DA
:101B40009F396093BD0D7093BE0D8093BF0D909330
:101B5000C00DFACDC701B6010E941C390CCE6091B0
:101B6000BD0D7091BE0D8091BF0D9091C00D0E9472
:101B70006B17811145CE6091BD0D7091BE0D8091A6
:101B8000BF0D9091C00D20E030E040E853E40E948A
:101B90009F396093BD0D7093BE0D8093BF0D9093E0
:101BA000C00D36CEC701B6010E941C3948CE109236
:101BB000B10D1092B20D1092B30D1092B40D0091B0
:101BC0008A0D10918B0DC090B10DD090B20DE090A8
:101BD000B30DF090B40D6091780D7091790D8091F6
:101BE0007A0D90917B0D0E9417396150704C660FF1
:101BF000771F660F771FD8018D919C911197680F01
:101C0000791FFB01C082D182E282F3821296ED91AC
:101C1000FC9162817381072E000C880B990B0E9446
:101C20004A399B01AC016091780D7091790D8091DA
:101C30007A0D90917B0D81DA20E030E040E85FE39F
:101C40000E9447386093780D7093790D80937A0DD8
:101C500090937B0D60E070E0CB0137D80E944A3949
:101C60006B017C01C092B50DD092B60DE092B70D1C
:101C7000F092B80D2091CE033091CF034091D00364
:101C80005091D1030E949F3A2091F305222341F005
:101C9000C092640DD092650DE092660DF092670DD2
:101CA000E0EDFCE0048115812681378101931193D9
:101CB000219331932DE0EC35F207A1F760935C0D91
:101CC00070935D0D80935E0D90935F0DC090D40571
:101CD000D090D505E090D605F090D7058FEFC81AC3
:101CE000D80AE80AF80AC092D405D092D505E09245
:101CF000D605F092D705C114D104E104F10499F49A
:101D00008091D8059091D905A091DA05B091DB05B5
:101D10000196A11DB11D8093D8059093D905A0937C
:101D2000DA05B093DB058090DC059090DD05A0908E
:101D3000DE05B090DF050091FB051091FC05609178
:101D4000D8057091D9058091DA059091DB050E9444
:101D50004839A50194010E949F3A20E030E040E814
:101D60005FE40E949F3A2B013C01C701B6010E942B
:101D70004839A50194010E949F3A9B01AC01C3011F
:101D8000B2010E944738D8016D937D938D939C9347
:101D900013978091E0059091E105A091E205B09143
:101DA000E3050196A11DB11D8093E0059093E10527
:101DB000A093E205B093E305892B8A2B8B2B99F432
:101DC0008091E4059091E505A091E605B091E705C5
:101DD0000196A11DB11D8093E4059093E505A093A4
:101DE000E605B093E7052E960FB6F894DEBF0FBE5A
:101DF000CDBFDF91CF911F910F91FF90EF90DF90BA
:101E0000CF90BF90AF909F908F907F906F905F909A
:101E10004F903F902F90089520E030E040E450E450
:101E2000C301B2010E94AB3887FF58C0C090680D53
:101E3000D090690DE0906A0DF0906B0D20E030E0DD
:101E4000A901C501B4010E94AB38811109C0C0923B
:101E50006C0DD0926D0DE0926E0DF0926F0D35CE3F
:101E6000C501B4010E941739615071098B01000F3F
:101E7000111FD801AA0FBB1FAA0FBB1FA25EBD4F27
:101E800020916C0D30916D0D40916E0D50916F0D44
:101E90006D917D918D919C910E949F3A4B015C01C7
:101EA000F801EE0FFF1FEE0FFF1FE65EFD4F2081D2
:101EB000318142815381C701B6010E949F3A9B0143
:101EC000AC01C501B4010E9447386093B10D709315
:101ED000B20D8093B30D9093B40D71CE20E030E03D
:101EE000A901C501B4010E94AB38882309F4DDCDF6
:101EF000E0918A0DF0918B0D0280F381E02D6281DB
:101F00007381072E000C880B990B0E944A394B01F4
:101F10005C01A7019601C701B6010E9447389B01E9
:101F2000AC016091780D7091790D80917A0D90914E
:101F30007B0D0E944638A5019401FFD820E030E0D7
:101F400040E85FE30E9447386093D10D7093D20D53
:101F50008093D30D9093D40DCE01039616DACE0163
:101F6000019613DA6091D10D7091D20D8091D30D4D
:101F70009091D40DF5D7882351F18B819C81DC01A0
:101F80001296ED91FC914081518122813381429FD3
:101F9000B001439F700D529F700D112421E030E07D
:101FA000318320833383228331D88091E10D909156
:101FB000E20DA091E30DB091E40DEB81FC81019065
:101FC000F081E02D80839183A283B38374C06091FC
:101FD0001202709113028091140290911502C0D7E1
:101FE0008111CBCF20E030E040E85FE36091780DD5
:101FF0007091790D80917A0D90917B0D0E944638F9
:10200000AFD78111BACF8090120290901302A090A6
:102010001402B090150220E030E0A901C501B4011E
:102020000E94AB388823E1F1C090D10DD090D20D41
:10203000E090D30DF090D40D20E030E040E85FE375
:102040006091780D7091790D80917A0D90917B0D52
:102050000E9446382B013C01AC019B01C701B6012F
:102060000E94AB3887FF09C020E030E0A901C5011C
:10207000B4010E94AB3887FD13C0A3019201C701D0
:10208000B6010E949B3A18160CF012C120E030E015
:10209000A901C501B4010E949B3A18160CF008C1B1
:1020A000EB81FC810280F381E02D81E090E091835F
:1020B000808313821282CE01019620D8CE0105962C
:1020C00064D98D819E81DC011296ED91FC91408155
:1020D000518122813381429FB001439F700D529FF5
:1020E000700D112421E030E031832083AB81BC816D
:1020F00012960D90BC91A02D1296AD90BC90B3821B
:10210000A2820E94060860908A0D70908B0DCB8091
:10211000DC80ED80FE8010E000E00A151B050CF469
:1021200015C4D6011296ED91FC9182819381823083
:102130009105D4F19C0135952795F701A081B181D6
:10214000880F991F880F991F8D01080F191F90E0A4
:1021500080E04D915D916D917D914093D10D5093B3
:10216000D20D6093D30D7093D40DF801F290E290EC
:10217000D290C2908F01AD0144505109FA01C08242
:10218000D182E282F3824091D10D5091D20D6091C3
:10219000D30D7091D40DF801408351836283738312
:1021A000019628173907A9F6CE0103960E947E08EA
:1021B0006091BD0D7091BE0D8091BF0D9091C00DCD
:1021C0000E941739615071097B01EE0CFF1CED81F3
:1021D000FE8100811181D701AA0FBB1FAA0FBB1F6F
:1021E000A25EBD4F20916C0D30916D0D40916E0D32
:1021F00050916F0D6D917D918D919C910E949F3AB0
:102200004B015C01F701EE0FFF1FEE0FFF1FE65EB3
:10221000FD4F2091680D3091690D40916A0D5091EC
:102220006B0D60817181828193810E949F3A9B0135
:10223000AC01C501B4010E9447386B017C012091BB
:102240000A0230910B0240910C0250910D02D8010C
:102250006D917D918D919C910E949F3A4B015C0103
:1022600020910E0230910F02409110025091110204
:10227000F80164817581868197810E949F3A9B0154
:10228000AC01C501B4010E9447389B01AC01C701F4
:10229000B6010E9446386093B10D7093B20D8093E1
:1022A000B30D9093B40DCE0105960E947E0887CCA5
:1022B000C701B60110D6882331F1609112027091E6
:1022C0001302809114029091150205D6811155CE0A
:1022D00020E030E040E85FE36091780D7091790D87
:1022E00080917A0D90917B0D0E9446382091D10DFE
:1022F0003091D20D4091D30D5091D40D0E94AB3846
:10230000811112C03ACE20E030E040E85FE36091F6
:10231000780D7091790D80917A0D90917B0D0E94CE
:102320004638D9D58111C9CF60911202709113023C
:102330008091140290911502CED5882311F18B81E2
:102340009C81DC011296ED91FC91408151812281AA
:102350003381429FB001439F700D529F700D112435
:1023600021E030E031832083338322830E940608FA
:102370008091D10D9091D20DA091D30DB091D40D3B
:102380001CCEC090D10DD090D20DE090D30DF09026
:10239000D40DC701B6010E9485396B877C878D8774
:1023A0009E878090120290901302A0901402B09029
:1023B000150220E030E040E85FE36091780D709115
:1023C000790D80917A0D90917B0D0E9446386F8334
:1023D000788789879A87A70196010E944638A501C8
:1023E00094010E94AF382B013C012B853C854D8523
:1023F0005E85C701B6010E94AB38811166C0C50178
:10240000B4010E948539A50194010E94AB38811165
:102410005CC0CB80DC80F601E280F380D7012D9197
:102420003C91119712968D919C911397289F500182
:10243000299FB00C389FB00C112481E090E08D935F
:102440009C93C301B2010E9417398B016F5F7F4FCC
:10245000F70173836283B501C6010E9406088B8071
:102460009C80D12CC12CF12CE12C0E151F050CF4F5
:1024700022CED401AD90BC90AC0CBD1CB7010F2C8A
:10248000000C880B990B0E944A392091120230915E
:10249000130240911402509115020E949F3A20911C
:1024A000D10D3091D20D4091D30D5091D40D0E9499
:1024B0004738F5016083718382839383FFEFEF1ABE
:1024C000FF0A24E0C20ED11CD0CF20E030E040E073
:1024D0005FE3C301B2010E9447380E9485396093CF
:1024E000C50D7093C60D8093C70D9093C80DA501BF
:1024F00094010E949F3AA70196010E9447382B0140
:102500003C014092C90D5092CA0D6092CB0D709261
:10251000CC0D20E030E0A901C501B4010E949B3A36
:1025200018160CF053C12F81388549855A85C3018F
:10253000B2010E9446386093CD0D7093CE0D80930A
:10254000CF0D9093D00DC701B6019F776093C10D59
:102550007093C20D8093C30D9093C40DCF80D88427
:10256000E984FA84E894F7F8A70196010E949B3A5F
:1025700087FD33C1C090C10DD090C20DE090C30D56
:10258000F090C40D4090CD0D5090CE0D6090CF0DC9
:102590007090D00D8090C50D9090C60DA090C70D85
:1025A000B090C80DD301C201BF778F839887A987E8
:1025B000BA8720E030E040E056E2C701B6010E9451
:1025C0009F3A9B01AC016F81788589859A850E942D
:1025D000AB3887FF08C120E030E040E85FE3C50189
:1025E000B4010E9447386093C50D7093C60D809367
:1025F000C70D9093C80D20E030E040E85FE36091A4
:10260000780D7091790D80917A0D90917B0D0E94DB
:1026100046386093C90D7093CA0D8093CB0D90938B
:10262000CC0DC090C50DD090C60DE090C70DF090B8
:10263000C80D20E030E0A901C701B6010E949B3A15
:102640000FEF1FEF87FD07C0C701B6010E941739C2
:102650008B010150110989819A81DC011296ED915B
:10266000FC914081518122813381429FB001439F7F
:10267000700D529F700D112421E030E031832083D2
:1026800098012F5F3F4F338322830E940608E98120
:10269000FA81F887EF8317FD63C0C080D1808091F5
:1026A000D10D9091D20DA091D30DB091D40DF60122
:1026B00080839183A283B3830115110509F450C06F
:1026C0001801220C331C220C331C2C0C3D1C809155
:1026D000C90D9091CA0DA091CB0DB091CC0DF10117
:1026E00080839183A283B3837801F594E7944601B4
:1026F000F4E08F0E911CB12CA12CC70101979C878F
:102700008B874090D10D5090D20D6090D30D70907A
:10271000D40D8B859C85A816B9060CF497C0C7010B
:10272000880F991F880F991FC80ED91E00FDD3C0AE
:102730002091C90D3091CA0D4091CB0D5091CC0D17
:10274000C301B2010E94473820E030E040E05FE37F
:102750000E949F3AD6016D937D938D939C9313971E
:102760008B819C81DC011296ED91FC91408151811D
:1027700022813381429FB001439F700D529F700DA3
:10278000112421E030E031832083AF81B885129697
:102790002D913C91D90112960D911C9113830283C6
:1027A0000E940608101611060CF085CCEB81FC8106
:1027B000A801440F551F440F551FA981BA816D917F
:1027C0007C91808191810E94F84475CCA301920193
:1027D0006F81788589859A85ACCEC701B601C0D353
:1027E0008111C8CECFCE20E030E0A901C301B201F3
:1027F0000E949B3A20E030E040E85FE31816CCF4FA
:10280000C501B4010E944638209112023091130292
:1028100040911402509115020E949F3A2091D10DCF
:102820003091D20D4091D30D5091D40D0E94473874
:10283000F0CEC501B4010E9447386093C50D709376
:10284000C60D8093C70D9093C80DEBCEB5010B2C30
:10285000000C880B990B0E944A3920E030E040E8D8
:102860005FE30E9447382091120230911302409199
:102870001402509115020E949F3A6093C10D70930B
:10288000C20D8093C30D9093C40DA30192010E94C9
:102890004738D4016D937D938D939D934D01209185
:1028A000C10D3091C20D4091C30D5091C40D609186
:1028B000C90D7091CA0D8091CB0D9091CC0D0E94E5
:1028C0004638F10192938293729362931F01FFEF56
:1028D000AF1ABF0A16CFB701FF0C880B990B0E94E5
:1028E0004A39209112023091130240911402509102
:1028F00015020E949F3A6093C10D7093C20D8093A0
:10290000C30D9093C40DA30192010E944738F601B4
:1029100060837183828393832091C10D3091C20DB6
:102920004091C30D5091C40D6091C90D7091CA0DB5
:102930008091CB0D9091CC0D0E944638D601149613
:102940006D937D938D939C9317970ACF4801880CC4
:10295000991C880C991CD601ED91FC91E80DF91D8C
:1029600060817181828193810E9417396150704C1E
:10297000660F771F660F771FF30180819181680FC3
:10298000791FDB014D915D916D917C91F701808103
:102990009181880E991ED4014D935D936D937C9324
:1029A00013970F5F1F4FB9CB8091640D9091650D08
:1029B000A091660DB091670D8093B90D9093BA0DFB
:1029C000A093BB0DB093BC0D8093600D9093610DEF
:1029D000A093620DB093630D8091E8059091E90595
:1029E000A091EA05B091EB050196A11DB11D809360
:1029F000E8059093E905A093EA05B093EB05892BD0
:102A00008A2B8B2B99F48091EC059091ED05A09188
:102A1000EE05B091EF050196A11DB11D8093EC0567
:102A20009093ED05A093EE05B093EF0508958F9276
:102A30009F92AF92BF92EF92FF920F931F93CF930B
:102A400084E090E011D2E9E3F5E080EDDF011D9232
:102A50008A95E9F788EF95E09093400580933F05CC
:102A60008BEF95E090937A05809379058CED95E056
:102A700090934E0580934D05F093A405E093A30534
:102A8000F0933E05E0933D0581E090E09093F905D9
:102A90008093F80583E294E0909344058093430586
:102AA0002DEF35E03093FC052093FB0580E090E0AE
:102AB000A0E2B1E48093F4059093F505A093F605A8
:102AC000B093F7058FE692E1A3E0BBE38093DC05CA
:102AD0009093DD05A093DE05B093DF0581E49AEEC7
:102AE000A9E6B7E38093C2059093C305A093C405FC
:102AF000B093C5058FED91E9AEEFBDED8093C605AE
:102B00009093C705A093C805B093C9058EE29EEBCC
:102B1000AEE0B7E98093CA059093CB05A093CC05AE
:102B2000B093CD058CED9EE2A6E3B0ED8093CE058B
:102B30009093CF05A093D005B093D1058DE295E099
:102B400090933C0580933B0583E295E090932E059E
:102B500080932D0585E394E09093240580932305CD
:102B6000909326058093250590932805809327054B
:102B700090932A058093290590932C0580932B052B
:102B800082ED95E0909332058093310582EC95E0DB
:102B90009093300580932F053093340520933305AF
:102BA000E9E9FDE08CE3DF011D928A95E9F7EAEBA4
:102BB000FCE08FEDDF011D928A95E9F7C1E0C0933B
:102BC000980D812C912C540183948092C30C909287
:102BD000C40CA092C50CB092C60CE12CF12C87015C
:102BE000A801970167E070E080E090E00E94B501E5
:102BF0009093C90C8093C80CC093C70C1092BA0C68
:102C0000C093970D8092BB0C9092BC0CA092BD0C0F
:102C1000B092BE0CA801970166E070E080E090E001
:102C20000E94B5019093C10C8093C00CC093BF0C5F
:102C30008091CA039091CB03A091CC03B091CD03B6
:102C40008093A90D9093AA0DA093AB0DB093AC0DFA
:102C50008AE89DE00E94C5091092CA0CC093960DA7
:102C60008092CB0C9092CC0CA092CD0CB092CE0C5A
:102C700043E050E062E070E090E080E00E94710587
:102C8000C093CF0C8091BA039091BB03A091BC0379
:102C9000B091BD03E0EDFCE081939193A193B193DA
:102CA0002DE0E036F207C1F78091CA039091CB0383
:102CB000A091CC03B091CD038093600D9093610DF2
:102CC000A093620DB093630D1092940D1092950D28
:102CD0001092680D1092690D10926A0D10926B0D92
:102CE00010926C0D10926D0D10926E0D10926F0D72
:102CF00081E08093910D1092700D1092710D1092E1
:102D0000720D1092730D8093920D1092740D1092AB
:102D1000750D1092760D1092770D8093930D109291
:102D2000900D8FEF9FEFDC0180938C0D90938D0DB4
:102D3000A0938E0DB0938F0DCF911F910F91FF90A7
:102D4000EF90BF90AF909F908F9008958091C20CAC
:102D500081112EC081E08093C20C8091C30C9091B0
:102D6000C40CA091C50CB091C60C0197A105B1058A
:102D7000F9F48091C70C8823D9F067E070E080E017
:102D800090E00E9471019093C90C8093C80C40E0C0
:102D900050E0BA010E943A0167E070E080E090E004
:102DA0000E9471019093C90C8093C80C0E94060286
:102DB0008091BA0C81112EC081E08093BA0C809171
:102DC000BB0C9091BC0CA091BD0CB091BE0C0197B6
:102DD000A105B105F9F48091BF0C8823D9F066E014
:102DE00070E080E090E00E9471019093C10C8093AC
:102DF000C00C40E050E0BA010E943A0166E070E089
:102E000080E090E00E9471019093C10C8093C00C0F
:102E10000E9406028AE89DE00E947E088091CA0C0A
:102E2000811103C081E08093CA0C089560E070E0D6
:102E300080E89FE7089560E070E080E89FE70895EC
:102E400060E070E080E89FEF089560E070E080E867
:102E50009FEF089560E070E080EC9FEF089560E0E0
:102E600070E080EC9FEF0895F5DF6093E10D7093C3
:102E7000E20D8093E30D9093E40DF1DF6093D50DA7
:102E80007093D60D8093D70D9093D80DCFDF6093BC
:102E9000DD0D7093DE0D8093DF0D9093E00DCBDFA1
:102EA0006093D90D7093DA0D8093DB0D9093DC0D58
:102EB000C7DF6093E50D7093E60D8093E70D909367
:102EC000E80DC3DF6093E90D7093EA0D8093EB0D7D
:102ED0009093EC0D0895CF92DF92EF92FF92CF93F3
:102EE0006B017C01AC019B016091DD0D7091DE0DE9
:102EF0008091DF0D9091E00D0E94AB38C1E08823F6
:102F000071F0A70196016091E50D7091E60D809139
:102F1000E70D9091E80D0E94AB388111C0E08C2F35
:102F2000CF91FF90EF90DF90CF9008950F931F9374
:102F30008B019C010027112720783F77011511058F
:102F400020483F4749F4AB01BC016F77772781E008
:102F5000452B462B472B09F480E01F910F910895D4
:102F6000E5CF4F925F926F927F928F929F92AF9236
:102F7000BF92CF92DF92EF92FF920F931F93F8943C
:102F8000409015065090160660901706709018062F
:102F9000C0900906D0900A06E0900B06F0900C064F
:102FA0004130510509F0A4C09B01AC012419350939
:102FB0004609570929013A0100911106109112069C
:102FC000209113063091140648015901840C951C78
:102FD000A61CB71C80169106A206B306A0F40091A9
:102FE0000D0610910E0620910F06309110060F5F0E
:102FF0001F4F2F4F3F4F00930D0610930E06209347
:103000000F06309310068092110690921206A0923D
:103010001306B092140600910D0610910E06209131
:103020000F06309110068092190690921A06A0920F
:103030001B06B0921C0600931D0610931E062093DB
:103040001F06309320066093150670931606809332
:10305000170690931806A0EDB7E0A30192010E9415
:10306000BA436C0D7D1D8E1D9F1D609309067093E4
:103070000A0680930B0690930C060091D6031091DC
:10308000D7032091D8033091D9030F3F1F4F2F4F03
:103090003F4FF1F00091D6031091D7032091D80350
:1030A0003091D9030E3F1F4F2F4F3F4F89F0C090F3
:1030B000D603D090D703E090D803F090D90321E055
:1030C0008C149D04AE04BF0408F420E02093250670
:1030D00078941F910F91FF90EF90DF90CF90BF9069
:1030E000AF909F908F907F906F905F904F900895DA
:1030F0004B015C0184189508A608B708A30192014A
:10310000261B370B480B590B64157505860597056B
:10311000D0F082169306A406B50640F420E030E015
:10312000A90181149104A104B10491F4A0EDB7E0C8
:103130000E94BA43A7019601261B370B480B590B77
:10314000CA01B901C5CF82169306A406B50670F769
:10315000A0EDB7E0A50194010E94BA436C0D7D1D5E
:103160008E1D9F1DB5CFFDCECF93DF9300D01F9254
:10317000CDB7DEB71C821B821A82198210922106FB
:10318000109222061092230610922406BE016F5F51
:103190007F4FCE0103960E949E3569817A818B8193
:1031A0009C810E94BC2E009761F4BE016F5F7F4F2F
:1031B000CE0103960E94AA3569817A818B819C8118
:1031C00032D50F900F900F900F90DF91CF9108950F
:1031D000FF920F931F93CF93DF93082F60E070E06F
:1031E000CB010E94B93DFF24F3940E94A52DEC0170
:1031F000892B89F010E0CE3F8FEFD80769F00023CC
:1032000061F160E070E0CB010E94B93D81E090E0A7
:10321000892B59F322C011E029D5EC01892B21F02B
:10322000CE3F8FEFD80759F711111EC011E022963B
:1032300009F410E00E94552DEC01892B21F0CE3FBE
:103240008FEFD807E1F6111111C011E0CE3F8FEFDB
:10325000D80709F410E001110BC0CE01DF91CF9126
:103260001F910F91FF90089511E0E4CF11E0F3CF8B
:1032700060E070E0CB010E94B93D1F25812F90E0F6
:10328000C7CFCF93DF9380912506882321F060E09C
:1032900070E0CB0150D639D6D0E0C0E0892B71F078
:1032A0006AE070E080E090E00E94B93D81E090DF4C
:1032B0002CD62196C03D27E0D20781F72BD60E945D
:1032C000102F10923D0610923C0610923606109276
:1032D0003706109238061092390610923206109274
:1032E0003306109234061092350610922E06109274
:1032F0002F06109230061092310610922A06109274
:103300002B0610922C0610922D0610922606109273
:10331000270610922806109229064EEF5FEF6FEFF6
:103320007FEF4093D6035093D7036093D8037093F5
:10333000D90310922506E9E1F6E028E0DF011D92AD
:103340002A95E9F7109215061092160610921706A4
:10335000109218061092110610921206109213067F
:103360001092140610920D0610920E0610920F067F
:10337000109210061092090610920A0610920B067F
:1033800010920C06DF91CF91089510924906109289
:103390004A0610924B0610924C06109248068091F5
:1033A00051069091520690934706809346061092DC
:1033B0004506109244061092400610924106109263
:1033C00042061092430610924E0610924D0690E06F
:1033D00080E00895CF92DF92EF92FF920F931F93B8
:1033E000CF938C01019709F055C02091510630917F
:1033F00052068091460690914706409151065091A1
:10340000520650934706409346062817390781F025
:103410001092450610924406109240061092410602
:10342000109242061092430610924E0610924D06DC
:103430008091510690915206019761F580914D0659
:1034400090914E06892B21F48091DA03811112C0EC
:1034500080914D0690914E060197E1F480914006CF
:1034600090914106A0914206B09143060197A105B3
:10347000B10581F410924006109241061092420666
:10348000109243061092DA0382E090E090934E0689
:1034900080934D068091510690915206019709F054
:1034A0001CC180916706909168068017910709F00A
:1034B00014C18091630690916406A0916506B09155
:1034C0006606009709F409C12091620621110DC01A
:1034D000409163065091640660916506709166069E
:1034E000452B462B472B09F4F8C020914D0630910F
:1034F0004E062230310509F0F0C02091440621111A
:10350000ECC0FC01C080D180E280F380809148064D
:10351000882309F4D3C08091540690915506892BD5
:1035200009F4FEC0209154063091550681E0223006
:10353000310509F080E02091540630915506C1E034
:103540002130310549F02091540630915506C1E0F3
:103550002230310509F0C0E0882309F456C02091DB
:103560005E0630915F064091600650916106C7018A
:10357000B6010E949B3A87FD14C020915E063091EF
:103580005F06409160065091610660914906709116
:103590004A0680914B0690914C060E94AB3887FDFD
:1035A00022C020915E0630915F06409160065091E6
:1035B0006106C701B6010E949B3A181634F52091A6
:1035C0005E0630915F064091600650916106609101
:1035D000490670914A0680914B0690914C060E94D4
:1035E000AB38811112C08091560690915706A09178
:1035F0005806B0915906892B8A2B8B2B19F481E040
:103600008093450681E080934406CC2309F456C09C
:1036100020915E0630915F064091600650916106F0
:10362000C701B6010E94AB3887FF14C020915E0627
:1036300030915F06409160065091610660914906A5
:1036400070914A0680914B0690914C060E949B3ADD
:1036500087FF22C020915E0630915F064091600690
:1036600050916106C701B6010E94AB38811126C096
:1036700020915E0630915F06409160065091610690
:103680006091490670914A0680914B0690914C06D4
:103690000E949B3A181694F4809156069091570612
:1036A000A0915806B0915906892B8A2B8B2B19F4BF
:1036B00081E08093450681E08093440681E090910B
:1036C0004406911180E080934806C0924906D0924A
:1036D0004A06E0924B06F0924C060130110509F0C3
:1036E00067C180914D0690914E06892BD9F41092B6
:1036F0005306109244068091DA03882379F082E021
:1037000090E090934E0680934D061092DA0320913C
:1037100051063091520681E0232BE9F080E01BC076
:1037200081E009CF1092DA0380915306882349F093
:103730001092450610924E0610924D0610925306B6
:10374000EDCF8091510690915206892BE1F0809146
:1037500044061092440620914D0630914E062230C8
:10376000310509F45EC088F42115310509F448C01B
:103770002130310509F4F3C0109245061092440639
:103780001092530638C081E0E6CF2330310509F4AA
:10379000B1C02430310581F7409140065091410677
:1037A000609142067091430641155105610571050E
:1037B00061F04150510961097109409340065093ED
:1037C0004106609342067093430640914006509133
:1037D00041066091420670914306452B462B472BCC
:1037E000D9F420914F06309150062130310509F06F
:1037F00046C01092450610924E0610924D060CC01F
:103800008091DA03882341F082E090E090934E06A5
:1038100080934D061092DA0310923E068091450681
:10382000CEC08823C9F38091560690915706A09187
:103830005806B0915906181619061A061B060CF000
:103840007DC08091510690915206019709F076C093
:103850008091560690915706A0915806B09159064E
:103860008093400690934106A0934206B09343068E
:1038700083E090E090934E0680934D06CDCF40912B
:103880005A0650915B0660915C0670915D06452B6F
:10389000462B472BA9F01092450680915A0690912D
:1038A0005B06A0915C06B0915D0680934006909304
:1038B0004106A0934206B093430681E090E0DACF40
:1038C000882399F08091DB039091DC03A091DD03C4
:1038D000B091DE038093400690934106A093420688
:1038E000B093430684E090E0C5CF1092450682E095
:1038F00090E0C0CF8091400690914106A091420691
:10390000B09143060097A105B10559F00197A109AF
:10391000B1098093400690934106A0934206B0936C
:1039200043068091400690914106A0914206B091D5
:103930004306892B8A2B8B2B09F06ECF8091DB03FA
:103940009091DC03A091DD03B091DE03892B8A2BDB
:103950008B2B09F44ECF81E080934506B3CF409185
:103960004006509141066091420670914306411510
:1039700051056105710561F04150510961097109F5
:10398000409340065093410660934206709343066D
:103990004091400650914106609142067091430665
:1039A000452B462B472B09F037CF8111C7CF9FCF2F
:1039B00080913E06882309F431CF80913F06CF9154
:1039C0001F910F91FF90EF90DF90CF90089510928C
:1039D000490610924A0610924B0610924C0610921D
:1039E000480610924E0610924D061092470610920D
:1039F00046061092680610926706109245061092CD
:103A0000440610924006109241061092420610920F
:103A1000430610923F0610923E06109263061092E3
:103A20006406109265061092660610926206109265
:103A30005E0610925F06109260061092610688EE94
:103A400093E0A0E0B0E08093DB039093DC03A093CD
:103A5000DD03B093DE0310925A0610925B061092BB
:103A60005C0610925D061092560610925706109250
:103A7000580610925906109255061092540681E08D
:103A80008093DA0310925306109252061092510658
:103A90001092500610924F0690E080E008958091B9
:103AA000510690915206892B19F58091DA038823EB
:103AB00051F080915306811106C081E080933F064A
:103AC00080933E060895209153063091DA0381E0F9
:103AD00090E0332311F090E080E030E082239323E4
:103AE000892B21F010923F0681E0EACF10923E062A
:103AF000089582E090E0FA01918380838FEF9FEF39
:103B00000895CF93DF93EA01009711F00E942A30C5
:103B10001982188290E080E0DF91CF910895DB0157
:103B2000009719F48FEF8C9308952EEF2C93FC01DE
:103B30007096E031F10508F037C08827ED55F24E58
:103B40008F4F0C94B243D21DD01DCE1DCC1DCA1D6B
:103B5000C81DC41DC61DC21DC01DBE1DBB1DB71D79
:103B6000B31DB91DD41D80E311968C93089589E28D
:103B7000FBCF82E2F9CF11961C92089583E2F4CF35
:103B800081E2F2CF81E1F0CF87E2EECF8AE2ECCFA3
:103B900080E1EACF84E2E8CF88E2E6CF86E2E4CFB4
:103BA00081E3E2CF83E3E0CF80E2DECF8091750650
:103BB0009091760608959093760680937506089501
:103BC00080917406089590917406892B80937406F1
:103BD0000895982F90958091740689238093740698
:103BE00008958091730608958091710690917206F0
:103BF00008956115710559F0FB0130E020E070E097
:103C000060E02417350719F06115710511F0CB013B
:103C10000895A081B181A817B90709F4BF012F5FEA
:103C20003F4F3696EECF8091770681111CC060D24F
:103C300066D290936A06809369060E942C280E949F
:103C40003E2890936E0680936D060E94BD2C0E94C4
:103C5000C42C90936C0680936B0681E0809377066A
:103C600090E080E0089584EF9FEF08958F929F92F7
:103C7000AF92BF92CF92DF92EF92FF920F931F937A
:103C8000CF93DF9300D000D000D01F92CDB7DEB726
:103C90001A86198618861F821E821D821C821B822C
:103CA0001A8219828091770607EF1FEF882309F4A3
:103CB0009CC08E010D5F1F4F9E012B5F3F4FAE01D9
:103CC000495F5F4FBE01675F7F4F90E080E00E94D9
:103CD000412E8C01009721F00596029708F0DBC079
:103CE00029853A852115310509F402C1ED80FE8050
:103CF0004B815C81B701640F751F8F819885861792
:103D0000970708F4F5C0E20EF31ED7019C91903C92
:103D100009F07FC04230510508F47BC011968C91A8
:103D20004091750650917606452B09F49CC0913F51
:103D300008F071C02CE1290F2D3008F48BC02DE262
:103D4000290F203108F489C0903C21F48150823041
:103D500008F483C088E3890F8B3008F481C09FE8A2
:103D6000C92E9DE1D92EE9E7FDE16D817E81AE018D
:103D70004F5F5F4F89859A8519955C01C114D10405
:103D8000A1F189809A808114910479F18B819C81C1
:103D90008815990508F487C010E000E04B815C812C
:103DA00070E060E0C7010E94014501151105E9F4CA
:103DB00049815A8169857A858D819E81680F791F35
:103DC000C501F6011995E980FA800D811E812F81C8
:103DD000388549855A856FEF7FEF81E090E00E943A
:103DE000DC2D8C01892B09F056C0C8012A960FB62C
:103DF000F894DEBF0FBECDBFDF91CF911F910F9121
:103E0000FF90EF90DF90CF90BF90AF909F908F90FA
:103E1000089580E085CF30E020E0220F331FF901C4
:103E2000E759F94F0190F081E02D309709F497CFD1
:103E3000892F90E01995009709F491CFDC01129633
:103E4000ED91FC9113971496CD90DC90309709F08A
:103E50008CCF1FC021E030E0E0CF22E030E0DDCFAA
:103E600023E030E0DACFD12CC12CE1E8FDE19F3F27
:103E700009F07BCFE0916906F0916A06309721F452
:103E8000C90104EF1FEF0CC08FEF90E01995009768
:103E9000A9F604EF1FEF89859A85009709F4A5CF4D
:103EA0000E942A30A2CF0E940B2F8C0189859A850F
:103EB0000E942A3070E060E0C4010E94A42E98871E
:103EC0008F830E94D92D9E838D836F8178856115A4
:103ED000710559F0C8010E9489319A87898706EFD8
:103EE0001FEF892B09F058CF59CF08EF1FEF56CF9E
:103EF00008EF1FEFD0CF20917706222319F020E0A2
:103F00000C94432887EF9FEF089580917506909158
:103F1000760608950E94C92C0E94232CF5D0E9E66C
:103F2000F6E088E0DF011D928A95E9F710927706A6
:103F300090E080E008950C94802A21E040E050E079
:103F4000BA010C94432886E090E0FA0191838083C3
:103F500090E080E0089547E050E068E374E049CEE7
:103F6000DF92EF92FF920F931F93CF93DF938A011B
:103F7000EC01C60FD71FE0907B06F0907C06D9803D
:103F80000E94F32ED816190678F082E090E0F8012E
:103F9000918380838EEF9FEFDF91CF911F910F91DF
:103FA000FF90EF90DF900895EF2841F482E090E0D9
:103FB000F8019183808384EF9FEFEECF8981809316
:103FC0007A0690E00196F8019183808390E080E08A
:103FD000E3CFCF93DF93EA010E94312B882321F0B6
:103FE0000E94002F0E94322B82E090E09983888308
:103FF0008BEF9FEFDF91CF910895CF93DF93EB018C
:1040000086E0FB0111928A95E9F78FEF8883D8DD6E
:104010008983E7DD8A83E8DD9D838C83DF91CF91FF
:104020000895CF93DF93EA010E94342B811109C0D8
:1040300082E090E09983888385EF9FEFDF91CF91B5
:10404000089590E080E0B7DD81E090E09983888377
:1040500090E080E0F3CF0F931F93CF93DF93EA01BB
:104060008C01060F171F0E94342B81110BC082E0B8
:1040700090E09983888385EF9FEFDF91CF911F9127
:104080000F910895F8018181823038F082E090E04C
:10409000998388838EEF9FEFF0CF81E090E08BDDF6
:1040A00088E090E09983888390E080E0E6CFCF932A
:1040B000DF930097D1F4EB01FB01329686E0DF013C
:1040C0001D928A95E9F78FEF888385E089831A82AC
:1040D0000E94F32E8B830E94F22E9D838C8381E0BD
:1040E0008E838F83DF91CF910895DF91CF9117CD8C
:1040F0008BEA9FE1909379068093780608958091EA
:1041000078069091790608951092790610927806B3
:10411000089580917B0690917C060895411105C019
:10412000611571058105910561F060937B067093BF
:104130007C0680937D0690937E0640937F0681E007
:10414000089580E00895FF920F931F93CF93DF931C
:104150008A01EC01C60FD71FF9800E94F32EF816D2
:10416000190668F082E090E0F801918380838EEF79
:104170009FEFDF91CF911F910F91FF9008956C8178
:104180007D818E819F814B81C9DF811108C082E0D2
:1041900090E0F8019183808384EF9FEFEACF8981DB
:1041A00080937A0690E00196F8019183808390E0F5
:1041B00080E0DFCFCF93DF93EA01FC01E60FF71F2A
:1041C00064817581868197814381A8DF811109C04F
:1041D00082E090E09983888384EF9FEFDF91CF9115
:1041E000089581E090E09983888390E080E0F6CFA5
:1041F000EBE7F6E04081518162817381480F511DE8
:10420000611D711D40835183628373830895CF9331
:10421000C0917A064C2F50E060917B0670917C062D
:1042200001960E94F8448C2FE3DF10927A06CF911A
:104230000895009799F480917B0690917C062FEF6A
:10424000FB012083892B59F020917A0630E02F5F03
:104250003F4F2417350719F4CB01D9CF60CC08950F
:10426000009799F480917B0690917C062FEFFB01DB
:104270002083892B59F020917A0630E02F5F3F4F41
:104280002417350719F4CB01C2CF49CC089523E197
:10429000AC01249FC001259F900D1124E09184065C
:1042A000F0918506E80FF91F2381348122503109EE
:1042B00081E02230310508F080E008950F931F93CC
:1042C000CF93DF930091860610918706D0E0C0E07F
:1042D00080E00C171D0749F491E0811190E0892FCF
:1042E000DF91CF911F910F9108958111F5CFCE01EC
:1042F000CEDF2196EECFA0918406B091850610976F
:1043000029F1209186063091870682179307F0F4F1
:1043100053E1589F9001599F300D1124A20FB31FF4
:10432000ED91FC911197309789F012968C91681756
:1043300068F48DE0689FE00DF11D1124808191816A
:10434000892B21F081E09281491708F080E00895DF
:104350009C0143E1429FC001439F900D1124E091D5
:104360008406F0918506E80FF91F8385823099F461
:1043700081E090E0658176814091DF035091E00318
:104380006417750711F490E080E0892B21F081E03B
:104390002230310508F080E00895FC01A081B18150
:1043A0008DE0689FA00DB11D112413964D915C9175
:1043B00085859685489F9001499F300D589F300D07
:1043C0001124C9010196611103C0478144FD04967F
:1043D0000895EF92FF920F931F93CF93DF93EA011B
:1043E000FC01E60FF71F02811381E480F5804F2D59
:1043F0006E2DC80180DF81110DC082E090E09983AD
:1044000088838EEF9FEFDF91CF911F910F91FF90E7
:10441000EF900895C8013BDF882339F082E090E0F7
:104420009983888388EF9FEFEECF1093E603009384
:10443000E503E092E703F092E80381E090E09983DE
:10444000888390E080E0DFCFCF92DF92EF92FF92FF
:104450000F931F93CF93DF937A01EC01C60FD71F01
:10446000C090E503D090E6030091E7031091E803C4
:10447000412F602FC6013FDF811110C082E090E024
:10448000F701918380838AEF9FEFDF91CF911F9196
:104490000F91FF90EF90DF90CF900895C601F7DE67
:1044A000882341F082E090E0F7019183808388EFD8
:1044B0009FEFEBCF4C815D816E817F819A818981F5
:1044C0008F3F41F082E090E0F701918380838EEF8F
:1044D0009FEFDBCFE3E1EC9D9001ED9D300D1124CA
:1044E000E0918406F0918506E20FF31F0190F081C0
:1044F000E02D2DE0029FE00DF11D11240190F081CF
:10450000E02D27E0129FE00DF11D1124808391839F
:104510008B81828343835483658376831F5F1093EB
:10452000E80381E090E0F7019183808390E080E0F0
:10453000ACCFEF92FF920F931F93CF93DF937A014B
:104540008C01060F171FC0918406D0918506209715
:1045500081F021E030E0F80182819381409186066C
:10456000509187068417950710F030E020E0232B48
:1045700071F482E090E0F701918380838EEF9FEFEA
:10458000DF91CF911F910F91FF90EF90089543E13C
:10459000489F9001499F300D1124C20FD31F77DE31
:1045A000882341F082E090E0F7019183808388EFD7
:1045B0009FEFE6CFF8012481358120383105C8F618
:1045C00087818111D6CF4181842F90E08F7E009723
:1045D00041F082E090E0F7019183808386EF9FEFC6
:1045E000CFCF4F833E832D832681288719862230A3
:1045F00010F421E0288721E030E0F70131832083A7
:10460000BFCF88E090E0FA019183808390E080E062
:104610000895FB018FEF808381E181838FEF9FEF0E
:104620009383828380E890E0958384831682178247
:104630000895FB018FEF808391E0918382839383C0
:10464000848384E3858381E090E097838683089563
:1046500082E090E0FA019183808380EF9FEF0895DC
:10466000BF92CF92DF92EF92FF920F931F93CF935F
:10467000DF93DA01FC01E60FF71F8181813081F0C1
:1046800082E090E08D939C938FEF9FEFDF91CF912D
:104690001F910F91FF90EF90DF90CF90BF90089502
:1046A000C281D381B480858106811781E090840620
:1046B000F0908506E114F10439F482E090E08D93E6
:1046C0009C938CEF9FEFE2CF209186063091870676
:1046D000C217D30738F082E090E08D939C938EEF61
:1046E0009FEFD4CFC230D10538F082E090E08D93B7
:1046F0009C9386EF9FEFCACF9B2D9D7FB1F78130B2
:10470000A1F7B11005C00130110531F080E004C0FF
:1047100081E002301105D0F3882339F36D01CE0119
:10472000B6DD882341F082E090E0F601918380833A
:1047300088EF9FEFABCF83E18C9FF0018D9FF00D51
:104740001124EE0DFF1DB38681E08487168705874F
:10475000108A178681E090E0F6019183808390E0D3
:1047600080E094CF4DE050E062E674E042CA8F9260
:104770009F92BF92CF92DF92EF92FF920F931F937F
:10478000CF93DF93EA01FC01E60FF71F828193814B
:104790000481B580E0918406F0918506309791F40C
:1047A00082E090E0998388838CEF9FEFDF91CF9137
:1047B0001F910F91FF90EF90DF90CF90BF909F904F
:1047C0008F9008952091860630918706821793076F
:1047D00038F082E090E0998388838EEF9FEFE6CFF8
:1047E00023E1289F6001299FD00C1124EC0DFD1DB1
:1047F000E080F180E114F10499F28281081748F712
:104800008DE0089F80011124E00EF11EF7018081E8
:104810009181892B29F6BB20E1F2F7E0BF9E400190
:104820001124C4010E94F12FF70191838083E0914C
:104830008406F0918506EC0DFD1D0190F081E02DC0
:10484000E00FF11F80819181009739F482E090E0C0
:10485000998388838DEF9FEFA9CFA40170E060E07A
:104860000E9401458091840690918506C80ED91E4C
:10487000F60180819181080F191FF801B28281E051
:1048800090E09983888390E080E090CFAF92BF92D0
:10489000CF92DF92FF920F931F93CF93DF93EA01A2
:1048A000FC01E60FF71F82819381F480009184065A
:1048B000109185060115110581F482E090E099833D
:1048C00088838CEF9FEFDF91CF911F910F91FF9025
:1048D000DF90CF90BF90AF900895209186063091E1
:1048E00087068217930738F082E090E099838883E7
:1048F0008EEF9FEFE8CF2FEF2F0D2C3FA8F723E18E
:10490000289F6001299FD00C11240C0D1D1DF8015A
:1049100080819181892B89F6FDE0FF9E5001112451
:10492000C5010E94F12FF80191838083E0918406F4
:10493000F0918506EC0DFD1D80819181009739F481
:1049400082E090E0998388838DEF9FEFBCCFA50133
:1049500070E060E00E940145E0918406F0918506D8
:10496000EC0DFD1DF28281E090E09983888390E058
:1049700080E0A9CFCF92DF92EF92FF920F931F9327
:10498000CF93DF93860F971FFC01028113818091E3
:10499000840690918506892B81F082E090E0FA01EF
:1049A000918380838CEF9FEFDF91CF911F910F91C7
:1049B000FF90EF90DF90CF900895C801B0E0A0E0A5
:1049C0000197A109B1098F3F9F4FA105B10540F0A3
:1049D00082E090E0FA01918380838EEF9FEFE4CF35
:1049E0007A0183E1809F6001819FD00C1124C60170
:1049F0000E94F12FEC01009741F482E090E0F70172
:104A0000918380838DEF9FEFCFCFA60170E060E0B0
:104A10000E940145D0938506C093840610938706B3
:104A20000093860690E080E02FEF3FEF41E061E0E9
:104A300070E08017910741F481E090E0F7019183E5
:104A4000808390E080E0B0CF3A8B298B1B864C8727
:104A50007E876D87188A1F8601966396EACFEF924C
:104A6000FF921F93CF93DF93EC0110E0F12CE12C28
:104A70006A811617B0F083E0689FB0011124AE017F
:104A80004F5E5F4FC7010E945630009721F02FEF15
:104A90003FEF3A8B298BDF91CF911F91FF90EF90E1
:104AA0000895612FCE0179DC61E070E00E94A42EB0
:104AB000E816F90608F47C011F5FDACFF89420911C
:104AC00082063091830681E02115310509F080E0EE
:104AD000232B09F0789408952F923F924F925F9282
:104AE0006F927F928F929F92AF92BF92CF92DF92FE
:104AF000EF92FF920F931F93CF93DF933C01660ECB
:104B0000771EF301828193814C01B12CA12CC091BD
:104B10008406D0918506209769F021E030E060910D
:104B20008606709187068617970710F030E020E020
:104B3000232BD1F482E090E0FA01918380838EEF01
:104B40009FEFDF91CF911F910F91FF90EF90DF903A
:104B5000CF90BF90AF909F908F907F906F905F901D
:104B60004F903F902F9008958092E9039092EA032E
:104B7000A092EB03B092EC0363E1689F9001699F00
:104B8000300D1124C20FD31FF3018181833040F017
:104B900082E090E0FA019183808386EF9FEFD1CF8E
:104BA0002A012B813C81232BF1F4288139819F81BB
:104BB00091FF2EC0232B09F46FC0209189069A81A2
:104BC000422F490F5527551FBA0141E050E0613887
:104BD000710514F050E040E0452B09F45DC02A87D0
:104BE000920F909389068150823008F481C066DF6D
:104BF000882309F4DAC0F3018181813009F48DC082
:104C000008F47BC0823009F4C8C090E080E0ADC0F9
:104C1000232B09F441C0209188069A81E22FE90FE5
:104C2000FF27FF1F41E050E0ED3FF10514F050E099
:104C300040E0452B89F12A87920F90938806D3CFC5
:104C4000A081B181A20FB31F11966C91060F111DA7
:104C50000196295F3F4F8417950794F38D859E85B4
:104C6000089F1001099F300C189F300C1124C114AB
:104C7000D104D1F48F8184FF17C00E94F22EF5E099
:104C80002F0E311C21E08215930508F420E0A701C6
:104C9000435F5F4F21110EC082E090E0F2019183EB
:104CA000808387EF9FEF4DCF0E94F22E2FEF221AC5
:104CB000320AE8CF88819981E80EF91EF701148342
:104CC0000383FFEFCF1ADF0A7A018A818C151D0456
:104CD00009F00CF48CCFE881F981EE0DFF1D4281C3
:104CE00050E030E020E010E000E090E080E0B3CF62
:104CF000F12CE12CD12CC12CE8CF81E090E09C83F9
:104D00008B83DCDA882309F480CF81E090E00E9475
:104D1000DB1D80E40E94E91D78CF89899A8901967C
:104D200061F083E090E09C838B8382E090E00E94BE
:104D3000DB1D80E40E94E31D68CF8D819E81209160
:104D4000DF033091E00382179307D1F46091E3030E
:104D50007091E403AE014F5E5F4F8091E10390914B
:104D6000E2030E9448310097E1F2789422E030E0BB
:104D7000F20131832083892BA9F08DEF9FEFE1CEE3
:104D800022E082169104A104B1045CF6039748F670
:104D9000CE0165DE188A1F86E6CF82E090E09C8314
:104DA0008B8333CF90E080E0CCCE82E090E0F201C4
:104DB0009183808385EF9FEFC4CE8F929F92AF92B5
:104DC000BF92CF92DF92EF92FF920F931F93CF93F8
:104DD000DF93EA018C01060F171FF80181818330F0
:104DE00098F082E090E09983888386EF9FEFDF91CF
:104DF000CF911F910F91FF90EF90DF90CF90BF90D8
:104E0000AF909F908F900895809184069091850631
:104E1000892B61F081E090E0209186063091870631
:104E2000232B11F490E080E0892B39F482E090E0AC
:104E3000998388838EEF9FEFDACF40DE882309F4D1
:104E4000E1C0F8018181813009F497C0E8F0823037
:104E500099F42091860630918706E0918406F091BE
:104E6000850690E080E041E050E02817390709F01E
:104E7000BFC024DA811117C0789481E090E0998353
:104E8000888390E080E0B3CF20918606309187063A
:104E9000E0918406F091850690E080E041E050E0EA
:104EA0002817390741F481E090E00E94DB1D80E47F
:104EB0000E94E91DE1CF63817481672B11F0548357
:104EC000438301967396ECCFE0918406F0918506BA
:104ED000E00FF11F2381348122303105D9F421897B
:104EE00032892F3F3F4FB1F4258136814091DF0356
:104EF0005091E0032417350761F5AF014F5E5F4F16
:104F00006091E3037091E4038091E1039091E203E7
:104F10000E944831EFEFCE1ADE0AEE0AFE0A0D5E5D
:104F20001F4F409186065091870670E060E0C416DE
:104F3000D506E606F7064CF5009731F27894892BF2
:104F400009F49BCF82E090E0998388838DEF9FEFF7
:104F50004ECF42E0C416D104E104F104DCF6233064
:104F60003105C0F6CF017BDDE0918406F091850626
:104F7000E00FF11F108A1786CDCF10E000E090E01F
:104F800080E0C12CD12C7601CCCF0097B9F610E08F
:104F900000E0812C912C540183E0E82EF12C1AC002
:104FA000E0918406F0918506E00FF11F83819481E2
:104FB000029749F4F482E38282E090E00E94DB1DD4
:104FC00080E40E94E31DFFEF8F1A9F0AAF0ABF0A19
:104FD0000D5E1F4F8091860690918706B0E0A0E09D
:104FE00088169906AA06BB06DCF290E080E0A6CF00
:104FF000638174816230710511F454834383019697
:10500000739633CF82E090E09983888385EF9FEF9A
:10501000EECE0097B9F48FEFFB0180832091E90376
:105020003091EA0343E1429FC001439F900D112458
:10503000E0918406F0918506E80FF91F8285FB0157
:10504000818308950C948F1D88E090E0FA0191838C
:10505000808390E080E0089510928306109282068B
:10506000E4E8F6E086E0DF011D928A95E9F782EB3D
:1050700093E2909381068093800608958091800644
:105080009091810608952F923F924F925F926F9276
:105090007F928F929F92AF92BF92CF92DF92EF92C8
:1050A000FF920F931F93CF93DF93CDB7DEB72F9768
:1050B0000FB6F894DEBF0FBECDBFF894E091820624
:1050C000F09183063196F0938306E09382067894FC
:1050D00040908406509085064114510409F40DC295
:1050E000E0918606F0918706EF2B09F406C22D8722
:1050F00049875A876B877C8798878F831201B12CE9
:10510000A12C10E000E08091860690918706A816F9
:10511000B90618F40115110529F1F8948091820659
:1051200090918306019790938306809382067894EA
:10513000C8012F960FB6F894DEBF0FBECDBFDF912A
:10514000CF911F910F91FF90EF90DF90CF90BF9084
:10515000AF909F908F907F906F905F904F903F9017
:105160002F9008957101E418F508D10117968C91DC
:10517000179781FD54C013968D919C9114970397B6
:1051800009F04DC015968D919C91EF81F8858E1791
:105190009F0709F044C0B50190E080E081D48A8384
:1051A00020918406309185063D832C833D853323F1
:1051B00009F44CC04C815D81452B09F49BC1809161
:1051C000860690918706A816B90608F093C1C50116
:1051D000BFD88823E9F06C817D816E0D7F1D7D83B2
:1051E0006C83DB011F968D919C91892B89F0D12CCA
:1051F000C12CF12CE12CAC81BD8112968C911297BF
:105200008E151F0409F094F450961C921E921F975D
:105210002A81222321F0B50190E080E043D43FEFC2
:10522000A31AB30A43E1240E311C6DCFAC81BD81BA
:10523000ED91FC91EC0DFD1D858196810BD7BFEFA3
:10524000EB1AFB0AEDE0CE0ED11CD5CFEC81FD812F
:10525000309709F44FC18091860690918706A81671
:10526000B90608F047C1EE0DFF1DFF87EE87C501A7
:105270006FD88B83882339F1AE85BF851F968D91BA
:105280009C915097019621E01D964D915C91841759
:10529000950709F020E02E831982712C10E000E0C0
:1052A000AE85BF8512968C91781608F45DC0EE85A8
:1052B000FF85878590890196658576850E947C4368
:1052C000908B8787A5CFB1E0BE83E6CF99249394D6
:1052D0006BC087D6F6019683858383C0D601ED9097
:1052E000FC90B7E06B9EE00CF11C1124F701638188
:1052F000748180818F3F61F121E030E002C0220F94
:10530000331F8A95E2F7C901092E000CAA0BBB0BCB
:10531000FB01408151816281738184239523A623FF
:10532000B72321E0892B8A2B8B2B09F420E0D401B1
:105330002C93D70111968C91F60123853485820F29
:10534000932F911D880E991E1486138663949CC01A
:10535000418150E0C4010E94F844EBCF998206EFEE
:105360001FEFC6C01982C4C0F981F111A0CFEDE0D2
:105370007E9E70011124AE85BF85CD90DC90CE0C51
:10538000DF1C17D49D838C83BB81BB2309F49ECF84
:1053900081E0EE85FF8527853089232B09F080E0A9
:1053A000982E882309F459C0672D8E859F850E9409
:1053B000CD21D60118969C938E93179761E070E0EB
:1053C000C3D4EE85FF85218932892F3F320709F446
:1053D00080CFBC01C9019DD7D60116969C938E93B0
:1053E0001597D60115968D919C911697009709F403
:1053F000B5CFEC81FD818E0F9F1F1A969C938E93E3
:105400001997AE85BF85ED91FC911197EE0EFF1EA9
:10541000F70121853285148613861A968C91870DA3
:10542000D9018D93711016C0EE85FF85878184FFA9
:1054300011C049855A856B857C85F901418352836A
:1054400063837483F701838594850496A80FB91F3D
:1054500014861386F701B287A187D60115968D9120
:105460009C911697892B09F443C0EE85FF85258111
:1054700036818091DF039091E0032817390779F096
:1054800019968D909C90612CD60112968C91129752
:10549000681608F423CF1A969C928E921997BE81B3
:1054A000BB2309F45FCF61E070E0F601878190854E
:1054B0004BD4D6011796ED90FC90189715964D9108
:1054C0005C91E1E0F0E0BA81BB2311F0F0E0E0E0B4
:1054D0000C811D819C01B501882799278E1B9F0B8C
:1054E0006BD38C01892B21F0F60185819681B2D591
:1054F0007394D6CE0FEF1FEF8BCE10E000E00DCEF1
:105500002F923F924F925F926F927F928F929F92D3
:10551000AF92BF92CF92DF92EF92FF920F931F93C1
:10552000CF93DF93809184069091850610E000E090
:10553000892BA9F0C3DA0AEF1FEF882381F02090AE
:10554000860630908706C0918406D0918506D12CBE
:10555000C12C10E000E02C143D04A9F47894C8019B
:10556000DF91CF911F910F91FF90EF90DF90CF903F
:10557000BF90AF909F908F907F906F905F904F9073
:105580003F902F900895C6010E94A821882309F119
:105590008B819C810397E9F48F859889892BC9F0C9
:1055A000B60190E080E07CD221E030E0882311F069
:1055B00030E020E044245524421A530AB12CA12C97
:1055C000912C812C8A818815190409F038F4188AE5
:1055D0001F864FEFC41AD40A6396BDCFE881F981C4
:1055E000EA0DFB1D85819681892BA1F161E070E0B8
:1055F00087819085A9D33C01DCD28C01E881F981B7
:10560000EA0DFB1D8185928525813681200F311F92
:10561000AC01421B530B9A0147815085421B530B2F
:1056200070E060E00E940145E881F981EA0DFB1D10
:10563000E780F084458156819301B601C201BCD256
:105640008C01892B39F0E881F981EA0DFB1D8581F8
:10565000968100D55FEF851A950A8DE0A80EB11CE2
:10566000B1CF2CCA789408952F923F924F925F92B7
:105670006F927F929F92AF92BF92CF92DF92EF9202
:10568000FF920F931F93CF93DF9300D000D0CDB73D
:10569000DEB7009184061091850699249394011534
:1056A000110509F43EC0A0908606B090870606DA80
:1056B000982E8823B1F110928506109284061092DC
:1056C00087061092860610928806109289068FEF40
:1056D0009FEFDC018093E9039093EA03A093EB032F
:1056E000B093EC03789480D31E830D83C12CD12C0E
:1056F0007601C501B0E0A0E089839A83AB83BC83C7
:1057000022242A94322C89819A81AB81BC81C816CB
:10571000D906EA06FB06F4F0C8019CD480E40E9496
:10572000E91D892D26960FB6F894DEBF0FBECDBFBA
:10573000DF91CF911F910F91FF90EF90DF90CF906D
:10574000BF90AF909F907F906F905F904F903F90F1
:105750002F900895AD81BE8115968D919C911697DD
:105760002091DF033091E00382179307D1F4519623
:105770008D919C91BCD5ED81FE8180819181B12C70
:10578000A12C412C512C3201892B91F5BFEFCB1A62
:10579000DB0AEB0AFB0AED81FE817396FE83ED8343
:1057A000B2CFB2E0CB16D104E104F10424F70397A1
:1057B00010F7ED81FE81818992898F3F980709F06A
:1057C00011D5AD81BE8152963C922E925197D3CF86
:1057D0008A0D9B1DDC018D919C91009709F03AD4B4
:1057E000BFEF4B1A5B0A6B0A7B0AEDE0AE0EB11CF1
:1057F000AD81BE818D919C91119712964C9150E094
:1058000070E060E044165506660677060CF322D475
:10581000BDCFCF93DF93EA0127DF811109C082E07A
:1058200090E09983888385EF9FEFDF91CF91089572
:1058300081E090E00E94DB1D81E090E09983888305
:1058400090E080E0F2CF10DF109281061092800687
:10585000089542E050E060EB74E00C94F91DFF9273
:105860000F931F93CF93DF938A01EC01C60FD71FCD
:10587000F980B9D20897F816190671F068F082E03D
:1058800090E0F801918380838EEF9FEFDF91CF91BD
:105890001F910F91FF9008956C817D818E819F8172
:1058A0004B810E948E20811108C082E090E0F801B7
:1058B0009183808384EF9FEFE9CFF9800E94892054
:1058C0004F2D50E0BE01685F7F4F0E94F8448981F0
:1058D0000E94F82081E090E0F8019183808390E0BD
:1058E00080E0D4CFDF92EF92FF920F931F93CF937C
:1058F000DF938A01EC01C60FD71F0E9489207C012B
:10590000D98071D2DD2059F0029721E030E0D8161D
:10591000190619F010F030E020E0232B79F482E032
:1059200090E0F801918380838EEF9FEFDF91CF911C
:105930001F910F91FF90EF90DF900895EF2841F4B1
:1059400082E090E0F8019183808384EF9FEFEECFB7
:10595000F9800E9489204F2D50E0BE016E5F7F4F7D
:105960000E94F84489810E94F82081E090E0F801CB
:105970009183808390E080E0D9CF89E29CE290938C
:105980008B0680938A06089580918A0690918B06F3
:1059900008950895FC0111821082938382830895F3
:1059A000DB011D921C92DC011296ED91FC91139784
:1059B0007183608313967C936E9312970895FC0114
:1059C00080819181DB018D939C93A081B18110979F
:1059D00041F08D919C9191838083892B11F4F38305
:1059E000E2830895FC0180819181DB018D939C937A
:1059F000892B11F473836283718360830895FC01A2
:105A000011821082938382830895CF93DF931F9234
:105A10001F92CDB7DEB71A821982F894BE016F5F6C
:105A20007F4F81E996E0CBDF89819A81009709F069
:105A300011D389819A81892B89F7BE016F5F7F4FCE
:105A400085E996E0BCDF89819A81009709F002D34D
:105A500089819A81892B89F778940F900F90DF9133
:105A6000CF910895CF93DF931F921F92CDB7DEB7EA
:105A70001A821982F894BE016F5F7F4F8DE896E01D
:105A80009EDF89819A81009709F0E4D289819A8109
:105A9000892B89F778940F900F90DF91CF9108951B
:105AA00081E0089590E080E00895EF92FF920F93D7
:105AB0001F93CF93DF931F921F92CDB7DEB71A8249
:105AC000198280918C0607EF1FEF8823A1F1F894CB
:105AD000BE016F5F7F4F85E996E071DF7894898121
