:1000000007C100000C942A340C9455340C948034AD
:100010000C94AB340C94D6340C9401350C942C35E0
:100020000C94573543C40000E4C400001EC5000012
:1000300020C100001EC100001CC100001AC1000048
:1000400018C1000016C1000014C1000012C1000058
:1000500010C100000EC100000CC100000C948235DC
:1000600008C100000C9456390C948C3902C1000070
:1000700000C10000FEC00000FCC00000FAC000008B
:10008000F8C00000F6C00000F4C00000F2C000009C
:100090000C94E2390C94183AECC00000EAC000005D
:1000A000E8C00000E6C00000E4C00000E2C00000BC
:1000B000E0C00000DEC00000DCC00000DAC00000CC
:1000C000D8C00000D6C000000C944A2E0C946E3AA2
:1000D0000C94A43ACEC000000C94FA3A0C94303B35
:1000E000C8C0000005A84CCDB2D44EB93836A9021C
:1000F0000C50B9918688083CA6AAAA2ABE00000026
:10010000803F00000A0B02090C0D0E0807030401D2
:1001100000000000000000000000000000000000DF
:1001200000000000000000000000000000001211AC
:1001300010000000000000000000000000000000AF
:10014000000000000000000001021020200808103C
:100150002040102040800201020108040201010237
:100160000408102040808040201008040201800410
:10017000020180402010080402010804020101026B
:10018000040810204080010204081020408005056A
:100190000505070508080808020202020A0A0808FD
:1001A000040404040101010101010101030303032B
:1001B00003030303040707070C0C0C0C0C0C0C0CBA
:1001C0000202020206060606060606060B0B0B0BCB
:1001D0000B0B0B0B00002200250028002B002E002B
:1001E0003100340002010000050108010B0100008C
:1001F0002100240027002A002D00300033000101D7
:100200000000040107010A01B539413ACD3A593BD2
:1002100011241FBECFEFD1E2DEBFCDBF00E00CBF87
:1002200014E0A0E0B2E0EAE3F8E700E00BBF02C0B0
:1002300007900D92A03CB107D9F72DE0A0ECB4E0F7
:1002400001C01D92A73DB207E1F711E0C8E0D1E07F
:1002500000E006C021970109802FFE010E94EA3BC1
:10026000C430D10780E00807A9F70E94ED2F0C9455
:100270001B3CC6CECF92DF92EF92FF92CF938823A2
:1002800051F16A017B01CFEFC80F20E030E0A901F6
:10029000CB01B6010E94E33018168CF0C701B601FD
:1002A00090580E9454319B01AC016C2F70E090E09B
:1002B00080E0CF91FF90EF90DF90CF90B2C0C70168
:1002C000B6010E944F318C2FCF91FF90EF90DF90BD
:1002D000CF900C948936CF91FF90EF90DF90CF9024
:1002E00008950F931F938B019C0183E0369527950A
:1002F000179507958A95D1F700541B4F462F4770E5
:1003000021E030E0F90102C0EE0FFF1F4A95E2F74D
:10031000AF01F80120812423CB010196211102C0F5
:1003200090E080E01F910F9108950F931F938B0130
:100330009C0183E036952795179507958A95D1F707
:10034000677081E090E001C0880F6A95EAF7F801D4
:10035000E054FB4F2081452B31F48095822380832C
:100360001F910F910895822BFACF2F923F924F92B7
:100370005F926F927F928F929F92AF92BF92CF9235
:10038000DF92EF92FF920F931F93CF93DF93D62EBE
:10039000C72E782E692E49015A01280161E08D2D62
:1003A0000E94C337CD2DDC2D8E010F5F1F4FA8019A
:1003B0006D2D7C2D872D962DB8DF20E030E0A90132
:1003C000C201B7010E94D332181664F4C201B7010A
:1003D0000E9454312B01C501B4010E945431A20185
:1003E000CE0123D0C801DF91CF911F910F91FF90D3
:1003F000EF90DF90CF90BF90AF909F908F907F90C5
:100400006F905F904F903F902F900895882341F018
:100410008150682F70E090E080E050E040E085CFB0
:100420000895862FB9010C9489369C01FC01EE5F7A
:10043000FE4FE491E150E231E0F4F0E08827EC5D1A
:10044000FD4F8F4F0C94EA3B36023D0240025702AB
:100450006C02390281028D029102A802BD02D20211
:10046000E902FE02390213032A033F0384B58068C0
:1004700084BD60E0822F0C94FF3784B58062F8CF92
:10048000809180008C7F82608093800080918100C9
:10049000807E8061682B6093810050938700409339
:1004A000860080918000806880938000E2CF8091F8
:1004B00080008C7F82608093800080918100807EAC
:1004C0008061682B60938100509387004093860081
:1004D000809180008062E8CF809180008C7F826074
:1004E0008093800080918100807E8061682B609382
:1004F000810050938700409386008091800088603F
:10050000D3CF8091B00080688093B0008091B1001B
:10051000887F682B6093B100ACCF8091B00080627F
:10052000F3CF809190008C7F8260809390008091C7
:100530009100807E8061682B6093910050939700BA
:10054000409396008091900080688093900091CFB6
:10055000809190008C7F82608093900080919100C8
:10056000807E8061682B6093910050939700409348
:100570009600809190008062E8CF809190008C7FFF
:1005800082608093900080919100807E8061682BD2
:100590006093910050939700409396008091900053
:1005A0008860D3CF8091A0008C7F82608093A00070
:1005B0008091A100807E8061682B6093A1005093A0
:1005C000A7004093A6008091A00080688093A000BF
:1005D00050CF8091A0008C7F82608093A00080919A
:1005E000A100807E8061682B6093A1005093A700DA
:1005F0004093A6008091A0008062E8CF8091A00087
:100600008C7F82608093A0008091A100807E8061B9
:10061000682B6093A1005093A7004093A60080919F
:10062000A0008860D3CF809120018C7F826080936E
:10063000200180912101807E8061682B60932101DF
:100640005093270140932601809120018068809378
:1006500020010FCF809120018C7F82608093200148
:1006600080912101807E8061682B609321015093ED
:10067000270140932601809120018062E8CF80917C
:1006800020018C7F82608093200180912101807EF7
:100690008061682B609321015093270140932601CC
:1006A000809120018860D3CF9CB1892F807294FF04
:1006B00016C0811116C08091CD049091CE04A091F6
:1006C000CF04B091D0040196A11DB11D8093CD043B
:1006D0009093CE04A093CF04B093D00408958111D9
:1006E000EACF8091CD049091CE04A091CF04B09137
:1006F000D0040197A109B109E9CF99B1892F84707C
:1007000093FF16C08823B1F08091DB049091DC0444
:10071000A091DD04B091DE040196A11DB11D80936E
:10072000DB049093DC04A093DD04B093DE04089511
:10073000882351F38091DB049091DC04A091DD04C7
:10074000B091DE040197A109B109E9CF8CB190E025
:100750009C01220F232F221F330B86FF16C080918E
:10076000E9049091EA04A091EB04B091EC04232BEE
:10077000B9F40196A11DB11D8093E9049093EA0498
:10078000A093EB04B093EC0408958091E904909158
:10079000EA04A091EB04B091EC042130310549F357
:1007A0000197A109B109E8CF9CB1892F807195FF0C
:1007B00016C08823B1F08091CD049091CE04A09111
:1007C000CF04B091D0040196A11DB11D8093CD043A
:1007D0009093CE04A093CF04B093D00408958823BF
:1007E00051F38091CD049091CE04A091CF04B091AB
:1007F000D0040197A109B109E9CF99B1892F887077
:1008000092FF16C0811116C08091DB049091DC0428
:10081000A091DD04B091DE040196A11DB11D80936D
:10082000DB049093DC04A093DD04B093DE04089510
:100830008111EACF8091DB049091DC04A091DD046A
:10084000B091DE040197A109B109E9CF8CB190E024
:1008500086FB222720F930E0880F892F881F990B0B
:100860000197B1F48091E9049091EA04A091EB041E
:10087000B091EC04232BB1F00196A11DB11D809322
:10088000E9049093EA04A093EB04B093EC04089578
:100890008091E9049091EA04A091EB04B091EC04FA
:1008A000232B51F30197A109B109E9CF1F920F92B0
:1008B0000FB60F9211242F933F934F935F938F9313
:1008C0009F93AF93BF9383B121E030E0982F907254
:1008D00085FD02C030E020E0807440910D0550910C
:1008E0000E054217530709F062C021E030E0811184
:1008F00002C030E020E030930C0520930B058823E4
:1009000009F1911121C08091050590910605A091F2
:100910000705B09108050196A11DB11D809305053D
:1009200090930605A0930705B093080580910505EF
:1009300090910605A0910705B09108050196A11DAB
:10094000B11D20C09111DFCF809105059091060562
:10095000A0910705B09108050197A109B1098093FD
:10096000050590930605A0930705B09308058091AF
:10097000050590910605A0910705B091080501971E
:10098000A109B1098093050590930605A093070579
:10099000B0930805BF91AF919F918F915F914F9157
:1009A0003F912F910F900FBE0F901F90189530938D
:1009B0000E0520930D05992371F0882371F0809125
:1009C000050590910605A0910705B09108050196CF
:1009D000A11DB11DC4CF882391F38091050590918D
:1009E0000605A0910705B09108050197A109B10975
:1009F00095CF1F920F920FB60F9211248F939F9352
:100A0000AF93BF938091060181709091030190FF95
:100A10001EC081111EC08091F7049091F804A0912E
:100A2000F904B091FA040196A11DB11D8093F70459
:100A30009093F804A093F904B093FA04BF91AF9196
:100A40009F918F910F900FBE0F901F90189581115D
:100A5000E2CF8091F7049091F804A091F904B0914D
:100A6000FA040197A109B109E1CF1F920F920FB6C5
:100A70000F9211248F939F93AF93BF9380910301A3
:100A800081709091060190FF1EC08823F1F0809143
:100A9000F7049091F804A091F904B091FA0401963A
:100AA000A11DB11D8093F7049093F804A093F9045D
:100AB000B093FA04BF91AF919F918F910F900FBEA9
:100AC0000F901F901895882311F38091F70490914F
:100AD000F804A091F904B091FA040197A109B109B1
:100AE000E1CF0F931F93CF93DF938C018EE0809F14
:100AF000E001819FD00D1124C753DB4F79836883B8
:100B00005B834A838881998160E00E94C3378A8130
:100B10009B8160E00E94C3378881998161E00E94D7
:100B2000FF378A819B8161E00E94FF370230110507
:100B300009F487C064F40115110501F101301105B4
:100B400009F450C0DF91CF911F910F9108950330A8
:100B5000110509F4A5C004301105A1F780916800C2
:100B600081608093680080916B00806280936B004D
:100B700080916B00806480936B00E4CF8091C90406
:100B80009091CA0402978431910530F58F5F9B4F95
:100B9000FC018081082E000C990B41E050E064E5D7
:100BA00073E00E94B0338091CB049091CC04029703
:100BB00084319105A0F48F5F9B4FFC018081082E4A
:100BC000000C990B41E050E064ED73E0DF91CF91B0
:100BD0001F910F910C94B0338FEF9FEFDECF8FEF0B
:100BE0009FEFF0CF8091D7049091D8040297843181
:100BF000910508F58F5F9B4FFC018081082E000C4A
:100C0000990B41E050E06DEF73E00E94B0338091AA
:100C1000D9049091DA0402978431910578F48F5FBA
:100C20009B4FFC018081082E000C990B41E050E0A5
:100C30006DE773E0CBCF8FEF9FEFE3CF8FEF9FEFA9
:100C4000F5CF8091E5049091E604029784319105F7
:100C500008F58F5F9B4FFC018081082E000C990BDB
:100C600041E050E066EA73E00E94B0338091E7040F
:100C70009091E80402978431910578F48F5F9B4F3F
:100C8000FC018081082E000C990B41E050E066E2E7
:100C900074E09CCF8FEF9FEFE3CF8FEF9FEFF5CF07
:100CA0008091680084608093680080916800826011
:100CB0008093680080916D00816080936D008091C9
:100CC0006C00826080936C003DCF2EE0269FF00187
:100CD000279FF00D1124E753FB4F648175818681B6
:100CE0009781089590E080E008950F931F930097F7
:100CF00009F48DC06115710509F489C00091C8031C
:100D00001091C9032091CA033091CB030E3F1F4FAE
:100D10002F4F3F4F09F06CC04FEF5FEFBA01409388
:100D2000C8035093C9036093CA037093CB034091E7
:100D3000C8035091C9036091CA037091CB03DC01D1
:100D40001296ED91FC9180819181A281B381809373
:100D5000280690932906A0932A06B0932B06848137
:100D60009581A681B7818093240690932506A09350
:100D70002606B093270680859185A285B38580934A
:100D8000200690932106A0932206B0932306848523
:100D90009585A685B78580931C0690931D06A09324
:100DA0001E06B0931F061092180610921906109294
:100DB0001A0610921B060E94FD1182E292E19093A6
:100DC000100580930F059093120580931105909361
:100DD0001405809313050E94EC10009731F421E074
:100DE00030E030932D0620932C061F910F9108952B
:100DF0000091C8031091C9032091CA033091CB031D
:100E0000DB010D931D932D933C93139790CF8FEFA0
:100E10009FEFEBCF8F929F92AF92BF92CF92DF92D4
:100E2000EF92FF921F93CF93DF934B015C011091E0
:100E30002F0682E090E090932D0680932C0681147B
:100E40009104A104B10441F480912F06811104C0E2
:100E500080912E06C1E08111C0E0C12CD12C760119
:100E600080912F06811106C080912E06811102C04B
:100E7000CC23D9F083E090E090932D0680932C064C
:100E8000CC2381F1CCE9DFEF111102C00E9487155C
:100E9000CE01DF91CF911F91FF90EF90DF90CF9027
:100EA000BF90AF909F908F9008956AE070E080E0CF
:100EB00090E00E94F13580E1C80E87E2D81EE11C67
:100EC000F11C8FEF88169806A806B80631F0C1E02D
:100ED0008C149D04AE04BF0408F0C0E080E00E94C2
:100EE0002011BECFD0E0C0E0CFCFCF92DF92EF9203
:100EF000FF920F931F93CF93DF938F3F910511F0D4
:100F000008F051C020912C0630912D062330310578
:100F100039F020912C0630912D062130310531F425
:100F200024E030E030932D0620932C066A017B01EB
:100F3000EC0183309105A8F011E0AE01C701B601C4
:100F40000E94EB10AB01BC01CE011123F9F0DF913F
:100F5000CF911F910F91FF90EF90DF90CF900C9465
:100F6000B3178C01000F111F015F1A4FD8018D912B
:100F70009C91892B09F30E94BD170297E9F6D801CD
:100F8000ED91FC91CE011995182FD7CF0E94D5175E
:100F900090E080E0DF91CF911F910F91FF90EF9053
:100FA000DF90CF9008958FEF9FEFF4CF80E00C9407
:100FB0002011CF93DF9386E090E090932D068093ED
:100FC0002C060E947911EC01EFE0F5E086E0DF01EC
:100FD0001D928A95E9F70E941F1510922D06109216
:100FE0002C06CE01DF91CF91089580912E060895B1
:100FF0008091170608956093C8037093C903809386
:10100000CA039093CB0390E080E00895FC0191E047
:101010008091E405811190E0928308952F923F9290
:101020004F925F926F927F928F929F92AF92BF92F8
:10103000CF92DF92EF92FF920F931F93CF93DF93A4
:1010400000D000D0CDB7DEB78091E4059091E305E4
:10105000911105C091E0811190E09093E5058F5FBB
:10106000823308F003C28093E4056091040270911A
:10107000050280910602909107029B01AC010E943B
:101080007F302BED3FE049E450E40E94D732E091FD
:10109000ED05F091EE0520813181428153810E945E
:1010A000D7322091A0033091A1034091A203509127
:1010B000A3030E947F300E943A332091980330911D
:1010C000990340919A0350919B030E94D73220913B
:1010D0009C0330919D0340919E0350919F030E9479
:1010E0007F302091A4033091A5034091A603509135
:1010F000A7030E94D7326093950D7093960D80934D
:10110000970D9093980D6093990D70939A0D80931D
:101110009B0D90939C0D2091CE0C3091CF0C409163
:10112000D00C5091D10C20939D0D30939E0D409387
:101130009F0D5093A00D0E947E306B017C01C092E8
:10114000A10DD092A20DE092A30DF092A40D2091DA
:10115000940330919503409196035091970360E07A
:1011600070E08FE793E40E94E730A70196010E94A8
:10117000D7320E94BD316B017C012AD7811179C120
:10118000C701B601E0D6811174C120E030E040E82B
:1011900057E4C701B6010E94D7316B017C0120E002
:1011A00030E0A9010E94E33087FF66C1C701B601A4
:1011B00090580E94543122273327261B370B3A833D
:1011C000298369817A8177FF03C0719561957109DF
:1011D000072E000C880B990B0E94823120919003FE
:1011E0003091910340919203509193030E947F307C
:1011F0005B016C01E090AC03F090AD030091AE0395
:101200001091AF039B01AC01B701C8010E94E3300C
:1012100087FD12C0E090B003F090B1030091B203DB
:101220001091B3039501A601B701C8010E94D33202
:10123000181614F0750186019701A8016091B40396
:101240007091B5038091B6039091B7030E947E30F0
:101250006B017C01E894F7F867E070E080E090E0D3
:1012600040D89093C70C8093C60C8091C403909192
:10127000C50349815A81481759070CF004C15091A0
:10128000B4034091B5033091B6032091B703652FA5
:10129000742F832F922F0E94BD314B015C0198D691
:1012A0008111F6C0C501B4014ED68111F1C020E014
:1012B00030E040E853E4C501B4010E94D7314B014E
:1012C0005C0120E030E0A9010E94E33087FFE3C029
:1012D000C501B40190580E945431619570E090E0CE
:1012E00080E00E948231AB01BC018091C60C9091DC
:1012F000C70C0E943A0166E070E080E090E00E9436
:1013000071019093BF0C8093BE0C8091C6039091A5
:10131000C703E981FA81E817F90744F0C090B403E4
:10132000D090B503E090B603F090B703C701B601C3
:101330000E94BD316B017C014BD68111B1C0C70148
:10134000B60101D68111ACC020E030E040E853E4A2
:10135000C701B6010E94D7316B017C0120E030E06B
:10136000A9010E94E33087FF9EC0C701B6019058D3
:101370000E945431619570E090E080E00E948231DB
:10138000AB01BC018091BE0C9091BF0C0E943A0150
:101390008091E505882381F080915E0D90915F0D2D
:1013A000A091600DB091610D8093A50D9093A60D55
:1013B000A093A70DB093A80DE091ED05F091EE0577
:1013C00080819181A281B3818093A90D9093AA0D10
:1013D000A093AB0DB093AC0D8FEF9FEFDC0180932A
:1013E0008A0D90938B0DA0938C0DB0938D0D20E002
:1013F00030E040E85FE36091720D7091730D809171
:10140000740D9091750D0E947F306093720D7093F2
:10141000730D8093740D9093750D009100021091DF
:101420000102F0910202FE83209103022D8320E04D
:1014300030E040E85FE30E947E301B013C0120E089
:1014400030E0A901B8018E819D810E94E3308111B5
:101450002FC020E030E0A901B101C3010E94E330B8
:10146000882309F44DC1610173013AC01092E4056B
:10147000FCCDC12CD12C7601C701B6010E9454319C
:101480007A8369839ECE5C2D4D2D3E2D2F2DFFCE70
:10149000812C912C5401C501B4010E9454311ECFFE
:1014A000C12CD12C7601C701B6010E94543163CF03
:1014B000B101C3018DD5882309F454C0C090C90D72
:1014C000D090CA0DE090CB0DF090CC0D20E030E034
:1014D000A901B601C7010E94E330882309F413C1B2
:1014E00020E030E040E050E46091760D7091770D9F
:1014F0008091780D9091790D0E94E33087FF1DC295
:1015000020E030E0A901B601C7010E94E33081115B
:1015100011C180916A0D90916B0DA0916C0DB091ED
:101520006D0D80936E0D90936F0DA093700DB09321
:10153000710D8091A50D9091A60DA091A70DB09170
:10154000A80D80936A0D90936B0DA0936C0DB093D2
:101550006D0D8093AD0D9093AE0DA093AF0DB09334
:10156000B00DF0C0B8018E819D8132D58111A6CF1A
:10157000B101C301E8D48111A1CF20E030E0A9017D
:10158000B101C3010E94E33081110BC098014E816B
:101590005D8160E070E0CB010E94E7306B017C016F
:1015A00095CFB8018E819D81CED48823E9F020E0CB
:1015B00030E0A901B8018E819D810E94E330F82EB0
:1015C000FF1CFF24FF1C20E030E0A901B101C30192
:1015D0000E94E330881F8827881FF81609F443CF3C
:1015E00018016E807D803FCF98014E815D81B101F1
:1015F000C3010E94D7316B017C01BB24B39420E06E
:1016000030E0A9010E94E3308111B12C20E030E0EC
:10161000A901B601C7010E94E330882309F447C03D
:10162000B8018E819D810E94BD319B01AC01B80142
:101630008E819D810E94D3321816CCF598014E817F
:101640005D81B101C3010E94E7304B015C01E89468
:10165000B7F820E030E040E05FE3C501B4010E944C
:101660007F300E94BD319B01AC01C501B4010E94D5
:101670007E309B01AC015F7729833A834B835C8387
:1016800020E030E040E855E2C501B4010E94D732C5
:101690009B01AC01BB24B39469817A818B819C81CD
:1016A0000E94D33218160CF0B12C81E0B82620E04D
:1016B00030E0A901BB2031F0B8018E819D810E94EC
:1016C000D7326CCFB101C3010E94E330B82EBB1CEE
:1016D000BB24BB1C20E030E0A901B8018E819D81B4
:1016E0000E94E330881F8827881FB81609F4EECEC1
:1016F00098014E815D81B601C7010E947F304ECFB7
:101700006801EE80FD8020E030E040E85FE360911A
:10171000760D7091770D8091780D9091790D0E94E2
:101720007F306093760D7093770D8093780D909352
:10173000790DD6CE1092AD0D1092AE0D1092AF0D68
:101740001092B00D60E070E0CB01BFDA0E948231F0
:101750006B017C01C092B10DD092B20DE092B30D3D
:10176000F092B40D5091E5055983552381F0809195
:10177000620D9091630DA091640DB091650D809301
:10178000B50D9093B60DA093B70DB093B80D209101
:10179000C0033091C1034091C2035091C303C701FC
:1017A000B6010E94D732E981EE2341F0C092660D66
:1017B000D092670DE092680DF092690DEEECFCE0BE
:1017C0002AE53DE0C480D580E680F780C192D192C1
:1017D000E192F1922E173F07A9F760935A0D70938B
:1017E0005B0D80935C0D90935D0DC090C605D0900D
:1017F000C705E090C805F090C905FFEFCF1ADF0AD2
:10180000EF0AFF0AC092C605D092C705E092C8054C
:10181000F092C905C114D104E104F10499F4809156
:10182000CA059091CB05A091CC05B091CD0501964C
:10183000A11DB11D8093CA059093CB05A093CC0543
:10184000B093CD058090CE059090CF05A090D005A7
:10185000B090D1052091ED053091EE053A832983B2
:101860006091CA057091CB058091CC059091CD0512
:101870000E948031A50194010E94D73220E030E01F
:1018800040E85FE40E94D7322B013C01C701B6015A
:101890000E948031A50194010E94D7329B01AC01C6
:1018A000C301B2010E947F30E981FA8160837183B4
:1018B000828393838091D2059091D305A091D40522
:1018C000B091D5050196A11DB11D8093D2059093CD
:1018D000D305A093D405B093D505892B8A2B8B2BE8
:1018E00099F48091D6059091D705A091D805B09133
:1018F000D9050196A11DB11D8093D6059093D705FA
:10190000A093D805B093D90526960FB6F894DEBFFC
:101910000FBECDBFDF91CF911F910F91FF90EF9040
:10192000DF90CF90BF90AF909F908F907F906F90FF
:101930005F904F903F902F90089580906A0D909007
:101940006B0DA0906C0DB0906D0D20E030E0A90102
:10195000B601C7010E94E330811109C080926E0D6B
:1019600090926F0DA092700DB092710DE2CDB60104
:10197000C7010E944F3161507109AB01440F551FDF
:101980005A834983DA01AA0FBB1FAA0FBB1FA45FAA
:10199000BD4F20916E0D30916F0D4091700D5091A3
:1019A000710D6D917D918D919C910E94D7326B014B
:1019B0007C01E981FA81EE0FFF1FEE0FFF1FE85F48
:1019C000FD4F2081318142815381C501B4010E94C4
:1019D000D7329B01AC01C701B6010E947F306093F2
:1019E000AD0D7093AE0D8093AF0D9093B00DAACE58
:1019F0008091660D9091670DA091680DB091690D71
:101A00008093B90D9093BA0DA093BB0DB093BC0D0C
:101A10008093620D9093630DA093640DB093650D58
:101A200080935E0D90935F0DA093600DB093610D58
:101A30008091DA059091DB05A091DC05B091DD0580
:101A40000196A11DB11D8093DA059093DB05A0934B
:101A5000DC05B093DD05892B8A2B8B2B99F48091C3
:101A6000DE059091DF05A091E005B091E1050196BA
:101A7000A11DB11D8093DE059093DF05A093E005C5
:101A8000B093E10508958F929F92AF92BF92EF922B
:101A9000FF920F931F93CF9384E090E01DD2EBE26F
:101AA000F5E080EDDF011D928A95E9F78AEE95E079
:101AB00090933205809331058DEE95E090936C05FF
:101AC00080936B058EEC95E09093400580933F05E5
:101AD000F0939605E0939505F0933005E0932F057C
:101AE00081E090E09093EB058093EA0585E194E036
:101AF00090933605809335052FEE35E03093EE0553
:101B00002093ED0580E090E0A0E2B1E48093E6054B
:101B10009093E705A093E805B093E9058FE692E17D
:101B2000A3E0BBE38093CE059093CF05A093D005AF
:101B3000B093D10581E797EEAAE5B7EC8093B405A1
:101B40009093B505A093B605B093B70584E39CE6E2
:101B5000A2E6B6E18093B8059093B905A093BA05C3
:101B6000B093BB0582EA9EE7A9E5B9E28093BC0584
:101B70009093BD05A093BE05B093BF058AEA99EB8B
:101B8000A5E8B8E88093C0059093C105A093C2056D
:101B9000B093C3058FE195E090932E0580932D05BA
:101BA00085E195E09093200580931F0587E294E0FE
:101BB000909316058093150590931805809317054B
:101BC00090931A058093190590931C0580931B052B
:101BD00090931E0580931D0584EC95E09093240559
:101BE0008093230584EB95E0909322058093210553
:101BF0003093260520932505E5E9FDE088E2DF0125
:101C00001D928A95E9F7E8EBFCE08DEDDF011D926E
:101C10008A95E9F7C1E0C093940D812C912C540171
:101C200083948092C10C9092C20CA092C30CB0928B
:101C3000C40CE12CF12C8701A801970167E070E04A
:101C400080E090E00E94B5019093C70C8093C60C91
:101C5000C093C50C1092B80CC093930D8092B90C30
:101C60009092BA0CA092BB0CB092BC0CA801970148
:101C700066E070E080E090E00E94B5019093BF0CB8
:101C80008093BE0CC093BD0C8091B8039091B903B2
:101C9000A091BA03B091BB038093A50D9093A60DBC
:101CA000A093A70DB093A80D1092C80CC093920DED
:101CB0008092C90C9092CA0CA092CB0CB092CC0C22
:101CC00043E050E062E070E090E080E00E94710547
:101CD000C093CD0C8091BC039091BD03A091BE0335
:101CE000B091BF038093B50D9093B60DA093B70D3F
:101CF000B093B80D4091A8035091A9036091AA0335
:101D00007091AB03EEECFCE04193519361937193BE
:101D10002DE0EE35F207C1F74091B8035091B903B9
:101D20006091BA037091BB0340935E0D50935F0DB9
:101D30006093600D7093610D8093620D9093630DBD
:101D4000A093640DB093650D10926A0D10926B0D07
:101D500010926C0D10926D0D10926E0D10926F0D11
:101D60001092700D1092710D81E080938F0D109282
:101D7000720D1092730D1092740D1092750D809368
:101D8000900D1092760D1092770D1092780D1092A2
:101D9000790D8093910D10928E0D8FEF9FEFDC01E6
:101DA00080938A0D90938B0DA0938C0DB0938D0D25
:101DB000CF911F910F91FF90EF90BF90AF909F90A8
:101DC0008F9008958091C00C81112EC081E0809386
:101DD000C00C8091C10C9091C20CA091C30CB09129
:101DE000C40C0197A105B105F9F48091C50C8823B5
:101DF000D9F067E070E080E090E00E94710190937C
:101E0000C70C8093C60C40E050E0BA010E943A0132
:101E100067E070E080E090E00E9471019093C70C51
:101E20008093C60C0E9406028091B80C81112EC0CE
:101E300081E08093B80C8091B90C9091BA0CA0917C
:101E4000BB0CB091BC0C0197A105B105F9F48091D0
:101E5000BD0C8823D9F066E070E080E090E00E943D
:101E600071019093BF0C8093BE0C40E050E0BA012A
:101E70000E943A0166E070E080E090E00E9471010B
:101E80009093BF0C8093BE0C0E9406028091C80CF8
:101E9000811103C081E08093C80C089560E070E078
:101EA00080E89FE7089560E070E080E89FE708958C
:101EB00060E070E080E89FEF089560E070E080E807
:101EC0009FEF089560E070E080EC9FEF089560E080
:101ED00070E080EC9FEF0895F5DF6093C90D70937B
:101EE000CA0D8093CB0D9093CC0DF1DF6093BD0DA7
:101EF0007093BE0D8093BF0D9093C00DCFDF6093A4
:101F0000C50D7093C60D8093C70D9093C80DCBDFA0
:101F10006093C10D7093C20D8093C30D9093C40D57
:101F2000C7DF6093CD0D7093CE0D8093CF0D90934E
:101F3000D00DC3DF6093D10D7093D20D8093D30D7C
:101F40009093D40D0895CF92DF92EF92FF92CF93AA
:101F50006B017C01AC019B016091C50D7091C60DB8
:101F60008091C70D9091C80D0E94E330C1E0882395
:101F700071F0A70196016091CD0D7091CE0D809109
:101F8000CF0D9091D00D0E94E3308111C0E08C2FD5
:101F9000CF91FF90EF90DF90CF9008950F931F9314
:101FA0008B019C010027112720783F77011511052F
:101FB00020483F4749F4AB01BC016F77772781E0A8
:101FC000452B462B472B09F480E01F910F91089574
:101FD000E5CF4F925F926F927F928F929F92AF92D6
:101FE000BF92CF92DF92EF92FF920F931F93F894DC
:101FF00040900706509008066090090670900A0607
:10200000C090FB05D090FC05E090FD05F090FE052A
:102010004130510509F0A4C09B01AC0124193509D8
:102020004609570929013A01009103061091040657
:10203000209105063091060648015901840C951C33
:10204000A61CB71C80169106A206B306A0F4009148
:10205000FF051091000620910106309102060F5FE6
:102060001F4F2F4F3F4F0093FF0510930006209303
:102070000106309302068092030690920406A09215
:102080000506B09206060091FF051091000620910A
:1020900001063091020680920B0690920C06A092E7
:1020A0000D06B0920E0600930F06109310062093B3
:1020B000110630931206609307067093080680930A
:1020C000090690930A06A0EDB7E0A30192010E94D1
:1020D000F23B6C0D7D1D8E1D9F1D6093FB05709363
:1020E000FC058093FD059093FE050091C8031091B7
:1020F000C9032091CA033091CB030F3F1F4F2F4FCD
:102100003F4FF1F00091C8031091C9032091CA0319
:102110003091CB030E3F1F4F2F4F3F4F89F0C090A0
:10212000C803D090C903E090CA03F090CB0321E02C
:102130008C149D04AE04BF0408F420E0209317061D
:1021400078941F910F91FF90EF90DF90CF90BF9008
:10215000AF909F908F907F906F905F904F90089579
:102160004B015C0184189508A608B708A3019201E9
:10217000261B370B480B590B64157505860597050B
:10218000D0F082169306A406B50640F420E030E0B5
:10219000A90181149104A104B10491F4A0EDB7E068
:1021A0000E94F23BA7019601261B370B480B590BE7
:1021B000CA01B901C5CF82169306A406B50670F709
:1021C000A0EDB7E0A50194010E94F23B6C0D7D1DCE
:1021D0008E1D9F1DB5CFFDCECF93DF9300D01F92F4
:1021E000CDB7DEB71C821B821A82198210921306A9
:1021F000109214061092150610921606BE016F5F1B
:102200007F4FCE0103960E94D62D69817A818B8102
:102210009C810E94F426009761F4BE016F5F7F4F9E
:10222000CE0103960E94E22D69817A818B819C8187
:1022300032D50F900F900F900F90DF91CF910895AE
:10224000FF920F931F93CF93DF93082F60E070E00E
:10225000CB010E94F135FF24F3940E94DD25EC01AF
:10226000892B89F010E0CE3F8FEFD80769F000236B
:1022700061F160E070E0CB010E94F13581E090E017
:10228000892B59F322C011E029D5EC01892B21F0CB
:10229000CE3F8FEFD80759F711111EC011E02296DB
:1022A00009F410E00E948D25EC01892B21F0CE3F2E
:1022B0008FEFD807E1F6111111C011E0CE3F8FEF7B
:1022C000D80709F410E001110BC0CE01DF91CF91C6
:1022D0001F910F91FF90089511E0E4CF11E0F3CF2B
:1022E00060E070E0CB010E94F1351F25812F90E066
:1022F000C7CFCF93DF9380911706882321F060E04A
:1023000070E0CB0150D639D6D0E0C0E0892B71F017
:102310006AE070E080E090E00E94F13581E090DFBB
:102320002CD62196C03D27E0D20781F72BD60E94FC
:10233000482710922F0610922E061092280610920F
:10234000290610922A0610922B061092240610924B
:10235000250610922606109227061092200610924B
:102360002106109222061092230610921C0610924B
:102370001D0610921E0610921F061092180610924B
:10238000190610921A0610921B064EEF5FEF6FEFC0
:102390007FEF4093C8035093C9036093CA037093BF
:1023A000CB0310921706EBE0F6E028E0DF011D9268
:1023B0002A95E9F71092070610920806109209066E
:1023C00010920A0610920306109204061092050657
:1023D000109206061092FF05109200061092010658
:1023E000109202061092FB051092FC051092FD055A
:1023F0001092FE05DF91CF91089510923B06109246
:102400003C0610923D0610923E0610923A068091CC
:1024100043069091440690933906809338061092B3
:10242000370610923606109232061092330610923A
:102430003406109235061092400610923F0690E046
:1024400080E00895CF92DF92EF92FF920F931F9357
:10245000CF938C01019709F055C02091430630912C
:102460004406809138069091390640914306509178
:10247000440650933906409338062817390781F0EF
:1024800010923706109236061092320610923306DA
:1024900010923406109235061092400610923F06B4
:1024A0008091430690914406019761F580913F0623
:1024B00090914006892B21F48091CC03811112C0A8
:1024C00080913F06909140060197E1F48091320699
:1024D00090913306A0913406B09135060197A1057D
:1024E000B10581F410923206109233061092340630
:1024F000109235061092CC0382E090E09093400653
:1025000080933F068091430690914406019709F01D
:102510001CC18091590690915A068017910709F0C5
:1025200014C18091550690915606A0915706B0911E
:102530005806009709F409C12091540621110DC0D5
:102540004091550650915606609157067091580675
:10255000452B462B472B09F4F8C020913F063091BC
:1025600040062230310509F0F0C0209136062111D5
:10257000ECC0FC01C080D180E280F38080913A06FB
:10258000882309F4D3C08091460690914706892B91
:1025900009F4FEC0209146063091470681E02230C2
:1025A000310509F080E02091460630914706C1E0F0
:1025B0002130310549F02091460630914706C1E0AF
:1025C0002230310509F0C0E0882309F456C020917B
:1025D0005006309151064091520650915306C70162
:1025E000B6010E94D33287FD14C02091500630916D
:1025F0005106409152065091530660913B067091EE
:102600003C0680913D0690913E060E94E33087FD96
:1026100022C02091500630915106409152065091AF
:102620005306C701B6010E94D332181634F5209123
:1026300050063091510640915206509153066091D8
:102640003B0670913C0680913D0690913E060E94AB
:10265000E330811112C08091480690914906A09103
:102660004A06B0914B06892B8A2B8B2B19F481E0FB
:102670008093370681E080933606CC2309F456C058
:1026800020915006309151064091520650915306C8
:10269000C701B6010E94E33087FF14C020915006A5
:1026A00030915106409152065091530660913B067D
:1026B00070913C0680913D0690913E060E94D33277
:1026C00087FF22C02091500630915106409152065A
:1026D00050915306C701B6010E94E330811126C014
:1026E0002091500630915106409152065091530668
:1026F00060913B0670913C0680913D0690913E06AC
:102700000E94D332181694F480914806909149069D
:10271000A0914A06B0914B06892B8A2B8B2B19F47A
:1027200081E08093370681E08093360681E09091C6
:102730003606911180E080933A06C0923B06D09213
:102740003C06E0923D06F0923E060130110509F08C
:1027500067C180913F0690914006892BD9F4109271
:102760004506109236068091CC03882379F082E0EA
:1027700090E09093400680933F061092CC03209106
:1027800043063091440681E0232BE9F080E01BC032
:1027900081E009CF1092CC0380914506882349F04F
:1027A000109237061092400610923F06109245068E
:1027B000EDCF8091430690914406892BE1F0809102
:1027C00036061092360620913F06309140062230A0
:1027D000310509F45EC088F42115310509F448C0BB
:1027E0002130310509F4F3C01092370610923606F5
:1027F0001092450638C081E0E6CF2330310509F458
:10280000B1C02430310581F7409132065091330632
:1028100060913406709135064115510561057105C9
:1028200061F041505109610971094093320650939A
:10283000330660933406709335064091320650910A
:1028400033066091340670913506452B462B472B95
:10285000D9F420914106309142062130310509F02A
:1028600046C0109237061092400610923F060CC0E8
:102870008091CC03882341F082E090E09093400661
:1028800080933F061092CC03109230068091370659
:10289000CEC08823C9F38091480690914906A09143
:1028A0004A06B0914B06181619061A061B060CF0BC
:1028B0007DC08091430690914406019709F076C04F
:1028C0008091480690914906A0914A06B0914B0626
:1028D0008093320690933306A0933406B093350666
:1028E00083E090E09093400680933F06CDCF4091E7
:1028F0004C0650914D0660914E0670914F06452B47
:10290000462B472BA9F01092370680914C069091E8
:102910004D06A0914E06B0914F06809332069093DB
:102920003306A0933406B093350681E090E0DACF09
:10293000882399F08091CD039091CE03A091CF038D
:10294000B091D0038093320690933306A09334065F
:10295000B093350684E090E0C5CF1092370682E050
:1029600090E0C0CF8091320690913306A09134065A
:10297000B09135060097A105B10559F00197A1095D
:10298000B1098093320690933306A0933406B09336
:1029900035068091320690913306A0913406B091AD
:1029A0003506892B8A2B8B2B09F06ECF8091CD03B6
:1029B0009091CE03A091CF03B091D003892B8A2BA5
:1029C0008B2B09F44ECF81E080933706B3CF409133
:1029D00032065091330660913406709135064115E8
:1029E00051056105710561F0415051096109710995
:1029F0004093320650933306609334067093350645
:102A0000409132065091330660913406709135063C
:102A1000452B462B472B09F037CF8111C7CF9FCFCE
:102A200080913006882309F431CF80913106CF910F
:102A30001F910F91FF90EF90DF90CF90089510922B
:102A40003B0610923C0610923D0610923E061092F4
:102A50003A061092400610923F06109239061092E4
:102A6000380610925A0610925906109237061092A4
:102A700036061092320610923306109234061092E7
:102A800035061092310610923006109255061092BB
:102A9000560610925706109258061092540610923D
:102AA000500610925106109252061092530688EE6C
:102AB00093E0A0E0B0E08093CD039093CE03A09389
:102AC000CF03B093D00310924C0610924D06109293
:102AD0004E0610924F061092480610924906109228
:102AE0004A0610924B06109247061092460681E065
:102AF0008093CC0310924506109244061092430630
:102B0000109242061092410690E080E00895809174
:102B1000430690914406892B19F58091CC038823B4
:102B200051F080914506811106C081E08093310605
:102B3000809330060895209145063091CC0381E0C2
:102B400090E0332311F090E080E030E08223932383
:102B5000892B21F01092310681E0EACF10923006E5
:102B6000089582E090E0FA01918380838FEF9FEFD8
:102B70000895CF93DF93EA01009711F00E94622835
:102B80001982188290E080E0DF91CF910895DB01F7
:102B9000009719F48FEF8C9308952EEF2C93FC017E
:102BA0007096E031F10508F037C08827E552FA4EFB
:102BB0008F4F0C94EA3B0A160816061604160216E6
:102BC0000016FC15FE15FA15F815F615F315EF1598
:102BD000EB15F1150C1680E311968C93089589E29C
:102BE000FBCF82E2F9CF11961C92089583E2F4CFD5
:102BF00081E2F2CF81E1F0CF87E2EECF8AE2ECCF43
:102C000080E1EACF84E2E8CF88E2E6CF86E2E4CF53
:102C100081E3E2CF83E3E0CF80E2DECF80916706FD
:102C200090916806089590936806809367060895CA
:102C300080916606089590916606892B80936606BA
:102C40000895982F90958091660689238093660653
:102C500008958091650608958091630690916406B9
:102C600008956115710559F0FB0130E020E070E036
:102C700060E02417350719F06115710511F0CB01DB
:102C80000895A081B181A817B90709F4BF012F5F8A
:102C90003F4F3696EECF8091690681111CC060D2FD
:102CA00066D290935C0680935B060E9464200E942B
:102CB00076209093600680935F060E94F5240E9420
:102CC000FC2490935E0680935D0681E08093690604
:102CD00090E080E0089584EF9FEF08958F929F9297
:102CE000AF92BF92CF92DF92EF92FF920F931F931A
:102CF000CF93DF9300D000D000D01F92CDB7DEB7C6
:102D00001A86198618861F821E821D821C821B82CB
:102D10001A8219828091690607EF1FEF882309F450
:102D20009CC08E010D5F1F4F9E012B5F3F4FAE0178
:102D3000495F5F4FBE01675F7F4F90E080E00E9478
:102D400079268C01009721F00596029708F0DBC0E8
:102D500029853A852115310509F402C1ED80FE80EF
:102D60004B815C81B701640F751F8F819885861731
:102D7000970708F4F5C0E20EF31ED7019C91903C32
:102D800009F07FC04230510508F47BC011968C9148
:102D90004091670650916806452B09F49CC0913F0D
:102DA00008F071C02CE1290F2D3008F48BC02DE202
:102DB000290F203108F489C0903C21F481508230E1
:102DC00008F483C088E3890F8B3008F481C097EC46
:102DD000C92E95E1D92EE1EBF5E16D817E81AE0141
:102DE0004F5F5F4F89859A8519955C01C114D104A5
:102DF000A1F189809A808114910479F18B819C8161
:102E00008815990508F487C010E000E04B815C81CB
:102E100070E060E0C7010E94143C01151105E9F45F
:102E200049815A8169857A858D819E81680F791FD4
:102E3000C501F6011995E980FA800D811E812F8167
:102E4000388549855A856FEF7FEF81E090E00E94D9
:102E500014268C01892B09F056C0C8012A960FB69A
:102E6000F894DEBF0FBECDBFDF91CF911F910F91C0
:102E7000FF90EF90DF90CF90BF90AF909F908F909A
:102E8000089580E085CF30E020E0220F331FF90164
:102E9000E55AF94F0190F081E02D309709F497CF72
:102EA000892F90E01995009709F491CFDC011296D3
:102EB000ED91FC9113971496CD90DC90309709F02A
:102EC0008CCF1FC021E030E0E0CF22E030E0DDCF4A
:102ED00023E030E0DACFD12CC12CE9EBF5E19F3FC4
:102EE00009F07BCFE0915B06F0915C06309721F40E
:102EF000C90104EF1FEF0CC08FEF90E01995009708
:102F0000A9F604EF1FEF89859A85009709F4A5CFEC
:102F10000E946228A2CF0E9443278C0189859A854E
:102F20000E94622870E060E0C4010E94DC2698875D
:102F30008F830E9411269E838D836F817885611512
:102F4000710559F0C8010E94C1299A87898706EF47
:102F50001FEF892B09F058CF59CF08EF1FEF56CF3D
:102F600008EF1FEFD0CF20916906222319F020E04F
:102F70000C947B2087EF9FEF0895809167069091D6
:102F8000680608950E9401250E945B24F5D0EBE5B8
:102F9000F6E088E0DF011D928A95E9F71092690654
:102FA00090E080E008950C94B82221E040E050E0E9
:102FB000BA010C947B2086E090E0FA019183808333
:102FC00090E080E0089547E050E06AE274E049CE86
:102FD000DF92EF92FF920F931F93CF93DF938A01BB
:102FE000EC01C60FD71FE0906D06F0906E06D980F9
:102FF0000E942B27D816190678F082E090E0F8019D
:10300000918380838EEF9FEFDF91CF911F910F917E
:10301000FF90EF90DF900895EF2841F482E090E078
:10302000F8019183808384EF9FEFEECF89818093B5
:103030006C0690E00196F8019183808390E080E037
:10304000E3CFCF93DF93EA010E946923882321F025
:103050000E9438270E946A2382E090E09983888347
:103060008BEF9FEFDF91CF910895CF93DF93EB012B
:1030700086E0FB0111928A95E9F78FEF8883D8DD0E
:103080008983E7DD8A83E8DD9D838C83DF91CF919F
:103090000895CF93DF93EA010E946C23811109C048
:1030A00082E090E09983888385EF9FEFDF91CF9155
:1030B000089590E080E0B7DD81E090E09983888317
:1030C00090E080E0F3CF0F931F93CF93DF93EA015B
:1030D0008C01060F171F0E946C2381110BC082E028
:1030E00090E09983888385EF9FEFDF91CF911F91C7
:1030F0000F910895F8018181823038F082E090E0EC
:10310000998388838EEF9FEFF0CF81E090E08BDD95
:1031100088E090E09983888390E080E0E6CFCF93C9
:10312000DF930097D1F4EB01FB01329686E0DF01DB
:103130001D928A95E9F78FEF888385E089831A824B
:103140000E942B278B830E942A279D838C8381E0FA
:103150008E838F83DF91CF910895DF91CF9117CD2B
:1031600083EE97E190936B0680936A0608958091B1
:103170006A0690916B06089510926B0610926A068B
:10318000089580916D0690916E060895411105C0D5
:10319000611571058105910561F060936D0670936D
:1031A0006E0680936F06909370064093710681E0DF
:1031B000089580E00895FF920F931F93CF93DF93BC
:1031C0008A01EC01C60FD71FF9800E942B27F81641
:1031D000190668F082E090E0F801918380838EEF19
:1031E0009FEFDF91CF911F910F91FF9008956C8118
:1031F0007D818E819F814B81C9DF811108C082E072
:1032000090E0F8019183808384EF9FEFEACF89817A
:1032100080936C0690E00196F8019183808390E0A2
:1032200080E0DFCFCF93DF93EA01FC01E60FF71FC9
:1032300064817581868197814381A8DF811109C0EE
:1032400082E090E09983888384EF9FEFDF91CF91B4
:10325000089581E090E09983888390E080E0F6CF44
:10326000EDE6F6E04081518162817381480F511D86
:10327000611D711D40835183628373830895CF93D1
:10328000C0916C064C2F50E060916D0670916E06F7
:1032900001960E940B3C8C2FE3DF10926C06CF91BD
:1032A0000895009799F480916D0690916E062FEF26
:1032B000FB012083892B59F020916C0630E02F5FB1
:1032C0003F4F2417350719F4CB01D9CF60CC0895AF
:1032D000009799F480916D0690916E062FEFFB0197
:1032E0002083892B59F020916C0630E02F5F3F4FEF
:1032F0002417350719F4CB01C2CF49CC089523E137
:10330000AC01249FC001259F900D1124E091760609
:10331000F0917706E80FF91F23813481225031099B
:1033200081E02230310508F080E008950F931F936B
:10333000CF93DF930091780610917906D0E0C0E03A
:1033400080E00C171D0749F491E0811190E0892F6E
:10335000DF91CF911F910F9108958111F5CFCE018B
:10336000CEDF2196EECFA0917606B091770610972A
:1033700029F1209178063091790682179307F0F4AD
:1033800053E1589F9001599F300D1124A20FB31F94
:10339000ED91FC911197309789F012968C916817F6
:1033A00068F48DE0689FE00DF11D1124808191810A
:1033B000892B21F081E09281491708F080E008957F
:1033C0009C0143E1429FC001439F900D1124E09175
:1033D0007606F0917706E80FF91F8385823099F41D
:1033E00081E090E0658176814091D1035091D203D4
:1033F0006417750711F490E080E0892B21F081E0DB
:103400002230310508F080E00895FC01A081B181EF
:103410008DE0689FA00DB11D112413964D915C9114
:1034200085859685489F9001499F300D589F300DA6
:103430001124C9010196611103C0478144FD04961E
:103440000895EF92FF920F931F93CF93DF93EA01BA
:10345000FC01E60FF71F02811381E480F5804F2DF8
:103460006E2DC80180DF81110DC082E090E099834C
:1034700088838EEF9FEFDF91CF911F910F91FF9087
:10348000EF900895C8013BDF882339F082E090E097
:103490009983888388EF9FEFEECF1093D803009332
:1034A000D703E092D903F092DA0381E090E09983A8
:1034B000888390E080E0DFCFCF92DF92EF92FF929F
:1034C0000F931F93CF93DF937A01EC01C60FD71FA1
:1034D000C090D703D090D8030091D9031091DA039C
:1034E000412F602FC6013FDF811110C082E090E0C4
:1034F000F701918380838AEF9FEFDF91CF911F9136
:103500000F91FF90EF90DF90CF900895C601F7DE06
:10351000882341F082E090E0F7019183808388EF77
:103520009FEFEBCF4C815D816E817F819A81898194
:103530008F3F41F082E090E0F701918380838EEF2E
:103540009FEFDBCFE3E1EC9D9001ED9D300D112469
:10355000E0917606F0917706E20FF31F0190F0817B
:10356000E02D2DE0029FE00DF11D11240190F0816E
:10357000E02D27E0129FE00DF11D1124808391833F
:103580008B81828343835483658376831F5F10938B
:10359000DA0381E090E0F7019183808390E080E09E
:1035A000ACCFEF92FF920F931F93CF93DF937A01EB
:1035B0008C01060F171FC0917606D09177062097D1
:1035C00081F021E030E0F80182819381409178061A
:1035D000509179068417950710F030E020E0232BF6
:1035E00071F482E090E0F701918380838EEF9FEF8A
:1035F000DF91CF911F910F91FF90EF90089543E1DC
:10360000489F9001499F300D1124C20FD31F77DED0
:10361000882341F082E090E0F7019183808388EF76
:103620009FEFE6CFF8012481358120383105C8F6B7
:1036300087818111D6CF4181842F90E08F7E0097C2
:1036400041F082E090E0F7019183808386EF9FEF65
:10365000CFCF4F833E832D83268128871986223042
:1036600010F421E0288721E030E0F7013183208346
:10367000BFCF88E090E0FA019183808390E080E002
:103680000895FB018FEF808381E181838FEF9FEFAE
:103690009383828380E890E09583848316821782E7
:1036A0000895FB018FEF808391E091838283938360
:1036B000848384E3858381E090E097838683089503
:1036C00082E090E0FA019183808380EF9FEF08957C
:1036D000BF92CF92DF92EF92FF920F931F93CF93FF
:1036E000DF93DA01FC01E60FF71F8181813081F061
:1036F00082E090E08D939C938FEF9FEFDF91CF91CD
:103700001F910F91FF90EF90DF90CF90BF900895A1
:10371000C281D381B480858106811781E0907606CD
:10372000F0907706E114F10439F482E090E08D9393
:103730009C938CEF9FEFE2CF209178063091790631
:10374000C217D30738F082E090E08D939C938EEF00
:103750009FEFD4CFC230D10538F082E090E08D9356
:103760009C9386EF9FEFCACF9B2D9D7FB1F7813051
:10377000A1F7B11005C00130110531F080E004C09F
:1037800081E002301105D0F3882339F36D01CE01B9
:10379000B6DD882341F082E090E0F60191838083DA
:1037A00088EF9FEFABCF83E18C9FF0018D9FF00DF1
:1037B0001124EE0DFF1DB38681E0848716870587EF
:1037C000108A178681E090E0F6019183808390E073
:1037D00080E094CF4DE050E064E574E042CA8F92FF
:1037E0009F92BF92CF92DF92EF92FF920F931F931F
:1037F000CF93DF93EA01FC01E60FF71F82819381EB
:103800000481B580E0917606F0917706309791F4C7
:1038100082E090E0998388838CEF9FEFDF91CF91D6
:103820001F910F91FF90EF90DF90CF90BF909F90EE
:103830008F9008952091780630917906821793072A
:1038400038F082E090E0998388838EEF9FEFE6CF97
:1038500023E1289F6001299FD00C1124EC0DFD1D50
:10386000E080F180E114F10499F28281081748F7B1
:103870008DE0089F80011124E00EF11EF701808188
:103880009181892B29F6BB20E1F2F7E0BF9E400130
:103890001124C4010E942928F70191838083E091BB
:1038A0007606F0917706EC0DFD1D0190F081E02D7C
:1038B000E00FF11F80819181009739F482E090E060
:1038C000998388838DEF9FEFA9CFA40170E060E01A
:1038D0000E94143C8091760690917706C80ED91EFE
:1038E000F60180819181080F191FF801B28281E0F1
:1038F00090E09983888390E080E090CFAF92BF9270
:10390000CF92DF92FF920F931F93CF93DF93EA0141
:10391000FC01E60FF71F82819381F4800091760607
:10392000109177060115110581F482E090E09983EA
:1039300088838CEF9FEFDF91CF911F910F91FF90C4
:10394000DF90CF90BF90AF9008952091780630918E
:1039500079068217930738F082E090E09983888394
:103960008EEF9FEFE8CF2FEF2F0D2C3FA8F723E12D
:10397000289F6001299FD00C11240C0D1D1DF801FA
:1039800080819181892B89F6FDE0FF9E50011124F1
:10399000C5010E942928F80191838083E091760671
:1039A000F0917706EC0DFD1D80819181009739F42F
:1039B00082E090E0998388838DEF9FEFBCCFA501D3
:1039C00070E060E00E94143CE0917606F09177068A
:1039D000EC0DFD1DF28281E090E09983888390E0F8
:1039E00080E0A9CFCF92DF92EF92FF920F931F93C7
:1039F000CF93DF93860F971FFC0102811381809183
:103A0000760690917706892B81F082E090E0FA01AA
:103A1000918380838CEF9FEFDF91CF911F910F9166
:103A2000FF90EF90DF90CF900895C801B0E0A0E044
:103A30000197A109B1098F3F9F4FA105B10540F042
:103A400082E090E0FA01918380838EEF9FEFE4CFD4
:103A50007A0183E1809F6001819FD00C1124C6010F
:103A60000E942928EC01009741F482E090E0F701E0
:103A7000918380838DEF9FEFCFCFA60170E060E050
:103A80000E94143CD0937706C09376061093790673
:103A90000093780690E080E02FEF3FEF41E061E097
:103AA00070E08017910741F481E090E0F701918385
:103AB000808390E080E0B0CF3A8B298B1B864C87C7
:103AC0007E876D87188A1F8601966396EACFEF92EC
:103AD000FF921F93CF93DF93EC0110E0F12CE12CC8
:103AE0006A811617B0F083E0689FB0011124AE011F
:103AF0004F5E5F4FC7010E948E28009721F02FEF85
:103B00003FEF3A8B298BDF91CF911F91FF90EF9080
:103B10000895612FCE0179DC61E070E00E94DC261F
:103B2000E816F90608F47C011F5FDACFF8942091BB
:103B300074063091750681E02115310509F080E0A9
:103B4000232B09F0789408952F923F924F925F9221
:103B50006F927F928F929F92AF92BF92CF92DF929D
:103B6000EF92FF920F931F93CF93DF933C01660E6A
:103B7000771EF301828193814C01B12CA12CC0915D
:103B80007606D0917706209769F021E030E06091C9
:103B90007806709179068617970710F030E020E0DC
:103BA000232BD1F482E090E0FA01918380838EEFA1
:103BB0009FEFDF91CF911F910F91FF90EF90DF90DA
:103BC000CF90BF90AF909F908F907F906F905F90BD
:103BD0004F903F902F9008958092DB039092DC03EA
:103BE000A092DD03B092DE0363E1689F9001699FBC
:103BF000300D1124C20FD31FF3018181833040F0B7
:103C000082E090E0FA019183808386EF9FEFD1CF2D
:103C10002A012B813C81232BF1F4288139819F815A
:103C200091FF2EC0232B09F46FC020917B069A814F
:103C3000422F490F5527551FBA0141E050E0613826
:103C4000710514F050E040E0452B09F45DC02A876F
:103C5000920F90937B068150823008F481C066DF1A
:103C6000882309F4DAC0F3018181813009F48DC021
:103C700008F47BC0823009F4C8C090E080E0ADC099
:103C8000232B09F441C020917A069A81E22FE90F93
:103C9000FF27FF1F41E050E0ED3FF10514F050E039
:103CA00040E0452B89F12A87920F90937A06D3CF73
:103CB000A081B181A20FB31F11966C91060F111D47
:103CC0000196295F3F4F8417950794F38D859E8554
:103CD000089F1001099F300C189F300C1124C1144B
:103CE000D104D1F48F8184FF17C00E942A27F5E008
:103CF0002F0E311C21E08215930508F420E0A70166
:103D0000435F5F4F21110EC082E090E0F20191838A
:103D1000808387EF9FEF4DCF0E942A272FEF221A33
:103D2000320AE8CF88819981E80EF91EF7011483E1
:103D30000383FFEFCF1ADF0A7A018A818C151D04F5
:103D400009F00CF48CCFE881F981EE0DFF1D428162
:103D500050E030E020E010E000E090E080E0B3CF01
:103D6000F12CE12CD12CC12CE8CF81E090E09C8398
:103D70008B83DCDA882309F480CF81E090E00E9415
:103D8000131680E40E94211678CF89899A890196BA
:103D900061F083E090E09C838B8382E090E00E945E
:103DA000131680E40E941B1668CF8D819E8120919E
:103DB000D1033091D20382179307D1F46091D503D8
:103DC0007091D603AE014F5E5F4F8091D303909107
:103DD000D4030E9480290097E1F2789422E030E039
:103DE000F20131832083892BA9F08DEF9FEFE1CE83
:103DF00022E082169104A104B1045CF6039748F610
:103E0000CE0165DE188A1F86E6CF82E090E09C83B3
:103E10008B8333CF90E080E0CCCE82E090E0F20163
:103E20009183808385EF9FEFC4CE8F929F92AF9254
:103E3000BF92CF92DF92EF92FF920F931F93CF9397
:103E4000DF93EA018C01060F171FF801818183308F
:103E500098F082E090E09983888386EF9FEFDF916E
:103E6000CF911F910F91FF90EF90DF90CF90BF9077
:103E7000AF909F908F9008958091760690917706ED
:103E8000892B61F081E090E02091780630917906ED
:103E9000232B11F490E080E0892B39F482E090E04C
:103EA000998388838EEF9FEFDACF40DE882309F471
:103EB000E1C0F8018181813009F497C0E8F08230D7
:103EC00099F42091780630917906E0917606F09188
:103ED000770690E080E041E050E02817390709F0CC
:103EE000BFC024DA811117C0789481E090E09983F3
:103EF000888390E080E0B3CF2091780630917906F6
:103F0000E0917606F091770690E080E041E050E0A5
:103F10002817390741F481E090E00E94131680E4ED
:103F20000E942116E1CF63817481672B11F05483C5
:103F3000438301967396ECCFE0917606F091770675
:103F4000E00FF11F2381348122303105D9F421891A
:103F500032892F3F3F4FB1F4258136814091D10303
:103F60005091D2032417350761F5AF014F5E5F4FC3
:103F70006091D5037091D6038091D3039091D403BF
:103F80000E948029EFEFCE1ADE0AEE0AFE0A0D5ECD
:103F90001F4F409178065091790670E060E0C4169A
:103FA000D506E606F7064CF5009731F27894892B92
:103FB00009F49BCF82E090E0998388838DEF9FEF97
:103FC0004ECF42E0C416D104E104F104DCF6233004
:103FD0003105C0F6CF017BDDE0917606F0917706E2
:103FE000E00FF11F108A1786CDCF10E000E090E0BF
:103FF00080E0C12CD12C7601CCCF0097B9F610E02F
:1040000000E0812C912C540183E0E82EF12C1AC0A1
:10401000E0917606F0917706E00FF11F838194819D
:10402000029749F4F482E38282E090E00E94131642
:1040300080E40E941B16FFEF8F1A9F0AAF0ABF0A87
:104040000D5E1F4F8091780690917906B0E0A0E058
:1040500088169906AA06BB06DCF290E080E0A6CF9F
:10406000638174816230710511F454834383019636
:10407000739633CF82E090E09983888385EF9FEF3A
:10408000EECE0097B9F48FEFFB0180832091DB0324
:104090003091DC0343E1429FC001439F900D112406
:1040A000E0917606F0917706E80FF91F8285FB0113
:1040B000818308950C94C71588E090E0FA019183FC
:1040C000808390E080E00895109275061092740647
:1040D000E6E7F6E086E0DF011D928A95E9F78AEED1
:1040E0009BE1909373068093720608958091720607
:1040F0009091730608952F923F924F925F926F9224
:104100007F928F929F92AF92BF92CF92DF92EF9267
:10411000FF920F931F93CF93DF93CDB7DEB72F9707
:104120000FB6F894DEBF0FBECDBFF894E0917406D1
:10413000F09175063196F0937506E09374067894C5
:1041400040907606509077064114510409F40DC250
:10415000E0917806F0917906EF2B09F406C22D87DD
:1041600049875A876B877C8798878F831201B12C88
:10417000A12C10E000E08091780690917906A816B5
:10418000B90618F40115110529F1F8948091740607
:1041900090917506019790937506809374067894B4
:1041A000C8012F960FB6F894DEBF0FBECDBFDF91CA
:1041B000CF911F910F91FF90EF90DF90CF90BF9024
:1041C000AF909F908F907F906F905F904F903F90B7
:1041D0002F9008957101E418F508D10117968C917C
:1041E000179781FD54C013968D919C911497039756
:1041F00009F04DC015968D919C91EF81F8858E1731
:104200009F0709F044C0B50190E080E081D48A8323
:1042100020917606309177063D832C833D853323AC
:1042200009F44CC04C815D81452B09F49BC1809100
:10423000780690917906A816B90608F093C1C501D1
:10424000BFD88823E9F06C817D816E0D7F1D7D8351
:104250006C83DB011F968D919C91892B89F0D12C69
:10426000C12CF12CE12CAC81BD8112968C9112975E
:104270008E151F0409F094F450961C921E921F97FD
:104280002A81222321F0B50190E080E043D43FEF62
:10429000A31AB30A43E1240E311C6DCFAC81BD815A
:1042A000ED91FC91EC0DFD1D858196810BD7BFEF43
:1042B000EB1AFB0AEDE0CE0ED11CD5CFEC81FD81CF
:1042C000309709F44FC18091780690917906A8162D
:1042D000B90608F047C1EE0DFF1DFF87EE87C50147
:1042E0006FD88B83882339F1AE85BF851F968D915A
:1042F0009C915097019621E01D964D915C918417F9
:10430000950709F020E02E831982712C10E000E05F
:10431000AE85BF8512968C91781608F45DC0EE8547
:10432000FF85878590890196658576850E94B43BD7
:10433000908B8787A5CFB1E0BE83E6CF9924939475
:104340006BC087D6F6019683858383C0D601ED9036
:10435000FC90B7E06B9EE00CF11C1124F701638127
:10436000748180818F3F61F121E030E002C0220F33
:10437000331F8A95E2F7C901092E000CAA0BBB0B6B
:10438000FB01408151816281738184239523A6239F
:10439000B72321E0892B8A2B8B2B09F420E0D40151
:1043A0002C93D70111968C91F60123853485820FC9
:1043B000932F911D880E991E1486138663949CC0BA
:1043C000418150E0C4010E940B3CEBCF998206EF83
:1043D0001FEFC6C01982C4C0F981F111A0CFEDE072
:1043E0007E9E70011124AE85BF85CD90DC90CE0CF1
:1043F000DF1C17D49D838C83BB81BB2309F49ECF24
:1044000081E0EE85FF8527853089232B09F080E048
:10441000982E882309F459C0672D8E859F850E94A8
:10442000051AD60118969C938E93179761E070E059
:10443000C3D4EE85FF85218932892F3F320709F4E5
:1044400080CFBC01C9019DD7D60116969C938E934F
:104450001597D60115968D919C911697009709F4A2
:10446000B5CFEC81FD818E0F9F1F1A969C938E9382
:104470001997AE85BF85ED91FC911197EE0EFF1E49
:10448000F70121853285148613861A968C91870D43
:10449000D9018D93711016C0EE85FF85878184FF49
:1044A00011C049855A856B857C85F901418352830A
:1044B00063837483F701838594850496A80FB91FDD
:1044C00014861386F701B287A187D60115968D91C0
:1044D0009C911697892B09F443C0EE85FF852581B1
:1044E00036818091D1039091D2032817390779F052
:1044F00019968D909C90612CD60112968C911297F2
:10450000681608F423CF1A969C928E921997BE8152
:10451000BB2309F45FCF61E070E0F60187819085ED
:104520004BD4D6011796ED90FC90189715964D91A7
:104530005C91E1E0F0E0BA81BB2311F0F0E0E0E053
:104540000C811D819C01B501882799278E1B9F0B2B
:104550006BD38C01892B21F0F60185819681B2D530
:104560007394D6CE0FEF1FEF8BCE10E000E00DCE90
:104570002F923F924F925F926F927F928F929F9273
:10458000AF92BF92CF92DF92EF92FF920F931F9361
:10459000CF93DF93809176069091770610E000E04C
:1045A000892BA9F0C3DA0AEF1FEF882381F020904E
:1045B000780630907906C0917606D0917706D12C96
:1045C000C12C10E000E02C143D04A9F47894C8013B
:1045D000DF91CF911F910F91FF90EF90DF90CF90DF
:1045E000BF90AF909F908F907F906F905F904F9013
:1045F0003F902F900895C6010E94E019882309F189
:104600008B819C810397E9F48F859889892BC9F068
:10461000B60190E080E07CD221E030E0882311F008
:1046200030E020E044245524421A530AB12CA12C36
:10463000912C812C8A818815190409F038F4188A84
:104640001F864FEFC41AD40A6396BDCFE881F98163
:10465000EA0DFB1D85819681892BA1F161E070E057
:1046600087819085A9D33C01DCD28C01E881F98156
:10467000EA0DFB1D8185928525813681200F311F32
:10468000AC01421B530B9A0147815085421B530BCF
:1046900070E060E00E94143CE881F981EA0DFB1DA6
:1046A000E780F084458156819301B601C201BCD2F6
:1046B0008C01892B39F0E881F981EA0DFB1D858198
:1046C000968100D55FEF851A950A8DE0A80EB11C82
:1046D000B1CF2CCA789408952F923F924F925F9257
:1046E0006F927F929F92AF92BF92CF92DF92EF92A2
:1046F000FF920F931F93CF93DF9300D000D0CDB7DD
:10470000DEB70091760610917706992493940115EF
:10471000110509F43EC0A0907806B090790606DA3B
:10472000982E8823B1F11092770610927606109297
:1047300079061092780610927A0610927B068FEF17
:104740009FEFDC018093DB039093DC03A093DD03F8
:10475000B093DE03789480D31E830D83C12CD12CBB
:104760007601C501B0E0A0E089839A83AB83BC8366
:1047700022242A94322C89819A81AB81BC81C8166B
:10478000D906EA06FB06F4F0C8019CD480E40E9436
:104790002116892D26960FB6F894DEBF0FBECDBF29
:1047A000DF91CF911F910F91FF90EF90DF90CF900D
:1047B000BF90AF909F907F906F905F904F903F9091
:1047C0002F900895AD81BE8115968D919C9116977D
:1047D0002091D1033091D20382179307D1F45196DF
:1047E0008D919C91BCD5ED81FE8180819181B12C10
:1047F000A12C412C512C3201892B91F5BFEFCB1A02
:10480000DB0AEB0AFB0AED81FE817396FE83ED83E2
:10481000B2CFB2E0CB16D104E104F10424F7039740
:1048200010F7ED81FE81818992898F3F980709F009
:1048300011D5AD81BE8152963C922E925197D3CF25
:104840008A0D9B1DDC018D919C91009709F03AD453
:10485000BFEF4B1A5B0A6B0A7B0AEDE0AE0EB11C90
:10486000AD81BE818D919C91119712964C9150E033
:1048700070E060E044165506660677060CF322D415
:10488000BDCFCF93DF93EA0127DF811109C082E01A
:1048900090E09983888385EF9FEFDF91CF91089512
:1048A00081E090E00E94131681E090E09983888374
:1048B00090E080E0F2CF10DF109273061092720643
:1048C000089542E050E062EA74E00C943116FF92E1
:1048D0000F931F93CF93DF938A01EC01C60FD71F6D
:1048E000F980B9D20897F816190671F068F082E0DD
:1048F00090E0F801918380838EEF9FEFDF91CF915D
:104900001F910F91FF9008956C817D818E819F8111
:104910004B810E94C618811108C082E090E0F80126
:104920009183808384EF9FEFE9CFF9800E94C118C3
:104930004F2D50E0BE01685F7F4F0E940B3C898184
:104940000E94301981E090E0F8019183808390E02B
:1049500080E0D4CFDF92EF92FF920F931F93CF931B
:10496000DF938A01EC01C60FD71F0E94C1187C019A
:10497000D98071D2DD2059F0029721E030E0D816BD
:10498000190619F010F030E020E0232B79F482E0D2
:1049900090E0F801918380838EEF9FEFDF91CF91BC
:1049A0001F910F91FF90EF90DF900895EF2841F451
:1049B00082E090E0F8019183808384EF9FEFEECF57
:1049C000F9800E94C1184F2D50E0BE016E5F7F4FED
:1049D0000E940B3C89810E94301981E090E0F8012F
:1049E0009183808390E080E0D9CF81E694E2909338
:1049F0007D0680937C06089580917C0690917D06CB
:104A000008950895FC011182108293838283089592
:104A1000DB011D921C92DC011296ED91FC91139723
:104A20007183608313967C936E9312970895FC01B3
:104A300080819181DB018D939C93A081B18110973E
:104A400041F08D919C9191838083892B11F4F383A4
:104A5000E2830895FC0180819181DB018D939C9319
:104A6000892B11F473836283718360830895FC0141
:104A700011821082938382830895CF93DF931F92D4
:104A80001F92CDB7DEB71A821982F894BE016F5F0C
:104A90007F4F83E896E0CBDF89819A81009709F008
:104AA00011D389819A81892B89F7BE016F5F7F4F6E
:104AB00087E896E0BCDF89819A81009709F002D3EC
:104AC00089819A81892B89F778940F900F90DF91D3
:104AD000CF910895CF93DF931F921F92CDB7DEB78A
:104AE0001A821982F894BE016F5F7F4F8FE796E0BC
:104AF0009EDF89819A81009709F0E4D289819A81A9
:104B0000892B89F778940F900F90DF91CF910895BA
:104B100081E0089590E080E00895EF92FF920F9376
:104B20001F93CF93DF931F921F92CDB7DEB71A82E8
:104B3000198280917E0607EF1FEF8823A1F1F89478
:104B4000BE016F5F7F4F87E896E071DF78948981BF
:104B50009A81EE24E394F12C892B51F4F894BE0150
:104B60006F5F7F4F83E896E062DF7894F12CE12C51
:104B700089819A810EEF1FEF0097A9F0FC01428115
:104B8000538164E070E046D68C01892B61F0F89483
:104B900069817A81C701880F991F880F991F8D57E6
:104BA000994F58DF7894C8010F900F90DF91CF9103
:104BB0001F910F91FF90EF9008950F931F93CF9344
:104BC000DF9300D01F92CDB7DEB71C821B821A8202
:104BD000198280917E0607EF1FEF8823C1F0AE0196
:104BE0004D5F5F4F64E070E0CE01019686D68C0188
:104BF000892B69F4E981FA818B819C81938382837B
:104C0000F89469817A818FE796E002DF7894C80191
:104C10000F900F900F900F90DF91CF911F910F91F8
:104C200008958BD7049608958F929F92AF92BF926A
:104C3000CF92DF92EF92FF920F931F93CF93DF9368
:104C40001F921F92CDB7DEB71A821982BC016F5F27
:104C50007F4F6330710598F0AA24AA94BA2CC5013D
:104C60000F900F90DF91CF911F910F91FF90EF90D8
:104C7000DF90CF90BF90AF909F908F900895411597
:104C8000510551F3480159018A016C01CADF8815A9
:104C9000990511F7E114F104F9F28E0D9F1DA81684
:104CA000B906D0F280917E068823F1F0F894B50120
:104CB000645071099701AE014F5F5F4FC8010496C0
:104CC000B1D65C01892B71F489819A81F8019383B3
:104CD0008283C601880F991F880F991FB8018D57CD
:104CE000994F96DE7894BBCF87EFA82EBB24BA9459
:104CF000B6CFAF92BF92CF92DF92EF92FF920F9317
:104D00001F93CF93DF931F921F92CDB7DEB71A8206
:104D10001982892B09F047C06115710509F443C058
:104D20004115510509F43FC02115310509F43BC077
:104D300001151105C1F180917E068823B9F1790131
:104D40006A015B01F894BE016F5F7F4F8FE796E0C9
:104D50006EDE789489819A81009759F1DC01129670
:104D60006D917C91A801049676D68C01E981FA8137
:104D7000D501ED93FC93828193810496F601918392
:104D800080834FDFD7018D939C93C8010F900F90C4
:104D9000DF91CF911F910F91FF90EF90DF90CF9017
:104DA000BF90AF9008950FEF1FEFEFCF07EF1FEF0A
:104DB000ECCF0EEF1FEFE9CFCF93DF93EC01672B22
:104DC00071F4C4D68C179D0760F0B7D62496C80F2F
:104DD000D91FB6D68C0F9D1FDF91CF910895B3D602
:104DE000F1CF90E080E0F8CF0F931F93CF93DF9344
:104DF00020917E0621112BC08B01EC0183E896E007
:104E000001DE87E896E0FEDD8FE796E0FBDD97D0D8
:104E10000097C1F49BD670E060E0CEDF4FED53E029
:104E200062E070E07BD1009769F48091DF0390919C
:104E3000E0039ED6B801CE01D3D4009719F421E047
:104E400020937E06DF91CF911F910F91089584EFFB
:104E50009FEFF8CF78C67AC6CF93DF937AD6EC016E
:104E6000892B11F40ADE36DECE01DF91CF91089551
:104E7000CF93DF936ED6EC01892B09F4FEDDCE01D2
:104E8000DF91CF9108958091DF039091E003089521
:104E9000CF93DF9380917E06D0E0C0E08823D1F0ED
:104EA0006CD6EC01892BB1F4E8DD14DE8091DF03D0
:104EB0009091E003CFD1B5D2EC01892B59F483E86E
:104EC00096E0D5DD87E896E0D2DD8FE796E0CFDD8E
:104ED00010927E06CE01DF91CF910895EF92FF925E
:104EE0000F931F93CF93DF93EC017A018B010F5F38
:104EF0001F4F0E9DA0010F9D500D1E9D500D1124A2
:104F000070E060E00E94143C90E080E0F0E0E0E0BF
:104F10002FEFE816F90639F4DF91CF911F910F9129
:104F2000FF90EF9008951A8219822883309711F02C
:104F3000D283C1830196FE01C00FD11FEACFAF9289
:104F4000BF92CF92DF92EF92FF920F931F93CF9376
:104F5000DF9383EB98E07C012CEFE22243E050E00A
:104F600061EE73E087EE93E0E8D381EEC82E83E034
:104F7000D82E97EEA92E93E0B92ECCEED9E08E0173
:104F8000D6014D915D916D01F501619171915F01C6
:104F9000D8011196FC92EE9215965C934E9314975D
:104FA00013965C934E93129717967C936E93169775
:104FB0009B012F5F3F4F249FC001259F900D349F81
:104FC000900D112419969C938E931897E114F10477
:104FD00011F0C70183DFF80180859185E80EF91E85
:104FE000065F1F4FF7EECF16F3E0DF0649F6EDE858
:104FF000F6E083E292E0DF019C011D9221503040F7
:10500000E1F710928C0610928B061F8E1E8E1BA24B
:105010001AA219A218A21DA21CA21FA21EA22A96A1
:105020003AE0CA30D30789F71092E9091092E809EB
:105030001092EB091092EA0990E080E0DF91CF91A5
:105040001F910F91FF90EF90DF90CF90BF90AF90A6
:1050500008950097F1F0F894A7EEB3E0ECEEF9E0D4
:1050600030E020E04D915D9148175907A8F042814A
:1050700053814115510581F08AE0829FF001839FA1
:10508000F00D1124E451F64F80819181009759F47D
:10509000789490E080E008952F5F3F4F3A96233058
:1050A000310501F7F5CFDC0111966D917C9171838B
:1050B00060834150510953834283FC012193CF0106
:1050C00078940895009749F1DC018E91863041F47F
:1050D000E091EA09F091EB093097F9F0CD011994CC
:1050E0008630D8F4282F30E0F8948FEF8C938AE044
:1050F000829FF001839FF00D1124E451F64F8081CF
:10510000918112969C938E931197B183A083828193
:10511000938101969383828378940895CF92DF924E
:10512000EF92FF920F931F93CF93DF939C0180E93F
:1051300096E08C7F4115510509F489C02115310590
:1051400009F485C06115710509F481C08A01AB01BC
:10515000B9016D5F7F4F6C7F9B012F5F3F4F249F95
:105160007001259FF00C349FF00C1124F894ECEEA4
:10517000F9E023E030E0E901A6A1B7A1C68CD78C05
:10518000CD2809F058C0109709F03EC0C0908B069A
:10519000D0908C0620E232E02C193D092E153F05F7
:1051A00030F47894CFEFDFEF86EF9FEF21C02AE055
:1051B0002C9FF0012D9FF00D1124E451F64F9183A7
:1051C0008083558344835383428377836683F18648
:1051D000E086009709F082DEEC0CFD1CF0928C0654
:1051E000E0928B067894CF3FDC07F1F290E080E00C
:1051F000F801D183C083DF91CF911F910F91FF9070
:10520000EF90DF90CF900895AE15BF05A0F02AE093
:105210002C9FF0012D9FF00D1124E451F64F918346
:1052200080835583448353834283778366830097C7
:10523000C9F254DED7CF8A0F9B1F2F5F3F4F3A969C
:105240002630310509F097CFCFEFDFEFCBCF8FEFCF
:105250009FEFD1CF9C010397039708F04EC0F894BD
:1052600085E09AE0482F50E0241735079CF191E043
:105270008AE0829FF001839FF00D1124E451F64FE4
:105280001182108215821482138212821782168272
:105290009923E1F080918B0690918C06ECEEF9E079
:1052A000268D378D232B49F426A137A121153105F1
:1052B00021F0821B930B17A216A23A962AE0EA303D
:1052C000F20771F790938C0680938B06789490E0A8
:1052D00080E00895949FF001959FF00D1124E45112
:1052E000F64F40815181452B31F440855185452B46
:1052F00011F48150B7CF90E0BBCF8FEF9FEF0895AF
:105300004115510549F1009739F16115710521F1F8
:10531000F8942091E8093091E909232BB9F4209100
:10532000EA093091EB09232B89F49093E9098093E2
:10533000E8097093EB096093EA09789426E030E07D
:1053400090E080E0FA0131832083089578942FEF74
:105350003FEF86EF9FEFF6CF8FEF9FEF0895069711
:1053600069F4F8941092E9091092E8091092EB0997
:105370001092EA09789490E080E008958FEF9FEF13
:1053800008956115710519F4F0E0E0E011C0863070
:10539000910581F4E091E809F091E9093097A1F3D2
:1053A000CB0101961995009779F3FC0186E0819372
:1053B000CF0108959C01235031092330310520F796
:1053C0002AE0289FD001299FB00D1124A451B64F87
:1053D0002D913C911197232BB9F216962D913C916A
:1053E00017972617370780F2F89412962D913C9163
:1053F00013972115310529F0ED91FC911197309704
:1054000011F47894C1CF4181528111965C934E93EF
:105410002150310913963C932E93129781937894DF
:10542000C7CFE0EBF8E088E391E0DF019C011D923B
:1054300021503040E1F7EDE8F6E083E292E0DF0151
:105440009C011D9221503040E1F710928C06109281
:105450008B06ECEEF9E08CE3DF011D928A95E9F70B
:10546000E8EEF9E084E0DF011D928A95E9F790E02B
:1054700080E00895CF93DF93C091ED03D091EE03C8
:10548000CF3FDC0759F471D49093EE038093ED0382
:1054900097FF09C0D093EE03C093ED0384EF9FEF15
:1054A000DF91CF91089590E080E0FACF82309105AE
:1054B00028F48093280A90E080E008958FEF9FEF12
:1054C00008954F925F926F927F92AF92BF92CF9268
:1054D000DF92EF92FF920F931F93CF93DF931F9270
:1054E0001F92CDB7DEB71A821982009709F479C0EE
:1054F0006115710509F475C02091ED033091EE033B
:1055000007EF1FEF2F3F3F4F09F445C06B015C01D0
:10551000412C512C3201F12CE12C10E000E09E01D5
:105520002F5F3F4FA6014E195F09B5016E0D7F1D1C
:105530008091ED039091EE037CD4892B09F04BC050
:1055400089819A81009741F4E114F10429F42091B2
:10555000280A222309F442C0E80EF91EEC14FD04C7
:10556000D0F480E8481684E858068EE16806710495
:1055700020F560E070E0CB010E94F1352AE0420E98
:10558000511C611C711C0A3F4FEF140721F0043FAE
:105590008FEF1807A1F4C8010F900F90DF91CF9102
:1055A0001F910F91FF90EF90DF90CF90BF90AF9041
:1055B0007F906F905F904F90089501EF1FEF81E013
:1055C00090E0013F2FEF120711F090E080E0892B6F
:1055D00009F4A5CFE0CF04EF1FEFDDCF0AEF1FEFF7
:1055E000DACF0FEF1FEFD7CF4F925F926F927F927C
:1055F000AF92BF92CF92DF92EF92FF920F931F93E1
:10560000CF93DF931F921F92CDB7DEB71A82198214
:10561000009709F479C06115710509F475C02091EE
:10562000ED033091EE0307EF1FEF2F3F3F4F09F4DB
:1056300045C06B015C01412C512C3201F12CE12C55
:1056400010E000E09E012F5F3F4FA6014E195F0959
:10565000B5016E0D7F1D8091ED039091EE039CD3FB
:10566000892B09F04BC089819A81009741F4E1149C
:10567000F10429F42091280A222309F442C0E80EFB
:10568000F91EEC14FD04D0F480E4481682E45806B8
:105690008FE06806710420F560E070E0CB010E94A5
:1056A000F1352AE0420E511C611C711C0E3F4FEF78
:1056B000140721F0043F8FEF1807A1F4C8010F90E1
:1056C0000F90DF91CF911F910F91FF90EF90DF909E
:1056D000CF90BF90AF907F906F905F904F90089564
:1056E00002EF1FEF81E090E0023F2FEF120711F071
:1056F00090E080E0892B09F4A5CFE0CF04EF1FEF05
:10570000DDCF0EEF1FEFDACF0FEF1FEFD7CF809176
:10571000ED039091EE038F3F980749F01ED3892B3C
:1057200049F48FEF9FEF9093EE038093ED0390E0A9
:1057300080E0089584EF9FEF0895CF92DF92EF927B
:10574000FF920F931F93CF93DF9321E041155105F3
:1057500009F020E04150510921112CC0DC01FB016E
:10576000D12CC12C21E022C03FEFC31AD30A7D0106
:105770000D911D91E701EA80FB80E016F106A8F487
:1057800020813181E280F380F182E08233832283C1
:10579000ED90FC9011979D0122503109E901F982A9
:1057A000E88211961C930E9320E03296C416D5061B
:1057B000D8F2D2CFDF91CF911F910F91FF90EF9050
:1057C000DF90CF900895FC01680F791F90E080E092
:1057D000E617F70709F408952191820F911DF8CF7C
:1057E0002091290A211113C045DE009791F41092EF
:1057F0002F0A10922E0A10922D0A10922C0A109243
:105800002B0A10922A0A21E02093290A089584EF96
:105810009FEF0895AF92BF92CF92DF92EF92FF92E7
:105820000F931F93CF93DF93009709F460C0463026
:10583000510508F45CC02091290AC7EFDFEF22234D
:1058400009F449C08C01060F171FF801C080D180F0
:10585000C114D10409F44EC096012A5F3F4F42178C
:10586000530708F447C07C0180912E0A90912F0ABB
:1058700093838283B6016C5F7F4F5801A60EB71EDB
:10588000C801A1DFF5019183808364E070E0C80165
:1058900018DEEC01892BF9F481E090E007DEB60117
:1058A000C80104960EDEEC01892B91F462E070E0F1
:1058B000C50107DEEC01892B59F4C70103DC809197
:1058C0002E0A90912F0A019690932F0A80932E0A08
:1058D00090E080E0EBDDCE01DF91CF911F910F9141
:1058E000FF90EF90DF90CF90BF90AF900895CFEFF3
:1058F000DFEFF1CFC9EFDFEFEECF6F927F928F92A4
:105900009F92AF92BF92CF92DF92EF92FF920F934E
:105910001F93CF93DF9300D01F92CDB7DEB70097D0
:1059200009F47AC04115510509F476C02091290A7D
:1059300007EF1FEF222309F44DC03A017B015C0100
:1059400064E070E0CE0101964FDE8C01892B09F0F6
:1059500041C009811A810115110509F45AC0480195
:1059600086E0880E911CB701680D791D8091EF03C8
:105970009091F00306DD6C01009709F450C0A70177
:1059800070E060E00E94143C89819A81AB81BC8107
:10599000EC0CFD1CF70181939193A193B1937F01CE
:1059A00081E090E083DDB801C7011EDE892B31F56F
:1059B00062E070E0C701800F911F16DE8C01892B19
:1059C000E9F490E080E072DDF501D182C082F3015C
:1059D00091828082C8010F900F900F900F90DF91FD
:1059E000CF911F910F91FF90EF90DF90CF90BF90DC
:1059F000AF909F908F907F906F90089590E080E09F
:105A000055DDF50111821082F30111821082C60169
:105A100059DB09EF1FEFDECF0FEF1FEFDBCF06EFF4
:105A20001FEFD8CF0097A1F04115510589F021153E
:105A3000310571F0F90136966E177F0748F0DC01E9
:105A40002D933C93DA01ED93FC9390E080E0089570
:105A50008FEF9FEF0895AF92BF92CF92DF92EF92B8
:105A6000FF920F931F93CF93DF93009709F45FC0CA
:105A70004115510509F45BC06530710508F457C044
:105A80002091290AC7EFDFEF222391F1DC01CD90AD
:105A9000DC9011971296ED91FC9196012A5F3F4F91
:105AA000C9EFDFEF2617370719F5C0912A0AD09101
:105AB0002B0A209749F521E030E030932B0A209300
:105AC0002A0A7A018C01F0932D0AE0932C0A5601E0
:105AD000B4E0AB0EB11CB50176DE0A0D1B1DF8015A
