:1000000007C100000C940A3C0C94353C0C94603CF5
:100010000C948B3C0C94B63C0C94E13C0C940C3D41
:100020000C94373D43C40000E4C400001EC500002A
:1000300020C100001EC100001CC100001AC1000048
:1000400018C1000016C1000014C1000012C1000058
:1000500010C100000EC100000CC100000C94623DF4
:1000600008C100000C9436410C946C4102C10000A0
:1000700000C10000FEC00000FCC00000FAC000008B
:10008000F8C00000F6C00000F4C00000F2C000009C
:100090000C94C2410C94F841ECC00000EAC000008E
:1000A000E8C00000E6C00000E4C00000E2C00000BC
:1000B000E0C00000DEC00000DCC00000DAC00000CC
:1000C000D8C00000D6C000000C942A360C944E42D2
:1000D0000C948442CEC000000C94DA420C9410437D
:1000E000C8C0000005A84CCDB2D44EB93836A9021C
:1000F0000C50B9918688083CA6AAAA2ABE00000026
:10010000803F00000A0B02090C0D0E0807030401D2
:1001100000000000000000000000000000000000DF
:1001200000000000000000000000000000001211AC
:1001300010000000000000000000000000000000AF
:10014000000000000000000001021020200808103C
:100150002040102040800201020108040201010237
:100160000408102040808040201008040201800410
:10017000020180402010080402010804020101026B
:10018000040810204080010204081020408005056A
:100190000505070508080808020202020A0A0808FD
:1001A000040404040101010101010101030303032B
:1001B00003030303040707070C0C0C0C0C0C0C0CBA
:1001C0000202020206060606060606060B0B0B0BCB
:1001D0000B0B0B0B00002200250028002B002E002B
:1001E0003100340002010000050108010B0100008C
:1001F0002100240027002A002D00300033000101D7
:100200000000040107010A0195412142AD42394332
:1002100011241FBECFEFD1E2DEBFCDBF00E00CBF87
:1002200013E0A0E0B2E0E4E4FAE800E00BBF02C0B3
:1002300007900D92A63DB107D9F72CE0A6EDB3E0EB
:1002400001C01D92A239B207E1F711E0C8E0D1E088
:1002500000E006C021970109802FFE010E94CA43D9
:10026000C430D10780E00807A9F70E94CD370C946D
:100270002045C6CECF92DF92EF92FF92CF93882394
:1002800051F16A017B01CFEFC80F20E030E0A901F6
:10029000CB01B6010E94C33818168CF0C701B60115
:1002A00090580E9434399B01AC016C2F70E090E0B3
:1002B00080E0CF91FF90EF90DF90CF90B2C0C70168
:1002C000B6010E942F398C2FCF91FF90EF90DF90D5
:1002D000CF900C94693ECF91FF90EF90DF90CF903C
:1002E00008950F931F938B019C0183E0369527950A
:1002F000179507958A95D1F70A521C4F462F4770DC
:1003000021E030E0F90102C0EE0FFF1F4A95E2F74D
:10031000AF01F80120812423CB010196211102C0F5
:1003200090E080E01F910F9108950F931F938B0130
:100330009C0183E036952795179507958A95D1F707
:10034000677081E090E001C0880F6A95EAF7F801D4
:10035000EA52FC4F2081452B31F480958223808323
:100360001F910F910895822BFACF2F923F924F92B7
:100370005F926F927F928F929F92AF92BF92CF9235
:10038000DF92EF92FF920F931F93CF93DF93D62EBE
:10039000C72E782E692E49015A01280161E08D2D62
:1003A0000E94A33FCD2DDC2D8E010F5F1F4FA801B2
:1003B0006D2D7C2D872D962DB8DF20E030E0A90132
:1003C000C201B7010E94B33A181664F4C201B70122
:1003D0000E9434392B01C501B4010E943439A201B5
:1003E000CE0123D0C801DF91CF911F910F91FF90D3
:1003F000EF90DF90CF90BF90AF909F908F907F90C5
:100400006F905F904F903F902F900895882341F018
:100410008150682F70E090E080E050E040E085CFB0
:100420000895862FB9010C94693E9C01FC01EE5F92
:10043000FE4FE491E150E231E0F4F0E08827EC5D1A
:10044000FD4F8F4F0C94CA4336023D0240025702C3
:100450006C02390281028D029102A802BD02D20211
:10046000E902FE02390213032A033F0384B58068C0
:1004700084BD60E0822F0C94DF3F84B58062F8CFAA
:10048000809180008C7F82608093800080918100C9
:10049000807E8061682B6093810050938700409339
:1004A000860080918000806880938000E2CF8091F8
:1004B00080008C7F82608093800080918100807EAC
:1004C0008061682B60938100509387004093860081
:1004D000809180008062E8CF809180008C7F826074
:1004E0008093800080918100807E8061682B609382
:1004F000810050938700409386008091800088603F
:10050000D3CF8091B00080688093B0008091B1001B
:10051000887F682B6093B100ACCF8091B00080627F
:10052000F3CF809190008C7F8260809390008091C7
:100530009100807E8061682B6093910050939700BA
:10054000409396008091900080688093900091CFB6
:10055000809190008C7F82608093900080919100C8
:10056000807E8061682B6093910050939700409348
:100570009600809190008062E8CF809190008C7FFF
:1005800082608093900080919100807E8061682BD2
:100590006093910050939700409396008091900053
:1005A0008860D3CF8091A0008C7F82608093A00070
:1005B0008091A100807E8061682B6093A1005093A0
:1005C000A7004093A6008091A00080688093A000BF
:1005D00050CF8091A0008C7F82608093A00080919A
:1005E000A100807E8061682B6093A1005093A700DA
:1005F0004093A6008091A0008062E8CF8091A00087
:100600008C7F82608093A0008091A100807E8061B9
:10061000682B6093A1005093A7004093A60080919F
:10062000A0008860D3CF809120018C7F826080936E
:10063000200180912101807E8061682B60932101DF
:100640005093270140932601809120018068809378
:1006500020010FCF809120018C7F82608093200148
:1006600080912101807E8061682B609321015093ED
:10067000270140932601809120018062E8CF80917C
:1006800020018C7F82608093200180912101807EF7
:100690008061682B609321015093270140932601CC
:1006A000809120018860D3CF9CB1892F807294FF04
:1006B00016C0811116C08091E3039091E403A091CC
:1006C000E503B091E6030196A11DB11D8093E303FC
:1006D0009093E403A093E503B093E603089581119A
:1006E000EACF8091E3039091E403A091E503B091F8
:1006F000E6030197A109B109E9CF99B1892F847067
:1007000093FF16C08823B1F08091F1039091F2031A
:10071000A091F303B091F4030196A11DB11D809344
:10072000F1039093F203A093F303B093F4030895BD
:10073000882351F38091F1039091F203A091F30388
:10074000B091F4030197A109B109E9CF8CB190E010
:100750009C01220F232F221F330B86FF16C080918E
:10076000FF0390910004A0910104B0910204232B97
:10077000B9F40196A11DB11D8093FF03909300046D
:10078000A0930104B093020408958091FF03909117
:100790000004A0910104B09102042130310549F315
:1007A0000197A109B109E8CF9CB1892F807195FF0C
:1007B00016C08823B1F08091E3039091E403A091E7
:1007C000E503B091E6030196A11DB11D8093E303FB
:1007D0009093E403A093E503B093E6030895882380
:1007E00051F38091E3039091E403A091E503B0916C
:1007F000E6030197A109B109E9CF99B1892F887062
:1008000092FF16C0811116C08091F1039091F203FE
:10081000A091F303B091F4030196A11DB11D809343
:10082000F1039093F203A093F303B093F4030895BC
:100830008111EACF8091F1039091F203A091F3032B
:10084000B091F4030197A109B109E9CF8CB190E00F
:1008500086FB222720F930E0880F892F881F990B0B
:100860000197B1F48091FF0390910004A0910104DD
:10087000B0910204232BB1F00196A11DB11D80930C
:10088000FF0390930004A0930104B0930204089521
:100890008091FF0390910004A0910104B0910204A3
:1008A000232B51F30197A109B109E9CF1F920F92B0
:1008B0000FB60F9211242F933F934F935F938F9313
:1008C0009F93AF93BF9383B121E030E0982F907254
:1008D00085FD02C030E020E08074409123045091F7
:1008E00024044217530709F062C021E030E081116F
:1008F00002C030E020E030932204209321048823BA
:1009000009F1911121C080911B0490911C04A091C8
:100910001D04B0911E040196A11DB11D80931B04FE
:1009200090931C04A0931D04B0931E0480911B049B
:1009300090911C04A0911D04B0911E040196A11D6C
:10094000B11D20C09111DFCF80911B0490911C0438
:10095000A0911D04B0911E040197A109B1098093D3
:100960001B0490931C04A0931D04B0931E0480915B
:100970001B0490911C04A0911D04B0911E040197CA
:10098000A109B10980931B0490931C04A0931D043A
:10099000B0931E04BF91AF919F918F915F914F9142
:1009A0003F912F910F900FBE0F901F90189530938D
:1009B000240420932304992371F0882371F08091FB
:1009C0001B0490911C04A0911D04B0911E0401967B
:1009D000A11DB11DC4CF882391F380911B04909178
:1009E0001C04A0911D04B0911E040197A109B10936
:1009F00095CF1F920F920FB60F9211248F939F9352
:100A0000AF93BF938091060181709091030190FF95
:100A10001EC081111EC080910D0490910E04A09102
:100A20000F04B09110040196A11DB11D80930D0417
:100A300090930E04A0930F04B0931004BF91AF9154
:100A40009F918F910F900FBE0F901F90189581115D
:100A5000E2CF80910D0490910E04A0910F04B0910B
:100A600010040197A109B109E1CF1F920F920FB6AF
:100A70000F9211248F939F93AF93BF9380910301A3
:100A800081709091060190FF1EC08823F1F0809143
:100A90000D0490910E04A0910F04B09110040196E2
:100AA000A11DB11D80930D0490930E04A0930F041B
:100AB000B0931004BF91AF919F918F910F900FBE93
:100AC0000F901F901895882311F380910D04909139
:100AD0000E04A0910F04B09110040197A109B1096F
:100AE000E1CF0F931F93CF93DF938C018EE0809F14
:100AF000E001819FD00D1124C152DC4F79836883BE
:100B00005B834A838881998160E00E94A33F8A8148
:100B10009B8160E00E94A33F8881998161E00E94EF
:100B2000DF3F8A819B8161E00E94DF3F0230110537
:100B300009F487C064F40115110501F101301105B4
:100B400009F450C0DF91CF911F910F9108950330A8
:100B5000110509F4A5C004301105A1F780916800C2
:100B600081608093680080916B00806280936B004D
:100B700080916B00806480936B00E4CF8091DF03F1
:100B80009091E00302978431910530F5895E9C4F86
:100B9000FC018081082E000C990B41E050E064E5D7
:100BA00073E00E94903B8091E1039091E2030297F1
:100BB00084319105A0F4895E9C4FFC018081082E50
:100BC000000C990B41E050E064ED73E0DF91CF91B0
:100BD0001F910F910C94903B8FEF9FEFDECF8FEF23
:100BE0009FEFF0CF8091ED039091EE030297843157
:100BF000910508F5895E9C4FFC018081082E000C50
:100C0000990B41E050E06DEF73E00E94903B8091C2
:100C1000EF039091F00302978431910578F4895E97
:100C20009C4FFC018081082E000C990B41E050E0A4
:100C30006DE773E0CBCF8FEF9FEFE3CF8FEF9FEFA9
:100C4000F5CF8091FB039091FC03029784319105CD
:100C500008F5895E9C4FFC018081082E000C990BE1
:100C600041E050E066EA73E00E94903B8091FD0312
:100C70009091FE0302978431910578F4895E9C4F30
:100C8000FC018081082E000C990B41E050E066E2E7
:100C900074E09CCF8FEF9FEFE3CF8FEF9FEFF5CF07
:100CA0008091680084608093680080916800826011
:100CB0008093680080916D00816080936D008091C9
:100CC0006C00826080936C003DCF2EE0269FF00187
:100CD000279FF00D1124E152FC4F648175818681BC
:100CE0009781089590E080E008950F931F930097F7
:100CF00009F48DC06115710509F489C00091DE0207
:100D00001091DF022091E0023091E1020E3F1F4F6F
:100D10002F4F3F4F09F06CC04FEF5FEFBA01409388
:100D2000DE025093DF026093E0027093E102409193
:100D3000DE025091DF026091E0027091E102DC017D
:100D40001296ED91FC9180819181A281B381809373
:100D50003E0590933F05A0934005B09341058481E3
:100D60009581A681B78180933A0590933B05A09326
:100D70003C05B0933D0580859185A285B385809320
:100D8000360590933705A0933805B09339058485CF
:100D90009585A685B7858093320590933305A093FA
:100DA0003405B093350510922E0510922F05109240
:100DB0003005109231050E94DD1982E09AE190938E
:100DC000260480932504909328048093270490930D
:100DD0002A04809329040E94CC18009731F421E062
:100DE00030E030934305209342051F910F91089501
:100DF0000091DE021091DF022091E0023091E102C9
:100E0000DB010D931D932D933C93139790CF8FEFA0
:100E10009FEFEBCF8F929F92AF92BF92CF92DF92D4
:100E2000EF92FF921F93CF93DF934B015C011091E0
:100E3000450582E090E0909343058093420581143C
:100E40009104A104B10441F480914505811104C0CD
:100E500080914405C1E08111C0E0C12CD12C760104
:100E600080914505811106C080914405811102C021
:100E7000CC23D9F083E090E0909343058093420522
:100E8000CC2381F1CCE9DFEF111102C00E94671D74
:100E9000CE01DF91CF911F91FF90EF90DF90CF9027
:100EA000BF90AF909F908F9008956AE070E080E0CF
:100EB00090E00E94D13D80E1C80E87E2D81EE11C7F
:100EC000F11C8FEF88169806A806B80631F0C1E02D
:100ED0008C149D04AE04BF0408F0C0E080E00E94C2
:100EE0000019BECFD0E0C0E0CFCFCF92DF92EF921B
:100EF000FF920F931F93CF93DF938F3F910511F0D4
:100F000008F051C02091420530914305233031054E
:100F100039F020914205309143052130310531F4FB
:100F200024E030E030934305209342056A017B01C1
:100F3000EC0183309105A8F011E0AE01C701B601C4
:100F40000E94CB18AB01BC01CE011123F9F0DF9157
:100F5000CF911F910F91FF90EF90DF90CF900C9465
:100F6000931F8C01000F111F0B5D1B4FD8018D913A
:100F70009C91892B09F30E949D1F0297E9F6D801E5
:100F8000ED91FC91CE011995182FD7CF0E94B51F76
:100F900090E080E0DF91CF911F910F91FF90EF9053
:100FA000DF90CF9008958FEF9FEFF4CF80E00C9407
:100FB0000019CF93DF9386E090E0909343058093F0
:100FC00042050E945919EC01E5E2F4E086E0DF01F8
:100FD0001D928A95E9F70E94FF1C1092430510921A
:100FE0004205CE01DF91CF91089580914405089587
:100FF00080912D0508956093DE027093DF02809347
:10100000E0029093E10290E080E00895AF92BF92F9
:10101000CF92DF92EF92FF920F931F93CF93DF93C4
:10102000FC014681578181E090E030E020E0241708
:1010300035070CF444C0C481D581C817D907A4F57D
:10104000C031D10514F4C0E1D0E0C817D9070CF4C1
:101050004BC05B018F01CE01880F991F880F991F2C
:101060000E94EB437C01F801C080D180C114D104FF
:10107000A1F0A501B7FE02C050E040E0440F551FAB
:10108000440F551FB601C7010E941045F801808525
:10109000882319F0C6010E948744F801F182E0829A
:1010A000D583C48381E08087DF91CF911F910F9119
:1010B000FF90EF90DF90CF90BF90AF900895E9013F
:1010C000CC0FDD1FA281B381AC0FBD1F0D90BC9171
:1010D000A02DEC01CA9FC001CB9F900DDA9F900D0F
:1010E00011242F5F3F4FA3CFC11520E4D2071CF47A
:1010F000CC0FDD1FAACFCFEFDFE7A7CFCF93DF93D2
:10110000DC01ED91FC913097A9F0EC018081918197
:10111000009721F0208521110E948744E881F98100
:10112000828193810E948744888199810E948744AB
:1011300019821882DF91CF9108950F931F93CF9357
:10114000DF938C0189E090E00E94EB43EC01F80111
:10115000918380831982188282E090E09F838E833E
:1011600084E090E00E94EB439B838A831D821C8273
:1011700021E02887FC011182108213821282DF9104
:10118000CF911F910F910895FC0191E08091FA0495
:10119000811190E0928308952F923F924F925F9237
:1011A0006F927F928F929F92AF92BF92CF92DF9277
:1011B000EF92FF920F931F93CF93DF9300D000D055
:1011C0001F921F92CDB7DEB78091FA049091F90477
:1011D000911105C091E0811190E09093FB048F5F25
:1011E0008A3008F0EFC08093FA0460911602709183
:1011F000170280911802909119029B01AC010E9484
:101200005F382BED3FE049E450E40E94B73AE091AB
:101210000305F091040520813181428153810E94B0
:10122000B73A2091BA023091BB024091BC02509172
:10123000BD020E945F380E941A3B2091B202309199
:10124000B3024091B4025091B5020E94B73A209186
:10125000B6023091B7024091B8025091B9020E9493
:101260005F382091BE023091BF024091C002509180
:10127000C1020E94B73A60933C0C70933D0C80937E
:101280003E0C90933F0C6093400C7093410C809304
:10129000420C9093430C2091EC0B3091ED0B40915C
:1012A000EE0B5091EF0B2093440C3093450C409380
:1012B000460C5093470C0E945E386B017C01C09233
:1012C000480CD092490CE0924A0CF0924B0C2091C1
:1012D000AE023091AF024091B0025091B10260E095
:1012E00070E08FE793E40E94C738A70196010E943F
:1012F000B73A0E949D3960936C0C70936D0C80938B
:101300006E0C90936F0C0E94C817882309F45DC07F
:1013100010926C0C10926D0C10926E0C10926F0C5F
:10132000C0906C0CD0906D0CE0906E0CF0906F0C37
:1013300020E030E0A901C701B6010E94C33887FF51
:1013400067C0C701B60190580E94343900271127A1
:10135000061B170BB80117FF04C066277727601B11
:10136000710B072E000C880B990B0E94623920919B
:10137000AA023091AB024091AC025091AD020E94A2
:101380005F386B017C01C0926C0CD0926D0CE092C6
:101390006E0CF0926F0C8090C6029090C702A090E5
:1013A000C802B090C902A50194010E94B33A181670
:1013B000ACF580926C0C90926D0CA0926E0CB09279
:1013C0006F0C3CC01092FA0410CF60916C0C7091BD
:1013D0006D0C80916E0C90916F0C0E94831781119F
:1013E00097CF60916C0C70916D0C80916E0C909108
:1013F0006F0C20E030E040E857E40E94B73960937A
:101400006C0C70936D0C80936E0C90936F0C88CF66
:10141000C701B6010E9434398B019CCF8090CA026B
:101420009090CB02A090CC02B090CD02A501940187
:10143000C701B6010E94C33887FDBBCF20916C0C59
:1014400030916D0C40916E0C50916F0C6091CE02FA
:101450007091CF028091D0029091D1020E945E38AB
:101460006B017C01E894F7F867E070E080E090E0C1
:101470000E9471019093E50B8093E40B8091DA0256
:101480009091DB02081719070CF415C1C0926C0C7F
:10149000D0926D0CE0926E0CF0926F0C60916C0C1F
:1014A00070916D0C80916E0C90916F0C0E949D3923
:1014B00060936C0C70936D0C80936E0C90936F0C1A
:1014C0000E94C817882309F407C110926C0C10926F
:1014D0006D0C10926E0C10926F0C80906C0C9090B2
:1014E0006D0CA0906E0CB0906F0C20E030E0A90164
:1014F000C501B4010E94C33887FF11C1C501B40101
:1015000090580E943439619570E090E080E00E942C
:101510006239AB01BC018091E40B9091E50B0E9414
:101520003A0166E070E080E090E00E9471019093E3
:10153000DD0B8093DC0B8091DC029091DD020817BB
:10154000190744F0C090CE02D090CF02E090D002B4
:10155000F090D102C701B6010E949D3960936C0CD6
:1015600070936D0C80936E0C90936F0C0E94C81753
:10157000882309F4D9C010926C0C10926D0C109253
:101580006E0C10926F0CC0906C0CD0906D0CE090B3
:101590006E0CF0906F0C20E030E0A901C701B6019D
:1015A0000E94C33887FFE3C0C701B60190580E946C
:1015B0003439619570E090E080E00E946239AB01BF
:1015C000BC018091DC0B9091DD0B0E943A0180916F
:1015D000FB04882381F08091080C9091090CA09164
:1015E0000A0CB0910B0C80934C0C90934D0CA09373
:1015F0004E0CB0934F0CE0910305F09104058081EF
:101600009181A281B3818093500C9093510CA0934F
:10161000520CB093530C8FEF9FEFDC0180932C0C96
:1016200090932D0CA0932E0CB0932F0CCE0101960D
:1016300084DD8091320C811165C181E08093320C90
:101640006091120270911302809114029091150220
:101650000E94C817882309F48FC080912A0C9091AA
:101660002B0CDC011296ED91FC914081518122817D
:101670003381429FB001439F700D529F700D112422
:1016800021E030E03183208333832283BFDC8091EB
:10169000800C9091810CA091820CB091830CE09110
:1016A0002A0CF0912B0C0190F081E02D8083918326
:1016B000A283B383C0C08091CE029091CF02A0914B
:1016C000D002B091D10280936C0C90936D0CA093DA
:1016D0006E0CB0936F0CE2CE60916C0C70916D0C3F
:1016E00080916E0C90916F0C0E9483178111EDCE4A
:1016F00060916C0C70916D0C80916E0C90916F0CE0
:1017000020E030E040E853E40E94B73960936C0C6D
:1017100070936D0C80936E0C90936F0CDECEC501B0
:10172000B4010E943439F0CE60916C0C70916D0C54
:1017300080916E0C90916F0C0E94831781111BCFCA
:1017400060916C0C70916D0C80916E0C90916F0C8F
:1017500020E030E040E853E40E94B73960936C0C1D
:1017600070936D0C80936E0C90936F0C0CCFC7012F
:10177000B6010E9434391ECF20E030E040E050E452
:1017800060911202709113028091140290911502DF
:101790000E945F380E94C81781115FCFC09012026B
:1017A000D0901302E0901402F090150220E030E097
:1017B000A901C701B6010E94C338882379F120E04E
:1017C00030E040E050E4C701B6010E945F384B01B1
:1017D0005C0120E030E040E050E40E94B33A18168B
:1017E0004CF420E030E0A901C701B6010E94C338E3
:1017F00087FD14C020E030E040E050E4C501B401B2
:101800000E94C33887FFD3C220E030E0A901C7019E
:10181000B6010E94B33A18160CF0C9C2E0912A0C26
:10182000F0912B0C0280F381E02D81E090E0918318
:10183000808313821282E0912A0CF0912B0C02809B
:10184000F381E02D81E022813381232B09F480E0B4
:101850008093380C609112027091130280911402EF
:10186000909115029B01AC010E945F3820E030E0AE
:1018700040E85FE30E945F3860931C0C70931D0C7E
:1018800080931E0C90931F0C21E02093370C209323
:10189000330C2093340C2093350CE090280CF090FE
:1018A000290CF70102811381D8012D913C911197E8
:1018B00012964D915C911397249F5001259FB00C77
:1018C000349FB00C112421E030E02D933C930E9412
:1018D0002F392B01F80173836283B501C70196DBB1
:1018E000141415047CF4A201440F551F440F551F16
:1018F000E091280CF091290C70E060E080819181EA
:101900000E94194520E030E040E85FE36091140C4C
:101910007091150C8091160C9091170C0E945F38F5
:101920006093140C7093150C8093160C9093170C05
:1019300020E030E040E85FE30E945E386B017C010C
:10194000C0926C0CD0926D0CE0926E0CF0926F0C09
:101950008090120290901302A0901402B090150291
:1019600020E030E0A901C501B4010E94C338811113
:10197000E5C420E030E0A901C701B6010E94C338E8
:10198000811108C080926C0C90926D0CA0926E0C2C
:10199000B0926F0C40906C0C50906D0C60906E0C7F
:1019A00070906F0C20E030E0A901C301B2010E94E9
:1019B000C338811116C020E030E040E85FE3609159
:1019C000180C7091190C80911A0C90911B0C0E94AC
:1019D0005F386093180C7093190C80931A0C9093D5
:1019E0001B0C8090180C9090190CA0901A0CB090C1
:1019F0001B0C20E030E040E050E4C501B4010E943F
:101A0000C33887FFB3C520E030E0A901C301B201AC
:101A10000E94C338811199C580914C0C90914D0C56
:101A2000A0914E0CB0914F0C80935C0C90935D0C88
:101A3000A0935E0CB0935F0C4091CA0B5091CB0BFE
:101A40006091CC0B7091CD0B4093600C5093610C66
:101A50006093620C7093630C21E030E03093D30B01
:101A60002093D20B22E030E03093D50B2093D40B9F
:101A70008093CA0B9093CB0BA093CC0BB093CD0B60
:101A80004093CE0B5093CF0B6093D00B7093D10B40
:101A900021E02093330C80936C0C90936D0CA093F9
:101AA0006E0CB0936F0C8093540C9093550CA093D4
:101AB000560CB093570CE091280CF091290C028041
:101AC000F381E02D02811381023011050CF455C71A
:101AD0000250110989819A81DC011296ED91FC91E5
:101AE0004081518122813381429FB001439F700D1B
:101AF000529F700D112421E030E031832083980142
:101B00002E5F3F4F3383228381DAE980FA80F70129
:101B10008081918140916C0C50916D0C60916E0CA4
:101B200070916F0CDC014D935D936D937C931397D3
:101B30000F3F100781F0A8014F5F5F4F440F551F03
:101B4000440F551FE091280CF091290C60817181A0
:101B500004960E9410458091280C9091290CDC017C
:101B60001296ED91FC914081518122813381429FF7
:101B7000B001439F700D529F700D112421E030E0A1
:101B800031832083D70112962D913C91D901129671
:101B90000D911C911383028339DA101611068CF40F
:101BA000E091280CF091290CA801440F551F440F17
:101BB000551FA981BA816D917C91808191810E948C
:101BC0001045CE0101969ADA81E08093360C80911F
:101BD0006C0C90916D0CA0916E0CB0916F0C809379
:101BE000580C9093590CA0935A0CB0935B0C60E086
:101BF00070E0CB016AD80E9462396093640C7093E4
:101C0000650C8093660C9093670C2091300C211129
:101C100008C060930C0C70930D0C80930E0C909385
:101C20000F0C2091D6023091D7024091D8025091EA
:101C3000D9020E94B73AECEEFBE0048115812681BF
:101C400037810193119321933193BCE0E430FB077A
:101C5000A1F76093040C7093050C8093060C90938D
:101C6000070CC090DC04D090DD04E090DE04F0901E
:101C7000DF04EFEFCE1ADE0AEE0AFE0AC092DC04A1
:101C8000D092DD04E092DE04F092DF04C114D104AE
:101C9000E104F10499F48091E0049091E104A091B1
:101CA000E204B091E3040196A11DB11D8093E0040C
:101CB0009093E104A093E204B093E3048090E404E1
:101CC0009090E504A090E604B090E704009103052D
:101CD000109104056091E0047091E1048091E204A8
:101CE0009091E3040E946039A50194010E94B73AE3
:101CF00020E030E040E85FE40E94B73A2B013C016D
:101D0000C701B6010E946039A50194010E94B73A4B
:101D10009B01AC01C301B2010E945F38D8016D93F1
:101D20007D938D939C9313978091E8049091E9049F
:101D3000A091EA04B091EB040196A11DB11D80931E
:101D4000E8049093E904A093EA04B093EB04892B90
:101D50008A2B8B2B99F48091EC049091ED04A09147
:101D6000EE04B091EF040196A11DB11D8093EC0427
:101D70009093ED04A093EE04B093EF0428960FB671
:101D8000F894DEBF0FBECDBFDF91CF911F910F91B1
:101D9000FF90EF90DF90CF90BF90AF909F908F908B
:101DA0007F906F905F904F903F902F900895C50166
:101DB000B4010E948317882361F060911202709130
:101DC000130280911402909115020E9483178111D1
:101DD00044CC609112027091130280911402909190
:101DE00015020E948317882331F180912A0C90916B
:101DF0002B0CDC011296ED91FC91408151812281E6
:101E00003381429FB001439F700D529F700D11248A
:101E100021E030E03183208333832283F7D8E091BF
:101E20002A0CF0912B0C0190F081E02D80E090E0E5
:101E3000A0E0B0E43BCC40901202509013026090BE
:101E4000140270901502C301B2010E949D396B8388
:101E50007C838D839E8320E030E040E050E4C3012A
:101E6000B2010E945F386B017C0120E030E040E06D
:101E700050E40E945E38A30192010E94C7384B01D2
:101E80005C012B813C814D815E81C301B2010E94C6
:101E9000C33881115CC0C0902A0CD0902B0CF60185
:101EA000E280F380D7012D913C91119712968D918C
:101EB0009C911397289F3001299F700C389F700CBC
:101EC000112481E090E08D939C93C501B4010E94A0
:101ED0002F395B016F5F7F4FF70173836283B3011B
:101EE000C60194D8C0902A0CD0902B0C10E000E0D2
:101EF00040901202509013026090140270901502EC
:101F0000A016B1060CF497CCC801880F991F880F52
:101F1000991FD601ED90FC90E80EF91EB801012E34
:101F2000000C880B990B0E946239A30192010E9458
:101F3000B73A20E030E040E050E40E945F38F7011B
:101F400060837183828393830F5F1F4FD1CF20E023
:101F500030E040E05FE3C501B4010E945F380E94B9
:101F60009D394B015C01AC019B01C301B2010E9490
:101F7000B73A20E030E040E050E40E945F386B83E5
:101F80007C838D839E8360936C0C70936D0C809327
:101F90006E0C90936F0C20E030E0A901C301B201F8
:101FA0000E94B33A18160CF02FC1A70196016B815D
:101FB0007C818D819E810E945E386093700C70934D
:101FC000710C8093720C9093730CE894F7F820E0F6
:101FD00030E040E050E4C701B6010E94C338181653
:101FE0002CF4C701B601D4D7882329F0C12CD12CF9
:101FF000E12CA0E4FA2E4090700C5090710C60908F
:10200000720C7090730CA30192015F772B833C8359
:102010004D835E8320E030E040E056E2C701B60128
:102020000E94B73A9B01AC016B817C818D819E81BE
:102030000E94C33887FFEFC020E030E040E85FE354
:10204000C501B4010E945F384B015C0120E030E023
:1020500040E050E4609112027091130280911402EA
:10206000909115020E945F3860936C0C70936D0C18
:1020700080936E0C90936F0C20E030E0A901C501B5
:10208000B4010E94B33A0FEF1FEF87FD07C0C501EF
:10209000B4010E942F398B010150110989819A8165
:1020A000DC011296ED91FC914081518122813381B6
:1020B000429FB001439F700D529F700D112421E08B
:1020C00030E03183208398012F5F3F4F3383228399
:1020D0000E940608E981FA81FC83EB8317FD5AC050
:1020E000C080D18080E090E0A0E0B0E4F601808381
:1020F0009183A283B3830115110509F44BC0180124
:10210000220C331C220C331C2C0C3D1C80916C0CBB
:1021100090916D0CA0916E0CB0916F0CF1018083C9
:102120009183A283B3837801F594E7944601F4E0A8
:102130008F0E911CB12CA12C9701215031093887A9
:102140002F832F813885A216B3060CF48BC0C701EC
:10215000880F991F880F991FC80ED91E00FDBDC09A
:1021600020E030E040E050E460916C0C70916D0C28
:1021700080916E0C90916F0C0E945F3820E030E0EF
:1021800040E05FE30E94B73AD6016D937D938D9353
:102190009C93139780912A0C90912B0CDC01129642
:1021A000ED91FC914081518122813381429FB001A8
:1021B000439F700D529F700D112421E030E0318358
:1021C0002083AB81BC8112962D913C91D90112964E
:1021D0000D911C91138302830E94060810161106AC
:1021E0000CF029CBE0912A0CF0912B0CA801440FA4
:1021F000551F440F551FA981BA816D917C91808133
:1022000091810E94104517CB2B813C814D815E81CD
:10221000C701B601D0CE20E030E0A901C301B20170
:102220000E94B33A20E030E040E85FE318169CF4E7
:10223000C501B4010E945E38209112023091130250
:1022400040911402509115020E94B73A20E030E00C
:1022500040E050E407CFC501B4010E945F384B0154
:102260005C010ACFB5010B2C000C880B990B0E9466
:10227000623920E030E040E85FE30E945F3820915F
:1022800012023091130240911402509115020E94E3
:10229000B73A2B013C0120E030E040E050E40E94DE
:1022A0005F38D4016D937D938D939D934D01A30170
:1022B000920160916C0C70916D0C80916E0C9091FC
:1022C0006F0C0E945E38F101929382937293629335
:1022D0001F01FFEFAF1ABF0A34CFB701FF0C880B05
:1022E000990B0E94623920911202309113024091A1
:1022F0001402509115020E94B73A4B015C0120E094
:1023000030E040E050E40E945F38F6016083718362
:1023100082839383A501940160916C0C70916D0C84
:1023200080916E0C90916F0C0E945E38D6011496CD
:102330006D937D938D939C9317972CCFC701B60116
:1023400027D6882389F08091800C9091810CA091F0
:10235000820CB091830C80936C0C90936D0CA093C5
:102360006E0CB0936F0C16CB609112027091130239
:1023700080911402909115020BD68111E4CF20E0D8
:1023800030E040E85FE36091140C7091150C80918F
:10239000160C9091170C0E945E38B5D58111D3CFE1
:1023A000C0901202D0901302E0901402F090150237
:1023B00020E030E040E85FE36091140C7091150C70
:1023C0008091160C9091170C0E945E3820E030E04E
:1023D000A9010E94C338811110C0A701960160E0D5
:1023E00070E0CB010E94C73860936C0C70936D0C49
:1023F00080936E0C90936F0CCDCAC701B60183D544
:10240000C0901202D0901302E0901402F0901502D6
:10241000882391F020E030E0A901C701B6010E94B5
:10242000C33887FFB7CAC0926C0CD0926D0CE09293
:102430006E0CF0926F0CAECA20E030E040E85FE333
:102440006091140C7091150C8091160C9091170CE2
:102450000E945E384B015C01A70196010E94B739CA
:102460002B013C0111E020E030E0A9010E94C338BB
:10247000811110E020E030E0A901C301B2010E9407
:10248000C338882309F443C0C701B6010E949D39AF
:102490009B01AC01C701B6010E94B33A1816BCF506
:1024A000A7019601C501B4010E94C7384B015C0128
:1024B000E894B7F820E030E040E05FE3C501B40104
:1024C0000E945F380E949D399B01AC01C501B40197
:1024D0000E945E389B01AC015F772B833C834D8368
:1024E0005E8320E030E040E855E2C501B4010E947F
:1024F000B73A9B01AC0101E06B817C818D819E81AB
:102500000E94B33A18160CF000E011E0102720E00A
:1025100030E0A901C701B601112319F00E94B73AB2
:1025200063CF0E94C33887FD09C040926C0C509263
:102530006D0C60926E0C70926F0C2CCAA30192010C
:10254000C701B6010E945F384FCF10926C0C1092F9
:102550006D0C10926E0C10926F0C1092540C109225
:10256000550C1092560C1092570CA5CAC090CA0B6D
:10257000D090CB0BE090CC0BF090CD0B20E030E076
:1025800040E450E4C501B4010E94C33820E030E0CB
:10259000A90187FF94C0C301B2010E94C338811111
:1025A00048C080914C0C90914D0CA0914E0CB09174
:1025B0004F0C80935C0C90935D0CA0935E0CB093D9
:1025C0005F0CC092600CD092610CE092620CF092B1
:1025D000630C21E030E03093D30B2093D20B22E048
:1025E00030E03093D50B2093D40B8093CA0B90939B
:1025F000CB0BA093CC0BB093CD0BC092CE0BD09253
:10260000CF0BE092D00BF092D10B21E02093330C52
:102610008093540C9093550CA093560CB093570C88
:1026200080936C0C90936D0CA0936E0CB0936F0C18
:1026300042CAC301B2010E942F39615071098B0156
:10264000000F111FD801AA0FBB1FAA0FBB1FA25E4C
:10265000BD4F2091CE0B3091CF0B4091D00B5091BC
:10266000D10B6D917D918D919C910E94B73A4B0158
:102670005C01F801EE0FFF1FEE0FFF1FE65EFD4F3E
:102680002081318142815381C701B6010E94B73A4E
:102690009B01AC01C501B4010E945F386093540CEA
:1026A0007093550C8093560C9093570C10926C0CB1
:1026B00010926D0C10926E0C10926F0CFCC9C3013D
:1026C000B2010E94C338882309F46BCF89809A80B5
:1026D000D4011296AD90BC90E091280CF091290C99
:1026E000228133813C832B83C301B2010E942F39A5
:1026F000615071098B01000F111F18013FEF231A60
:10270000330AF801EE0FFF1FEE0FFF1FE25EFD4FD1
:102710002091CE0B3091CF0B4091D00B5091D10B2B
:1027200060817181828193810E94B73A2B013C01C3
:10273000F801EE0FFF1FEE0FFF1FE65EFD4F208139
:10274000318142815381C701B6010E94B73A9B0192
:10275000AC01C301B2010E945F386093540C7093C6
:10276000550C8093560C9093570CD5012D913C91AC
:10277000119712968D919C911397289FB001299FD4
:10278000700D389F700D112481E090E011969C939C
:102790008E93EB81FC81E280F3801396FC92EE92A3
:1027A0001297C4010E9406081E141F048CF4E981CC
:1027B000FA81A701440F551F440F551FA091280C03
:1027C000B091290C6D917C91808191810E9410457E
:1027D000E091280CF091290C0280F381E02D828198
:1027E0009381E981FA81E080F18082309105C4F122
:1027F0009C0135952795D701880F991F880F991F40
:102800006701C80ED91E90E080E04D915D916D91F9
:102810007D9140936C0C50936D0C60936E0C709393
:102820006F0CF601B290A290929082906F01AD0170
:1028300044505109FA0180829182A282B382409170
:102840006C0C50916D0C60916E0C70916F0CF601D8
:102850004083518362837383019628173907A9F651
:10286000E0912A0CF0912B0CC080D180F101EE0F89
:10287000FF1FEE0FFF1FEE59FD4F2091CE0B309141
:10288000CF0B4091D00B5091D10B6081718182812F
:1028900093810E94B73A4B015C01000F111F000F9A
:1028A000111FF801EE59FD4F2091CA0B3091CB0B4F
:1028B0004091CC0B5091CD0B6081718182819381CD
:1028C0000E94B73A9B01AC01C501B4010E945F3878
:1028D0004B015C01D6016D917D918D919C910E947F
:1028E0002F396150704C660F771F660F771FF70105
:1028F000E60FF71F20910E0230910F024091100257
:102900005091110260817181828193810E94B73A56
:102910002B013C01F60164817581868197810E94BB
:102920002F396150704C660F771F660F771FE60EC8
:10293000F71E20910A0230910B0240910C02509137
:102940000D02D7016D917D918D919C910E94B73AB6
:102950009B01AC01C301B2010E945F389B01AC0135
:10296000C501B4010E945E3860936C0C70936D0CCD
:1029700080936E0C90936F0C9EC80FEF1FEFAAC848
:1029800081E08093300C80910C0C90910D0CA09103
:102990000E0CB0910F0C8093680C9093690CA0936F
:1029A0006A0CB0936B0C1092300C8093080C9093CF
:1029B000090CA0930A0CB0930B0C8091F004909139
:1029C000F104A091F204B091F3040196A11DB11D90
:1029D0008093F0049093F104A093F204B093F30475
:1029E000892B8A2B8B2B99F48091F4049091F50418
:1029F000A091F604B091F7040196A11DB11D80933A
:102A0000F4049093F504A093F604B093F7040895AA
:102A10008F929F92AF92BF92EF92FF920F931F936C
:102A2000CF9384E090E038D2E1E4F4E080EDDF0180
:102A30001D928A95E9F780E095E090934804809391
:102A4000470483E095E0909382048093810484EEB0
:102A500094E09093560480935504F093AC04E09373
:102A6000AB04F0934604E093450481E090E090933A
:102A70000105809300058BE293E090934C048093D2
:102A80004B0425E035E0309304052093030580E0F6
:102A900090E0A0E0B1E48093FC049093FD04A09347
:102AA000FE04B093FF048AE097EDA3E2BCE38093B9
:102AB000E4049093E504A093E604B093E70483ED67
:102AC0009EE0A2E8B7E08093CA049093CB04A09361
:102AD000CC04B093CD0484ED92E4A5EBB2E78093EF
:102AE000CE049093CF04A093D004B093D10489E78F
:102AF0009AEAA7EFB1EC8093D2049093D304A09309
:102B0000D404B093D50484E09BE8A1E1BCEA8093AF
:102B1000D6049093D704A093D804B093D90485E346
:102B200094E090934404809343048BE294E0909368
:102B30003604809335048DE393E090932C048093C6
:102B40002B0490932E0480932D0490933004809353
:102B50002F04909332048093310490933404809333
:102B600033048AED94E090933A04809339048AEC1C
:102B700094E0909338048093370430933C0420937E
:102B80003B04ECE3FCE088E3DF011D928A95E9F762
:102B9000EAECFBE082E7DF011D928A95E9F7C1E0EC
:102BA000C0933B0C812C912C540183948092DF0BB9
:102BB0009092E00BA092E10BB092E20BE12CF12C91
:102BC0008701A801970167E070E080E090E00E9433
:102BD000B5019093E50B8093E40BC093E30B109247
:102BE000D60BC0933A0C8092D70B9092D80BA09240
:102BF000D90BB092DA0BA801970166E070E080E093
:102C000090E00E94B5019093DD0B8093DC0BC093A4
:102C1000DB0B8091D2029091D302A091D402B091AB
:102C2000D50280934C0C90934D0CA0934E0CB09316
:102C30004F0C1092D50B1092D40B88E29CE00E94AE
:102C40009D088AE29CE00E949D081092E60BC093CA
:102C5000390C8092E70B9092E80BA092E90BB092AE
:102C6000EA0B43E050E062E070E090E080E00E9418
:102C70007105C093EB0B8091C2029091C302A091A9
:102C8000C402B091C502ECEEFBE081939193A19355
:102C9000B1932CE0E830F207C1F78091D202909115
:102CA000D302A091D402B091D5028093080C9093E6
:102CB000090CA0930A0CB0930B0C1092320C1092DA
:102CC000330C1092340C1092350C1092360C10927A
:102CD000370C1092380C80E090E0A0E0B0E48093D4
:102CE000100C9093110CA093120CB093130C81E074
:102CF00090E09093D30B8093D20B82E090E090937E
:102D0000D50B8093D40B1092CA0B1092CB0B109260
:102D1000CC0B1092CD0B1092CE0B1092CF0B1092C9
:102D2000D00B1092D10B1092140C1092150C109223
:102D3000160C1092170C1092180C1092190C10927D
:102D40001A0C10921B0C1092310C8FEF9FEFDC01CC
:102D500080932C0C90932D0CA0932E0CB0932F0CE1
:102D6000CF911F910F91FF90EF90BF90AF909F90E8
:102D70008F9008958091DE0B81112EC081E08093A9
:102D8000DE0B8091DF0B9091E00BA091E10BB091F5
:102D9000E20B0197A105B105F9F48091E30B8823BB
:102DA000D9F067E070E080E090E00E9471019093BC
:102DB000E50B8093E40B40E050E0BA010E943A0139
:102DC00067E070E080E090E00E9471019093E50B75
:102DD0008093E40B0E9406028091D60B81112EC0D5
:102DE00081E08093D60B8091D70B9091D80BA09166
:102DF000D90BB091DA0B0197A105B105F9F48091D7
:102E0000DB0B8823D9F066E070E080E090E00E9460
:102E100071019093DD0B8093DC0B40E050E0BA0130
:102E20000E943A0166E070E080E090E00E9471014B
:102E30009093DD0B8093DC0B0E94060288E29CE0FD
:102E40000E947E088AE29CE00E947E088091E60B48
:102E5000811103C081E08093E60B089560E070E08B
:102E600080E89FE7089560E070E080E89FE70895BC
:102E700060E070E080E89FEF089560E070E080E837
:102E80009FEF089560E070E080EC9FEF089560E0B0
:102E900070E080EC9FEF0895F5DF6093800C7093F5
:102EA000810C8093820C9093830CF1DF6093740CFF
:102EB0007093750C8093760C9093770CCFDF6093B2
:102EC0007C0C70937D0C80937E0C90937F0CCBDFF9
:102ED0006093780C7093790C80937A0C90937B0CB0
:102EE000C7DF6093840C7093850C8093860C90935D
:102EF000870CC3DF6093880C7093890C80938A0CD5
:102F000090938B0C0895CF92DF92EF92FF92CF9324
:102F10006B017C01AC019B0160917C0C70917D0C7C
:102F200080917E0C90917F0C0E94C338C1E0882371
:102F300071F0A70196016091840C7091850C8091CD
:102F4000860C9091870C0E94C3388111C0E08C2FB1
:102F5000CF91FF90EF90DF90CF9008950F931F9344
:102F60008B019C010027112720783F77011511055F
:102F700020483F4749F4AB01BC016F77772781E0D8
:102F8000452B462B472B09F480E01F910F910895A4
:102F9000E5CF4F925F926F927F928F929F92AF9206
:102FA000BF92CF92DF92EF92FF920F931F93F8940C
:102FB00040901D0550901E0560901F0570902005E3
:102FC000C0901105D0901205E0901305F090140503
:102FD0004130510509F0A4C09B01AC012419350909
:102FE0004609570929013A010091190510911A055E
:102FF00020911B0530911C0548015901840C951C3A
:10300000A61CB71C80169106A206B306A0F4009178
:1030100015051091160520911705309118050F5FC1
:103020001F4F2F4F3F4F0093150510931605209308
:103030001705309318058092190590921A05A092F1
:103040001B05B0921C0500911505109116052091E5
:103050001705309118058092210590922205A092C3
:103060002305B0922405009325051093260520938F
:1030700027053093280560931D0570931E058093E6
:103080001F0590932005A0E1B7E2A30192010E94E1
:10309000D2436C0D7D1D8E1D9F1D60931105709395
:1030A000120580931305909314050091DE02109190
:1030B000DF022091E0023091E1020F3F1F4F2F4FBE
:1030C0003F4FF1F00091DE021091DF022091E0020B
:1030D0003091E1020E3F1F4F2F4F3F4F89F0C090BC
:1030E000DE02D090DF02E090E002F090E10221E009
:1030F0008C149D04AE04BF0408F420E020932D0539
:1031000078941F910F91FF90EF90DF90CF90BF9038
:10311000AF909F908F907F906F905F904F900895A9
:103120004B015C0184189508A608B708A301920119
:10313000261B370B480B590B64157505860597053B
:10314000D0F082169306A406B50640F420E030E0E5
:10315000A90181149104A104B10491F4A0E1B7E2A2
:103160000E94D243A7019601261B370B480B590B2F
:10317000CA01B901C5CF82169306A406B50670F739
:10318000A0E1B7E2A50194010E94D2436C0D7D1D20
:103190008E1D9F1DB5CFFDCECF93DF9300D01F9224
:1031A000CDB7DEB71C821B821A82198210922905C4
:1031B00010922A0510922B0510922C05BE016F5F0C
:1031C0007F4FCE0103960E94B63569817A818B814B
:1031D0009C810E94D42E009761F4BE016F5F7F4FE7
:1031E000CE0103960E94C23569817A818B819C81D0
:1031F00032D50F900F900F900F90DF91CF910895DF
:10320000FF920F931F93CF93DF93082F60E070E03E
:10321000CB010E94D13DFF24F3940E94BD2DEC010F
:10322000892B89F010E0CE3F8FEFD80769F000239B
:1032300061F160E070E0CB010E94D13D81E090E05F
:10324000892B59F322C011E029D5EC01892B21F0FB
:10325000CE3F8FEFD80759F711111EC011E022960B
:1032600009F410E00E946D2DEC01892B21F0CE3F76
:103270008FEFD807E1F6111111C011E0CE3F8FEFAB
:10328000D80709F410E001110BC0CE01DF91CF91F6
:103290001F910F91FF90089511E0E4CF11E0F3CF5B
:1032A00060E070E0CB010E94D13D1F25812F90E0AE
:1032B000C7CFCF93DF9380912D05882321F060E065
:1032C00070E0CB0150D639D6D0E0C0E0892B71F048
:1032D0006AE070E080E090E00E94D13D81E090DF04
:1032E0002CD62196C03D27E0D20781F72BD60E942D
:1032F000282F109245051092440510923E05109219
:103300003F05109240051092410510923A05109227
:103310003B0510923C0510923D0510923605109227
:103320003705109238051092390510923205109227
:103330003305109234051092350510922E05109227
:103340002F0510923005109231054EEF5FEF6FEFB1
:103350007FEF4093DE025093DF026093E0027093B0
:10336000E10210922D05E1E2F5E028E0DF011D9277
:103370002A95E9F710921D0510921E0510921F055F
:10338000109220051092190510921A0510921B0533
:1033900010921C0510921505109216051092170533
:1033A0001092180510921105109212051092130533
:1033B00010921405DF91CF9108951092510510924B
:1033C00052051092530510925405109250058091A9
:1033D000590590915A0590934F0580934E05109290
:1033E0004D0510924C051092480510924905109217
:1033F0004A0510924B05109256051092550590E023
:1034000080E00895CF92DF92EF92FF920F931F9387
:10341000CF938C01019709F055C020915905309147
:103420005A0580914E0590914F0540915905509154
:103430005A0550934F0540934E052817390781F0E0
:1034400010924D0510924C051092480510924905B6
:1034500010924A0510924B05109256051092550590
:103460008091590590915A05019761F58091550514
:1034700090915605892B21F48091E202811112C0AE
:1034800080915505909156050197E1F4809148058A
:1034900090914905A0914A05B0914B050197A1056E
:1034A000B10581F4109248051092490510924A0521
:1034B00010924B051092E20282E090E09093560544
:1034C000809355058091590590915A05019709F00F
:1034D0001CC180916F05909170058017910709F0CC
:1034E00014C180916B0590916C05A0916D05B09110
:1034F0006E05009709F409C120916A0521110DC0DC
:1035000040916B0550916C0560916D0570916E0551
:10351000452B462B472B09F4F8C0209155053091D7
:1035200056052230310509F0F0C020914C052111DB
:10353000ECC0FC01C080D180E280F3808091500516
:10354000882309F4D3C080915C0590915D05892B97
:1035500009F4FEC020915C0530915D0581E02230C8
:10356000310509F080E020915C0530915D05C1E0F6
:103570002130310549F020915C0530915D05C1E0B5
:103580002230310509F0C0E0882309F456C02091AB
:103590006605309167054091680550916905C7013E
:1035A000B6010E94B33A87FD14C0209166053091A0
:1035B00067054091680550916905609151057091CA
:1035C000520580915305909154050E94C33887FDA0
:1035D00022C02091660530916705409168055091A1
:1035E0006905C701B6010E94B33A181634F5209157
:1035F00066053091670540916805509169056091B5
:1036000051057091520580915305909154050E9487
:10361000C338811112C080915E0590915F05A09121
:103620006005B0916105892B8A2B8B2B19F481E001
:1036300080934D0581E080934C05CC2309F456C05E
:1036400020916605309167054091680550916905A4
:10365000C701B6010E94C33887FF14C020916605D8
:103660003091670540916805509169056091510559
:103670007091520580915305909154050E94B33A80
:1036800087FF22C02091660530916705409168054B
:1036900050916905C701B6010E94C338811126C047
:1036A0002091660530916705409168055091690544
:1036B0006091510570915205809153059091540588
:1036C0000E94B33A181694F480915E0590915F05BC
:1036D000A0916005B0916105892B8A2B8B2B19F481
:1036E00081E080934D0581E080934C0581E09091CD
:1036F0004C05911180E080935005C0925105D09205
:103700005205E0925305F09254050130110509F07D
:1037100067C18091550590915605892BD9F4109277
:103720005B0510924C058091E202882379F082E0DB
:1037300090E090935605809355051092E2022091F7
:10374000590530915A0581E0232BE9F080E01BC038
:1037500081E009CF1092E20280915B05882349F055
:1037600010924D05109256051092550510925B056A
:10377000EDCF8091590590915A05892BE1F0809108
:103780004C0510924C05209155053091560522307C
:10379000310509F45EC088F42115310509F448C0EB
:1037A0002130310509F4F3C010924D0510924C05FB
:1037B00010925B0538C081E0E6CF2330310509F473
:1037C000B1C02430310581F7409148055091490539
:1037D00060914A0570914B054115510561057105D0
:1037E00061F04150510961097109409348055093B6
:1037F000490560934A0570934B05409148055091E7
:10380000490560914A0570914B05452B462B472B86
:10381000D9F420915705309158052130310509F030
:1038200046C010924D0510925605109255050CC0D9
:103830008091E202882341F082E090E09093560567
:10384000809355051092E2021092460580914D0535
:10385000CEC08823C9F380915E0590915F05A09149
:103860006005B0916105181619061A061B060CF0C2
:103870007DC08091590590915A05019709F076C055
:1038800080915E0590915F05A0916005B091610502
:103890008093480590934905A0934A05B0934B0542
:1038A00083E090E09093560580935505CDCF4091ED
:1038B0006205509163056091640570916505452B23
:1038C000462B472BA9F010924D05809162059091EF
:1038D0006305A0916405B0916505809348059093B8
:1038E0004905A0934A05B0934B0581E090E0DACFFB
:1038F000882399F08091E3029091E402A091E5027F
:10390000B091E6028093480590934905A0934A053B
:10391000B0934B0584E090E0C5CF10924D0582E056
:1039200090E0C0CF8091480590914905A0914A054B
:10393000B0914B050097A105B10559F00197A10978
:10394000B1098093480590934905A0934A05B09327
:103950004B058091480590914905A0914A05B09189
:103960004B05892B8A2B8B2B09F06ECF8091E302BC
:103970009091E402A091E502B091E602892B8A2B96
:103980008B2B09F44ECF81E080934D05B3CF40914E
:1039900048055091490560914A0570914B054115C4
:1039A00051056105710561F04150510961097109C5
:1039B000409348055093490560934A0570934B0521
:1039C000409148055091490560914A0570914B0519
:1039D000452B462B472B09F037CF8111C7CF9FCFFF
:1039E00080914605882309F431CF80914705CF9116
:1039F0001F910F91FF90EF90DF90CF90089510925C
:103A000051051092520510925305109254051092D0
:103A10005005109256051092550510924F051092C0
:103A20004E051092700510926F0510924D05109280
:103A30004C05109248051092490510924A051092C3
:103A40004B05109247051092460510926B05109297
:103A50006C0510926D0510926E0510926A05109219
:103A6000660510926705109268051092690588EE48
:103A700093E0A0E0B0E08093E3029093E402A0938F
:103A8000E502B093E602109262051092630510926F
:103A900064051092650510925E0510925F05109204
:103AA00060051092610510925D0510925C0581E041
:103AB0008093E20210925B0510925A05109259050C
:103AC000109258051092570590E080E0089580917B
:103AD000590590915A05892B19F58091E2028823A6
:103AE00051F080915B05811106C081E0809347050C
:103AF00080934605089520915B053091E20281E0B4
:103B000090E0332311F090E080E030E082239323B3
:103B1000892B21F01092470581E0EACF10924605EB
:103B2000089582E090E0FA01918380838FEF9FEF08
:103B30000895CF93DF93EA01009711F00E9442307D
:103B40001982188290E080E0DF91CF910895DB0127
:103B5000009719F48FEF8C9308952EEF2C93FC01AE
:103B60007096E031F10508F037C08827E554F24E31
:103B70008F4F0C94CA43EA1DE81DE61DE41DE21DAB
:103B8000E01DDC1DDE1DDA1DD81DD61DD31DCF1D89
:103B9000CB1DD11DEC1D80E311968C93089589E215
:103BA000FBCF82E2F9CF11961C92089583E2F4CF05
:103BB00081E2F2CF81E1F0CF87E2EECF8AE2ECCF73
:103BC00080E1EACF84E2E8CF88E2E6CF86E2E4CF84
:103BD00081E3E2CF83E3E0CF80E2DECF80917D0519
:103BE00090917E05089590937E0580937D050895BC
:103BF00080917C05089590917C05892B80937C05AC
:103C00000895982F909580917C05892380937C0559
:103C1000089580917B0508958091790590917A05AA
:103C200008956115710559F0FB0130E020E070E066
:103C300060E02417350719F06115710511F0CB010B
:103C40000895A081B181A817B90709F4BF012F5FBA
:103C50003F4F3696EECF80917F0581111CC060D218
:103C600066D290937205809371050E9444280E9449
:103C7000562890937605809375050E94D52C0E9456
:103C8000DC2C909374058093730581E080937F050D
:103C900090E080E0089584EF9FEF08958F929F92C7
:103CA000AF92BF92CF92DF92EF92FF920F931F934A
:103CB000CF93DF9300D000D000D01F92CDB7DEB7F6
:103CC0001A86198618861F821E821D821C821B82FC
:103CD0001A82198280917F0507EF1FEF882309F46C
:103CE0009CC08E010D5F1F4F9E012B5F3F4FAE01A9
:103CF000495F5F4FBE01675F7F4F90E080E00E94A9
:103D0000592E8C01009721F00596029708F0DBC030
:103D100029853A852115310509F402C1ED80FE801F
:103D20004B815C81B701640F751F8F819885861761
:103D3000970708F4F5C0E20EF31ED7019C91903C62
:103D400009F07FC04230510508F47BC011968C9178
:103D500040917D0550917E05452B09F49CC0913F13
:103D600008F071C02CE1290F2D3008F48BC02DE232
:103D7000290F203108F489C0903C21F48150823011
:103D800008F483C088E3890F8B3008F481C097EA78
:103D9000C92E9DE1D92EE1E9FDE16D817E81AE0163
:103DA0004F5F5F4F89859A8519955C01C114D104D5
:103DB000A1F189809A808114910479F18B819C8191
:103DC0008815990508F487C010E000E04B815C81FC
:103DD00070E060E0C7010E94194501151105E9F482
:103DE00049815A8169857A858D819E81680F791F05
:103DF000C501F6011995E980FA800D811E812F8198
:103E0000388549855A856FEF7FEF81E090E00E9409
:103E1000F42D8C01892B09F056C0C8012A960FB6E3
:103E2000F894DEBF0FBECDBFDF91CF911F910F91F0
:103E3000FF90EF90DF90CF90BF90AF909F908F90CA
:103E4000089580E085CF30E020E0220F331FF90194
:103E5000EF58FA4F0190F081E02D309709F497CF99
:103E6000892F90E01995009709F491CFDC01129603
:103E7000ED91FC9113971496CD90DC90309709F05A
:103E80008CCF1FC021E030E0E0CF22E030E0DDCF7A
:103E900023E030E0DACFD12CC12CE9E9FDE19F3FEE
:103EA00009F07BCFE0917105F0917205309721F414
:103EB000C90104EF1FEF0CC08FEF90E01995009738
:103EC000A9F604EF1FEF89859A85009709F4A5CF1D
:103ED0000E944230A2CF0E94232F8C0189859A85AF
:103EE0000E94423070E060E0C4010E94BC2E9887BE
:103EF0008F830E94F12D9E838D836F81788561155C
:103F0000710559F0C8010E94A1319A87898706EF8F
:103F10001FEF892B09F058CF59CF08EF1FEF56CF6D
:103F200008EF1FEFD0CF20917F05222319F020E06A
:103F30000C945B2887EF9FEF089580917D05909109
:103F40007E0508950E94E12C0E943B2CF5D0E1E70C
:103F5000F5E088E0DF011D928A95E9F710927F0570
:103F600090E080E008950C94982A21E040E050E031
:103F7000BA010C945B2886E090E0FA01918380837B
:103F800090E080E0089547E050E060E473E049CEBF
:103F9000DF92EF92FF920F931F93CF93DF938A01EB
:103FA000EC01C60FD71FE0908305F0908405D980FF
:103FB0000E940B2FD816190678F082E090E0F801E5
:103FC000918380838EEF9FEFDF91CF911F910F91AF
:103FD000FF90EF90DF900895EF2841F482E090E0A9
:103FE000F8019183808384EF9FEFEECF89818093E6
:103FF000820590E00196F8019183808390E080E053
:10400000E3CFCF93DF93EA010E94492B882321F06D
:104010000E94182F0E944A2B82E090E099838883A7
:104020008BEF9FEFDF91CF910895CF93DF93EB015B
:1040300086E0FB0111928A95E9F78FEF8883D8DD3E
:104040008983E7DD8A83E8DD9D838C83DF91CF91CF
:104050000895CF93DF93EA010E944C2B811109C090
:1040600082E090E09983888385EF9FEFDF91CF9185
:10407000089590E080E0B7DD81E090E09983888347
:1040800090E080E0F3CF0F931F93CF93DF93EA018B
:104090008C01060F171F0E944C2B81110BC082E070
:1040A00090E09983888385EF9FEFDF91CF911F91F7
:1040B0000F910895F8018181823038F082E090E01C
:1040C000998388838EEF9FEFF0CF81E090E08BDDC6
:1040D00088E090E09983888390E080E0E6CFCF93FA
:1040E000DF930097D1F4EB01FB01329686E0DF010C
:1040F0001D928A95E9F78FEF888385E089831A827C
:104100000E940B2F8B830E940A2F9D838C8381E05A
:104110008E838F83DF91CF910895DF91CF9117CD5B
:1041200083EC9FE1909381058093800508958091B1
:104130008005909181050895109281051092800567
:10414000089580918305909184050895411105C0DB
:10415000611571058105910561F060938305709388
:10416000840580938505909386054093870581E0BB
:10417000089580E00895FF920F931F93CF93DF93EC
:104180008A01EC01C60FD71FF9800E940B2FF81689
:10419000190668F082E090E0F801918380838EEF49
:1041A0009FEFDF91CF911F910F91FF9008956C8148
:1041B0007D818E819F814B81C9DF811108C082E0A2
:1041C00090E0F8019183808384EF9FEFEACF8981AB
:1041D0008093820590E00196F8019183808390E0BE
:1041E00080E0DFCFCF93DF93EA01FC01E60FF71FFA
:1041F00064817581868197814381A8DF811109C01F
:1042000082E090E09983888384EF9FEFDF91CF91E4
:10421000089581E090E09983888390E080E0F6CF74
:10422000E3E8F5E04081518162817381480F511DBF
:10423000611D711D40835183628373830895CF9301
:10424000C09182054C2F50E06091830570918405E8
:1042500001960E9410458C2FE3DF10928205CF91CA
:104260000895009799F480918305909184052FEF2C
:10427000FB012083892B59F02091820530E02F5FCC
:104280003F4F2417350719F4CB01D9CF60CC0895DF
:10429000009799F480918305909184052FEFFB019D
:1042A0002083892B59F02091820530E02F5F3F4F0A
:1042B0002417350719F4CB01C2CF49CC089523E167
:1042C000AC01249FC001259F900D1124E0918C0525
:1042D000F0918D05E80FF91F2381348122503109B7
:1042E00081E02230310508F080E008950F931F939C
:1042F000CF93DF9300918E0510918F05D0E0C0E041
:1043000080E00C171D0749F491E0811190E0892F9E
:10431000DF91CF911F910F9108958111F5CFCE01BB
:10432000CEDF2196EECFA0918C05B0918D05109730
:1043300029F120918E0530918F0582179307F0F4B3
:1043400053E1589F9001599F300D1124A20FB31FC4
:10435000ED91FC911197309789F012968C91681726
:1043600068F48DE0689FE00DF11D1124808191813A
:10437000892B21F081E09281491708F080E00895AF
:104380009C0143E1429FC001439F900D1124E091A5
:104390008C05F0918D05E80FF91F8385823099F423
:1043A00081E090E0658176814091E7025091E802DA
:1043B0006417750711F490E080E0892B21F081E00B
:1043C0002230310508F080E00895FC01A081B18120
:1043D0008DE0689FA00DB11D112413964D915C9145
:1043E00085859685489F9001499F300D589F300DD7
:1043F0001124C9010196611103C0478144FD04964F
:104400000895EF92FF920F931F93CF93DF93EA01EA
:10441000FC01E60FF71F02811381E480F5804F2D28
:104420006E2DC80180DF81110DC082E090E099837C
:1044300088838EEF9FEFDF91CF911F910F91FF90B7
:10444000EF900895C8013BDF882339F082E090E0C7
:104450009983888388EF9FEFEECF1093EE0200934D
:10446000ED02E092EF02F092F00281E090E0998399
:10447000888390E080E0DFCFCF92DF92EF92FF92CF
:104480000F931F93CF93DF937A01EC01C60FD71FD1
:10449000C090ED02D090EE020091EF021091F00278
:1044A000412F602FC6013FDF811110C082E090E0F4
:1044B000F701918380838AEF9FEFDF91CF911F9166
:1044C0000F91FF90EF90DF90CF900895C601F7DE37
:1044D000882341F082E090E0F7019183808388EFA8
:1044E0009FEFEBCF4C815D816E817F819A818981C5
:1044F0008F3F41F082E090E0F701918380838EEF5F
:104500009FEFDBCFE3E1EC9D9001ED9D300D112499
:10451000E0918C05F0918D05E20FF31F0190F08181
:10452000E02D2DE0029FE00DF11D11240190F0819E
:10453000E02D27E0129FE00DF11D1124808391836F
:104540008B81828343835483658376831F5F1093BB
:10455000F00281E090E0F7019183808390E080E0B9
:10456000ACCFEF92FF920F931F93CF93DF937A011B
:104570008C01060F171FC0918C05D0918D052097D7
:1045800081F021E030E0F8018281938140918E0535
:1045900050918F058417950710F030E020E0232B11
:1045A00071F482E090E0F701918380838EEF9FEFBA
:1045B000DF91CF911F910F91FF90EF90089543E10C
:1045C000489F9001499F300D1124C20FD31F77DE01
:1045D000882341F082E090E0F7019183808388EFA7
:1045E0009FEFE6CFF8012481358120383105C8F6E8
:1045F00087818111D6CF4181842F90E08F7E0097F3
:1046000041F082E090E0F7019183808386EF9FEF95
:10461000CFCF4F833E832D83268128871986223072
:1046200010F421E0288721E030E0F7013183208376
:10463000BFCF88E090E0FA019183808390E080E032
:104640000895FB018FEF808381E181838FEF9FEFDE
:104650009383828380E890E0958384831682178217
:104660000895FB018FEF808391E091838283938390
:10467000848384E3858381E090E097838683089533
:1046800082E090E0FA019183808380EF9FEF0895AC
:10469000BF92CF92DF92EF92FF920F931F93CF932F
:1046A000DF93DA01FC01E60FF71F8181813081F091
:1046B00082E090E08D939C938FEF9FEFDF91CF91FD
:1046C0001F910F91FF90EF90DF90CF90BF900895D2
:1046D000C281D381B480858106811781E0908C05E9
:1046E000F0908D05E114F10439F482E090E08D93AF
:1046F0009C938CEF9FEFE2CF20918E0530918F0538
:10470000C217D30738F082E090E08D939C938EEF30
:104710009FEFD4CFC230D10538F082E090E08D9386
:104720009C9386EF9FEFCACF9B2D9D7FB1F7813081
:10473000A1F7B11005C00130110531F080E004C0CF
:1047400081E002301105D0F3882339F36D01CE01E9
:10475000B6DD882341F082E090E0F601918380830A
:1047600088EF9FEFABCF83E18C9FF0018D9FF00D21
:104770001124EE0DFF1DB38681E08487168705871F
:10478000108A178681E090E0F6019183808390E0A3
:1047900080E094CF4DE050E06AE673E042CA8F9229
:1047A0009F92BF92CF92DF92EF92FF920F931F934F
:1047B000CF93DF93EA01FC01E60FF71F828193811B
:1047C0000481B580E0918C05F0918D05309791F4CE
:1047D00082E090E0998388838CEF9FEFDF91CF9107
:1047E0001F910F91FF90EF90DF90CF90BF909F901F
:1047F0008F90089520918E0530918F058217930731
:1048000038F082E090E0998388838EEF9FEFE6CFC7
:1048100023E1289F6001299FD00C1124EC0DFD1D80
:10482000E080F180E114F10499F28281081748F7E1
:104830008DE0089F80011124E00EF11EF7018081B8
:104840009181892B29F6BB20E1F2F7E0BF9E400160
:104850001124C4010E940930F70191838083E09103
:104860008C05F0918D05EC0DFD1D0190F081E02D82
:10487000E00FF11F80819181009739F482E090E090
:10488000998388838DEF9FEFA9CFA40170E060E04A
:104890000E94194580918C0590918D05C80ED91EF6
:1048A000F60180819181080F191FF801B28281E021
:1048B00090E09983888390E080E090CFAF92BF92A0
:1048C000CF92DF92FF920F931F93CF93DF93EA0172
:1048D000FC01E60FF71F82819381F48000918C0523
:1048E00010918D050115110581F482E090E0998306
:1048F00088838CEF9FEFDF91CF911F910F91FF90F5
:10490000DF90CF90BF90AF90089520918E053091A9
:104910008F058217930738F082E090E099838883AF
:104920008EEF9FEFE8CF2FEF2F0D2C3FA8F723E15D
:10493000289F6001299FD00C11240C0D1D1DF8012A
:1049400080819181892B89F6FDE0FF9E5001112421
:10495000C5010E940930F80191838083E0918C05A4
:10496000F0918D05EC0DFD1D80819181009739F44A
:1049700082E090E0998388838DEF9FEFBCCFA50103
:1049800070E060E00E941945E0918C05F0918D0582
:10499000EC0DFD1DF28281E090E09983888390E028
:1049A00080E0A9CFCF92DF92EF92FF920F931F93F7
:1049B000CF93DF93860F971FFC01028113818091B3
:1049C0008C0590918D05892B81F082E090E0FA01B1
:1049D000918380838CEF9FEFDF91CF911F910F9197
:1049E000FF90EF90DF90CF900895C801B0E0A0E075
:1049F0000197A109B1098F3F9F4FA105B10540F073
:104A000082E090E0FA01918380838EEF9FEFE4CF04
:104A10007A0183E1809F6001819FD00C1124C6013F
:104A20000E940930EC01009741F482E090E0F70128
:104A3000918380838DEF9FEFCFCFA60170E060E080
:104A40000E941945D0938D05C0938C0510938F0556
:104A500000938E0590E080E02FEF3FEF41E061E0B2
:104A600070E08017910741F481E090E0F7019183B5
:104A7000808390E080E0B0CF3A8B298B1B864C87F7
:104A80007E876D87188A1F8601966396EACFEF921C
:104A9000FF921F93CF93DF93EC0110E0F12CE12CF8
:104AA0006A811617B0F083E0689FB0011124AE014F
:104AB0004F5E5F4FC7010E946E30009721F02FEFCD
:104AC0003FEF3A8B298BDF91CF911F91FF90EF90B1
:104AD0000895612FCE0179DC61E070E00E94BC2E68
:104AE000E816F90608F47C011F5FDACFF8942091EC
:104AF0008A0530918B0581E02115310509F080E0B0
:104B0000232B09F0789408952F923F924F925F9251
:104B10006F927F928F929F92AF92BF92CF92DF92CD
:104B2000EF92FF920F931F93CF93DF933C01660E9A
:104B3000771EF301828193814C01B12CA12CC0918D
:104B40008C05D0918D05209769F021E030E06091CF
:104B50008E0570918F058617970710F030E020E0E2
:104B6000232BD1F482E090E0FA01918380838EEFD1
:104B70009FEFDF91CF911F910F91FF90EF90DF900A
:104B8000CF90BF90AF909F908F907F906F905F90ED
:104B90004F903F902F9008958092F1029092F202F0
:104BA000A092F302B092F40263E1689F9001699FC2
:104BB000300D1124C20FD31FF3018181833040F0E7
:104BC00082E090E0FA019183808386EF9FEFD1CF5E
:104BD0002A012B813C81232BF1F4288139819F818B
:104BE00091FF2EC0232B09F46FC0209191059A816B
:104BF000422F490F5527551FBA0141E050E0613857
:104C0000710514F050E040E0452B09F45DC02A879F
:104C1000920F909391058150823008F481C066DF35
:104C2000882309F4DAC0F3018181813009F48DC051
:104C300008F47BC0823009F4C8C090E080E0ADC0C9
:104C4000232B09F441C0209190059A81E22FE90FAE
:104C5000FF27FF1F41E050E0ED3FF10514F050E069
:104C600040E0452B89F12A87920F90939005D3CF8E
:104C7000A081B181A20FB31F11966C91060F111D77
:104C80000196295F3F4F8417950794F38D859E8584
:104C9000089F1001099F300C189F300C1124C1147B
:104CA000D104D1F48F8184FF17C00E940A2FF5E050
:104CB0002F0E311C21E08215930508F420E0A70196
:104CC000435F5F4F21110EC082E090E0F2019183BB
:104CD000808387EF9FEF4DCF0E940A2F2FEF221A7C
:104CE000320AE8CF88819981E80EF91EF701148312
:104CF0000383FFEFCF1ADF0A7A018A818C151D0426
:104D000009F00CF48CCFE881F981EE0DFF1D428192
:104D100050E030E020E010E000E090E080E0B3CF31
:104D2000F12CE12CD12CC12CE8CF81E090E09C83C8
:104D30008B83DCDA882309F480CF81E090E00E9445
:104D4000F31D80E40E94011E78CF89899A8901961B
:104D500061F083E090E09C838B8382E090E00E948E
:104D6000F31D80E40E94FB1D68CF8D819E81209100
:104D7000E7023091E80282179307D1F46091EB02C9
:104D80007091EC02AE014F5E5F4F8091E90290910D
:104D9000EA020E9460310097E1F2789422E030E06C
:104DA000F20131832083892BA9F08DEF9FEFE1CEB3
:104DB00022E082169104A104B1045CF6039748F640
:104DC000CE0165DE188A1F86E6CF82E090E09C83E4
:104DD0008B8333CF90E080E0CCCE82E090E0F20194
:104DE0009183808385EF9FEFC4CE8F929F92AF9285
:104DF000BF92CF92DF92EF92FF920F931F93CF93C8
:104E0000DF93EA018C01060F171FF80181818330BF
:104E100098F082E090E09983888386EF9FEFDF919E
:104E2000CF911F910F91FF90EF90DF90CF90BF90A7
:104E3000AF909F908F90089580918C0590918D05F3
:104E4000892B61F081E090E020918E0530918F05F3
:104E5000232B11F490E080E0892B39F482E090E07C
:104E6000998388838EEF9FEFDACF40DE882309F4A1
:104E7000E1C0F8018181813009F497C0E8F0823007
:104E800099F420918E0530918F05E0918C05F09179
:104E90008D0590E080E041E050E02817390709F0E7
:104EA000BFC024DA811117C0789481E090E0998323
:104EB000888390E080E0B3CF20918E0530918F05FC
:104EC000E0918C05F0918D0590E080E041E050E0AC
:104ED0002817390741F481E090E00E94F31D80E437
:104EE0000E94011EE1CF63817481672B11F054830E
:104EF000438301967396ECCFE0918C05F0918D057C
:104F0000E00FF11F2381348122303105D9F421894A
:104F100032892F3F3F4FB1F4258136814091E7021E
:104F20005091E8022417350761F5AF014F5E5F4FDE
:104F30006091EB027091EC028091E9029091EA029B
:104F40000E946031EFEFCE1ADE0AEE0AFE0A0D5E15
:104F50001F4F40918E0550918F0570E060E0C416A0
:104F6000D506E606F7064CF5009731F27894892BC2
:104F700009F49BCF82E090E0998388838DEF9FEFC7
:104F80004ECF42E0C416D104E104F104DCF6233034
:104F90003105C0F6CF017BDDE0918C05F0918D05E8
:104FA000E00FF11F108A1786CDCF10E000E090E0EF
:104FB00080E0C12CD12C7601CCCF0097B9F610E05F
:104FC00000E0812C912C540183E0E82EF12C1AC0D2
:104FD000E0918C05F0918D05E00FF11F83819481A4
:104FE000029749F4F482E38282E090E00E94F31D8C
:104FF00080E40E94FB1DFFEF8F1A9F0AAF0ABF0AD1
:105000000D5E1F4F80918E0590918F05B0E0A0E05E
:1050100088169906AA06BB06DCF290E080E0A6CFCF
:10502000638174816230710511F454834383019666
:10503000739633CF82E090E09983888385EF9FEF6A
:10504000EECE0097B9F48FEFFB0180832091F1023F
:105050003091F20243E1429FC001439F900D112421
:10506000E0918C05F0918D05E80FF91F8285FB0119
:10507000818308950C94A71D88E090E0FA01918344
:10508000808390E080E0089510928B0510928A054D
:10509000ECE8F5E086E0DF011D928A95E9F78AECFD
:1050A00093E29093890580938805089580918805FF
:1050B0009091890508952F923F924F925F926F923F
:1050C0007F928F929F92AF92BF92CF92DF92EF9298
:1050D000FF920F931F93CF93DF93CDB7DEB72F9738
:1050E0000FB6F894DEBF0FBECDBFF894E0918A05ED
:1050F000F0918B053196F0938B05E0938A057894B7
:1051000040908C0550908D054114510409F40DC256
:10511000E0918E05F0918F05EF2B09F406C22D87E3
:1051200049875A876B877C8798878F831201B12CB8
:10513000A12C10E000E080918E0590918F05A816BB
:10514000B90618F40115110529F1F89480918A0522
:1051500090918B05019790938B0580938A057894A5
:10516000C8012F960FB6F894DEBF0FBECDBFDF91FA
:10517000CF911F910F91FF90EF90DF90CF90BF9054
:10518000AF909F908F907F906F905F904F903F90E7
:105190002F9008957101E418F508D10117968C91AC
:1051A000179781FD54C013968D919C911497039786
:1051B00009F04DC015968D919C91EF81F8858E1761
:1051C0009F0709F044C0B50190E080E081D48A8354
:1051D00020918C0530918D053D832C833D853323B3
:1051E00009F44CC04C815D81452B09F49BC1809131
:1051F0008E0590918F05A816B90608F093C1C501D8
:10520000BFD88823E9F06C817D816E0D7F1D7D8381
:105210006C83DB011F968D919C91892B89F0D12C99
:10522000C12CF12CE12CAC81BD8112968C9112978E
:105230008E151F0409F094F450961C921E921F972D
:105240002A81222321F0B50190E080E043D43FEF92
:10525000A31AB30A43E1240E311C6DCFAC81BD818A
:10526000ED91FC91EC0DFD1D858196810BD7BFEF73
:10527000EB1AFB0AEDE0CE0ED11CD5CFEC81FD81FF
:10528000309709F44FC180918E0590918F05A81633
:10529000B90608F047C1EE0DFF1DFF87EE87C50177
:1052A0006FD88B83882339F1AE85BF851F968D918A
:1052B0009C915097019621E01D964D915C91841729
:1052C000950709F020E02E831982712C10E000E090
:1052D000AE85BF8512968C91781608F45DC0EE8578
:1052E000FF85878590890196658576850E94944320
:1052F000908B8787A5CFB1E0BE83E6CF99249394A6
:105300006BC087D6F6019683858383C0D601ED9066
:10531000FC90B7E06B9EE00CF11C1124F701638157
:10532000748180818F3F61F121E030E002C0220F63
:10533000331F8A95E2F7C901092E000CAA0BBB0B9B
:10534000FB01408151816281738184239523A623CF
:10535000B72321E0892B8A2B8B2B09F420E0D40181
:105360002C93D70111968C91F60123853485820FF9
:10537000932F911D880E991E1486138663949CC0EA
:10538000418150E0C4010E941045EBCF998206EFA5
:105390001FEFC6C01982C4C0F981F111A0CFEDE0A2
:1053A0007E9E70011124AE85BF85CD90DC90CE0C21
:1053B000DF1C17D49D838C83BB81BB2309F49ECF54
:1053C00081E0EE85FF8527853089232B09F080E079
:1053D000982E882309F459C0672D8E859F850E94D9
:1053E000E521D60118969C938E93179761E070E0A3
:1053F000C3D4EE85FF85218932892F3F320709F416
:1054000080CFBC01C9019DD7D60116969C938E937F
:105410001597D60115968D919C911697009709F4D2
:10542000B5CFEC81FD818E0F9F1F1A969C938E93B2
:105430001997AE85BF85ED91FC911197EE0EFF1E79
:10544000F70121853285148613861A968C91870D73
:10545000D9018D93711016C0EE85FF85878184FF79
:1054600011C049855A856B857C85F901418352833A
:1054700063837483F701838594850496A80FB91F0D
:1054800014861386F701B287A187D60115968D91F0
:105490009C911697892B09F443C0EE85FF852581E1
:1054A00036818091E7029091E8022817390779F058
:1054B00019968D909C90612CD60112968C91129722
:1054C000681608F423CF1A969C928E921997BE8183
:1054D000BB2309F45FCF61E070E0F601878190851E
:1054E0004BD4D6011796ED90FC90189715964D91D8
:1054F0005C91E1E0F0E0BA81BB2311F0F0E0E0E084
:105500000C811D819C01B501882799278E1B9F0B5B
:105510006BD38C01892B21F0F60185819681B2D560
:105520007394D6CE0FEF1FEF8BCE10E000E00DCEC0
:105530002F923F924F925F926F927F928F929F92A3
:10554000AF92BF92CF92DF92EF92FF920F931F9391
:10555000CF93DF9380918C0590918D0510E000E052
:10556000892BA9F0C3DA0AEF1FEF882381F020907E
:105570008E0530908F05C0918C05D0918D05D12C72
:10558000C12C10E000E02C143D04A9F47894C8016B
:10559000DF91CF911F910F91FF90EF90DF90CF900F
:1055A000BF90AF909F908F907F906F905F904F9043
:1055B0003F902F900895C6010E94C021882309F1D1
:1055C0008B819C810397E9F48F859889892BC9F099
:1055D000B60190E080E07CD221E030E0882311F039
:1055E00030E020E044245524421A530AB12CA12C67
:1055F000912C812C8A818815190409F038F4188AB5
:105600001F864FEFC41AD40A6396BDCFE881F98193
:10561000EA0DFB1D85819681892BA1F161E070E087
:1056200087819085A9D33C01DCD28C01E881F98186
:10563000EA0DFB1D8185928525813681200F311F62
:10564000AC01421B530B9A0147815085421B530BFF
:1056500070E060E00E941945E881F981EA0DFB1DC8
:10566000E780F084458156819301B601C201BCD226
:105670008C01892B39F0E881F981EA0DFB1D8581C8
:10568000968100D55FEF851A950A8DE0A80EB11CB2
:10569000B1CF2CCA789408952F923F924F925F9287
:1056A0006F927F929F92AF92BF92CF92DF92EF92D2
:1056B000FF920F931F93CF93DF9300D000D0CDB70D
:1056C000DEB700918C0510918D05992493940115F6
:1056D000110509F43EC0A0908E05B0908F0506DA42
:1056E000982E8823B1F110928D0510928C0510929E
:1056F0008F0510928E0510929005109291058FEFF4
:105700009FEFDC018093F1029093F202A093F302E9
:10571000B093F402789480D31E830D83C12CD12CD6
:105720007601C501B0E0A0E089839A83AB83BC8396
:1057300022242A94322C89819A81AB81BC81C8169B
:10574000D906EA06FB06F4F0C8019CD480E40E9466
:10575000011E892D26960FB6F894DEBF0FBECDBF71
:10576000DF91CF911F910F91FF90EF90DF90CF903D
:10577000BF90AF909F907F906F905F904F903F90C1
:105780002F900895AD81BE8115968D919C911697AD
:105790002091E7023091E80282179307D1F45196E5
:1057A0008D919C91BCD5ED81FE8180819181B12C40
:1057B000A12C412C512C3201892B91F5BFEFCB1A32
:1057C000DB0AEB0AFB0AED81FE817396FE83ED8313
:1057D000B2CFB2E0CB16D104E104F10424F7039771
:1057E00010F7ED81FE81818992898F3F980709F03A
:1057F00011D5AD81BE8152963C922E925197D3CF56
:105800008A0D9B1DDC018D919C91009709F03AD483
:10581000BFEF4B1A5B0A6B0A7B0AEDE0AE0EB11CC0
:10582000AD81BE818D919C91119712964C9150E063
:1058300070E060E044165506660677060CF322D445
:10584000BDCFCF93DF93EA0127DF811109C082E04A
:1058500090E09983888385EF9FEFDF91CF91089542
:1058600081E090E00E94F31D81E090E099838883BD
:1058700090E080E0F2CF10DF109289051092880549
:10588000089542E050E068EB73E00C94111EFF9223
:105890000F931F93CF93DF938A01EC01C60FD71F9D
:1058A000F980B9D20897F816190671F068F082E00D
:1058B00090E0F801918380838EEF9FEFDF91CF918D
:1058C0001F910F91FF9008956C817D818E819F8142
:1058D0004B810E94A620811108C082E090E0F8016F
:1058E0009183808384EF9FEFE9CFF9800E94A1200C
:1058F0004F2D50E0BE01685F7F4F0E9410458981A7
:105900000E94102181E090E0F8019183808390E073
:1059100080E0D4CFDF92EF92FF920F931F93CF934B
:10592000DF938A01EC01C60FD71F0E94A1207C01E2
:10593000D98071D2DD2059F0029721E030E0D816ED
:10594000190619F010F030E020E0232B79F482E002
:1059500090E0F801918380838EEF9FEFDF91CF91EC
:105960001F910F91FF90EF90DF900895EF2841F481
:1059700082E090E0F8019183808384EF9FEFEECF87
:10598000F9800E94A1204F2D50E0BE016E5F7F4F35
:105990000E94104589810E94102181E090E0F80169
:1059A0009183808390E080E0D9CF81E49CE2909362
:1059B00093058093920508958091920590919305A7
:1059C00008950895FC0111821082938382830895C3
:1059D000DB011D921C92DC011296ED91FC91139754
:1059E0007183608313967C936E9312970895FC01E4
:1059F00080819181DB018D939C93A081B18110976F
:105A000041F08D919C9191838083892B11F4F383D4
:105A1000E2830895FC0180819181DB018D939C9349
:105A2000892B11F473836283718360830895FC0171
:105A300011821082938382830895CF93DF931F9204
:105A40001F92CDB7DEB71A821982F894BE016F5F3C
:105A50007F4F89E995E0CBDF89819A81009709F032
:105A600011D389819A81892B89F7BE016F5F7F4F9E
:105A70008DE995E0BCDF89819A81009709F002D316
:105A800089819A81892B89F778940F900F90DF9103
:105A9000CF910895CF93DF931F921F92CDB7DEB7BA
:105AA0001A821982F894BE016F5F7F4F85E995E0F5
:105AB0009EDF89819A81009709F0E4D289819A81D9
:105AC000892B89F778940F900F90DF91CF910895EB
:105AD00081E0089590E080E00895EF92FF920F93A7
