:1000000007C100000C94CB370C94F6370C942138C0
:100010000C944C380C9477380C94A2380C94CD384E
:100020000C94F83843C40000E4C400001EC500006E
:1000300020C100001EC100001CC100001AC1000048
:1000400018C1000016C1000014C1000012C1000058
:1000500010C100000EC100000CC100000C94233937
:1000600008C100000C94F73C0C942D3D02C1000027
:1000700000C10000FEC00000FCC00000FAC000008B
:10008000F8C00000F6C00000F4C00000F2C000009C
:100090000C94833D0C94B93DECC00000EAC0000014
:1000A000E8C00000E6C00000E4C00000E2C00000BC
:1000B000E0C00000DEC00000DCC00000DAC00000CC
:1000C000D8C00000D6C000000C94EB310C940F3E59
:1000D0000C94453ECEC000000C949B3E0C94D13E47
:1000E000C8C0000005A84CCDB2D44EB93836A9021C
:1000F0000C50B9918688083CA6AAAA2ABE00000026
:10010000803F00000A0B02090C0D0E0807030401D2
:1001100000000000000000000000000000000000DF
:1001200000000000000000000000000000001211AC
:1001300010000000000000000000000000000000AF
:10014000000000000000000001021020200808103C
:100150002040102040800201020108040201010237
:100160000408102040808040201008040201800410
:10017000020180402010080402010804020101026B
:10018000040810204080010204081020408005056A
:100190000505070508080808020202020A0A0808FD
:1001A000040404040101010101010101030303032B
:1001B00003030303040707070C0C0C0C0C0C0C0CBA
:1001C0000202020206060606060606060B0B0B0BCB
:1001D0000B0B0B0B00002200250028002B002E002B
:1001E0003100340002010000050108010B0100008C
:1001F0002100240027002A002D00300033000101D7
:100200000000040107010A01563DE23D6E3EFA3E40
:1002100011241FBECFEFD1E2DEBFCDBF00E00CBF87
:1002200014E0A0E0B2E0ECE7FFE700E00BBF02C0A3
:1002300007900D92A030B107D9F72CE0A0E0B4E010
:1002400001C01D92AF3EB207E1F711E0C8E0D1E076
:1002500000E006C021970109802FFE010E948B3F1C
:10026000C430D10780E00807A9F70E948E330C94B0
:10027000BC3FC6CECF92DF92EF92FF92CF938823FE
:1002800051F16A017B01CFEFC80F20E030E0A901F6
:10029000CB01B6010E94843418168CF0C701B60158
:1002A00090580E94F5349B01AC016C2F70E090E0F7
:1002B00080E0CF91FF90EF90DF90CF90B2C0C70168
:1002C000B6010E94F0348C2FCF91FF90EF90DF9019
:1002D000CF900C942A3ACF91FF90EF90DF90CF907F
:1002E00008950F931F938B019C0183E0369527950A
:1002F000179507958A95D1F700501C4F462F4770E8
:1003000021E030E0F90102C0EE0FFF1F4A95E2F74D
:10031000AF01F80120812423CB010196211102C0F5
:1003200090E080E01F910F9108950F931F938B0130
:100330009C0183E036952795179507958A95D1F707
:10034000677081E090E001C0880F6A95EAF7F801D4
:10035000E050FC4F2081452B31F48095822380832F
:100360001F910F910895822BFACF2F923F924F92B7
:100370005F926F927F928F929F92AF92BF92CF9235
:10038000DF92EF92FF920F931F93CF93DF93D62EBE
:10039000C72E782E692E49015A01280161E08D2D62
:1003A0000E94643BCD2DDC2D8E010F5F1F4FA801F5
:1003B0006D2D7C2D872D962DB8DF20E030E0A90132
:1003C000C201B7010E947436181664F4C201B70165
:1003D0000E94F5342B01C501B4010E94F534A2013D
:1003E000CE0123D0C801DF91CF911F910F91FF90D3
:1003F000EF90DF90CF90BF90AF909F908F907F90C5
:100400006F905F904F903F902F900895882341F018
:100410008150682F70E090E080E050E040E085CFB0
:100420000895862FB9010C942A3A9C01FC01EE5FD5
:10043000FE4FE491E150E231E0F4F0E08827EC5D1A
:10044000FD4F8F4F0C948B3F36023D024002570206
:100450006C02390281028D029102A802BD02D20211
:10046000E902FE02390213032A033F0384B58068C0
:1004700084BD60E0822F0C94A03B84B58062F8CFED
:10048000809180008C7F82608093800080918100C9
:10049000807E8061682B6093810050938700409339
:1004A000860080918000806880938000E2CF8091F8
:1004B00080008C7F82608093800080918100807EAC
:1004C0008061682B60938100509387004093860081
:1004D000809180008062E8CF809180008C7F826074
:1004E0008093800080918100807E8061682B609382
:1004F000810050938700409386008091800088603F
:10050000D3CF8091B00080688093B0008091B1001B
:10051000887F682B6093B100ACCF8091B00080627F
:10052000F3CF809190008C7F8260809390008091C7
:100530009100807E8061682B6093910050939700BA
:10054000409396008091900080688093900091CFB6
:10055000809190008C7F82608093900080919100C8
:10056000807E8061682B6093910050939700409348
:100570009600809190008062E8CF809190008C7FFF
:1005800082608093900080919100807E8061682BD2
:100590006093910050939700409396008091900053
:1005A0008860D3CF8091A0008C7F82608093A00070
:1005B0008091A100807E8061682B6093A1005093A0
:1005C000A7004093A6008091A00080688093A000BF
:1005D00050CF8091A0008C7F82608093A00080919A
:1005E000A100807E8061682B6093A1005093A700DA
:1005F0004093A6008091A0008062E8CF8091A00087
:100600008C7F82608093A0008091A100807E8061B9
:10061000682B6093A1005093A7004093A60080919F
:10062000A0008860D3CF809120018C7F826080936E
:10063000200180912101807E8061682B60932101DF
:100640005093270140932601809120018068809378
:1006500020010FCF809120018C7F82608093200148
:1006600080912101807E8061682B609321015093ED
:10067000270140932601809120018062E8CF80917C
:1006800020018C7F82608093200180912101807EF7
:100690008061682B609321015093270140932601CC
:1006A000809120018860D3CF9CB1892F807294FF04
:1006B00016C0811116C080910D0490910E04A09176
:1006C0000F04B09110040196A11DB11D80930D047B
:1006D00090930E04A0930F04B09310040895811119
:1006E000EACF80910D0490910E04A0910F04B09177
:1006F00010040197A109B109E9CF99B1892F84703C
:1007000093FF16C08823B1F080911B0490911C04C4
:10071000A0911D04B0911E040196A11DB11D8093EE
:100720001B0490931C04A0931D04B0931E04089511
:10073000882351F380911B0490911C04A0911D0407
:10074000B0911E040197A109B109E9CF8CB190E0E5
:100750009C01220F232F221F330B86FF16C080918E
:10076000290490912A04A0912B04B0912C04232BEE
:10077000B9F40196A11DB11D8093290490932A0418
:10078000A0932B04B0932C04089580912904909198
:100790002A04A0912B04B0912C042130310549F397
:1007A0000197A109B109E8CF9CB1892F807195FF0C
:1007B00016C08823B1F080910D0490910E04A09191
:1007C0000F04B09110040196A11DB11D80930D047A
:1007D00090930E04A0930F04B093100408958823FF
:1007E00051F380910D0490910E04A0910F04B091EB
:1007F00010040197A109B109E9CF99B1892F887037
:1008000092FF16C0811116C080911B0490911C04A8
:10081000A0911D04B0911E040196A11DB11D8093ED
:100820001B0490931C04A0931D04B0931E04089510
:100830008111EACF80911B0490911C04A0911D04AA
:10084000B0911E040197A109B109E9CF8CB190E0E4
:1008500086FB222720F930E0880F892F881F990B0B
:100860000197B1F48091290490912A04A0912B045E
:10087000B0912C04232BB1F00196A11DB11D8093E2
:10088000290490932A04A0932B04B0932C04089578
:100890008091290490912A04A0912B04B0912C04FA
:1008A000232B51F30197A109B109E9CF1F920F92B0
:1008B0000FB60F9211242F933F934F935F938F9313
:1008C0009F93AF93BF9383B121E030E0982F907254
:1008D00085FD02C030E020E0807440914D045091CD
:1008E0004E044217530709F062C021E030E0811145
:1008F00002C030E020E030934C0420934B04882366
:1009000009F1911121C08091450490914604A09174
:100910004704B09148040196A11DB11D8093450480
:1009200090934604A0934704B093480480914504F3
:1009300090914604A0914704B09148040196A11DEE
:10094000B11D20C09111DFCF8091450490914604E4
:10095000A0914704B09148040197A109B10980937F
:10096000450490934604A0934704B09348048091B3
:10097000450490914604A0914704B0914804019722
:10098000A109B1098093450490934604A0934704BC
:10099000B0934804BF91AF919F918F915F914F9118
:1009A0003F912F910F900FBE0F901F90189530938D
:1009B0004E0420934D04992371F0882371F08091A7
:1009C000450490914604A0914704B09148040196D3
:1009D000A11DB11DC4CF882391F38091450490914E
:1009E0004604A0914704B09148040197A109B109B8
:1009F00095CF1F920F920FB60F9211248F939F9352
:100A0000AF93BF938091060181709091030190FF95
:100A10001EC081111EC08091370490913804A091AE
:100A20003904B0913A040196A11DB11D8093370499
:100A300090933804A0933904B0933A04BF91AF91D6
:100A40009F918F910F900FBE0F901F90189581115D
:100A5000E2CF8091370490913804A0913904B0918D
:100A60003A040197A109B109E1CF1F920F920FB685
:100A70000F9211248F939F93AF93BF9380910301A3
:100A800081709091060190FF1EC08823F1F0809143
:100A9000370490913804A0913904B0913A0401963A
:100AA000A11DB11D8093370490933804A09339049D
:100AB000B0933A04BF91AF919F918F910F900FBE69
:100AC0000F901F901895882311F38091370490910F
:100AD0003804A0913904B0913A040197A109B109F1
:100AE000E1CF0F931F93CF93DF938C018EE0809F14
:100AF000E001819FD00D1124C75FDB4F79836883AC
:100B00005B834A838881998160E00E94643B8A818B
:100B10009B8160E00E94643B8881998161E00E9432
:100B2000A03B8A819B8161E00E94A03B02301105BD
:100B300009F487C064F40115110501F101301105B4
:100B400009F450C0DF91CF911F910F9108950330A8
:100B5000110509F4A5C004301105A1F780916800C2
:100B600081608093680080916B00806280936B004D
:100B700080916B00806480936B00E4CF80910904C6
:100B800090910A0402978431910530F58F5B9C4F58
:100B9000FC018081082E000C990B41E050E064E5D7
:100BA00073E00E94513780910B0490910C040297DE
:100BB00084319105A0F48F5B9C4FFC018081082E4D
:100BC000000C990B41E050E064ED73E0DF91CF91B0
:100BD0001F910F910C9451378FEF9FEFDECF8FEF66
:100BE0009FEFF0CF80911704909118040297843101
:100BF000910508F58F5B9C4FFC018081082E000C4D
:100C0000990B41E050E06DEF73E00E945137809105
:100C1000190490911A0402978431910578F48F5B3E
:100C20009C4FFC018081082E000C990B41E050E0A4
:100C30006DE773E0CBCF8FEF9FEFE3CF8FEF9FEFA9
:100C4000F5CF809125049091260402978431910577
:100C500008F58F5B9C4FFC018081082E000C990BDE
:100C600041E050E066EA73E00E945137809127042A
:100C70009091280402978431910578F48F5B9C4F02
:100C8000FC018081082E000C990B41E050E066E2E7
:100C900074E09CCF8FEF9FEFE3CF8FEF9FEFF5CF07
:100CA0008091680084608093680080916800826011
:100CB0008093680080916D00816080936D008091C9
:100CC0006C00826080936C003DCF2EE0269FF00187
:100CD000279FF00D1124E75FFB4F648175818681AA
:100CE0009781089590E080E008950F931F930097F7
:100CF00009F48DC06115710509F489C000910803DC
:100D00001091090320910A0330910B030E3F1F4FEE
:100D10002F4F3F4F09F06CC04FEF5FEFBA01409388
:100D200008035093090360930A0370930B034091E7
:100D300008035091090360910A0370910B03DC01D1
:100D40001296ED91FC9180819181A281B381809373
:100D50006A0590936B05A0936C05B0936D05848133
:100D60009581A681B7818093660590936705A093CE
:100D70006805B093690580859185A285B3858093C8
:100D8000620590936305A0936405B093650584851F
:100D90009585A685B78580935E0590935F05A093A2
:100DA0006005B093610510925A0510925B05109290
:100DB0005C0510925D050E949E1583EC95E1909371
:100DC000500480934F049093520480935104909365
:100DD0005404809353040E948D14009731F421E051
:100DE00030E030936F0520936E051F910F910895A9
:100DF000009108031091090320910A0330910B031D
:100E0000DB010D931D932D933C93139790CF8FEFA0
:100E10009FEFEBCF8F929F92AF92BF92CF92DF92D4
:100E2000EF92FF921F93CF93DF934B015C011091E0
:100E3000710582E090E090936F0580936E058114B8
:100E40009104A104B10441F480917105811104C0A1
:100E500080917005C1E08111C0E0C12CD12C7601D8
:100E600080917105811106C080917005811102C0C9
:100E7000CC23D9F083E090E090936F0580936E05CA
:100E8000CC2381F1CCE9DFEF111102C00E942819B7
:100E9000CE01DF91CF911F91FF90EF90DF90CF9027
:100EA000BF90AF909F908F9008956AE070E080E0CF
:100EB00090E00E94923980E1C80E87E2D81EE11CC2
:100EC000F11C8FEF88169806A806B80631F0C1E02D
:100ED0008C149D04AE04BF0408F0C0E080E00E94C2
:100EE000C114BECFD0E0C0E0CFCFCF92DF92EF925F
:100EF000FF920F931F93CF93DF938F3F910511F0D4
:100F000008F051C020916E0530916F0523303105F6
:100F100039F020916E0530916F052130310531F4A3
:100F200024E030E030936F0520936E056A017B0169
:100F3000EC0183309105A8F011E0AE01C701B601C4
:100F40000E948C14AB01BC01CE011123F9F0DF919A
:100F5000CF911F910F91FF90EF90DF90CF900C9465
:100F6000541B8C01000F111F015B1B4FD8018D9189
:100F70009C91892B09F30E945E1B0297E9F6D80128
:100F8000ED91FC91CE011995182FD7CF0E94761BB9
:100F900090E080E0DF91CF911F910F91FF90EF9053
:100FA000DF90CF9008958FEF9FEFF4CF80E00C9407
:100FB000C114CF93DF9386E090E090936F05809308
:100FC0006E050E941A15EC01EFE4F4E086E0DF0103
:100FD0001D928A95E9F70E94C01810926F05109231
:100FE0006E05CE01DF91CF9108958091700508952F
:100FF00080915905089560930803709309038093C5
:101000000A0390930B0390E080E00895FC0191E0C7
:1010100080912605811190E0928308952F923F924E
:101020004F925F926F927F928F929F92AF92BF92F8
:10103000CF92DF92EF92FF920F931F93CF93DF93A4
:1010400000D000D000D01F92CDB7DEB7809126052A
:1010500090912505911105C091E0811190E0909348
:1010600027058F5F893108F077C28093260560914C
:1010700008027091090280910A0290910B029B0173
:10108000AC010E9420342BED3FE049E450E40E9483
:101090007836E0912F05F091300520813181428131
:1010A00053810E9478362091DC023091DD0240911C
:1010B000DE025091DF020E9420340E94DB36209134
:1010C000D4023091D5024091D6025091D7020E94AD
:1010D00078362091D8023091D9024091DA025091AD
:1010E000DB020E9420342091E0023091E102409125
:1010F000E2025091E3020E9478366093160C7093DE
:10110000170C8093180C9093190C60931A0C709321
:101110001B0C80931C0C90931D0C2091700C309133
:10112000710C4091720C5091730C20931E0C3093F3
:101130001F0C4093200C5093210C0E941F346B0114
:101140007C01C092220CD092230CE092240CF092ED
:10115000250C2091D0023091D1024091D2025091C1
:10116000D30260E070E08FE793E40E948834A70127
:1011700096010E9478360E945E356B017C010E94C8
:1011800089138111ECC1C701B6010E94441381117A
:10119000E6C120E030E040E857E4C701B6010E9414
:1011A00078356B017C0120E030E0A9010E94843495
:1011B00087FFD8C1C701B60190580E94F534222795
:1011C0003327261B370B3A83298369817A8177FF7E
:1011D00003C0719561957109072E000C880B990B5E
:1011E0000E9423352091CC023091CD024091CE0255
:1011F0005091CF020E9420345B018C01C090E80224
:10120000D090E902E090EA02F090EB029B01AC0181
:10121000B601C7010E94843487FD12C0C090EC0261
:10122000D090ED02E090EE02F090EF029501A8015F
:10123000B601C7010E947436181614F065017801D2
:10124000A090F002B090F1020091F2021091F3022E
:101250009601A701B501C8010E941F346B017C01F2
:10126000E894F7F8809104039091050349815A812D
:101270004817590714F05601870167E070E080E0D5
:1012800090E02FD89093690C8093680CB501C80149
:101290000E945E354B015C010E948913811169C176
:1012A000C501B4010E944413811163C120E030E004
:1012B00040E853E4C501B4010E9478354B015C015C
:1012C00020E030E0A9010E94843487FF55C1C501A8
:1012D000B40190580E94F534619570E090E080E090
:1012E0000E942335AB01BC018091680C9091690C80
:1012F0000E943A0166E070E080E090E00E94710197
:101300009093610C8093600C809106039091070389
:10131000E981FA81E817F90744F0C090F002D09013
:10132000F102E090F202F090F302C701B6010E94D0
:101330005E356B017C010E948913811122C1C701B6
:10134000B6010E94441381111CC120E030E040E846
:1013500053E4C701B6010E9478356B017C0120E09F
:1013600030E0A9010E94843487FF0EC1C701B60195
:1013700090580E94F534619570E090E080E00E9402
:101380002335AB01BC018091600C9091610C0E94EF
:101390003A016091780C7091790C80917A0C90915F
:1013A0007B0C209127052223C1F06093880C709359
:1013B000890C80938A0C90938B0C00918C0C10916B
:1013C0008D0C20918E0C30918F0C0093260C109375
:1013D000270C2093280C3093290C2091F80230918F
:1013E000F9024091FA025091FB020E94783669831B
:1013F0007A838B839C838FEF9FEFDC018093BE0CFD
:101400009093BF0CA093C00CB093C10C20E030E0CF
:1014100040E85FE36091980C7091990C80919A0C70
:1014200090919B0C0E9420346B017C01C092980C1F
:10143000D092990CE0929A0CF0929B0C609104026D
:101440007091050280910602909107029B01AC0108
:101450000E9420342091000230910102409102024A
:10146000509103020E947836362E272E3C0120E050
:1014700030E040E85FE3C701B6010E941F34162F39
:101480007A878987092F20E030E0A901632D722D2A
:10149000C3010E94843481117CC020E030E0A901A6
:1014A000612F7A858985902F0E948434882309F4DE
:1014B000AAC120E030E040E050E460919C0C7091C3
:1014C0009D0C80919E0C90919F0C0E94843420E092
:1014D00030E0A901612F7A8587FF56C28985902F58
:1014E0000E948434811194C18091260C9091270C24
:1014F000A091280CB091290C40914E0C50914F0CAA
:101500006091500C7091510C21E030E03093570CF9
:101510002093560C22E030E03093590C2093580C65
:1015200080934E0C90934F0CA093500CB093510CA1
:101530004093520C5093530C6093540C7093550C81
:1015400021E02093C80C80932A0C90932B0CA0933D
:101550002C0CB0932D0C64C11092260588CDC12CA3
:10156000D12C7601C701B6010E94F5347A836983D4
:101570002CCE812C912C5401C501B4010E94F5346C
:10158000ACCEC12CD12C7601C701B6010E94F53436
:10159000F3CE612F7A858985902F0E948913882345
:1015A00061F11091E10CF091E20CFA872091E30CCB
:1015B00029870091E40C20E030E0A901612F7A85B1
:1015C0008985902F0E948434811173CF20E030E010
:1015D00040E85FE360919C0C70919D0C80919E0CA3
:1015E00090919F0C0E94203460939C0C70939D0CF2
:1015F00080939E0C90939F0C5CCF632D722DC30142
:101600000E9489138111CDCF20E030E040E85FE3F4
:101610006091980C7091990C80919A0C90919B0C10
:101620000E941F340E9444138111BBCF20E030E0A0
:1016300040E85FE36091980C7091990C80919A0C4E
:1016400090919B0C0E941F3420E030E0A9010E9481
:10165000843481110DC0232D322DA30160E070E090
:10166000CB010E948834162F7A878987092FA3CF50
:10167000632D722DC3010E94441320E030E040E846
:101680005FE3882331F16091980C7091990C8091FF
:101690009A0C90919B0C0E941F3420E030E0A9012D
:1016A0000E948434F82EFF1CFF24FF1C20E030E051
:1016B000A901632D722DC3010E948434881F8827DD
:1016C000881FF81609F477CF132D2A866986072D0F
:1016D000F0CE6091980C7091990C80919A0C909139
:1016E0009B0C0E941F344B015C01232D322DA30162
:1016F0000E947835162F7A878987092FFF24F39463
:1017000020E030E0A9010E9484348111F12C20E016
:1017100030E0A901612F7A858985902F0E94843459
:10172000882309F445C0632D722DC3010E945E35E4
:10173000232D322DA3010E94843487FF39C0232D2D
:10174000322DA301C501B4010E9488346B017C01D4
:10175000E894F7F820E030E040E05FE3C701B6012D
:101760000E9420340E945E359B01AC01C701B60186
:101770000E941F349B01AC015F772D833E834F8312
:10178000588720E030E040E855E2C701B6010E94EA
:1017900078369B01AC01FF24F3946D817E818F81AB
:1017A00098850E94743618160CF0F12C81E0F8260A
:1017B00020E030E0A901FF2031F0632D722DC3013C
:1017C0000E94783650CFC501B4010E948434F82EAF
:1017D000FF1CFF24FF1C20E030E0A901632D722DC7
:1017E000C3010E948434881F8827881FF81609F4D3
:1017F000E2CE232D322DA301612F7A858985902F8A
:101800000E94203430CF132D2A866986072DDECE24
:1018100010922A0C10922B0C10922C0C10922D0C62
:1018200060E070E0CB0151DA60933E0C70933F0CA6
:101830008093400C9093410C80912705882381F080
:101840008091900C9091910CA091920CB091930C7E
:1018500080932E0C90932F0CA093300CB093310CEE
:101860008FEF9FEFDC018093C20C9093C30CA09389
:10187000C40CB093C50C20E030E040E85FE3609119
:10188000A80C7091A90C8091AA0C9091AB0C0E94AD
:1018900020346093A80C7093A90C8093AA0C9093A9
:1018A000AB0C20E030E040E85FE30E941F34162FCD
:1018B00079878D83092F20E030E0A901632D722DF7
:1018C000C3010E948434811111C120E030E0A901DC
:1018D000612F79858D81902F0E948434882309F4AB
:1018E0000EC220E030E040E050E46091AC0C70911A
:1018F000AD0C8091AE0C9091AF0C0E94843420E02E
:1019000030E0A901612F798587FF14C38D81902F65
:101910000E9484348111F8C180912E0C90912F0C7B
:10192000A091300CB091310C4091420C5091430C7D
:101930006091440C7091450C21E030E030934B0CE9
:1019400020934A0C22E030E030934D0C20934C0C55
:101950008093420C9093430CA093440CB093450C9D
:101960004093460C5093470C6093480C7093490C7D
:1019700021E02093CE0C8093320C9093330CA093F3
:10198000340CB093350CC8C18985902F0E948434E3
:10199000882309F4A9CD612F7A858985902FB9D63E
:1019A0008823C1F06091E10C7091E20C8091E30C0E
:1019B0009091E40C20E030E0A9010E948434882357
:1019C00019F18091A00C9091A10CA091A20CB09162
:1019D000A30CB9CD612F7A858985902F55D68111B9
:1019E000E1CF20E030E040E050E4612F7A85898546
:1019F000902F0E9478356B017C0120E030E0A90136
:101A00000E94843481115EC020910402309105024D
:101A10004091060250910702612F7A858985902FA7
:101A20000E9488340E94F034AB0141505109440FA8
:101A3000551F5E834D83FA01EE0FFF1FEE0FFF1F50
:101A4000E05FFD4F2091520C3091530C4091540CAB
:101A50005091550C60817181828193810E9478360A
:101A60006B017C018D819E81880F991F880F991FC2
:101A7000845F9D4F9E838D8320914E0C30914F0C3F
:101A80004091500C5091510CFC0160817181828118
:101A900093810E9478369B01AC01C701B6010E9478
:101AA000203460932A0C70932B0C80932C0C909311
:101AB0002D0C6093A00C7093A10C8093A20C9093BA
:101AC000A30CAECE20E030E0A901612F7A85898594
:101AD000902F0E94843487FF74CF20E030E040E0F4
:101AE00050E4C701B6010E94203464CF612F79858C
:101AF0008D81902F0ED6882361F11091E10CF09129
:101B0000E20CF9872091E30C2D830091E40C20E096
:101B100030E0A901612F79858D81902F0E94843456
:101B20008111DFCE20E030E040E85FE36091AC0C53
:101B30007091AD0C8091AE0C9091AF0C0E9420344E
:101B40006093AC0C7093AD0C8093AE0C9093AF0C83
:101B5000C8CE632D722DC301DCD58111CECF20E01C
:101B600030E040E85FE36091A80C7091A90C80918F
:101B7000AA0C9091AB0C0E941F3486D58111BDCF69
:101B800020E030E040E85FE36091A80C7091A90C80
:101B90008091AA0C9091AB0C0E941F3420E030E0A1
:101BA000A9010E94843481110DC0232D322DA3017F
:101BB00060E070E0CB010E948834162F79878D8316
:101BC000092FA5CF632D722DC3015ED5882379F02F
:101BD00020E030E0A901632D722DC3010E948434FE
:101BE00087FF95CF132D29866D82072D7ACE20E0B1
:101BF00030E040E85FE36091A80C7091A90C8091FF
:101C0000AA0C9091AB0C0E941F346B017C01232D18
:101C1000322DA3010E947835162F79878D83092FE5
:101C2000BB24B39420E030E0A9010E9484348111E8
:101C3000B12C20E030E0A901612F79858D81902FB2
:101C40000E948434882309F441C0632D722DC3019E
:101C50000E945E35232D322DA3010E94843487FF1C
:101C600035C0232D322DA301C701B6010E9488344F
:101C70006B017C01E894F7F820E030E040E05FE39E
:101C8000C701B6010E9420340E945E359B01AC0161
:101C9000C701B6010E941F344B015C01E894B7F8FC
:101CA00020E030E040E855E2C701B6010E947836F6
:101CB0009B01AC01FF24F394C501B4010E9474366A
:101CC00018160CF0F12C81E0BF2CB82620E030E093
:101CD000A901632D722DC301BB2019F00E94783633
:101CE0006CCF0E94843487FF12CF232D322DA301A5
:101CF000612F79858D81902F0E9420345ECF132D26
:101D000029866D82072D0ECF1092320C1092330C63
:101D10001092340C1092350C60913E0C70913F0C77
:101D20008091400C9091410C0E9423356093360CB9
:101D30007093370C8093380C9093390C0091740C8D
:101D40001091750C2091760C3091770C0093700CEB
:101D50001093710C2093720C3093730C29813A818B
:101D60004B815C812093740C3093750C4093760CFE
:101D70005093770C00917C0C10917D0C20917E0C7F
:101D800030917F0C0093780C1093790C20937A0C8F
:101D900030937B0C0091800C1091810C2091820C6F
:101DA0003091830C00937C0C10937D0C20937E0C5F
:101DB00030937F0C0091840C1091850C2091860C3F
:101DC0003091870C0093800C1093810C2093820C2F
:101DD0003093830C6093840C7093850C8093860CF5
:101DE0009093870CC0900805D0900905E0900A05F3
:101DF000F0900B053FEFC31AD30AE30AF30AC0922F
:101E00000805D0920905E0920A05F0920B05C1146D
:101E1000D104E104F10499F480910C0590910D0531
:101E2000A0910E05B0910F050196A11DB11D8093E3
:101E30000C0590930D05A0930E05B0930F058090AF
:101E4000100590901105A0901205B09013054091D7
:101E50002F05509130055A83498360910C0570918C
:101E60000D0580910E0590910F050E942135A50169
:101E700094010E94783620E030E040E85FE40E9460
:101E800078362B013C01C701B6010E942135A5011E
:101E900094010E9478369B01AC01C301B2010E94FB
:101EA0002034E981FA8160837183828393838091F6
:101EB000140590911505A0911605B091170501968E
:101EC000A11DB11D8093140590931505A0931605CF
:101ED000B0931705892B8A2B8B2B99F480911805C9
:101EE00090911905A0911A05B0911B050196A11DAD
:101EF000B11D8093180590931905A0931A05B0930E
:101F00001B052A960FB6F894DEBF0FBECDBFDF913A
:101F1000CF911F910F91FF90EF90DF90CF90BF90E6
:101F2000AF909F908F907F906F905F904F903F9079
:101F30002F9008958D81902F0E948434882309F476
:101F4000EBCC612F79858D81902FE3D38823C1F06D
:101F50006091E10C7091E20C8091E30C9091E40CA3
:101F600020E030E0A9010E948434882319F1809197
:101F7000B00C9091B10CA091B20CB091B30CFBCC11
:101F8000612F79858D81902F7FD38111E1CF20E062
:101F900030E040E050E4612F79858D81902F0E94E0
:101FA00078356B017C0120E030E0A9010E94843487
:101FB00081115BC02091040230910502409106021C
:101FC00050910702612F79858D81902F0E9488346E
:101FD0000E94F03461507109AB01440F551F5E83BC
:101FE0004D83DA01AA0FBB1FAA0FBB1FA05FBD4F15
:101FF0002091460C3091470C4091480C5091490C6F
:102000006D917D918D919C910E9478366B017C0140
:10201000ED81FE81EE0FFF1FEE0FFF1FE45FFD4F0E
:102020002091420C3091430C4091440C5091450C4E
:1020300060817181828193810E9478369B01AC011D
:10204000C701B6010E9420346093320C7093330CA8
:102050008093340C9093350C6093B00C7093B10C5A
:102060008093B20C9093B30C57CE20E030E0A901DE
:10207000612F79858D81902F0E94843487FF77CFDF
:1020800020E030E040E050E4C701B6010E94203477
:1020900067CF8091880C9091890CA0918A0CB091A7
:1020A0008B0C80933A0C90933B0CA0933C0CB09318
:1020B0003D0C8093900C9093910CA093920CB09354
:1020C000930C80938C0C90938D0CA0938E0CB093FA
:1020D0008F0C80911C0590911D05A0911E05B0915B
:1020E0001F050196A11DB11D80931C0590931D0530
:1020F000A0931E05B0931F05892B8A2B8B2B99F477
:102100008091200590912105A0912205B091230591
:102110000196A11DB11D8093200590932105A093E8
:102120002205B093230508954F925F926F927F929C
:102130009F92AF92BF92CF92DF92EF92FF920F9356
:102140001F93CF93DF9384E090E067D2EDE6F4E055
:1021500080EDDF011D928A95E9F78CE295E0978387
:102160008683CFE2D5E0D093AE04C093AD0400E106
:1021700015E0158B048BF093D804E093D704F58316
:10218000E483CC24C394D12CDC01CD92DC9285E590
:1021900093E09387828721E335E03983288340E009
:1021A00050E060E271E44093280550932905609364
:1021B0002A0570932B054AE057ED63EA7BE3D801CB
:1021C0004D935D936D937C931397C6EFD4E088E4B1
:1021D00095E9A1E5B1E088839983AA83BB838CE468
:1021E0009DECAEEFB0E08093FA049093FB04A093D3
:1021F000FC04B093FD0488E19EE4AAE2B2EF809370
:10220000FE049093FF04A0930005B09301058DEFA9
:102210009DE2ABE8B6EE8093020590930305A09390
:102220000405B0930505A1E6B4E0B383A283E5E518
:10223000F4E01196FC93EE9387E693E0918380831C
:102240009383828395838483978386839187808712
:102250009387828786E095E015969C938E931497DA
:102260001396DC93CE93129717963C932E93169762
:1022700036E1A32E3CE0B32E8CE2F50111928A9553
:10228000E9F7C2E4DCE083E9DE011D928A95E9F713
:10229000992493949092D40C412C512C3201439464
:1022A00049A25AA26BA27CA2E12CF12C8701A801C1
:1022B000970167E070E080E090E00E94B5019FA385
:1022C0008EA39DA2188E9092D30C498E5A8E6B8E3F
:1022D0007C8EA801970166E070E080E090E00E94AB
:1022E000B5019F8F8E8F9D8E0CEF12E0F8018081DB
:1022F0009181A281B381F501808B918BA28BB38BED
:102300001F8A1E8A18A69092D20C49A65AA66BA6BE
:102310007CA643E050E062E070E090E080E00E9444
:1023200071059DA640910003509101036091020345
:1023300070910303D50158964D935D936D937C93F3
:102340005B978091E4029091E502A091E602B09142
:10235000E7028EA79FA7A8ABB9AB8AAB9BABACAB90
:10236000BDAB8091F4029091F502A091F602B0917C
:10237000F7028EAB9FABA8AFB9AF8AAF9BAFACAF44
:10238000BDAF8093800C9093810CA093820CB0938E
:10239000830C8093840C9093850CA093860CB0934F
:1023A000870CF80180819181A281B38180938C0C8C
:1023B00090938D0CA0938E0CB0938F0C4093900C47
:1023C0005093910C6093920C7093930C40E050E00A
:1023D00060E070E44093A40C5093A50C6093A60CAD
:1023E0007093A70C9092CD0CD986C88622E030E07D
:1023F0003B872A879092CE0C1092A80C1092A90CC1
:102400001092AA0C1092AB0C9092CF0C1092AC0CC4
:102410001092AD0C1092AE0C1092AF0C9092D00CAA
:102420001092B00C1092B10C1092B20C1092B30C2E
:102430009092D10C1092CC0C8FEF9FEFDC01809327
:10244000C20C9093C30CA093C40CB093C50C4093E2
:10245000940C5093950C6093960C7093970C9092FB
:10246000C70CDD8ACC8A3F8B2E8B188219821A8288
:102470001B821C861D861E861F861C821D821E8254
:102480001F82188A198A1A8A1B8A9092C80C40E007
:1024900050E068EC71EC4093980C5093990C609369
:1024A0009A0C70939B0C9092C90C10929C0C1092F9
:1024B0009D0C10929E0C10929F0C9092CA0C109240
:1024C000A00C1092A10C1092A20C1092A30C90924E
:1024D000CB0C1092C60C8093BE0C9093BF0CA093B3
:1024E000C00CB093C10CDF91CF911F910F91FF9061
:1024F000EF90DF90CF90BF90AF909F907F906F90C4
:102500005F904F9008958091620C81112EC081E000
:102510008093620C8091630C9091640CA091650C87
:10252000B091660C0197A105B105F9F48091670C93
:102530008823D9F067E070E080E090E00E947101AC
:102540009093690C8093680C40E050E0BA010E94BF
:102550003A0167E070E080E090E00E9471019093A2
:10256000690C8093680C0E94060280915A0C8111BC
:102570002EC081E080935A0C80915B0C90915C0C92
:10258000A0915D0CB0915E0C0197A105B105F9F425
:1025900080915F0C8823D9F066E070E080E090E0E5
:1025A0000E9471019093610C8093600C40E050E0B8
:1025B000BA010E943A0166E070E080E090E00E947B
:1025C00071019093610C8093600C0E9406028091CF
:1025D0006A0C811103C081E080936A0C089560E069
:1025E00070E080E89FE7089560E070E080E89FE792
:1025F000089560E070E080E89FEF089560E070E08B
:1026000080E89FEF089560E070E080EC9FEF089510
:1026100060E070E080EC9FEF0895F5DF6093E10CDF
:102620007093E20C8093E30C9093E40CF1DF6093E1
:10263000D50C7093D60C8093D70C9093D80CCFDF29
:102640006093DD0C7093DE0C8093DF0C9093E00CB4
:10265000CBDF6093D90C7093DA0C8093DB0C9093F2
:10266000DC0CC7DF6093E50C7093E60C8093E70CFD
:102670009093E80CC3DF6093E90C7093EA0C8093AD
:10268000EB0C9093EC0C0895CF92DF92EF92FF92B7
:10269000CF936B017C01AC019B016091DD0C7091CB
:1026A000DE0C8091DF0C9091E00C0E948434C1E03C
:1026B000882371F0A70196016091E50C7091E60CFA
:1026C0008091E70C9091E80C0E9484348111C0E065
:1026D0008C2FCF91FF90EF90DF90CF9008950F93C4
:1026E0001F938B019C010027112720783F7701154C
:1026F000110520483F4749F4AB01BC016F777727AC
:1027000081E0452B462B472B09F480E01F910F9168
:102710000895E5CF4F925F926F927F928F929F9232
:10272000AF92BF92CF92DF92EF92FF920F931F93DF
:10273000F8944090490550904A0560904B05709080
:102740004C05C0903D05D0903E05E0903F05F090CF
:1027500040054130510509F0A4C09B01AC0124198A
:1027600035094609570929013A010091450510919B
:102770004605209147053091480548015901840CD0
:10278000951CA61CB71C80169106A206B306A0F4E1
:102790000091410510914205209143053091440577
:1027A0000F5F1F4F2F4F3F4F00934105109342057E
:1027B0002093430530934405809245059092460549
:1027C000A0924705B092480500914105109142053D
:1027D000209143053091440580924D0590924E051D
:1027E000A0924F05B09250050093510510935205E9
:1027F00020935305309354056093490570934A051F
:1028000080934B0590934C05A8E8B3E1A301920196
:102810000E94933F6C0D7D1D8E1D9F1D60933D0595
:1028200070933E0580933F05909340050091080307
:102830001091090320910A0330910B030F3F1F4FA2
:102840002F4F3F4FF1F000910803109109032091A1
:102850000A0330910B030E3F1F4F2F4F3F4F89F05C
:10286000C0900803D0900903E0900A03F0900B0396
:1028700021E08C149D04AE04BF0408F420E02093F2
:10288000590578941F910F91FF90EF90DF90CF90B2
:10289000BF90AF909F908F907F906F905F904F9080
:1028A00008954B015C0184189508A608B708A30198
:1028B0009201261B370B480B590B641575058605CD
:1028C0009705D0F082169306A406B50640F420E0E2
:1028D00030E0A90181149104A104B10491F4A8E8A5
:1028E000B3E10E94933FA7019601261B370B480BCB
:1028F000590BCA01B901C5CF82169306A406B506C5
:1029000070F7A8E8B3E1A50194010E94933F6C0D14
:102910007D1D8E1D9F1DB5CFFDCECF93DF9300D0C3
:102920001F92CDB7DEB71C821B821A8219821092C9
:102930005505109256051092570510925805BE0184
:102940006F5F7F4FCE0103960E94773169817A8154
:102950008B819C810E94952A009761F4BE016F5F74
:102960007F4FCE0103960E94833169817A818B81EA
:102970009C8132D50F900F900F900F90DF91CF91E7
:102980000895FF920F931F93CF93DF93082F60E07A
:1029900070E0CB010E949239FF24F3940E947E29BB
:1029A000EC01892B89F010E0CE3F8FEFD80769F05A
:1029B000002361F160E070E0CB010E94923981E078
:1029C00090E0892B59F322C011E029D5EC01892B25
:1029D00021F0CE3F8FEFD80759F711111EC011E03B
:1029E000229609F410E00E942E29EC01892B21F097
:1029F000CE3F8FEFD807E1F6111111C011E0CE3FA5
:102A00008FEFD80709F410E001110BC0CE01DF9160
:102A1000CF911F910F91FF90089511E0E4CF11E045
:102A2000F3CF60E070E0CB010E9492391F25812F27
:102A300090E0C7CFCF93DF9380915905882321F091
:102A400060E070E0CB0150D639D6D0E0C0E0892BF1
:102A500071F06AE070E080E090E00E94923981E0DD
:102A600090DF2CD62196C03D27E0D20781F72BD6E8
:102A70000E94E92A109271051092700510926A0561
:102A800010926B0510926C0510926D051092660500
:102A90001092670510926805109269051092620500
:102AA00010926305109264051092650510925E0500
:102AB00010925F05109260051092610510925A0500
:102AC00010925B0510925C0510925D054EEF5FEF72
:102AD0006FEF7FEF409308035093090360930A035D
:102AE00070930B0310925905EDE4F5E028E0DF0147
:102AF0001D922A95E9F71092490510924A05109205
:102B00004B0510924C051092450510924605109207
:102B10004705109248051092410510924205109207
:102B200043051092440510923D0510923E05109207
:102B30003F0510924005DF91CF91089510927D05D9
:102B400010927E0510927F051092800510927C05F0
:102B5000809185059091860590937B0580937A05F9
:102B600010927905109278051092740510927505EF
:102B700010927605109277051092820510928105C9
:102B800090E080E00895CF92DF92EF92FF920F9352
:102B90001F93CF938C01019709F055C020918505B3
:102BA0003091860580917A0590917B05409185054D
:102BB0005091860550937B0540937A052817390775
:102BC00081F0109279051092780510927405109298
:102BD0007505109276051092770510928205109275
:102BE00081058091850590918605019761F5809119
:102BF000810590918205892B21F480910C0381112C
:102C000012C080918105909182050197E1F4809135
:102C1000740590917505A0917605B091770501979F
:102C2000A105B10581F410927405109275051092FA
:102C300076051092770510920C0382E090E0909355
:102C40008205809381058091850590918605019785
:102C500009F01CC180919B0590919C0580179107FC
:102C600009F014C18091970590919805A09199055C
:102C7000B0919A05009709F409C120919605211198
:102C80000DC04091970550919805609199057091FC
:102C90009A05452B462B472B09F4F8C02091810556
:102CA000309182052230310509F0F0C0209178057D
:102CB0002111ECC0FC01C080D180E280F3808091C2
:102CC0007C05882309F4D3C08091880590918905FB
:102CD000892B09F4FEC0209188053091890581E097
:102CE0002230310509F080E0209188053091890576
:102CF000C1E02130310549F02091880530918905E6
:102D0000C1E02230310509F0C0E0882309F456C043
:102D1000209192053091930540919405509195052D
:102D2000C701B6010E94743687FD14C02091920538
:102D300030919305409194055091950560917D05E2
:102D400070917E0580917F05909180050E9484346A
:102D500087FD22C020919205309193054091940502
:102D600050919505C701B6010E947436181634F5C6
:102D700020919205309193054091940550919505CD
:102D800060917D0570917E0580917F059091800511
:102D90000E948434811112C080918A0590918B0524
:102DA000A0918C05B0918D05892B8A2B8B2B19F462
:102DB00081E08093790581E080937805CC2309F444
:102DC00056C0209192053091930540919405509101
:102DD0009505C701B6010E94843487FF14C0209175
:102DE000920530919305409194055091950560911D
:102DF0007D0570917E0580917F05909180050E94F0
:102E0000743687FF22C0209192053091930540913E
:102E1000940550919505C701B6010E948434811133
:102E200026C02091920530919305409194055091D0
:102E3000950560917D0570917E0580917F0590914B
:102E400080050E947436181694F480918A0590913A
:102E50008B05A0918C05B0918D05892B8A2B8B2B2E
:102E600019F481E08093790581E08093780581E011
:102E700090917805911180E080937C05C0927D054A
:102E8000D0927E05E0927F05F09280050130110519
:102E900009F067C18091810590918205892BD9F451
:102EA000109287051092780580910C03882379F0A1
:102EB00082E090E0909382058093810510920C034C
:102EC000209185053091860581E0232BE9F080E093
:102ED0001BC081E009CF10920C03809187058823E5
:102EE00049F0109279051092820510928105109296
:102EF0008705EDCF8091850590918605892BE1F0BE
:102F00008091780510927805209181053091820595
:102F10002230310509F45EC088F42115310509F429
:102F200048C02130310509F4F3C0109279051092A0
:102F300078051092870538C081E0E6CF233031054F
:102F400009F4B1C02430310581F7409174055091E6
:102F500075056091760570917705411551056105FC
:102F6000710561F04150510961097109409374057F
:102F700050937505609376057093770540917405BD
:102F8000509175056091760570917705452B462B1C
:102F9000472BD9F4209183053091840521303105E8
:102FA00009F046C0109279051092820510928105B1
:102FB0000CC080910C03882341F082E090E0909354
:102FC00082058093810510920C0310927205809106
:102FD0007905CEC08823C9F380918A0590918B052D
:102FE000A0918C05B0918D05181619061A061B06BE
:102FF0000CF07DC08091850590918605019709F0C0
:1030000076C080918A0590918B05A0918C05B09136
:103010008D058093740590937505A0937605B09304
:10302000770583E090E09093820580938105CDCF72
:1030300040918E0550918F0560919005709191059A
:10304000452B462B472BA9F01092790580918E05D0
:1030500090918F05A0919005B09191058093740592
:1030600090937505A0937605B093770581E090E085
:10307000DACF882399F080910D0390910E03A091EF
:103080000F03B09110038093740590937505A0937E
:103090007605B093770584E090E0C5CF109279056E
:1030A00082E090E0C0CF8091740590917505A09169
:1030B0007605B09177050097A105B10559F0019704
:1030C000A109B1098093740590937505A0937605C5
:1030D000B09377058091740590917505A091760560
:1030E000B0917705892B8A2B8B2B09F06ECF8091BD
:1030F0000D0390910E03A0910F03B0911003892B43
:103100008A2B8B2B09F44ECF81E080937905B3CFC6
:103110004091740550917505609176057091770521
:10312000411551056105710561F041505109610971
:1031300071094093740550937505609376057093FB
:1031400077054091740550917505609176057091F1
:103150007705452B462B472B09F037CF8111C7CF79
:103160009FCF80917205882309F431CF8091730538
:10317000CF911F910F91FF90EF90DF90CF90089526
:1031800010927D0510927E0510927F0510928005A9
:1031900010927C05109282051092810510927B0599
:1031A00010927A0510929C0510929B051092790559
:1031B000109278051092740510927505109276059C
:1031C0001092770510927305109272051092970570
:1031D000109298051092990510929A0510929605F2
:1031E00010929205109293051092940510929505F5
:1031F00088EE93E0A0E0B0E080930D0390930E037F
:10320000A0930F03B093100310928E0510928F05B8
:10321000109290051092910510928A0510928B05DC
:1032200010928C0510928D051092890510928805D8
:1032300081E080930C03109287051092860510920E
:103240008505109284051092830590E080E0089532
:103250008091850590918605892B19F580910C0345
:10326000882351F080918705811106C081E0809309
:1032700073058093720508952091870530910C03A2
:1032800081E090E0332311F090E080E030E0822391
:103290009323892B21F01092730581E0EACF1092DD
:1032A0007205089582E090E0FA01918380838FEFA8
:1032B0009FEF0895CF93DF93EA01009711F00E94EA
:1032C000032C1982188290E080E0DF91CF9108955D
:1032D000DB01009719F48FEF8C9308952EEF2C9358
:1032E000FC017096E031F10508F037C08827E458FA
:1032F000F64E8F4F0C948B3FAB19A919A719A5193E
:10330000A319A1199D199F199B1999199719941916
:1033100090198C199219AD1980E311968C93089528
:1033200089E2FBCF82E2F9CF11961C92089583E2E5
:10333000F4CF81E2F2CF81E1F0CF87E2EECF8AE2F3
:10334000ECCF80E1EACF84E2E8CF88E2E6CF86E204
:10335000E4CF81E3E2CF83E3E0CF80E2DECF809170
:10336000A9059091AA0508959093AA058093A905AF
:1033700008958091A80508959091A805892B8093C0
:10338000A8050895982F90958091A805892380938A
:10339000A80508958091A70508958091A5059091AD
:1033A000A60508956115710559F0FB0130E020E094
:1033B00070E060E02417350719F06115710511F010
:1033C000CB010895A081B181A817B90709F4BF0105
:1033D0002F5F3F4F3696EECF8091AB0581111CC019
:1033E00060D266D290939E0580939D050E9405242D
:1033F0000E9417249093A2058093A1050E9496280D
:103400000E949D289093A00580939F0581E0809362
:10341000AB0590E080E0089584EF9FEF08958F92D0
:103420009F92AF92BF92CF92DF92EF92FF920F9353
:103430001F93CF93DF9300D000D000D01F92CDB761
:10344000DEB71A86198618861F821E821D821C828C
:103450001B821A8219828091AB0507EF1FEF882328
:1034600009F49CC08E010D5F1F4F9E012B5F3F4FE3
:10347000AE01495F5F4FBE01675F7F4F90E080E024
:103480000E941A2A8C01009721F00596029708F0F5
:10349000DBC029853A852115310509F402C1ED808B
:1034A000FE804B815C81B701640F751F8F81988509
:1034B0008617970708F4F5C0E20EF31ED7019C911A
:1034C000903C09F07FC04230510508F47BC0119652
:1034D0008C914091A9055091AA05452B09F49CC0F7
:1034E000913F08F071C02CE1290F2D3008F48BC0FA
:1034F0002DE2290F203108F489C0903C21F481503D
:10350000823008F483C088E3890F8B3008F481C0CF
:1035100098E6C92E99E1D92EE2E5F9E16D817E8127
:10352000AE014F5F5F4F89859A8519955C01C11483
:10353000D104A1F189809A808114910479F18B8161
:103540009C818815990508F487C010E000E04B8144
:103550005C8170E060E0C7010E94B53F0115110574
:10356000E9F449815A8169857A858D819E81680F48
:10357000791FC501F6011995E980FA800D811E8138
:103580002F81388549855A856FEF7FEF81E090E084
:103590000E94B5298C01892B09F056C0C8012A96D2
:1035A0000FB6F894DEBF0FBECDBFDF91CF911F9154
:1035B0000F91FF90EF90DF90CF90BF90AF909F90D2
:1035C0008F90089580E085CF30E020E0220F331FF8
:1035D000F901E356FA4F0190F081E02D309709F49C
:1035E00097CF892F90E01995009709F491CFDC01CE
:1035F0001296ED91FC9113971496CD90DC90309734
:1036000009F08CCF1FC021E030E0E0CF22E030E0B5
:10361000DDCF23E030E0DACFD12CC12CEAE5F9E1AF
:103620009F3F09F07BCFE0919D05F0919E0530977B
:1036300021F4C90104EF1FEF0CC08FEF90E0199542
:103640000097A9F604EF1FEF89859A85009709F482
:10365000A5CF0E94032CA2CF0E94E42A8C01898569
:103660009A850E94032C70E060E0C4010E947D2ACC
:1036700098878F830E94B2299E838D836F8178857E
:103680006115710559F0C8010E94622D9A878987DA
:1036900006EF1FEF892B09F058CF59CF08EF1FEF26
:1036A00056CF08EF1FEFD0CF2091AB05222319F0A2
:1036B00020E00C941C2487EF9FEF08958091A905CA
:1036C0009091AA0508950E94A2280E94FC27F5D097
:1036D000EDE9F5E088E0DF011D928A95E9F71092A7
:1036E000AB0590E080E008950C94592621E040E07D
:1036F00050E0BA010C941C2486E090E0FA0191831A
:10370000808390E080E0089547E050E06AE673E04F
:1037100049CEDF92EF92FF920F931F93CF93DF93E7
:103720008A01EC01C60FD71FE090AF05F090B005FD
:10373000D9800E94CC2AD816190678F082E090E051
:10374000F801918380838EEF9FEFDF91CF911F91DE
:103750000F91FF90EF90DF900895EF2841F482E001
:1037600090E0F8019183808384EF9FEFEECF898111
:103770008093AE0590E00196F8019183808390E0FC
:1037800080E0E3CFCF93DF93EA010E940A278823EA
:1037900021F00E94D92A0E940B2782E090E09983B1
:1037A00088838BEF9FEFDF91CF910895CF93DF93C5
:1037B000EB0186E0FB0111928A95E9F78FEF888390
:1037C000D8DD8983E7DD8A83E8DD9D838C83DF9103
:1037D000CF910895CF93DF93EA010E940D278111C5
:1037E00009C082E090E09983888385EF9FEFDF91A5
:1037F000CF91089590E080E0B7DD81E090E099837B
:10380000888390E080E0F3CF0F931F93CF93DF93F3
:10381000EA018C01060F171F0E940D2781110BC0B2
:1038200082E090E09983888385EF9FEFDF91CF91CD
:103830001F910F910895F8018181823038F082E064
:1038400090E0998388838EEF9FEFF0CF81E090E046
:103850008BDD88E090E09983888390E080E0E6CF7C
:10386000CF93DF930097D1F4EB01FB01329686E012
:10387000DF011D928A95E9F78FEF888385E08983C0
:103880001A820E94CC2A8B830E94CB2A9D838C8330
:1038900081E08E838F83DF91CF910895DF91CF9167
:1038A00017CD84E89BE19093AD058093AC05089516
:1038B0008091AC059091AD0508951092AD051092E0
:1038C000AC0508958091AF059091B0050895411120
:1038D00005C0611571058105910561F06093AF0523
:1038E0007093B0058093B1059093B2054093B305F2
:1038F00081E0089580E00895FF920F931F93CF9386
:10390000DF938A01EC01C60FD71FF9800E94CC2AF1
:10391000F816190668F082E090E0F8019183808340
:103920008EEF9FEFDF91CF911F910F91FF90089540
:103930006C817D818E819F814B81C9DF811108C09F
:1039400082E090E0F8019183808384EF9FEFEACFDB
:1039500089818093AE0590E00196F8019183808380
:1039600090E080E0DFCFCF93DF93EA01FC01E60F28
:10397000F71F64817581868197814381A8DF81115A
:1039800009C082E090E09983888384EF9FEFDF9104
:10399000CF91089581E090E09983888390E080E062
:1039A000F6CFEFEAF5E04081518162817381480FE3
:1039B000511D611D711D408351836283738308957E
:1039C000CF93C091AE054C2F50E06091AF05709140
:1039D000B00501960E94AC3F8C2FE3DF1092AE053C
:1039E000CF910895009799F48091AF059091B0051B
:1039F0002FEFFB012083892B59F02091AE0530E099
:103A00002F5F3F4F2417350719F4CB01D9CF60CC76
:103A10000895009799F48091AF059091B0052FEF2C
:103A2000FB012083892B59F02091AE0530E02F5FF8
:103A30003F4F2417350719F4CB01C2CF49CC089565
:103A400023E1AC01249FC001259F900D1124E0913A
:103A5000B805F091B905E80FF91F23813481225090
:103A6000310981E02230310508F080E008950F939C
:103A70001F93CF93DF930091BA051091BB05D0E05F
:103A8000C0E080E00C171D0749F491E0811190E03F
:103A9000892FDF91CF911F910F9108958111F5CF5B
:103AA000CE01CEDF2196EECFA091B805B091B90539
:103AB000109729F12091BA053091BB058217930721
:103AC000F0F453E1589F9001599F300D1124A20F3B
:103AD000B31FED91FC911197309789F012968C915C
:103AE000681768F48DE0689FE00DF11D1124808156
:103AF0009181892B21F081E09281491708F080E0C3
:103B000008959C0143E1429FC001439F900D112401
:103B1000E091B805F091B905E80FF91F838582306F
:103B200099F481E090E06581768140911103509194
:103B300012036417750711F490E080E0892B21F0DF
:103B400081E02230310508F080E00895FC01A08179
:103B5000B1818DE0689FA00DB11D112413964D9188
:103B60005C9185859685489F9001499F300D589FAF
:103B7000300D1124C9010196611103C0478144FD34
:103B800004960895EF92FF920F931F93CF93DF93C4
:103B9000EA01FC01E60FF71F02811381E480F58042
:103BA0004F2D6E2DC80180DF81110DC082E090E0A5
:103BB000998388838EEF9FEFDF91CF911F910F91B3
:103BC000FF90EF900895C8013BDF882339F082E031
:103BD00090E09983888388EF9FEFEECF10931803CE
:103BE00000931703E0921903F0921A0381E090E02A
:103BF0009983888390E080E0DFCFCF92DF92EF92CD
:103C0000FF920F931F93CF93DF937A01EC01C60FBE
:103C1000D71FC0901703D09018030091190310917B
:103C20001A03412F602FC6013FDF811110C082E0CF
:103C300090E0F701918380838AEF9FEFDF91CF912E
:103C40001F910F91FF90EF90DF90CF900895C601E4
:103C5000F7DE882341F082E090E0F70191838083D2
:103C600088EF9FEFEBCF4C815D816E817F819A81E0
:103C700089818F3F41F082E090E0F701918380835A
:103C80008EEF9FEFDBCFE3E1EC9D9001ED9D300DDA
:103C90001124E091B805F091B905E20FF31F0190EE
:103CA000F081E02D2DE0029FE00DF11D1124019027
:103CB000F081E02D27E0129FE00DF11D112480839B
:103CC00091838B81828343835483658376831F5FD3
:103CD00010931A0381E090E0F7019183808390E0D4
:103CE00080E0ACCFEF92FF920F931F93CF93DF93BF
:103CF0007A018C01060F171FC091B805D091B90544
:103D0000209781F021E030E0F80182819381409199
:103D1000BA055091BB058417950710F030E020E0FC
:103D2000232B71F482E090E0F701918380838EEF82
:103D30009FEFDF91CF911F910F91FF90EF9008952A
:103D400043E1489F9001499F300D1124C20FD31FBA
:103D500077DE882341F082E090E0F7019183808351
:103D600088EF9FEFE6CFF8012481358120383105B7
:103D7000C8F687818111D6CF4181842F90E08F7E54
:103D8000009741F082E090E0F7019183808386EF15
:103D90009FEFCFCF4F833E832D83268128871986BF
:103DA000223010F421E0288721E030E0F701318350
:103DB0002083BFCF88E090E0FA019183808390E078
:103DC00080E00895FB018FEF808381E181838FEF95
:103DD0009FEF9383828380E890E0958384831682AB
:103DE00017820895FB018FEF808391E09183828396
:103DF0009383848384E3858381E090E09783868343
:103E0000089582E090E0FA019183808380EF9FEF34
:103E10000895BF92CF92DF92EF92FF920F931F937C
:103E2000CF93DF93DA01FC01E60FF71F8181813028
:103E300081F082E090E08D939C938FEF9FEFDF9174
:103E4000CF911F910F91FF90EF90DF90CF90BF9097
:103E50000895C281D381B480858106811781E09065
:103E6000B805F090B905E114F10439F482E090E06E
:103E70008D939C938CEF9FEFE2CF2091BA05309108
:103E8000BB05C217D30738F082E090E08D939C9376
:103E90008EEF9FEFD4CFC230D10538F082E090E0B2
:103EA0008D939C9386EF9FEFCACF9B2D9D7FB1F79B
:103EB0008130A1F7B11005C00130110531F080E06B
:103EC00004C081E002301105D0F3882339F36D017D
:103ED000CE01B6DD882341F082E090E0F6019183C7
:103EE000808388EF9FEFABCF83E18C9FF0018D9FA4
:103EF000F00D1124EE0DFF1DB38681E08487168737
:103F00000587108A178681E090E0F601918380830F
:103F100090E080E094CF4DE050E064E973E042CA65
:103F20008F929F92BF92CF92DF92EF92FF920F9368
:103F30001F93CF93DF93EA01FC01E60FF71F828105
:103F400093810481B580E091B805F091B90530976F
:103F500091F482E090E0998388838CEF9FEFDF916A
:103F6000CF911F910F91FF90EF90DF90CF90BF9076
:103F70009F908F9008952091BA053091BB058217CC
:103F8000930738F082E090E0998388838EEF9FEF6B
:103F9000E6CF23E1289F6001299FD00C1124EC0D6E
:103FA000FD1DE080F180E114F10499F2828108178F
:103FB00048F78DE0089F80011124E00EF11EF70103
:103FC00080819181892B29F6BB20E1F2F7E0BF9E29
:103FD00040011124C4010E94CA2BF7019183808300
:103FE000E091B805F091B905EC0DFD1D0190F0814F
:103FF000E02DE00FF11F80819181009739F482E07C
:1040000090E0998388838DEF9FEFA9CFA40170E0A2
:1040100060E00E94B53F8091B8059091B905C80E47
:10402000D91EF60180819181080F191FF801B28213
:1040300081E090E09983888390E080E090CFAF9218
:10404000BF92CF92DF92FF920F931F93CF93DF9394
:10405000EA01FC01E60FF71F82819381F480009151
:10406000B8051091B9050115110581F482E090E0C1
:10407000998388838CEF9FEFDF91CF911F910F91F0
:10408000FF90DF90CF90BF90AF9008952091BA0538
:104090003091BB058217930738F082E090E0998356
:1040A00088838EEF9FEFE8CF2FEF2F0D2C3FA8F7DF
:1040B00023E1289F6001299FD00C11240C0D1D1DA8
:1040C000F80180819181892B89F6FDE0FF9E5001E6
:1040D0001124C5010E94CA2BF80191838083E091CD
:1040E000B805F091B905EC0DFD1D80819181009717
:1040F00039F482E090E0998388838DEF9FEFBCCF05
:10410000A50170E060E00E94B53FE091B805F09134
:10411000B905EC0DFD1DF28281E090E09983888362
:1041200090E080E0A9CFCF92DF92EF92FF920F93C1
:104130001F93CF93DF93860F971FFC01028113819A
:104140008091B8059091B905892B81F082E090E0CB
:10415000FA01918380838CEF9FEFDF91CF911F91C4
:104160000F91FF90EF90DF90CF900895C801B0E0DD
:10417000A0E00197A109B1098F3F9F4FA105B105AB
:1041800040F082E090E0FA01918380838EEF9FEF10
:10419000E4CF7A0183E1809F6001819FD00C1124DC
:1041A000C6010E94CA2BEC01009741F482E090E026
:1041B000F701918380838DEF9FEFCFCFA60170E051
:1041C00060E00E94B53FD093B905C093B805109345
:1041D000BB050093BA0590E080E02FEF3FEF41E090
:1041E00061E070E08017910741F481E090E0F70111
:1041F0009183808390E080E0B0CF3A8B298B1B863F
:104200004C877E876D87188A1F8601966396EACF52
:10421000EF92FF921F93CF93DF93EC0110E0F12C0C
:10422000E12C6A811617B0F083E0689FB001112479
:10423000AE014F5E5F4FC7010E942F2C009721F007
:104240002FEF3FEF3A8B298BDF91CF911F91FF909A
:10425000EF900895612FCE0179DC61E070E00E945B
:104260007D2AE816F90608F47C011F5FDACFF8947E
:104270002091B6053091B70581E02115310509F08F
:1042800080E0232B09F0789408952F923F924F926B
:104290005F926F927F928F929F92AF92BF92CF92D6
:1042A000DF92EF92FF920F931F93CF93DF933C0126
:1042B000660E771EF301828193814C01B12CA12CF3
:1042C000C091B805D091B905209769F021E030E0A0
:1042D0006091BA057091BB058617970710F030E022
:1042E00020E0232BD1F482E090E0FA0191838083D7
:1042F0008EEF9FEFDF91CF911F910F91FF90EF9085
:10430000DF90CF90BF90AF909F908F907F906F90F5
:104310005F904F903F902F90089580921B03909252
:104320001C03A0921D03B0921E0363E1689F9001DD
:10433000699F300D1124C20FD31FF3018181833097
:1043400040F082E090E0FA019183808386EF9FEF56
:10435000D1CF2A012B813C81232BF1F42881398193
:104360009F8191FF2EC0232B09F46FC02091BD05C2
:104370009A81422F490F5527551FBA0141E050E05D
:104380006138710514F050E040E0452B09F45DC040
:104390002A87920F9093BD058150823008F481C026
:1043A00066DF882309F4DAC0F3018181813009F4E2
:1043B0008DC008F47BC0823009F4C8C090E080E072
:1043C000ADC0232B09F441C02091BC059A81E22F96
:1043D000E90FFF27FF1F41E050E0ED3FF10514F02A
:1043E00050E040E0452B89F12A87920F9093BC055D
:1043F000D3CFA081B181A20FB31F11966C91060F8C
:10440000111D0196295F3F4F8417950794F38D8501
:104410009E85089F1001099F300C189F300C1124B5
:10442000C114D104D1F48F8184FF17C00E94CB2A1C
:10443000F5E02F0E311C21E08215930508F420E0F1
:10444000A701435F5F4F21110EC082E090E0F201AF
:104450009183808387EF9FEF4DCF0E94CB2A2FEF70
:10446000221A320AE8CF88819981E80EF91EF701F5
:1044700014830383FFEFCF1ADF0A7A018A818C1538
:104480001D0409F00CF48CCFE881F981EE0DFF1DBD
:10449000428150E030E020E010E000E090E080E079
:1044A000B3CFF12CE12CD12CC12CE8CF81E090E0EE
:1044B0009C838B83DCDA882309F480CF81E090E051
:1044C0000E94B41980E40E94C21978CF89899A8920
:1044D000019661F083E090E09C838B8382E090E022
:1044E0000E94B41980E40E94BC1968CF8D819E811E
:1044F000209111033091120382179307D1F4609138
:10450000150370911603AE014F5E5F4F8091130348
:10451000909114030E94212D0097E1F2789422E0FB
:1045200030E0F20131832083892BA9F08DEF9FEFDA
:10453000E1CE22E082169104A104B1045CF6039757
:1045400048F6CE0165DE188A1F86E6CF82E090E04D
:104550009C838B8333CF90E080E0CCCE82E090E0F0
:10456000F2019183808385EF9FEFC4CE8F929F925B
:10457000AF92BF92CF92DF92EF92FF920F931F9371
:10458000CF93DF93EA018C01060F171FF801818199
:10459000833098F082E090E09983888386EF9FEFE4
:1045A000DF91CF911F910F91FF90EF90DF90CF900F
:1045B000BF90AF909F908F9008958091B805909193
:1045C000B905892B61F081E090E02091BA05309126
:1045D000BB05232B11F490E080E0892B39F482E0B5
:1045E00090E0998388838EEF9FEFDACF40DE8823B7
:1045F00009F4E1C0F8018181813009F497C0E8F045
:10460000823099F42091BA053091BB05E091B8054C
:10461000F091B90590E080E041E050E028173907BB
:1046200009F0BFC024DA811117C0789481E090E0CE
:104630009983888390E080E0B3CF2091BA053091D0
:10464000BB05E091B805F091B90590E080E041E04C
:1046500050E02817390741F481E090E00E94B41936
:1046600080E40E94C219E1CF63817481672B11F04D
:104670005483438301967396ECCFE091B805F09193
:10468000B905E00FF11F2381348122303105D9F4BF
:10469000218932892F3F3F4FB1F4258136814091E6
:1046A0001103509112032417350761F5AF014F5ED6
:1046B0005F4F6091150370911603809113039091E1
:1046C00014030E94212DEFEFCE1ADE0AEE0AFE0A35
:1046D0000D5E1F4F4091BA055091BB0570E060E040
:1046E000C416D506E606F7064CF5009731F2789425
:1046F000892B09F49BCF82E090E0998388838DEF2A
:104700009FEF4ECF42E0C416D104E104F104DCF681
:1047100023303105C0F6CF017BDDE091B805F09183
:10472000B905E00FF11F108A1786CDCF10E000E029
:1047300090E080E0C12CD12C7601CCCF0097B9F667
:1047400010E000E0812C912C540183E0E82EF12C44
:104750001AC0E091B805F091B905E00FF11F83810F
:104760009481029749F4F482E38282E090E00E940F
:10477000B41980E40E94BC19FFEF8F1A9F0AAF0A98
:10478000BF0A0D5E1F4F8091BA059091BB05B0E046
:10479000A0E088169906AA06BB06DCF290E080E04D
:1047A000A6CF638174816230710511F45483438311
:1047B0000196739633CF82E090E09983888385EFEA
:1047C0009FEFEECE0097B9F48FEFFB01808320912D
:1047D0001B0330911C0343E1429FC001439F900D96
:1047E0001124E091B805F091B905E80FF91F828511
:1047F000FB01818308950C94681988E090E0FA0128
:104800009183808390E080E008951092B705109224
:10481000B605E8EBF5E086E0DF011D928A95E9F741
:104820008BE89FE19093B5058093B405089580913E
:10483000B4059091B50508952F923F924F925F92E3
:104840006F927F928F929F92AF92BF92CF92DF92A0
:10485000EF92FF920F931F93CF93DF93CDB7DEB705
:104860002F970FB6F894DEBF0FBECDBFF894E0913E
:10487000B605F091B7053196F093B705E093B6050C
:1048800078944090B8055090B9054114510409F44A
:104890000DC2E091BA05F091BB05EF2B09F406C2F9
:1048A0002D8749875A876B877C8798878F8312016A
:1048B000B12CA12C10E000E08091BA059091BB05CD
:1048C000A816B90618F40115110529F1F89480917C
:1048D000B6059091B70501979093B7058093B605FB
:1048E0007894C8012F960FB6F894DEBF0FBECDBFE7
:1048F000DF91CF911F910F91FF90EF90DF90CF90BC
:10490000BF90AF909F908F907F906F905F904F90EF
:104910003F902F9008957101E418F508D101179682
:104920008C91179781FD54C013968D919C9114978B
:10493000039709F04DC015968D919C91EF81F885F4
:104940008E179F0709F044C0B50190E080E081D444
:104950008A832091B8053091B9053D832C833D852C
:10496000332309F44CC04C815D81452B09F49BC174
:104970008091BA059091BB05A816B90608F093C1BD
:10498000C501BFD88823E9F06C817D816E0D7F1D44
:104990007D836C83DB011F968D919C91892B89F01F
:1049A000D12CC12CF12CE12CAC81BD8112968C91C3
:1049B00012978E151F0409F094F450961C921E92C3
:1049C0001F972A81222321F0B50190E080E043D493
:1049D0003FEFA31AB30A43E1240E311C6DCFAC8123
:1049E000BD81ED91FC91EC0DFD1D858196810BD76C
:1049F000BFEFEB1AFB0AEDE0CE0ED11CD5CFEC8158
:104A0000FD81309709F44FC18091BA059091BB05A3
:104A1000A816B90608F047C1EE0DFF1DFF87EE8707
:104A2000C5016FD88B83882339F1AE85BF851F966A
:104A30008D919C915097019621E01D964D915C912E
:104A40008417950709F020E02E831982712C10E05D
:104A500000E0AE85BF8512968C91781608F45DC093
:104A6000EE85FF85878590890196658576850E940C
:104A7000553F908B8787A5CFB1E0BE83E6CF9924C1
:104A800093946BC087D6F6019683858383C0D60145
:104A9000ED90FC90B7E06B9EE00CF11C1124F70147
:104AA0006381748180818F3F61F121E030E002C039
:104AB000220F331F8A95E2F7C901092E000CAA0BB9
:104AC000BB0BFB014081518162817381842395235B
:104AD000A623B72321E0892B8A2B8B2B09F420E016
:104AE000D4012C93D70111968C91F601238534853E
:104AF000820F932F911D880E991E1486138663943E
:104B00009CC0418150E0C4010E94AC3FEBCF998230
:104B100006EF1FEFC6C01982C4C0F981F111A0CF02
:104B2000EDE07E9E70011124AE85BF85CD90DC90B6
:104B3000CE0CDF1C17D49D838C83BB81BB2309F46F
:104B40009ECF81E0EE85FF8527853089232B09F0F4
:104B500080E0982E882309F459C0672D8E859F85A3
:104B60000E94A61DD60118969C938E93179761E01C
:104B700070E0C3D4EE85FF85218932892F3F32074B
:104B800009F480CFBC01C9019DD7D60116969C932C
:104B90008E931597D60115968D919C911697009737
:104BA00009F4B5CFEC81FD818E0F9F1F1A969C935F
:104BB0008E931997AE85BF85ED91FC911197EE0EFE
:104BC000FF1EF70121853285148613861A968C9173
:104BD000870DD9018D93711016C0EE85FF858781F1
:104BE00084FF11C049855A856B857C85F901418315
:104BF000528363837483F701838594850496A80F99
:104C0000B91F14861386F701B287A187D6011596BE
:104C10008D919C911697892B09F443C0EE85FF85F1
:104C2000258136818091110390911203281739074D
:104C300079F019968D909C90612CD60112968C91EA
:104C40001297681608F423CF1A969C928E921997A1
:104C5000BE81BB2309F45FCF61E070E0F60187817C
:104C600090854BD4D6011796ED90FC901897159629
:104C70004D915C91E1E0F0E0BA81BB2311F0F0E0EE
:104C8000E0E00C811D819C01B501882799278E1BCE
:104C90009F0B6BD38C01892B21F0F60185819681C6
:104CA000B2D57394D6CE0FEF1FEF8BCE10E000E09D
:104CB0000DCE2F923F924F925F926F927F928F9282
:104CC0009F92AF92BF92CF92DF92EF92FF920F939B
:104CD0001F93CF93DF938091B8059091B90510E0B1
:104CE00000E0892BA9F0C3DA0AEF1FEF882381F0D7
:104CF0002090BA053090BB05C091B805D091B90598
:104D0000D12CC12C10E000E02C143D04A9F47894BF
:104D1000C801DF91CF911F910F91FF90EF90DF902D
:104D2000CF90BF90AF909F908F907F906F905F904B
:104D30004F903F902F900895C6010E94811D8823B7
:104D400009F18B819C810397E9F48F859889892BE0
:104D5000C9F0B60190E080E07CD221E030E0882309
:104D600011F030E020E044245524421A530AB12CBB
:104D7000A12C912C812C8A818815190409F038F412
:104D8000188A1F864FEFC41AD40A6396BDCFE881F4
:104D9000F981EA0DFB1D85819681892BA1F161E0E6
:104DA00070E087819085A9D33C01DCD28C01E88139
:104DB000F981EA0DFB1D8185928525813681200FC1
:104DC000311FAC01421B530B9A0147815085421B96
:104DD000530B70E060E00E94B53FE881F981EA0D75
:104DE000FB1DE780F084458156819301B601C20125
:104DF000BCD28C01892B39F0E881F981EA0DFB1DC9
:104E00008581968100D55FEF851A950A8DE0A80E01
:104E1000B11CB1CF2CCA789408952F923F924F9233
:104E20005F926F927F929F92AF92BF92CF92DF92EA
:104E3000EF92FF920F931F93CF93DF9300D000D098
:104E4000CDB7DEB70091B8051091B90599249394B8
:104E50000115110509F43EC0A090BA05B090BB053C
:104E600006DA982E8823B1F11092B9051092B80590
:104E70001092BB051092BA051092BC051092BD05A8
:104E80008FEF9FEFDC0180931B0390931C03A09393
:104E90001D03B0931E03789480D31E830D83C12C11
:104EA000D12C7601C501B0E0A0E089839A83AB8361
:104EB000BC8322242A94322C89819A81AB81BC81C3
:104EC000C816D906EA06FB06F4F0C8019CD480E4B3
:104ED0000E94C219892D26960FB6F894DEBF0FBE28
:104EE000CDBFDF91CF911F910F91FF90EF90DF9099
:104EF000CF90BF90AF909F907F906F905F904F90BA
:104F00003F902F900895AD81BE8115968D919C9113
:104F10001697209111033091120382179307D1F451
:104F200051968D919C91BCD5ED81FE8180819181BE
:104F3000B12CA12C412C512C3201892B91F5BFEFC2
:104F4000CB1ADB0AEB0AFB0AED81FE817396FE8326
:104F5000ED83B2CFB2E0CB16D104E104F10424F723
:104F6000039710F7ED81FE81818992898F3F980721
:104F700009F011D5AD81BE8152963C922E92519787
:104F8000D3CF8A0D9B1DDC018D919C91009709F078
:104F90003AD4BFEF4B1A5B0A6B0A7B0AEDE0AE0E08
:104FA000B11CAD81BE818D919C91119712964C914F
:104FB00050E070E060E044165506660677060CF394
:104FC00022D4BDCFCF93DF93EA0127DF811109C03F
:104FD00082E090E09983888385EF9FEFDF91CF9106
:104FE000089581E090E00E94B41981E090E09983F7
:104FF000888390E080E0F2CF10DF1092B505109228
:10500000B405089542E050E062EE73E00C94D219CA
:10501000FF920F931F93CF93DF938A01EC01C60F8A
:10502000D71FF980B9D20897F816190671F068F001
:1050300082E090E0F801918380838EEF9FEFDF9113
:10504000CF911F910F91FF9008956C817D818E818A
:105050009F814B810E94671C811108C082E090E013
:10506000F8019183808384EF9FEFE9CFF9800E945C
:10507000621C4F2D50E0BE01685F7F4F0E94AC3F25
:1050800089810E94D11C81E090E0F80191838083A6
:1050900090E080E0D4CFDF92EF92FF920F931F93C6
:1050A000CF93DF938A01EC01C60FD71F0E94621CC9
:1050B0007C01D98071D2DD2059F0029721E030E0E7
:1050C000D816190619F010F030E020E0232B79F4FF
:1050D00082E090E0F801918380838EEF9FEFDF9173
:1050E000CF911F910F91FF90EF90DF900895EF28DF
:1050F00041F482E090E0F8019183808384EF9FEF98
:10510000EECFF9800E94621C4F2D50E0BE016E5F11
:105110007F4F0E94AC3F89810E94D11C81E090E0CA
:10512000F8019183808390E080E0D9CF82E098E21B
:105130009093BF058093BE0508958091BE05909120
:10514000BF0508950895FC01118210829383828324
:105150000895DB011D921C92DC011296ED91FC91E9
:1051600013977183608313967C936E9312970895BF
:10517000FC0180819181DB018D939C93A081B181A1
:10518000109741F08D919C9191838083892B11F42C
:10519000F383E2830895FC0180819181DB018D938B
:1051A0009C93892B11F473836283718360830895C8
:1051B000FC0111821082938382830895CF93DF9341
:1051C0001F921F92CDB7DEB71A821982F894BE01E2
:1051D0006F5F7F4F85EC95E0CBDF89819A810097E7
:1051E00009F011D389819A81892B89F7BE016F5FFC
:1051F0007F4F89EC95E0BCDF89819A81009709F0A7
:1052000002D389819A81892B89F778940F900F9026
:10521000DF91CF910895CF93DF931F921F92CDB767
:10522000DEB71A821982F894BE016F5F7F4F81EC5E
:1052300095E09EDF89819A81009709F0E4D2898107
:105240009A81892B89F778940F900F90DF91CF91F5
:10525000089581E0089590E080E00895EF92FF9234
:105260000F931F93CF93DF931F921F92CDB7DEB79B
:105270001A8219828091C00507EF1FEF8823A1F1E0
:10528000F894BE016F5F7F4F89EC95E071DF7894F1
:1052900089819A81EE24E394F12C892B51F4F894BE
:1052A000BE016F5F7F4F85EC95E062DF7894F12C53
:1052B000E12C89819A810EEF1FEF0097A9F0FC0184
:1052C0004281538164E070E046D68C01892B61F005
:1052D000F89469817A81C701880F991F880F991FF7
:1052E0008B539A4F58DF7894C8010F900F90DF913D
:1052F000CF911F910F91FF90EF9008950F931F93FF
:10530000CF93DF9300D01F92CDB7DEB71C821B82F4
:105310001A8219828091C00507EF1FEF8823C1F020
:10532000AE014D5F5F4F64E070E0CE01019686D61E
:105330008C01892B69F4E981FA818B819C819383AB
:105340008283F89469817A8181EC95E002DF789418
:10535000C8010F900F900F900F90DF91CF911F9188
:105360000F9108958BD7049608958F929F92AF92D4
:10537000BF92CF92DF92EF92FF920F931F93CF9342
:10538000DF931F921F92CDB7DEB71A821982BC013C
:105390006F5F7F4F6330710598F0AA24AA94BA2CEE
:1053A000C5010F900F90DF91CF911F910F91FF904A
:1053B000EF90DF90CF90BF90AF909F908F90089527
:1053C0004115510551F3480159018A016C01CADFA9
:1053D0008815990511F7E114F104F9F28E0D9F1D5E
:1053E000A816B906D0F28091C0058823F1F0F89490
:1053F000B501645071099701AE014F5F5F4FC8015D
:105400000496B1D65C01892B71F489819A81F801E7
:1054100093838283C601880F991F880F991FB80153
:105420008B539A4F96DE7894BBCF87EFA82EBB2480
:10543000BA94B6CFAF92BF92CF92DF92EF92FF9223
:105440000F931F93CF93DF931F921F92CDB7DEB7B9
:105450001A821982892B09F047C06115710509F478
:1054600043C04115510509F43FC02115310509F428
:105470003BC001151105C1F18091C0058823B9F128
:1054800079016A015B01F894BE016F5F7F4F81EC87
:1054900095E06EDE789489819A81009759F1DC015C
:1054A00012966D917C91A801049676D68C01E981C3
:1054B000FA81D501ED93FC93828193810496F601E4
:1054C000918380834FDFD7018D939C93C8010F9008
:1054D0000F90DF91CF911F910F91FF90EF90DF9090
:1054E000CF90BF90AF9008950FEF1FEFEFCF07EF72
:1054F0001FEFECCF0EEF1FEFE9CFCF93DF93EC015F
:10550000672B71F4C4D68C179D0760F0B7D624962C
:10551000C80FD91FB6D68C0F9D1FDF91CF9108956C
:10552000B3D6F1CF90E080E0F8CF0F931F93CF93E5
:10553000DF932091C00521112BC08B01EC0185EC7C
:1055400095E001DE89EC95E0FEDD81EC95E0FBDD88
:1055500097D00097C1F49BD670E060E0CEDF4FE1BA
:1055600053E062E070E07BD1009769F480911F0303
:10557000909120039ED6B801CE01D3D4009719F4A0
:1055800021E02093C005DF91CF911F910F910895E5
:1055900084EF9FEFF8CF78C67AC6CF93DF937AD6A1
:1055A000EC01892B11F40ADE36DECE01DF91CF91BA
:1055B0000895CF93DF936ED6EC01892B09F4FEDDBD
:1055C000CE01DF91CF91089580911F039091200328
:1055D0000895CF93DF938091C005D0E0C0E0882389
:1055E000D1F06CD6EC01892BB1F4E8DD14DE8091AA
:1055F0001F0390912003CFD1B5D2EC01892B59F430
:1056000085EC95E0D5DD89EC95E0D2DD81EC95E087
:10561000CFDD1092C005CE01DF91CF910895EF92BA
:10562000FF920F931F93CF93DF93EC017A018B01CD
:105630000F5F1F4F0E9DA0010F9D500D1E9D500D21
:10564000112470E060E00E94B53F90E080E0F0E05F
:10565000E0E02FEFE816F90639F4DF91CF911F91C2
:105660000F91FF90EF9008951A8219822883309746
:1056700011F0D283C1830196FE01C00FD11FEACF82
:10568000AF92BF92CF92DF92EF92FF920F931F9350
:10569000CF93DF9381E098E07C012CEFE22243E09E
:1056A00050E061E273E087E293E0E8D381E2C82E44
:1056B00083E0D82E97E2A92E93E0B92ECAE4D9E070
:1056C0008E01D6014D915D916D01F5016191719150
:1056D0005F01D8011196FC92EE9215965C934E9361
:1056E000149713965C934E93129717967C936E9330
:1056F00016979B012F5F3F4F249FC001259F900D60
:10570000349F900D112419969C938E931897E11451
:10571000F10411F0C70183DFF80180859185E80E5F
:10572000F91E065F1F4FF7E2CF16F3E0DF0649F6DA
:10573000EFECF5E08FE292E0DF019C011D92215039
:105740003040E1F71092CE051092CD051F8E1E8ECF
:105750001BA21AA219A218A21DA21CA21FA21EA25D
:105760002A9639E0C836D30789F710924709109274
:105770004609109249091092480990E080E0DF91B3
:10578000CF911F910F91FF90EF90DF90CF90BF903E
:10579000AF9008950097F1F0F894A7E2B3E0EAE43F
:1057A000F9E030E020E04D915D9148175907A8F0ED
:1057B000428153814115510581F08AE0829FF001B9
:1057C000839FF00D1124E65BF64F80819181009755
:1057D00059F4789490E080E008952F5F3F4F3A9617
:1057E0002330310501F7F5CFDC0111966D917C91E5
:1057F000718360834150510953834283FC0121939B
:10580000CF0178940895009749F1DC018E9186309C
:1058100041F4E0914809F09149093097F9F0CD0140
:1058200019948630D8F4282F30E0F8948FEF8C93B9
:105830008AE0829FF001839FF00D1124E65BF64F12
:105840008081918112969C938E931197B183A0834E
:105850008281938101969383828378940895CF9275
:10586000DF92EF92FF920F931F93CF93DF939C01F0
:1058700082ED95E08C7F4115510509F489C0211511
:10588000310509F485C06115710509F481C08A01EB
:10589000AB01B9016D5F7F4F6C7F9B012F5F3F4F65
:1058A000249F7001259FF00C349FF00C1124F89474
:1058B000EAE4F9E023E030E0E901A6A1B7A1C68C53
:1058C000D78CCD2809F058C0109709F03EC0C09081
:1058D000CD05D090CE052CE232E02C193D092E15D5
:1058E0003F0530F47894CFEFDFEF86EF9FEF21C0D4
:1058F0002AE02C9FF0012D9FF00D1124E65BF64F5E
:105900009183808355834483538342837783668363
:10591000F186E086009709F082DEEC0CFD1CF09227
:10592000CE05E092CD057894CF3FDC07F1F290E010
:1059300080E0F801D183C083DF91CF911F910F9157
:10594000FF90EF90DF90CF900895AE15BF05A0F0C7
:105950002AE02C9FF0012D9FF00D1124E65BF64FFD
:105960009183808355834483538342837783668303
:105970000097C9F254DED7CF8A0F9B1F2F5F3F4F8E
:105980003A962630310509F097CFCFEFDFEFCBCF36
:105990008FEF9FEFD1CF9C010397039708F04EC084
:1059A000F89485E09AE0482F50E0241735079CF1E1
:1059B00091E08AE0829FF001839FF00D1124E65B65
:1059C000F64F11821082158214821382128217827E
:1059D00016829923E1F08091CD059091CE05EAE4FD
:1059E000F9E0268D378D232B49F426A137A1211507
:1059F000310521F0821B930B17A216A23A9629E0DB
:105A0000E836F20771F79093CE058093CD05789430
:105A100090E080E00895949FF001959FF00D11248F
:105A2000E65BF64F40815181452B31F4408551852D
:105A3000452B11F48150B7CF90E0BBCF8FEF9FEF94
:105A400008954115510549F1009739F16115710526
:105A500021F1F8942091460930914709232BB9F49C
:105A60002091480930914909232B89F490934709E3
:105A7000809346097093490960934809789426E019
:105A800030E090E080E0FA0131832083089578943B
:105A90002FEF3FEF86EF9FEFF6CF8FEF9FEF089549
:105AA000069769F4F89410924709109246091092EB
:105AB000490910924809789490E080E008958FEFAA
:105AC0009FEF08956115710519F4F0E0E0E011C051
:105AD0008630910581F4E0914609F09147093097AD
