:1000000007C100000C943A3C0C94653C0C94903C65
:100010000C94BB3C0C94E63C0C94113D0C943C3D80
:100020000C94673D43C40000E4C400001EC50000FA
:1000300020C100001EC100001CC100001AC1000048
:1000400018C1000016C1000014C1000012C1000058
:1000500010C100000EC100000CC100000C94923DC4
:1000600008C100000C9466410C949C4102C1000040
:1000700000C10000FEC00000FCC00000FAC000008B
:10008000F8C00000F6C00000F4C00000F2C000009C
:100090000C94F2410C942842ECC00000EAC000002D
:1000A000E8C00000E6C00000E4C00000E2C00000BC
:1000B000E0C00000DEC00000DCC00000DAC00000CC
:1000C000D8C00000D6C000000C945A360C947E4272
:1000D0000C94B442CEC000000C940A430C944043EC
:1000E000C8C0000005A84CCDB2D44EB93836A9021C
:1000F0000C50B9918688083CA6AAAA2ABE00000026
:10010000803F00000A0B02090C0D0E0807030401D2
:1001100000000000000000000000000000000000DF
:1001200000000000000000000000000000001211AC
:1001300010000000000000000000000000000000AF
:10014000000000000000000001021020200808103C
:100150002040102040800201020108040201010237
:100160000408102040808040201008040201800410
:10017000020180402010080402010804020101026B
:10018000040810204080010204081020408005056A
:100190000505070508080808020202020A0A0808FD
:1001A000040404040101010101010101030303032B
:1001B00003030303040707070C0C0C0C0C0C0C0CBA
:1001C0000202020206060606060606060B0B0B0BCB
:1001D0000B0B0B0B00002200250028002B002E002B
:1001E0003100340002010000050108010B0100008C
:1001F0002100240027002A002D00300033000101D7
:100200000000040107010A01C5415142DD42694372
:1002100011241FBECFEFD1E2DEBFCDBF00E00CBF87
:1002200013E0A0E0B2E0E4EAFAE800E00BBF02C0AD
:1002300007900D92AA3DB107D9F72CE0AAEDB3E0E3
:1002400001C01D92A539B207E1F711E0C8E0D1E085
:1002500000E006C021970109802FFE010E94FA43A9
:10026000C430D10780E00807A9F70E94FD370C943D
:100270005045C6CECF92DF92EF92FF92CF93882364
:1002800051F16A017B01CFEFC80F20E030E0A901F6
:10029000CB01B6010E94F33818168CF0C701B601E5
:1002A00090580E9464399B01AC016C2F70E090E083
:1002B00080E0CF91FF90EF90DF90CF90B2C0C70168
:1002C000B6010E945F398C2FCF91FF90EF90DF90A5
:1002D000CF900C94993ECF91FF90EF90DF90CF900C
:1002E00008950F931F938B019C0183E0369527950A
:1002F000179507958A95D1F706521C4F462F4770E0
:1003000021E030E0F90102C0EE0FFF1F4A95E2F74D
:10031000AF01F80120812423CB010196211102C0F5
:1003200090E080E01F910F9108950F931F938B0130
:100330009C0183E036952795179507958A95D1F707
:10034000677081E090E001C0880F6A95EAF7F801D4
:10035000E652FC4F2081452B31F480958223808327
:100360001F910F910895822BFACF2F923F924F92B7
:100370005F926F927F928F929F92AF92BF92CF9235
:10038000DF92EF92FF920F931F93CF93DF93D62EBE
:10039000C72E782E692E49015A01280161E08D2D62
:1003A0000E94D33FCD2DDC2D8E010F5F1F4FA80182
:1003B0006D2D7C2D872D962DB8DF20E030E0A90132
:1003C000C201B7010E94E33A181664F4C201B701F2
:1003D0000E9464392B01C501B4010E946439A20155
:1003E000CE0123D0C801DF91CF911F910F91FF90D3
:1003F000EF90DF90CF90BF90AF909F908F907F90C5
:100400006F905F904F903F902F900895882341F018
:100410008150682F70E090E080E050E040E085CFB0
:100420000895862FB9010C94993E9C01FC01EE5F62
:10043000FE4FE491E150E231E0F4F0E08827EC5D1A
:10044000FD4F8F4F0C94FA4336023D024002570293
:100450006C02390281028D029102A802BD02D20211
:10046000E902FE02390213032A033F0384B58068C0
:1004700084BD60E0822F0C940F4084B58062F8CF79
:10048000809180008C7F82608093800080918100C9
:10049000807E8061682B6093810050938700409339
:1004A000860080918000806880938000E2CF8091F8
:1004B00080008C7F82608093800080918100807EAC
:1004C0008061682B60938100509387004093860081
:1004D000809180008062E8CF809180008C7F826074
:1004E0008093800080918100807E8061682B609382
:1004F000810050938700409386008091800088603F
:10050000D3CF8091B00080688093B0008091B1001B
:10051000887F682B6093B100ACCF8091B00080627F
:10052000F3CF809190008C7F8260809390008091C7
:100530009100807E8061682B6093910050939700BA
:10054000409396008091900080688093900091CFB6
:10055000809190008C7F82608093900080919100C8
:10056000807E8061682B6093910050939700409348
:100570009600809190008062E8CF809190008C7FFF
:1005800082608093900080919100807E8061682BD2
:100590006093910050939700409396008091900053
:1005A0008860D3CF8091A0008C7F82608093A00070
:1005B0008091A100807E8061682B6093A1005093A0
:1005C000A7004093A6008091A00080688093A000BF
:1005D00050CF8091A0008C7F82608093A00080919A
:1005E000A100807E8061682B6093A1005093A700DA
:1005F0004093A6008091A0008062E8CF8091A00087
:100600008C7F82608093A0008091A100807E8061B9
:10061000682B6093A1005093A7004093A60080919F
:10062000A0008860D3CF809120018C7F826080936E
:10063000200180912101807E8061682B60932101DF
:100640005093270140932601809120018068809378
:1006500020010FCF809120018C7F82608093200148
:1006600080912101807E8061682B609321015093ED
:10067000270140932601809120018062E8CF80917C
:1006800020018C7F82608093200180912101807EF7
:100690008061682B609321015093270140932601CC
:1006A000809120018860D3CF9CB1892F807294FF04
:1006B00016C0811116C08091E7039091E803A091C4
:1006C000E903B091EA030196A11DB11D8093E703F0
:1006D0009093E803A093E903B093EA03089581118E
:1006E000EACF8091E7039091E803A091E903B091EC
:1006F000EA030197A109B109E9CF99B1892F847063
:1007000093FF16C08823B1F08091F5039091F60312
:10071000A091F703B091F8030196A11DB11D80933C
:10072000F5039093F603A093F703B093F8030895AD
:10073000882351F38091F5039091F603A091F7037C
:10074000B091F8030197A109B109E9CF8CB190E00C
:100750009C01220F232F221F330B86FF16C080918E
:10076000030490910404A0910504B0910604232B86
:10077000B9F40196A11DB11D809303049093040464
:10078000A0930504B093060408958091030490910A
:100790000404A0910504B09106042130310549F309
:1007A0000197A109B109E8CF9CB1892F807195FF0C
:1007B00016C08823B1F08091E7039091E803A091DF
:1007C000E903B091EA030196A11DB11D8093E703EF
:1007D0009093E803A093E903B093EA030895882374
:1007E00051F38091E7039091E803A091E903B09160
:1007F000EA030197A109B109E9CF99B1892F88705E
:1008000092FF16C0811116C08091F5039091F603F6
:10081000A091F703B091F8030196A11DB11D80933B
:10082000F5039093F603A093F703B093F8030895AC
:100830008111EACF8091F5039091F603A091F7031F
:10084000B091F8030197A109B109E9CF8CB190E00B
:1008500086FB222720F930E0880F892F881F990B0B
:100860000197B1F48091030490910404A0910504D0
:10087000B0910604232BB1F00196A11DB11D809308
:10088000030490930404A0930504B0930604089510
:100890008091030490910404A0910504B091060492
:1008A000232B51F30197A109B109E9CF1F920F92B0
:1008B0000FB60F9211242F933F934F935F938F9313
:1008C0009F93AF93BF9383B121E030E0982F907254
:1008D00085FD02C030E020E08074409127045091F3
:1008E00028044217530709F062C021E030E081116B
:1008F00002C030E020E030932604209325048823B2
:1009000009F1911121C080911F0490912004A091C0
:100910002104B09122040196A11DB11D80931F04F2
:1009200090932004A0932104B093220480911F048B
:1009300090912004A0912104B09122040196A11D60
:10094000B11D20C09111DFCF80911F049091200430
:10095000A0912104B09122040197A109B1098093CB
:100960001F0490932004A0932104B093220480914B
:100970001F0490912004A0912104B09122040197BA
:10098000A109B10980931F0490932004A09321042E
:10099000B0932204BF91AF919F918F915F914F913E
:1009A0003F912F910F900FBE0F901F90189530938D
:1009B000280420932704992371F0882371F08091F3
:1009C0001F0490912004A0912104B091220401966B
:1009D000A11DB11DC4CF882391F380911F04909174
:1009E0002004A0912104B09122040197A109B1092A
:1009F00095CF1F920F920FB60F9211248F939F9352
:100A0000AF93BF938091060181709091030190FF95
:100A10001EC081111EC08091110490911204A091FA
:100A20001304B09114040196A11DB11D809311040B
:100A300090931204A0931304B0931404BF91AF9148
:100A40009F918F910F900FBE0F901F90189581115D
:100A5000E2CF8091110490911204A0911304B091FF
:100A600014040197A109B109E1CF1F920F920FB6AB
:100A70000F9211248F939F93AF93BF9380910301A3
:100A800081709091060190FF1EC08823F1F0809143
:100A9000110490911204A0911304B09114040196D2
:100AA000A11DB11D8093110490931204A09313040F
:100AB000B0931404BF91AF919F918F910F900FBE8F
:100AC0000F901F901895882311F380911104909135
:100AD0001204A0911304B09114040197A109B10963
:100AE000E1CF0F931F93CF93DF938C018EE0809F14
:100AF000E001819FD00D1124CD51DC4F79836883B3
:100B00005B834A838881998160E00E94D33F8A8118
:100B10009B8160E00E94D33F8881998161E00E94BF
:100B20000F408A819B8161E00E940F4002301105D5
:100B300009F487C064F40115110501F101301105B4
:100B400009F450C0DF91CF911F910F9108950330A8
:100B5000110509F4A5C004301105A1F780916800C2
:100B600081608093680080916B00806280936B004D
:100B700080916B00806480936B00E4CF8091E303ED
:100B80009091E40302978431910530F5855E9C4F86
:100B9000FC018081082E000C990B41E050E064E5D7
:100BA00073E00E94C03B8091E5039091E6030297B9
:100BB00084319105A0F4855E9C4FFC018081082E54
:100BC000000C990B41E050E064ED73E0DF91CF91B0
:100BD0001F910F910C94C03B8FEF9FEFDECF8FEFF3
:100BE0009FEFF0CF8091F1039091F203029784314F
:100BF000910508F5855E9C4FFC018081082E000C54
:100C0000990B41E050E06DEF73E00E94C03B809192
:100C1000F3039091F40302978431910578F4855E93
:100C20009C4FFC018081082E000C990B41E050E0A4
:100C30006DE773E0CBCF8FEF9FEFE3CF8FEF9FEFA9
:100C4000F5CF8091FF0390910004029784319105C4
:100C500008F5855E9C4FFC018081082E000C990BE5
:100C600041E050E066EA73E00E94C03B80910104DD
:100C70009091020402978431910578F4855E9C4F2F
:100C8000FC018081082E000C990B41E050E066E2E7
:100C900074E09CCF8FEF9FEFE3CF8FEF9FEFF5CF07
:100CA0008091680084608093680080916800826011
:100CB0008093680080916D00816080936D008091C9
:100CC0006C00826080936C003DCF2EE0269FF00187
:100CD000279FF00D1124ED51FC4F648175818681B1
:100CE0009781089590E080E008950F931F930097F7
:100CF00009F48DC06115710509F489C00091E20203
:100D00001091E3022091E4023091E5020E3F1F4F63
:100D10002F4F3F4F09F06CC04FEF5FEFBA01409388
:100D2000E2025093E3026093E4027093E502409183
:100D3000E2025091E3026091E4027091E502DC016D
:100D40001296ED91FC9180819181A281B381809373
:100D5000420590934305A0934405B09345058481D3
:100D60009581A681B78180933E0590933F05A0931E
:100D70004005B093410580859185A285B385809318
:100D80003A0590933B05A0933C05B0933D058485BF
:100D90009585A685B7858093360590933705A093F2
:100DA0003805B09339051092320510923305109230
:100DB0003405109235050E940D1A82E39AE1909352
:100DC0002A048093290490932C0480932B049093FD
:100DD0002E0480932D040E94FC18009731F421E02A
:100DE00030E030934705209346051F910F910895F9
:100DF0000091E2021091E3022091E4023091E502B9
:100E0000DB010D931D932D933C93139790CF8FEFA0
:100E10009FEFEBCF8F929F92AF92BF92CF92DF92D4
:100E2000EF92FF921F93CF93DF934B015C011091E0
:100E3000490582E090E09093470580934605811430
:100E40009104A104B10441F480914905811104C0C9
:100E500080914805C1E08111C0E0C12CD12C760100
:100E600080914905811106C080914805811102C019
:100E7000CC23D9F083E090E090934705809346051A
:100E8000CC2381F1CCE9DFEF111102C00E94971D44
:100E9000CE01DF91CF911F91FF90EF90DF90CF9027
:100EA000BF90AF909F908F9008956AE070E080E0CF
:100EB00090E00E94013E80E1C80E87E2D81EE11C4E
:100EC000F11C8FEF88169806A806B80631F0C1E02D
:100ED0008C149D04AE04BF0408F0C0E080E00E94C2
:100EE0003019BECFD0E0C0E0CFCFCF92DF92EF92EB
:100EF000FF920F931F93CF93DF938F3F910511F0D4
:100F000008F051C020914605309147052330310546
:100F100039F020914605309147052130310531F4F3
:100F200024E030E030934705209346056A017B01B9
:100F3000EC0183309105A8F011E0AE01C701B601C4
:100F40000E94FB18AB01BC01CE011123F9F0DF9127
:100F5000CF911F910F91FF90EF90DF90CF900C9465
:100F6000C31F8C01000F111F075D1B4FD8018D910E
:100F70009C91892B09F30E94CD1F0297E9F6D801B5
:100F8000ED91FC91CE011995182FD7CF0E94E51F46
:100F900090E080E0DF91CF911F910F91FF90EF9053
:100FA000DF90CF9008958FEF9FEFF4CF80E00C9407
:100FB0003019CF93DF9386E090E0909347058093BC
:100FC00046050E948919EC01E9E2F4E086E0DF01C0
:100FD0001D928A95E9F70E942F1D109247051092E5
:100FE0004605CE01DF91CF9108958091480508957F
:100FF0008091310508956093E2027093E30280933B
:10100000E4029093E50290E080E00895AF92BF92F1
:10101000CF92DF92EF92FF920F931F93CF93DF93C4
:10102000FC014681578181E090E030E020E0241708
:1010300035070CF444C0C481D581C817D907A4F57D
:10104000C031D10514F4C0E1D0E0C817D9070CF4C1
:101050004BC05B018F01CE01880F991F880F991F2C
:101060000E941B447C01F801C080D180C114D104CE
:10107000A1F0A501B7FE02C050E040E0440F551FAB
:10108000440F551FB601C7010E944045F8018085F5
:10109000882319F0C6010E94B744F801F182E0826A
:1010A000D583C48381E08087DF91CF911F910F9119
:1010B000FF90EF90DF90CF90BF90AF900895E9013F
:1010C000CC0FDD1FA281B381AC0FBD1F0D90BC9171
:1010D000A02DEC01CA9FC001CB9F900DDA9F900D0F
:1010E00011242F5F3F4FA3CFC11520E4D2071CF47A
:1010F000CC0FDD1FAACFCFEFDFE7A7CFCF93DF93D2
:10110000DC01ED91FC913097A9F0EC018081918197
:10111000009721F0208521110E94B744E881F981D0
:10112000828193810E94B744888199810E94B7444B
:1011300019821882DF91CF9108950F931F93CF9357
:10114000DF938C0189E090E00E941B44EC01F801E0
:10115000918380831982188282E090E09F838E833E
:1011600084E090E00E941B449B838A831D821C8242
:1011700021E02887FC011182108213821282DF9104
:10118000CF911F910F910895FC0191E08091FE0491
:10119000811190E0928308952F923F924F925F9237
:1011A0006F927F928F929F92AF92BF92CF92DF9277
:1011B000EF92FF920F931F93CF93DF9300D000D055
:1011C00000D01F92CDB7DEB78091FE049091FD0450
:1011D000911105C091E0811190E09093FF048F5F21
:1011E0008A3008F0EFC08093FE046091160270917F
:1011F000170280911802909119029B01AC010E9484
:101200008F382BED3FE049E450E40E94E73AE0914B
:101210000705F091080520813181428153810E94A8
:10122000E73A2091BA023091BB024091BC02509142
:10123000BD020E948F380E944A3B2091B202309139
:10124000B3024091B4025091B5020E94E73A209156
:10125000B6023091B7024091B8025091B9020E9493
:101260008F382091BE023091BF024091C002509150
:10127000C1020E94E73A60934F0C7093500C809328
:10128000510C9093520C6093530C7093540C8093B8
:10129000550C9093560C2091F00B3091F10B40912E
:1012A000F20B5091F30B2093570C3093580C409352
:1012B000590C50935A0C0E948E386B017C01C092DD
:1012C0005B0CD0925C0CE0925D0CF0925E0C209175
:1012D000AE023091AF024091B0025091B10260E095
:1012E00070E08FE793E40E94F738A70196010E940F
:1012F000E73A0E94CD3960936B0C70936C0C80932D
:101300006D0C90936E0C0E94F817882309F45DC051
:1013100010926B0C10926C0C10926D0C10926E0C63
:10132000C0906B0CD0906C0CE0906D0CF0906E0C3B
:1013300020E030E0A901C701B6010E94F33887FF21
:1013400067C0C701B60190580E9464390027112771
:10135000061B170BB80117FF04C066277727601B11
:10136000710B072E000C880B990B0E94923920916B
:10137000AA023091AB024091AC025091AD020E94A2
:101380008F386B017C01C0926B0CD0926C0CE09298
:101390006D0CF0926E0C8090C6029090C702A090E7
:1013A000C802B090C902A50194010E94E33A181640
:1013B000ACF580926B0C90926C0CA0926D0CB0927C
:1013C0006E0C3CC01092FE0410CF60916B0C7091BB
:1013D0006C0C80916D0C90916E0C0E94B317811172
:1013E00097CF60916B0C70916C0C80916D0C90910B
:1013F0006E0C20E030E040E857E40E94E73960934B
:101400006B0C70936C0C80936D0C90936E0C88CF6A
:10141000C701B6010E9464398B019CCF8090CA023B
:101420009090CB02A090CC02B090CD02A501940187
:10143000C701B6010E94F33887FDBBCF20916B0C2A
:1014400030916C0C40916D0C50916E0C6091CE02FD
:101450007091CF028091D0029091D1020E948E387B
:101460006B017C01E894F7F867E070E080E090E0C1
:101470000E9471019093E90B8093E80B8091DE024A
:101480009091DF02081719070CF42BC1C0926B0C66
:10149000D0926C0CE0926D0CF0926E0C60916B0C23
:1014A00070916C0C80916D0C90916E0C0E94CD39F6
:1014B00060936B0C70936C0C80936D0C90936E0C1E
:1014C0000E94F817882309F41DC110926B0C10922A
:1014D0006C0C10926D0C10926E0C80906B0C9090B6
:1014E0006C0CA0906D0CB0906E0C20E030E0A90167
:1014F000C501B4010E94F33887FF27C1C501B401BB
:1015000090580E946439619570E090E080E00E94FC
:101510009239AB01BC018091E80B9091E90B0E94DC
:101520003A0166E070E080E090E00E9471019093E3
:10153000E10B8093E00B8091E0029091E1020817AB
:10154000190744F0C090CE02D090CF02E090D002B4
:10155000F090D102C701B6010E94CD3960936B0CA7
:1015600070936C0C80936D0C90936E0C0E94F81726
:10157000882309F4EFC010926B0C10926C0C10923F
:101580006D0C10926E0CC0906B0CD0906C0CE090B7
:101590006D0CF0906E0C20E030E0A901C701B6019F
:1015A0000E94F33887FFF9C0C701B60190580E9426
:1015B0006439619570E090E080E00E949239AB015F
:1015C000BC018091E00B9091E10B0E943A01809167
:1015D000FF04882301F18091040C9091050CA091E7
:1015E000060CB091070C80930C0C90930D0CA093FB
:1015F0000E0CB0930F0C8091100C9091110CA091D7
:10160000120CB091130C80935F0C9093600CA0931C
:10161000610CB093620C2091040C3091050C409148
:10162000060C5091070C6091D6027091D702809100
:10163000D8029091D9020E94E73A6F837887898710
:101640009A878FEF9FEFDC018093300C9093310CE1
:10165000A093320CB093330CCE0101966EDD8091D5
:10166000350C811165C181E08093350C60911202C7
:101670007091130280911402909115020E94F81744
:10168000882309F48FC080912E0C90912F0CDC01DF
:101690001296ED91FC914081518122813381429FCC
:1016A000B001439F700D529F700D112421E030E076
:1016B0003183208333832283A9DC8091830C909132
:1016C000840CA091850CB091860CE0912E0CF091C9
:1016D0002F0C0190F081E02D80839183A283B3834E
:1016E000C0C08091CE029091CF02A091D002B09163
:1016F000D10280936B0C90936C0CA0936D0CB09303
:101700006E0CCCCE60916B0C70916C0C80916D0C5A
:1017100090916E0C0E94B3178111D7CE60916B0C23
:1017200070916C0C80916D0C90916E0C20E030E00B
:1017300040E853E40E94E73960936B0C70936C0CA3
:1017400080936D0C90936E0CC8CEC501B4010E94BD
:101750006439DACE60916B0C70916C0C80916D0CD9
:1017600090916E0C0E94B317811105CF60916B0CA4
:1017700070916C0C80916D0C90916E0C20E030E0BB
:1017800040E853E40E94E73960936B0C70936C0C53
:1017900080936D0C90936E0CF6CEC701B6010E943B
:1017A000643908CF20E030E040E050E4609112025C
:1017B0007091130280911402909115020E948F384B
:1017C0000E94F81781115FCFC0901202D0901302CF
:1017D000E0901402F090150220E030E0A901C7016A
:1017E000B6010E94F338882379F120E030E040E030
:1017F00050E4C701B6010E948F384B015C0120E024
:1018000030E040E050E40E94E33A18164CF420E047
:1018100030E0A901C701B6010E94F33887FD14C06A
:1018200020E030E040E050E4C501B4010E94F3380C
:1018300087FF13C320E030E0A901C701B6010E9471
:10184000E33A18160CF009C3E0912E0CF0912F0C1E
:101850000280F381E02D81E090E091838083138208
:101860001282E0912E0CF0912F0C0280F381E02D7A
:1018700081E022813381232B09F480E080933B0CAB
:1018800060911202709113028091140290911502DE
:101890009B01AC010E948F3820E030E040E85FE31C
:1018A0000E948F386093200C7093210C8093220C3F
:1018B0009093230C21E020933A0C2093360C209334
:1018C000370C2093380C00912C0C10912D0CF80142
:1018D000C280D380D6012D913C91119712964D91E3
:1018E0005C911397249F3001259F700C349F700CDE
:1018F000112421E030E02D933C930E945F394B018D
:10190000F60173836283B301C80180DB18141904E4
:101910007CF4A401440F551F440F551FE0912C0C7B
:10192000F0912D0C70E060E0808191810E9449452A
:1019300020E030E040E85FE36091180C7091190CF2
:1019400080911A0C90911B0C0E948F386093180C98
:101950007093190C80931A0C90931B0C20E030E0CC
:1019600040E85FE30E948E386B017C01C0926B0CF3
:10197000D0926C0CE0926D0CF0926E0C8090120282
:1019800090901302A0901402B090150220E030E075
:10199000A901C501B4010E94F338811123C520E0DB
:1019A00030E0A901C701B6010E94F338811108C0D7
:1019B00080926B0C90926C0CA0926D0CB0926E0C9D
:1019C00080906B0C90906C0CA0906D0CB0906E0C95
:1019D00020E030E0A901C501B4010E94F338811173
:1019E00016C020E030E040E85FE360911C0C70918D
:1019F0001D0C80911E0C90911F0C0E948F386093DB
:101A00001C0C70931D0C80931E0C90931F0C409027
:101A10001C0C50901D0C60901E0C70901F0C20E050
:101A200030E040E050E4C301B2010E94F33887FF88
:101A3000F1C520E030E0A901C501B4010E94F338EE
:101A40008111D7C580915F0C9091600CA091610CC1
:101A5000B091620C8093470C9093480CA093490C72
:101A6000B0934A0C4091CE0B5091CF0B6091D00BAC
:101A70007091D10B40934B0C50934C0C60934D0CD8
:101A800070934E0C21E030E03093D70B2093D60BAF
:101A900022E030E03093D90B2093D80B8093CE0B0B
:101AA0009093CF0BA093D00BB093D10B4093D20B5C
:101AB0005093D30B6093D40B7093D50B21E02093FC
:101AC000360C80936B0C90936C0CA0936D0CB093C0
:101AD0006E0C80933F0C9093400CA093410CB093FC
:101AE000420CE0912C0CF0912D0C0280F381E02D42
:101AF00002811381023011050CF494C702501109C0
:101B000089819A81DC011296ED91FC91408151818D
:101B100022813381429FB001439F700D529F700D0F
:101B2000112421E030E03183208398012E5F3F4F64
:101B3000338322836BDAE980FA80F7018081918117
:101B400040916B0C50916C0C60916D0C70916E0C0F
:101B5000DC014D935D936D937C9313970F3F1007BA
:101B600081F0A8014F5F5F4F440F551F440F551F71
:101B7000E0912C0CF0912D0C6081718104960E94F3
:101B8000404580912C0C90912D0CDC011296ED912A
:101B9000FC914081518122813381429FB001439F5A
:101BA000700D529F700D112421E030E031832083AD
:101BB000D70112962D913C91D90112960D911C914D
:101BC0001383028323DA101611068CF4E0912C0C97
:101BD000F0912D0CA801440F551F440F551FA981EA
:101BE000BA816D917C91808191810E944045CE01A6
:101BF000019684DA81E08093390C80916B0C90918E
:101C00006C0CA0916D0CB0916E0C8093430C909372
:101C1000440CA093450CB093460C60E070E0CB01FF
:101C200054D86093730C7093740C8093750C9093DC
:101C3000760C0E9492396093630C7093640C8093CD
:101C4000650C9093660C0091F40B1091F50B2091AC
:101C5000F60B3091F70B0093F00B1093F10B2093E0
:101C6000F20B3093F30B0091F80B1091F90B2091CC
:101C7000FA0B3091FB0B0093F40B1093F50B2093B0
:101C8000F60B3093F70B0091FC0B1091FD0B20919C
:101C9000FE0B3091FF0B0093F80B1093F90B209380
:101CA000FA0B3093FB0B0091000C1091010C20916A
:101CB000020C3091030C0093FC0B1093FD0B20934E
:101CC000FE0B3093FF0B2F81388549855A85209371
:101CD000000C3093010C4093020C5093030C0091C4
:101CE000080C1091090C20910A0C30910B0C0093F8
:101CF000040C1093050C2093060C3093070C609392
:101D0000080C7093090C80930A0C90930B0CC090F4
:101D1000E004D090E104E090E204F090E3043FEFAF
:101D2000C31AD30AE30AF30AC092E004D092E10492
:101D3000E092E204F092E304C114D104E104F1045E
:101D400099F48091E4049091E504A091E604B091A7
:101D5000E7040196A11DB11D8093E4049093E5046E
:101D6000A093E604B093E7048090E8049090E9041F
:101D7000A090EA04B090EB040091070510910805CB
:101D80006091E4047091E5048091E6049091E70489
:101D90000E949039A50194010E94E73A20E030E0CA
:101DA00040E85FE40E94E73A2B013C01C701B6011D
:101DB0000E949039A50194010E94E73A9B01AC0171
:101DC000C301B2010E948F38D8016D937D938D932A
:101DD0009C9313978091EC049091ED04A091EE04F4
:101DE000B091EF040196A11DB11D8093EC04909376
:101DF000ED04A093EE04B093EF04892B8A2B8B2B78
:101E000099F48091F0049091F104A091F204B091C2
:101E1000F3040196A11DB11D8093F0049093F10489
:101E2000A093F204B093F3042A960FB6F894DEBFA1
:101E30000FBECDBFDF91CF911F910F91FF90EF901B
:101E4000DF90CF90BF90AF909F908F907F906F90DA
:101E50005F904F903F902F900895C501B4010E946C
:101E6000B317882361F06091120270911302809180
:101E70001402909115020E94B317811104CC609155
:101E800012027091130280911402909115020E9427
:101E9000B317882331F180912E0C90912F0CDC0127
:101EA0001296ED91FC914081518122813381429FB4
:101EB000B001439F700D529F700D112421E030E05E
:101EC0003183208333832283A1D8E0912E0CF091BB
:101ED0002F0C0190F081E02D80E090E0A0E0B0E4D4
:101EE000FBCB40901202509013026090140270904D
:101EF0001502C301B2010E94CD396B837C838D83AF
:101F00009E8320E030E040E050E4C301B2010E9433
:101F10008F386B017C0120E030E040E050E40E940B
:101F20008E38A30192010E94F7384B015C012B818E
:101F30003C814D815E81C301B2010E94F338811161
:101F40005CC000912E0C10912F0CF801E280F38000
:101F5000D7012D913C91119712968D919C911397D9
:101F6000289F6001299FD00C389FD00C112481E05C
:101F700090E08D939C93C501B4010E945F395B0191
:101F80006F5F7F4FF70173836283B601C8013ED84C
:101F900060902E0C70902F0C10E000E0C0901202A8
:101FA000D0901302E0901402F0901502A016B10632
:101FB0000CF457CC4801880C991C880C991CD3014F
:101FC0008D919C91880E991EB801012E000C880BF2
:101FD000990B0E949239A70196010E94E73A20E0EE
:101FE00030E040E050E40E948F38F4016083718358
:101FF000828393830F5F1F4FD1CF20E030E040E01A
:102000005FE3C501B4010E948F380E94CD394B01B6
:102010005C01AC019B01C301B2010E94E73A20E0E0
:1020200030E040E050E40E948F386B837C838D83E6
:102030009E8360936B0C70936C0C80936D0C9093EB
:102040006E0C20E030E0A901C301B2010E94E33A26
:1020500018160CF02DC1A70196016B817C818D8132
:102060009E810E948E3860936F0C7093700C8093E9
:10207000710C9093720CE894F7F820E030E040E0A7
:1020800050E4C701B6010E94F33818162CF4C701BA
:10209000B601AED7882329F0C12CD12CE12C20E445
:1020A000F22E40906F0C5090700C6090710C7090FC
:1020B000720CA30192015F772B833C834D835E8377
:1020C00020E030E040E056E2C701B6010E94E73A66
:1020D0009B01AC016B817C818D819E810E94F338D4
:1020E00087FFEDC020E030E040E85FE3C501B401C8
:1020F0000E948F384B015C0120E030E040E050E46A
:102100006091120270911302809114029091150255
:102110000E948F3860936B0C70936C0C80936D0CE5
:1021200090936E0C20E030E0A901C501B4010E943B
:10213000E33A0FEF1FEF87FD07C0C501B4010E940E
:102140005F398B010150110989819A81DC01129656
:10215000ED91FC914081518122813381429FB001F8
:10216000439F700D529F700D112421E030E03183A8
:10217000208398012F5F3F4F338322830E940608FC
:1021800017FD5CC0E981FA81E080F18080E090E099
:10219000A0E0B0E4F70180839183A283B3830115AB
:1021A000110509F44BC01801220C331C220C331CFE
:1021B0002E0C3F1C80916B0C90916C0CA0916D0CBF
:1021C000B0916E0CF10180839183A283B3833801B7
:1021D000759467942701F4E04F0E511CD12CC12C4B
:1021E0009301215031093C832B832B813C81C21602
:1021F000D3060CF48BC0C301880F991F880F991F59
:10220000E80EF91E00FDBDC020E030E040E050E4E3
:1022100060916B0C70916C0C80916D0C90916E0CB8
:102220000E948F3820E030E040E05FE30E94E73A10
:10223000D7016D937D938D939C93139780912E0C72
:1022400090912F0CDC011296ED91FC91408151810F
:1022500022813381429FB001439F700D529F700DC8
:10226000112421E030E031832083A981BA811296C4
:102270000D90BC91A02D12960D911C911383028399
:102280000E940608101611060CF0EBCAE0912E0C05
:10229000F0912F0CA801440F551F440F551FA98121
:1022A000BA816D917C91808191810E944045D9CA0B
:1022B0002B813C814D815E81C701B601D2CE20E0E9
:1022C00030E0A901C301B2010E94E33A20E030E00E
:1022D00040E85FE318169CF4C501B4010E948E38F3
:1022E0002091120230911302409114025091150274
:1022F0000E94E73A20E030E040E050E409CFC50119
:10230000B4010E948F384B015C010CCFB6010D2C3B
:10231000000C880B990B0E94923920E030E040E8D5
:102320005FE30E948F382091120230911302409196
:102330001402509115020E94E73A4B015C0120E023
:1023400030E040E050E40E948F38D2016D937D93DD
:102350008D939D932D01A501940160916B0C70915B
:102360006C0C80916D0C90916E0C0E948E38F10176
:1023700092938293729362931F01FFEFCF1ADF0A49
:1023800034CFB301770C880B990B0E9492392091BE
:1023900012023091130240911402509115020E94D2
:1023A000E73A4B015C0120E030E040E050E40E945D
:1023B0008F38F7016083718382839383A501940131
:1023C00060916B0C70916C0C80916D0C90916E0C07
:1023D0000E948E38D70114966D937D938D939C93B4
:1023E00017972CCFC701B60103D6882389F08091B7
:1023F000830C9091840CA091850CB091860C8093F5
:102400006B0C90936C0CA0936D0CB0936E0CD8CAAF
:102410006091120270911302809114029091150242
:10242000E7D58111E4CF20E030E040E85FE3609140
:10243000180C7091190C80911A0C90911B0C0E9431
:102440008E3891D58111D3CFC0901202D090130253
:10245000E0901402F090150220E030E040E85FE3E5
:102460006091180C7091190C80911A0C90911B0CB2
:102470000E948E3820E030E0A9010E94F3388111DB
:1024800010C0A701960160E070E0CB010E94F73810
:1024900060936B0C70936C0C80936D0C90936E0C2E
:1024A0008FCAC701B6015FD5C0901202D090130247
:1024B000E0901402F0901502882391F020E030E0C3
:1024C000A901C701B6010E94F33887FF79CAC092FB
:1024D0006B0CD0926C0CE0926D0CF0926E0C70CA8A
:1024E00020E030E040E85FE36091180C7091190C37
:1024F00080911A0C90911B0C0E948E384B015C014C
:10250000A70196010E94E7392B013C0111E020E070
:1025100030E0A9010E94F338811110E020E030E0A2
:10252000A901C301B2010E94F338882309F443C012
:10253000C701B6010E94CD399B01AC01C701B601AC
:102540000E94E33A1816BCF5A7019601C501B40133
:102550000E94F7384B015C01E894B7F820E030E0C6
:1025600040E05FE3C501B4010E948F380E94CD397D
:102570009B01AC01C501B4010E948E389B01AC01E6
:102580005F772B833C834D835E8320E030E040E81F
:1025900055E2C501B4010E94E73A9B01AC0111E08C
:1025A0006B817C818D819E810E94E33A18160CF02C
:1025B00010E081E0182720E030E0A901C701B60152
:1025C000112319F00E94E73A63CF0E94F33887FD88
:1025D00009C040926B0C50926C0C60926D0C709222
:1025E0006E0CEEC9A3019201C701B6010E948F389B
:1025F0004FCF10926B0C10926C0C10926D0C1092CD
:102600006E0C10923F0C1092400C1092410C1092E4
:10261000420C67CAC090CE0BD090CF0BE090D00B8D
:10262000F090D10B20E030E040E450E4C301B2016F
:102630000E94F33820E030E0A90187FF94C0C50173
:10264000B4010E94F338811148C080915F0C9091D1
:10265000600CA091610CB091620C8093470C909338
:10266000480CA093490CB0934A0CC0924B0CD092EA
:102670004C0CE0924D0CF0924E0C21E030E0309387
:10268000D70B2093D60B22E030E03093D90B209368
:10269000D80B8093CE0B9093CF0BA093D00BB0931D
:1026A000D10BC092D20BD092D30BE092D40BF0920C
:1026B000D50B21E02093360C80933F0C9093400C77
:1026C000A093410CB093420C80936B0C90936C0CD4
:1026D000A0936D0CB0936E0C04CAC501B4010E94A6
:1026E0005F39615071098B01000F111FF801EE0F66
:1026F000FF1FEE0FFF1FE25EFD4F2091D20B3091C6
:10270000D30B4091D40B5091D50B608171818281A4
:1027100093810E94E73A4B015C01000F111F000FEB
:10272000111FF801E65EFD4F208131814281538106
:10273000C701B6010E94E73A9B01AC01C501B40193
:102740000E948F3860933F0C7093400C8093410C33
:102750009093420C10926B0C10926C0C10926D0CBA
:1027600010926E0CBEC9C501B4010E94F3388823D3
:1027700009F46BCF09811A81D80112962D903C90F3
:10278000E0912C0CF0912D0C228133813C832B8322
:10279000C501B4010E945F39615071095B01AA0C47
:1027A000BB1C45013FEF831A930AF501EE0FFF1F93
:1027B000EE0FFF1FE25EFD4F2091D20B3091D30B45
:1027C0004091D40B5091D50B6081718182819381AE
:1027D0000E94E73A2B013C01F501EE0FFF1FEE0FBF
:1027E000FF1FE65EFD4F2081318142815381C70189
:1027F000B6010E94E73A9B01AC01C301B2010E94FD
:102800008F3860933F0C7093400C8093410C9093F1
:10281000420CD1012D913C91119712968D919C9172
:102820001397289FB001299F700D389F700D1124B8
:1028300081E090E011969C938E93EB81FC81E28085
:10284000F3801396FC92EE921297C8010E9406083C
:102850001E141F048CF4E981FA81A701440F551F4F
:10286000440F551FA0912C0CB0912D0C6D917C91B3
:10287000808191810E944045E0912C0CF0912D0CBB
:102880000280F381E02D0280F381E02DA981BA81DD
:102890000D911C91E230F105C4F19F01359527950A
:1028A000D801EE0FFF1FEE0FFF1F3F01600E711EDC
:1028B00090E080E04D915D916D917D9140936B0C26
:1028C00050936C0C60936D0C70936E0CF301F2904E
:1028D000E290D290C2903F01AD0144505109FA01FB
:1028E000C082D182E282F38240916B0C50916C0CD9
:1028F00060916D0C70916E0CF30140835183628383
:102900007383019628173907A9F6E0912E0CF091F0
:102910002F0C60807180F401EE0FFF1FEE0FFF1F80
:10292000EE59FD4F2091D20B3091D30B4091D40B37
:102930005091D50B60817181828193810E94E73A29
:102940006B017C01F501EE0FFF1FEE0FFF1FEE592B
:10295000FD4F2091CE0B3091CF0B4091D00B509179
:10296000D10B60817181828193810E94E73A9B0142
:10297000AC01C701B6010E948F386B017C01D30105
:102980006D917D918D919C910E945F396150704C49
:10299000660F771F660F771FF801E60FF71F20916C
:1029A0000E0230910F02409110025091110260818D
:1029B0007181828193810E94E73A4B015C01F301AE
:1029C00064817581868197810E945F396150704C66
:1029D000660F771F660F771F060F171F20910A02D9
:1029E00030910B0240910C0250910D02D8016D9173
:1029F0007D918D919C910E94E73A9B01AC01C501AC
:102A0000B4010E948F389B01AC01C701B6010E943E
:102A10008E3860936B0C70936C0C80936D0C90935C
:102A20006E0C5FC80FEF1FEF6BC880910C0C90917C
:102A30000D0CA0910E0CB0910F0C8093670C90932D
:102A4000680CA093690CB0936A0C8093100C90935F
:102A5000110CA093120CB093130C8091F40490917C
:102A6000F504A091F604B091F7040196A11DB11DE3
:102A70008093F4049093F504A093F604B093F704C4
:102A8000892B8A2B8B2B99F48091F8049091F9046F
:102A9000A091FA04B091FB040196A11DB11D809391
:102AA000F8049093F904A093FA04B093FB040895FA
:102AB0004F925F926F927F929F92AF92BF92CF920E
:102AC000DF92EF92FF920F931F93CF93DF9384E0F7
:102AD00090E012D2E5E4F4E080EDDF011D928A95EA
:102AE000E9F784E095E097838683C7E0D5E0D0934B
:102AF0008604C093850408EE14E0158B048BF093D4
:102B0000B004E093AF04F583E483CC24C394D12CC8
:102B1000DC01CD92DC928FE293E09387828729E0FB
:102B200035E03983288340E050E060E271E440936F
:102B300000055093010560930205709303054AE078
:102B400057ED63E27CE3D8014D935D936D937C93E5
:102B50001397CEECD4E087E895E4ACE1BCE388833E
:102B60009983AA83BB838FEE9CEDA8E9B6EC809392
:102B7000D2049093D304A093D404B093D50487E1F6
:102B800095ECADE4B1EE8093D6049093D704A09376
:102B9000D804B093D9048AE396EDA0EEBEE1809309
:102BA000DA049093DB04A093DC04B093DD04A9E382
:102BB000B4E0B383A283EFE2F4E01196FC93EE93CA
:102BC00081E493E0918380839383828395838483DC
:102BD00097838683918780878EED94E015969C93EA
:102BE0008E9314971396DC93CE93129717963C937B
:102BF0002E9316973FE3A32E3CE0B32E88E3F50116
:102C000011928A95E9F7CEECDBE081E7DE011D92B7
:102C10008A95E9F79924939490923E0C412C512C7B
:102C2000320143944D8A5E8A6F8A788EE12CF12CB2
:102C30008701A801970167E070E080E090E00E94C2
:102C4000B5019B8F8A8F998E1C8690923D0C4D8684
:102C50005E866F86788AA801970166E070E080E062
:102C600090E00E94B5019B8B8A8B998A0AED12E055
:102C7000F80180819181A281B381F50180A391A3A4
:102C8000A2A3B3A31B861A868CE29CE00E949D0837
:102C90008EE29CE00E949D081C8E90923C0C4D8E12
:102CA0005E8E6F8E78A243E050E062E070E090E0CC
:102CB00080E00E94710599A28091C2029091C302A6
:102CC000A091C402B091C5028AA39BA3ACA3BDA3EB
:102CD0008EA39FA3A8A7B9A78AA79BA7ACA7BDA7A8
:102CE0008EA79FA7A8ABB9AB8AAB9BABACABBDAB78
:102CF0008091D2029091D302A091D402B091D502DA
:102D00008EAB9FABA8AFB9AF8AAF9BAFACAFBDAF37
:102D1000F80180819181A281B3818093100C9093FE
:102D2000110CA093120CB093130C1092350C10924E
:102D3000360C1092370C1092380C1092390C1092FD
:102D40003A0C10923B0C80E090E0A0E0B0E480935D
:102D5000140C9093150CA093160CB093170CD986F5
:102D6000C88682E090E09B878A87188219821A823F
:102D70001B821C821D821E821F821092180C1092D0
:102D8000190C10921A0C10921B0C10921C0C109221
:102D90001D0C10921E0C10921F0C1092340C8FEF11
:102DA0009FEFDC018093300C9093310CA093320C98
:102DB000B093330CDF91CF911F910F91FF90EF9063
:102DC000DF90CF90BF90AF909F907F906F905F907B
:102DD0004F9008958091E20B81112EC081E0809385
:102DE000E20B8091E30B9091E40BA091E50BB09185
:102DF000E60B0197A105B105F9F48091E70B882353
:102E0000D9F067E070E080E090E00E94710190935B
:102E1000E90B8093E80B40E050E0BA010E943A01D0
:102E200067E070E080E090E00E9471019093E90B10
:102E30008093E80B0E9406028091DA0B81112EC06C
:102E400081E08093DA0B8091DB0B9091DC0BA091F9
:102E5000DD0BB091DE0B0197A105B105F9F480916E
:102E6000DF0B8823D9F066E070E080E090E00E94FC
:102E700071019093E10B8093E00B40E050E0BA01C8
:102E80000E943A0166E070E080E090E00E947101EB
:102E90009093E10B8093E00B0E9406028CE29CE091
:102EA0000E947E088EE29CE00E947E088091EA0BE0
:102EB000811103C081E08093EA0B089560E070E027
:102EC00080E89FE7089560E070E080E89FE708955C
:102ED00060E070E080E89FEF089560E070E080E8D7
:102EE0009FEF089560E070E080EC9FEF089560E050
:102EF00070E080EC9FEF0895F5DF6093830C709392
:102F0000840C8093850C9093860CF1DF6093770C92
:102F10007093780C8093790C90937A0CCFDF609348
:102F20007F0C7093800C8093810C9093820CCBDF8C
:102F300060937B0C70937C0C80937D0C90937E0C43
:102F4000C7DF6093870C7093880C8093890C9093F3
:102F50008A0CC3DF60938B0C70938C0C80938D0C68
:102F600090938E0C0895CF92DF92EF92FF92CF93C1
:102F70006B017C01AC019B0160917F0C7091800C16
:102F80008091810C9091820C0E94F338C1E08823DB
:102F900071F0A70196016091870C7091880C809167
:102FA000890C90918A0C0E94F3388111C0E08C2F1B
:102FB000CF91FF90EF90DF90CF9008950F931F93E4
:102FC0008B019C010027112720783F7701151105FF
:102FD00020483F4749F4AB01BC016F77772781E078
:102FE000452B462B472B09F480E01F910F91089544
:102FF000E5CF4F925F926F927F928F929F92AF92A6
:10300000BF92CF92DF92EF92FF920F931F93F894AB
:103010004090210550902205609023057090240572
:10302000C0901505D0901605E0901705F090180592
:103030004130510509F0A4C09B01AC0124193509A8
:103040004609570929013A0100911D0510911E05F5
:1030500020911F053091200548015901840C951CD1
:10306000A61CB71C80169106A206B306A0F4009118
:10307000190510911A0520911B0530911C050F5F51
:103080001F4F2F4F3F4F0093190510931A052093A0
:103090001B0530931C0580921D0590921E05A09281
:1030A0001F05B09220050091190510911A05209175
:1030B0001B0530911C058092250590922605A09253
:1030C0002705B09228050093290510932A0520931F
:1030D0002B0530932C056093210570932205809376
:1030E000230590932405A0E1B7E2A30192010E9479
:1030F00002446C0D7D1D8E1D9F1D60931505709300
:10310000160580931705909318050091E20210911F
:10311000E3022091E4023091E5020F3F1F4F2F4F51
:103120003F4FF1F00091E2021091E3022091E4029E
:103130003091E5020E3F1F4F2F4F3F4F89F0C09057
:10314000E202D090E302E090E402F090E50221E098
:103150008C149D04AE04BF0408F420E020933105D4
:1031600078941F910F91FF90EF90DF90CF90BF90D8
:10317000AF909F908F907F906F905F904F90089549
:103180004B015C0184189508A608B708A3019201B9
:10319000261B370B480B590B6415750586059705DB
:1031A000D0F082169306A406B50640F420E030E085
:1031B000A90181149104A104B10491F4A0E1B7E242
:1031C0000E940244A7019601261B370B480B590B9E
:1031D000CA01B901C5CF82169306A406B50670F7D9
:1031E000A0E1B7E2A50194010E9402446C0D7D1D8F
:1031F0008E1D9F1DB5CFFDCECF93DF9300D01F92C4
:10320000CDB7DEB71C821B821A82198210922D055F
:1032100010922E0510922F0510923005BE016F5F9F
:103220007F4FCE0103960E94E63569817A818B81BA
:103230009C810E94042F009761F4BE016F5F7F4F55
:10324000CE0103960E94F23569817A818B819C813F
:1032500032D50F900F900F900F90DF91CF9108957E
:10326000FF920F931F93CF93DF93082F60E070E0DE
:10327000CB010E94013EFF24F3940E94ED2DEC014E
:10328000892B89F010E0CE3F8FEFD80769F000233B
:1032900061F160E070E0CB010E94013E81E090E0CE
:1032A000892B59F322C011E029D5EC01892B21F09B
:1032B000CE3F8FEFD80759F711111EC011E02296AB
:1032C00009F410E00E949D2DEC01892B21F0CE3FE6
:1032D0008FEFD807E1F6111111C011E0CE3F8FEF4B
:1032E000D80709F410E001110BC0CE01DF91CF9196
:1032F0001F910F91FF90089511E0E4CF11E0F3CFFB
:1033000060E070E0CB010E94013E1F25812F90E01C
:10331000C7CFCF93DF9380913105882321F060E000
:1033200070E0CB0150D639D6D0E0C0E0892B71F0E7
:103330006AE070E080E090E00E94013E81E090DF72
:103340002CD62196C03D27E0D20781F72BD60E94CC
:10335000582F10924905109248051092420510927C
:103360004305109244051092450510923E051092B7
:103370003F05109240051092410510923A051092B7
:103380003B0510923C0510923D05109236051092B7
:1033900037051092380510923905109232051092B7
:1033A000330510923405109235054EEF5FEF6FEF45
:1033B0007FEF4093E2025093E3026093E402709344
:1033C000E50210923105E5E2F5E028E0DF011D920B
:1033D0002A95E9F7109221051092220510922305F3
:1033E0001092240510921D0510921E0510921F05C3
:1033F000109220051092190510921A0510921B05C3
:1034000010921C05109215051092160510921705C2
:1034100010921805DF91CF910895109255051092E2
:103420005605109257051092580510925405809138
:103430005D0590915E05909353058093520510921F
:1034400051051092500510924C0510924D051092A6
:103450004E0510924F0510925A051092590590E0B2
:1034600080E00895CF92DF92EF92FF920F931F9327
:10347000CF938C01019709F055C020915D053091E3
:103480005E05809152059091530540915D055091E4
:103490005E0550935305409352052817390781F074
:1034A000109251051092500510924C0510924D0546
:1034B00010924E0510924F0510925A051092590520
:1034C00080915D0590915E05019761F580915905A8
:1034D00090915A05892B21F48091E602811112C046
:1034E0008091590590915A050197E1F480914C051E
:1034F00090914D05A0914E05B0914F050197A10502
:10350000B10581F410924C0510924D0510924E05B4
:1035100010924F051092E60282E090E090935A05D7
:103520008093590580915D0590915E05019709F0A2
:103530001CC180917305909174058017910709F063
:1035400014C180916F0590917005A0917105B091A3
:103550007205009709F409C120916E0521110DC073
:1035600040916F05509170056091710570917205E1
:10357000452B462B472B09F4F8C020915905309173
:103580005A052230310509F0F0C020915005211173
:10359000ECC0FC01C080D180E280F38080915405B2
:1035A000882309F4D3C08091600590916105892B2F
:1035B00009F4FEC0209160053091610581E0223060
:1035C000310509F080E02091600530916105C1E08E
:1035D0002130310549F02091600530916105C1E04D
:1035E0002230310509F0C0E0882309F456C020914B
:1035F0006A0530916B0540916C0550916D05C701CE
:10360000B6010E94E33A87FD14C020916A0530910B
:103610006B0540916C0550916D0560915505709159
:10362000560580915705909158050E94F33887FD03
:1036300022C020916A0530916B0540916C05509134
:103640006D05C701B6010E94E33A181634F52091C2
:103650006A0530916B0540916C0550916D05609144
:1036600055057091560580915705909158050E9417
:10367000F338811112C08091620590916305A09189
:103680006405B0916505892B8A2B8B2B19F481E099
:103690008093510581E080935005CC2309F456C0F6
:1036A00020916A0530916B0540916C0550916D0534
:1036B000C701B6010E94F33887FF14C020916A0544
:1036C00030916B0540916C0550916D0560915505E9
:1036D0007091560580915705909158050E94E33AE4
:1036E00087FF22C020916A0530916B0540916C05DF
:1036F00050916D05C701B6010E94F338811126C0B3
:1037000020916A0530916B0540916C0550916D05D3
:103710006091550570915605809157059091580517
:103720000E94E33A181694F4809162059091630523
:10373000A0916405B0916505892B8A2B8B2B19F418
:1037400081E08093510581E08093500581E0909164
:103750005005911180E080935405C0925505D09298
:103760005605E0925705F09258050130110509F011
:1037700067C18091590590915A05892BD9F410920F
:103780005F05109250058091E602882379F082E06F
:1037900090E090935A05809359051092E60220918B
:1037A0005D0530915E0581E0232BE9F080E01BC0D0
:1037B00081E009CF1092E60280915F05882349F0ED
:1037C0001092510510925A051092590510925F05FA
:1037D000EDCF80915D0590915E05892BE1F08091A0
:1037E0005005109250052091590530915A0522300C
:1037F000310509F45EC088F42115310509F448C08B
:103800002130310509F4F3C0109251051092500592
:1038100010925F0538C081E0E6CF2330310509F40E
:10382000B1C02430310581F740914C0550914D05D0
:1038300060914E0570914F05411551056105710567
:1038400061F0415051096109710940934C05509351
:103850004D0560934E0570934F0540914C05509176
:103860004D0560914E0570914F05452B462B472B1A
:10387000D9F420915B0530915C052130310509F0C8
:1038800046C01092510510925A05109259050CC06D
:103890008091E602882341F082E090E090935A05FF
:1038A000809359051092E60210924A0580915105C5
:1038B000CEC08823C9F38091620590916305A091E1
:1038C0006405B0916505181619061A061B060CF05A
:1038D0007DC080915D0590915E05019709F076C0ED
:1038E0008091620590916305A0916405B091650592
:1038F00080934C0590934D05A0934E05B0934F05D2
:1039000083E090E090935A0580935905CDCF409184
:103910006605509167056091680570916905452BB2
:10392000462B472BA9F01092510580916605909186
:103930006705A0916805B091690580934C05909347
:103940004D05A0934E05B0934F0581E090E0DACF8E
:10395000882399F08091E7029091E802A091E90212
:10396000B091EA0280934C0590934D05A0934E05CB
:10397000B0934F0584E090E0C5CF1092510582E0EE
:1039800090E0C0CF80914C0590914D05A0914E05DF
:10399000B0914F050097A105B10559F00197A10914
:1039A000B10980934C0590934D05A0934E05B093BB
:1039B0004F0580914C0590914D05A0914E05B09119
:1039C0004F05892B8A2B8B2B09F06ECF8091E70254
:1039D0009091E802A091E902B091EA02892B8A2B2A
:1039E0008B2B09F44ECF81E080935105B3CF4091EA
:1039F0004C0550914D0560914E0570914F05411554
:103A000051056105710561F0415051096109710964
:103A100040934C0550934D0560934E0570934F05B0
:103A200040914C0550914D0560914E0570914F05A8
:103A3000452B462B472B09F037CF8111C7CF9FCF9E
:103A400080914A05882309F431CF80914B05CF91AD
:103A50001F910F91FF90EF90DF90CF9008951092FB
:103A60005505109256051092570510925805109260
:103A7000540510925A051092590510925305109250
:103A80005205109274051092730510925105109210
:103A9000500510924C0510924D0510924E05109253
:103AA0004F0510924B0510924A0510926F05109227
:103AB0007005109271051092720510926E051092A9
:103AC0006A0510926B0510926C0510926D0588EED8
:103AD00093E0A0E0B0E08093E7029093E802A09327
:103AE000E902B093EA0210926605109267051092FF
:103AF0006805109269051092620510926305109294
:103B0000640510926505109261051092600581E0D0
:103B10008093E60210925F0510925E0510925D059B
:103B200010925C0510925B0590E080E00895809112
:103B30005D0590915E05892B19F58091E602882339
:103B400051F080915F05811106C081E080934B05A3
:103B500080934A05089520915F053091E60281E047
:103B600090E0332311F090E080E030E08223932353
:103B7000892B21F010924B0581E0EACF10924A0583
:103B8000089582E090E0FA01918380838FEF9FEFA8
:103B90000895CF93DF93EA01009711F00E947230ED
:103BA0001982188290E080E0DF91CF910895DB01C7
:103BB000009719F48FEF8C9308952EEF2C93FC014E
:103BC0007096E031F10508F037C08827E551F24ED4
:103BD0008F4F0C94FA431A1E181E161E141E121E26
:103BE000101E0C1E0E1E0A1E081E061E031EFF1DA2
:103BF000FB1D011E1C1E80E311968C93089589E223
:103C0000FBCF82E2F9CF11961C92089583E2F4CFA4
:103C100081E2F2CF81E1F0CF87E2EECF8AE2ECCF12
:103C200080E1EACF84E2E8CF88E2E6CF86E2E4CF23
:103C300081E3E2CF83E3E0CF80E2DECF80918105B4
:103C4000909182050895909382058093810508954F
:103C500080918005089590918005892B809380053F
:103C60000895982F909580918005892380938005F1
:103C7000089580917F05089580917D0590917E053E
:103C800008956115710559F0FB0130E020E070E006
:103C900060E02417350719F06115710511F0CB01AB
:103CA0000895A081B181A817B90709F4BF012F5F5A
:103CB0003F4F3696EECF8091830581111CC060D2B4
:103CC00066D290937605809375050E9474280E94B1
:103CD000862890937A05809379050E94052D0E948D
:103CE0000C2D909378058093770581E08093830570
:103CF00090E080E0089584EF9FEF08958F929F9267
:103D0000AF92BF92CF92DF92EF92FF920F931F93E9
:103D1000CF93DF9300D000D000D01F92CDB7DEB795
:103D20001A86198618861F821E821D821C821B829B
:103D30001A8219828091830507EF1FEF882309F407
:103D40009CC08E010D5F1F4F9E012B5F3F4FAE0148
:103D5000495F5F4FBE01675F7F4F90E080E00E9448
:103D6000892E8C01009721F00596029708F0DBC0A0
:103D700029853A852115310509F402C1ED80FE80BF
:103D80004B815C81B701640F751F8F819885861701
:103D9000970708F4F5C0E20EF31ED7019C91903C02
:103DA00009F07FC04230510508F47BC011968C9118
:103DB0004091810550918205452B09F49CC0913FAB
:103DC00008F071C02CE1290F2D3008F48BC02DE2D2
:103DD000290F203108F489C0903C21F481508230B1
:103DE00008F483C088E3890F8B3008F481C097ED15
:103DF000C92E9DE1D92EE1ECFDE16D817E81AE0100
:103E00004F5F5F4F89859A8519955C01C114D10474
:103E1000A1F189809A808114910479F18B819C8130
:103E20008815990508F487C010E000E04B815C819B
:103E300070E060E0C7010E94494501151105E9F4F1
:103E400049815A8169857A858D819E81680F791FA4
:103E5000C501F6011995E980FA800D811E812F8137
:103E6000388549855A856FEF7FEF81E090E00E94A9
:103E7000242E8C01892B09F056C0C8012A960FB652
:103E8000F894DEBF0FBECDBFDF91CF911F910F9190
:103E9000FF90EF90DF90CF90BF90AF909F908F906A
:103EA000089580E085CF30E020E0220F331FF90134
:103EB000EB58FA4F0190F081E02D309709F497CF3D
:103EC000892F90E01995009709F491CFDC011296A3
:103ED000ED91FC9113971496CD90DC90309709F0FA
:103EE0008CCF1FC021E030E0E0CF22E030E0DDCF1A
:103EF00023E030E0DACFD12CC12CE9ECFDE19F3F8B
:103F000009F07BCFE0917505F0917605309721F4AB
:103F1000C90104EF1FEF0CC08FEF90E019950097D7
:103F2000A9F604EF1FEF89859A85009709F4A5CFBC
:103F30000E947230A2CF0E94532F8C0189859A85EE
:103F40000E94723070E060E0C4010E94EC2E9887FD
:103F50008F830E94212E9E838D836F8178856115CA
:103F6000710559F0C8010E94D1319A87898706EFFF
:103F70001FEF892B09F058CF59CF08EF1FEF56CF0D
:103F800008EF1FEFD0CF20918305222319F020E006
:103F90000C948B2887EF9FEF089580918105909175
:103FA000820508950E94112D0E946B2CF5D0E5E743
:103FB000F5E088E0DF011D928A95E9F7109283050C
:103FC00090E080E008950C94C82A21E040E050E0A1
:103FD000BA010C948B2886E090E0FA0191838083EB
:103FE00090E080E0089547E050E064E473E049CE5B
:103FF000DF92EF92FF920F931F93CF93DF938A018B
:10400000EC01C60FD71FE0908705F0908805D98096
:104010000E943B2FD816190678F082E090E0F80154
:10402000918380838EEF9FEFDF91CF911F910F914E
:10403000FF90EF90DF900895EF2841F482E090E048
:10404000F8019183808384EF9FEFEECF8981809385
:10405000860590E00196F8019183808390E080E0EE
:10406000E3CFCF93DF93EA010E94792B882321F0DD
:104070000E94482F0E947A2B82E090E099838883E7
:104080008BEF9FEFDF91CF910895CF93DF93EB01FB
:1040900086E0FB0111928A95E9F78FEF8883D8DDDE
:1040A0008983E7DD8A83E8DD9D838C83DF91CF916F
:1040B0000895CF93DF93EA010E947C2B811109C000
:1040C00082E090E09983888385EF9FEFDF91CF9125
:1040D000089590E080E0B7DD81E090E099838883E7
:1040E00090E080E0F3CF0F931F93CF93DF93EA012B
:1040F0008C01060F171F0E947C2B81110BC082E0E0
:1041000090E09983888385EF9FEFDF91CF911F9196
:104110000F910895F8018181823038F082E090E0BB
:10412000998388838EEF9FEFF0CF81E090E08BDD65
:1041300088E090E09983888390E080E0E6CFCF9399
:10414000DF930097D1F4EB01FB01329686E0DF01AB
:104150001D928A95E9F78FEF888385E089831A821B
:104160000E943B2F8B830E943A2F9D838C8381E09A
:104170008E838F83DF91CF910895DF91CF9117CDFB
:1041800083EF9FE190938505809384050895809146
:1041900084059091850508951092850510928405F7
:1041A000089580918705909188050895411105C073
:1041B000611571058105910561F060938705709324
:1041C00088058093890590938A0540938B0581E04B
:1041D000089580E00895FF920F931F93CF93DF938C
:1041E0008A01EC01C60FD71FF9800E943B2FF816F9
:1041F000190668F082E090E0F801918380838EEFE9
:104200009FEFDF91CF911F910F91FF9008956C81E7
:104210007D818E819F814B81C9DF811108C082E041
:1042200090E0F8019183808384EF9FEFEACF89814A
:104230008093860590E00196F8019183808390E059
:1042400080E0DFCFCF93DF93EA01FC01E60FF71F99
:1042500064817581868197814381A8DF811109C0BE
:1042600082E090E09983888384EF9FEFDF91CF9184
:10427000089581E090E09983888390E080E0F6CF14
:10428000E7E8F5E04081518162817381480F511D5B
:10429000611D711D40835183628373830895CF93A1
:1042A000C09186054C2F50E060918705709188057C
:1042B00001960E9440458C2FE3DF10928605CF9136
:1042C0000895009799F480918705909188052FEFC4
:1042D000FB012083892B59F02091860530E02F5F68
:1042E0003F4F2417350719F4CB01D9CF60CC08957F
:1042F000009799F480918705909188052FEFFB0135
:104300002083892B59F02091860530E02F5F3F4FA5
:104310002417350719F4CB01C2CF49CC089523E106
:10432000AC01249FC001259F900D1124E0919005C0
:10433000F0919105E80FF91F238134812250310952
:1043400081E02230310508F080E008950F931F933B
:10435000CF93DF930091920510919305D0E0C0E0D8
:1043600080E00C171D0749F491E0811190E0892F3E
:10437000DF91CF911F910F9108958111F5CFCE015B
:10438000CEDF2196EECFA0919005B09191051097C8
:1043900029F1209192053091930582179307F0F44B
:1043A00053E1589F9001599F300D1124A20FB31F64
:1043B000ED91FC911197309789F012968C916817C6
:1043C00068F48DE0689FE00DF11D112480819181DA
:1043D000892B21F081E09281491708F080E008954F
:1043E0009C0143E1429FC001439F900D1124E09145
:1043F0009005F0919105E80FF91F8385823099F4BB
:1044000081E090E0658176814091EB025091EC0271
:104410006417750711F490E080E0892B21F081E0AA
:104420002230310508F080E00895FC01A081B181BF
:104430008DE0689FA00DB11D112413964D915C91E4
:1044400085859685489F9001499F300D589F300D76
:104450001124C9010196611103C0478144FD0496EE
:104460000895EF92FF920F931F93CF93DF93EA018A
:10447000FC01E60FF71F02811381E480F5804F2DC8
:104480006E2DC80180DF81110DC082E090E099831C
:1044900088838EEF9FEFDF91CF911F910F91FF9057
:1044A000EF900895C8013BDF882339F082E090E067
:1044B0009983888388EF9FEFEECF1093F2020093E9
:1044C000F102E092F302F092F40281E090E099832D
:1044D000888390E080E0DFCFCF92DF92EF92FF926F
:1044E0000F931F93CF93DF937A01EC01C60FD71F71
:1044F000C090F102D090F2020091F3021091F40208
:10450000412F602FC6013FDF811110C082E090E093
:10451000F701918380838AEF9FEFDF91CF911F9105
:104520000F91FF90EF90DF90CF900895C601F7DED6
:10453000882341F082E090E0F7019183808388EF47
:104540009FEFEBCF4C815D816E817F819A81898164
:104550008F3F41F082E090E0F701918380838EEFFE
:104560009FEFDBCFE3E1EC9D9001ED9D300D112439
:10457000E0919005F0919105E20FF31F0190F08119
:10458000E02D2DE0029FE00DF11D11240190F0813E
:10459000E02D27E0129FE00DF11D1124808391830F
:1045A0008B81828343835483658376831F5F10935B
:1045B000F40281E090E0F7019183808390E080E055
:1045C000ACCFEF92FF920F931F93CF93DF937A01BB
:1045D0008C01060F171FC0919005D091910520976F
:1045E00081F021E030E0F8018281938140919205D1
:1045F000509193058417950710F030E020E0232BAD
:1046000071F482E090E0F701918380838EEF9FEF59
:10461000DF91CF911F910F91FF90EF90089543E1AB
:10462000489F9001499F300D1124C20FD31F77DEA0
:10463000882341F082E090E0F7019183808388EF46
:104640009FEFE6CFF8012481358120383105C8F687
:1046500087818111D6CF4181842F90E08F7E009792
:1046600041F082E090E0F7019183808386EF9FEF35
:10467000CFCF4F833E832D83268128871986223012
:1046800010F421E0288721E030E0F7013183208316
:10469000BFCF88E090E0FA019183808390E080E0D2
:1046A0000895FB018FEF808381E181838FEF9FEF7E
:1046B0009383828380E890E09583848316821782B7
:1046C0000895FB018FEF808391E091838283938330
:1046D000848384E3858381E090E0978386830895D3
:1046E00082E090E0FA019183808380EF9FEF08954C
:1046F000BF92CF92DF92EF92FF920F931F93CF93CF
:10470000DF93DA01FC01E60FF71F8181813081F030
:1047100082E090E08D939C938FEF9FEFDF91CF919C
:104720001F910F91FF90EF90DF90CF90BF90089571
:10473000C281D381B480858106811781E090900584
:10474000F0909105E114F10439F482E090E08D934A
:104750009C938CEF9FEFE2CF2091920530919305CF
:10476000C217D30738F082E090E08D939C938EEFD0
:104770009FEFD4CFC230D10538F082E090E08D9326
:104780009C9386EF9FEFCACF9B2D9D7FB1F7813021
:10479000A1F7B11005C00130110531F080E004C06F
:1047A00081E002301105D0F3882339F36D01CE0189
:1047B000B6DD882341F082E090E0F60191838083AA
:1047C00088EF9FEFABCF83E18C9FF0018D9FF00DC1
:1047D0001124EE0DFF1DB38681E0848716870587BF
:1047E000108A178681E090E0F6019183808390E043
:1047F00080E094CF4DE050E06EE673E042CA8F92C5
:104800009F92BF92CF92DF92EF92FF920F931F93EE
:10481000CF93DF93EA01FC01E60FF71F82819381BA
:104820000481B580E0919005F0919105309791F465
:1048300082E090E0998388838CEF9FEFDF91CF91A6
:104840001F910F91FF90EF90DF90CF90BF909F90BE
:104850008F900895209192053091930582179307C8
:1048600038F082E090E0998388838EEF9FEFE6CF67
:1048700023E1289F6001299FD00C1124EC0DFD1D20
:10488000E080F180E114F10499F28281081748F781
:104890008DE0089F80011124E00EF11EF701808158
:1048A0009181892B29F6BB20E1F2F7E0BF9E400100
:1048B0001124C4010E943930F70191838083E09173
:1048C0009005F0919105EC0DFD1D0190F081E02D1A
:1048D000E00FF11F80819181009739F482E090E030
:1048E000998388838DEF9FEFA9CFA40170E060E0EA
:1048F0000E9449458091900590919105C80ED91E5E
:10490000F60180819181080F191FF801B28281E0C0
:1049100090E09983888390E080E090CFAF92BF923F
:10492000CF92DF92FF920F931F93CF93DF93EA0111
:10493000FC01E60FF71F82819381F48000919005BE
:10494000109191050115110581F482E090E09983A1
:1049500088838CEF9FEFDF91CF911F910F91FF9094
:10496000DF90CF90BF90AF90089520919205309145
:1049700093058217930738F082E090E0998388834B
:104980008EEF9FEFE8CF2FEF2F0D2C3FA8F723E1FD
:10499000289F6001299FD00C11240C0D1D1DF801CA
:1049A00080819181892B89F6FDE0FF9E50011124C1
:1049B000C5010E943930F80191838083E091900510
:1049C000F0919105EC0DFD1D80819181009739F4E6
:1049D00082E090E0998388838DEF9FEFBCCFA501A3
:1049E00070E060E00E944945E0919005F0919105EA
:1049F000EC0DFD1DF28281E090E09983888390E0C8
:104A000080E0A9CFCF92DF92EF92FF920F931F9396
:104A1000CF93DF93860F971FFC0102811381809152
:104A2000900590919105892B81F082E090E0FA0148
:104A3000918380838CEF9FEFDF91CF911F910F9136
:104A4000FF90EF90DF90CF900895C801B0E0A0E014
:104A50000197A109B1098F3F9F4FA105B10540F012
:104A600082E090E0FA01918380838EEF9FEFE4CFA4
:104A70007A0183E1809F6001819FD00C1124C601DF
:104A80000E943930EC01009741F482E090E0F70198
:104A9000918380838DEF9FEFCFCFA60170E060E020
:104AA0000E944945D0939105C093900510939305BA
:104AB0000093920590E080E02FEF3FEF41E061E04E
:104AC00070E08017910741F481E090E0F701918355
:104AD000808390E080E0B0CF3A8B298B1B864C8797
:104AE0007E876D87188A1F8601966396EACFEF92BC
:104AF000FF921F93CF93DF93EC0110E0F12CE12C98
:104B00006A811617B0F083E0689FB0011124AE01EE
:104B10004F5E5F4FC7010E949E30009721F02FEF3C
:104B20003FEF3A8B298BDF91CF911F91FF90EF9050
:104B30000895612FCE0179DC61E070E00E94EC2ED7
:104B4000E816F90608F47C011F5FDACFF89420918B
:104B50008E0530918F0581E02115310509F080E047
:104B6000232B09F0789408952F923F924F925F92F1
:104B70006F927F928F929F92AF92BF92CF92DF926D
:104B8000EF92FF920F931F93CF93DF933C01660E3A
:104B9000771EF301828193814C01B12CA12CC0912D
:104BA0009005D0919105209769F021E030E0609167
:104BB0009205709193058617970710F030E020E07A
:104BC000232BD1F482E090E0FA01918380838EEF71
:104BD0009FEFDF91CF911F910F91FF90EF90DF90AA
:104BE000CF90BF90AF909F908F907F906F905F908D
:104BF0004F903F902F9008958092F5029092F60288
:104C0000A092F702B092F80263E1689F9001699F59
:104C1000300D1124C20FD31FF3018181833040F086
:104C200082E090E0FA019183808386EF9FEFD1CFFD
:104C30002A012B813C81232BF1F4288139819F812A
:104C400091FF2EC0232B09F46FC0209195059A8106
:104C5000422F490F5527551FBA0141E050E06138F6
:104C6000710514F050E040E0452B09F45DC02A873F
:104C7000920F909395058150823008F481C066DFD1
:104C8000882309F4DAC0F3018181813009F48DC0F1
:104C900008F47BC0823009F4C8C090E080E0ADC069
:104CA000232B09F441C0209194059A81E22FE90F4A
:104CB000FF27FF1F41E050E0ED3FF10514F050E009
:104CC00040E0452B89F12A87920F90939405D3CF2A
:104CD000A081B181A20FB31F11966C91060F111D17
:104CE0000196295F3F4F8417950794F38D859E8524
:104CF000089F1001099F300C189F300C1124C1141B
:104D0000D104D1F48F8184FF17C00E943A2FF5E0BF
:104D10002F0E311C21E08215930508F420E0A70135
:104D2000435F5F4F21110EC082E090E0F20191835A
:104D3000808387EF9FEF4DCF0E943A2F2FEF221AEB
:104D4000320AE8CF88819981E80EF91EF7011483B1
:104D50000383FFEFCF1ADF0A7A018A818C151D04C5
:104D600009F00CF48CCFE881F981EE0DFF1D428132
:104D700050E030E020E010E000E090E080E0B3CFD1
:104D8000F12CE12CD12CC12CE8CF81E090E09C8368
:104D90008B83DCDA882309F480CF81E090E00E94E5
:104DA000231E80E40E94311E78CF89899A8901965A
:104DB00061F083E090E09C838B8382E090E00E942E
:104DC000231E80E40E942B1E68CF8D819E8120913E
:104DD000EB023091EC0282179307D1F46091EF025D
:104DE0007091F002AE014F5E5F4F8091ED029091A5
:104DF000EE020E9490310097E1F2789422E030E0D8
:104E0000F20131832083892BA9F08DEF9FEFE1CE52
:104E100022E082169104A104B1045CF6039748F6DF
:104E2000CE0165DE188A1F86E6CF82E090E09C8383
:104E30008B8333CF90E080E0CCCE82E090E0F20133
:104E40009183808385EF9FEFC4CE8F929F92AF9224
:104E5000BF92CF92DF92EF92FF920F931F93CF9367
:104E6000DF93EA018C01060F171FF801818183305F
:104E700098F082E090E09983888386EF9FEFDF913E
:104E8000CF911F910F91FF90EF90DF90CF90BF9047
:104E9000AF909F908F90089580919005909191058B
:104EA000892B61F081E090E020919205309193058B
:104EB000232B11F490E080E0892B39F482E090E01C
:104EC000998388838EEF9FEFDACF40DE882309F441
:104ED000E1C0F8018181813009F497C0E8F08230A7
:104EE00099F42091920530919305E0919005F0910D
:104EF000910590E080E041E050E02817390709F083
:104F0000BFC024DA811117C0789481E090E09983C2
:104F1000888390E080E0B3CF209192053091930593
:104F2000E0919005F091910590E080E041E050E043
:104F30002817390741F481E090E00E94231E80E4A5
:104F40000E94311EE1CF63817481672B11F054837D
:104F5000438301967396ECCFE0919005F091910513
:104F6000E00FF11F2381348122303105D9F42189EA
:104F700032892F3F3F4FB1F4258136814091EB02BA
:104F80005091EC022417350761F5AF014F5E5F4F7A
:104F90006091EF027091F0028091ED029091EE022B
:104FA0000E949031EFEFCE1ADE0AEE0AFE0A0D5E85
:104FB0001F4F409192055091930570E060E0C41638
:104FC000D506E606F7064CF5009731F27894892B62
:104FD00009F49BCF82E090E0998388838DEF9FEF67
:104FE0004ECF42E0C416D104E104F104DCF62330D4
:104FF0003105C0F6CF017BDDE0919005F091910580
:10500000E00FF11F108A1786CDCF10E000E090E08E
:1050100080E0C12CD12C7601CCCF0097B9F610E0FE
:1050200000E0812C912C540183E0E82EF12C1AC071
:10503000E0919005F0919105E00FF11F838194813B
:10504000029749F4F482E38282E090E00E94231EFA
:1050500080E40E942B1EFFEF8F1A9F0AAF0ABF0A3F
:105060000D5E1F4F8091920590919305B0E0A0E0F6
:1050700088169906AA06BB06DCF290E080E0A6CF6F
:10508000638174816230710511F454834383019606
:10509000739633CF82E090E09983888385EF9FEF0A
:1050A000EECE0097B9F48FEFFB0180832091F502DB
:1050B0003091F60243E1429FC001439F900D1124BD
:1050C000E0919005F0919105E80FF91F8285FB01B1
:1050D000818308950C94D71D88E090E0FA019183B4
:1050E000808390E080E0089510928F0510928E05E5
:1050F000E0E9F5E086E0DF011D928A95E9F78AEFA5
:1051000093E290938D0580938C05089580918C0592
:1051100090918D0508952F923F924F925F926F92DA
:105120007F928F929F92AF92BF92CF92DF92EF9237
:10513000FF920F931F93CF93DF93CDB7DEB72F97D7
:105140000FB6F894DEBF0FBECDBFF894E0918E0588
:10515000F0918F053196F0938F05E0938E0578944A
:1051600040909005509091054114510409F40DC2EE
:10517000E0919205F0919305EF2B09F406C22D877B
:1051800049875A876B877C8798878F831201B12C58
:10519000A12C10E000E08091920590919305A81653
:1051A000B90618F40115110529F1F89480918E05BE
:1051B00090918F05019790938F0580938E05789439
:1051C000C8012F960FB6F894DEBF0FBECDBFDF919A
:1051D000CF911F910F91FF90EF90DF90CF90BF90F4
:1051E000AF909F908F907F906F905F904F903F9087
:1051F0002F9008957101E418F508D10117968C914C
:10520000179781FD54C013968D919C911497039725
:1052100009F04DC015968D919C91EF81F8858E1700
:105220009F0709F044C0B50190E080E081D48A83F3
:1052300020919005309191053D832C833D8533234A
:1052400009F44CC04C815D81452B09F49BC18091D0
:10525000920590919305A816B90608F093C1C5016F
:10526000BFD88823E9F06C817D816E0D7F1D7D8321
:105270006C83DB011F968D919C91892B89F0D12C39
:10528000C12CF12CE12CAC81BD8112968C9112972E
:105290008E151F0409F094F450961C921E921F97CD
:1052A0002A81222321F0B50190E080E043D43FEF32
:1052B000A31AB30A43E1240E311C6DCFAC81BD812A
:1052C000ED91FC91EC0DFD1D858196810BD7BFEF13
:1052D000EB1AFB0AEDE0CE0ED11CD5CFEC81FD819F
:1052E000309709F44FC18091920590919305A816CB
:1052F000B90608F047C1EE0DFF1DFF87EE87C50117
:105300006FD88B83882339F1AE85BF851F968D9129
:105310009C915097019621E01D964D915C918417C8
:10532000950709F020E02E831982712C10E000E02F
:10533000AE85BF8512968C91781608F45DC0EE8517
:10534000FF85878590890196658576850E94C4438F
:10535000908B8787A5CFB1E0BE83E6CF9924939445
:105360006BC087D6F6019683858383C0D601ED9006
:10537000FC90B7E06B9EE00CF11C1124F7016381F7
:10538000748180818F3F61F121E030E002C0220F03
:10539000331F8A95E2F7C901092E000CAA0BBB0B3B
:1053A000FB01408151816281738184239523A6236F
:1053B000B72321E0892B8A2B8B2B09F420E0D40121
:1053C0002C93D70111968C91F60123853485820F99
:1053D000932F911D880E991E1486138663949CC08A
:1053E000418150E0C4010E944045EBCF998206EF15
:1053F0001FEFC6C01982C4C0F981F111A0CFEDE042
:105400007E9E70011124AE85BF85CD90DC90CE0CC0
:10541000DF1C17D49D838C83BB81BB2309F49ECFF3
:1054200081E0EE85FF8527853089232B09F080E018
:10543000982E882309F459C0672D8E859F850E9478
:105440001522D60118969C938E93179761E070E011
:10545000C3D4EE85FF85218932892F3F320709F4B5
:1054600080CFBC01C9019DD7D60116969C938E931F
:105470001597D60115968D919C911697009709F472
:10548000B5CFEC81FD818E0F9F1F1A969C938E9352
:105490001997AE85BF85ED91FC911197EE0EFF1E19
:1054A000F70121853285148613861A968C91870D13
:1054B000D9018D93711016C0EE85FF85878184FF19
:1054C00011C049855A856B857C85F90141835283DA
:1054D00063837483F701838594850496A80FB91FAD
:1054E00014861386F701B287A187D60115968D9190
:1054F0009C911697892B09F443C0EE85FF85258181
:1055000036818091EB029091EC022817390779F0EF
:1055100019968D909C90612CD60112968C911297C1
:10552000681608F423CF1A969C928E921997BE8122
:10553000BB2309F45FCF61E070E0F60187819085BD
:105540004BD4D6011796ED90FC90189715964D9177
:105550005C91E1E0F0E0BA81BB2311F0F0E0E0E023
:105560000C811D819C01B501882799278E1B9F0BFB
:105570006BD38C01892B21F0F60185819681B2D500
:105580007394D6CE0FEF1FEF8BCE10E000E00DCE60
:105590002F923F924F925F926F927F928F929F9243
:1055A000AF92BF92CF92DF92EF92FF920F931F9331
:1055B000CF93DF93809190059091910510E000E0EA
:1055C000892BA9F0C3DA0AEF1FEF882381F020901E
:1055D000920530909305C0919005D0919105D12C02
:1055E000C12C10E000E02C143D04A9F47894C8010B
:1055F000DF91CF911F910F91FF90EF90DF90CF90AF
:10560000BF90AF909F908F907F906F905F904F90E2
:105610003F902F900895C6010E94F021882309F140
:105620008B819C810397E9F48F859889892BC9F038
:10563000B60190E080E07CD221E030E0882311F0D8
:1056400030E020E044245524421A530AB12CA12C06
:10565000912C812C8A818815190409F038F4188A54
:105660001F864FEFC41AD40A6396BDCFE881F98133
:10567000EA0DFB1D85819681892BA1F161E070E027
:1056800087819085A9D33C01DCD28C01E881F98126
:10569000EA0DFB1D8185928525813681200F311F02
:1056A000AC01421B530B9A0147815085421B530B9F
:1056B00070E060E00E944945E881F981EA0DFB1D38
:1056C000E780F084458156819301B601C201BCD2C6
:1056D0008C01892B39F0E881F981EA0DFB1D858168
:1056E000968100D55FEF851A950A8DE0A80EB11C52
:1056F000B1CF2CCA789408952F923F924F925F9227
:105700006F927F929F92AF92BF92CF92DF92EF9271
:10571000FF920F931F93CF93DF9300D000D0CDB7AC
:10572000DEB700919005109191059924939401158D
:10573000110509F43EC0A0909205B090930506DAD9
:10574000982E8823B1F11092910510929005109235
:1057500093051092920510929405109295058FEF83
:105760009FEFDC018093F5029093F602A093F7027D
:10577000B093F802789480D31E830D83C12CD12C72
:105780007601C501B0E0A0E089839A83AB83BC8336
:1057900022242A94322C89819A81AB81BC81C8163B
:1057A000D906EA06FB06F4F0C8019CD480E40E9406
:1057B000311E892D26960FB6F894DEBF0FBECDBFE1
:1057C000DF91CF911F910F91FF90EF90DF90CF90DD
:1057D000BF90AF909F907F906F905F904F903F9061
:1057E0002F900895AD81BE8115968D919C9116974D
:1057F0002091EB023091EC0282179307D1F451967D
:105800008D919C91BCD5ED81FE8180819181B12CDF
:10581000A12C412C512C3201892B91F5BFEFCB1AD1
:10582000DB0AEB0AFB0AED81FE817396FE83ED83B2
:10583000B2CFB2E0CB16D104E104F10424F7039710
:1058400010F7ED81FE81818992898F3F980709F0D9
:1058500011D5AD81BE8152963C922E925197D3CFF5
:105860008A0D9B1DDC018D919C91009709F03AD423
:10587000BFEF4B1A5B0A6B0A7B0AEDE0AE0EB11C60
:10588000AD81BE818D919C91119712964C9150E003
:1058900070E060E044165506660677060CF322D4E5
:1058A000BDCFCF93DF93EA0127DF811109C082E0EA
:1058B00090E09983888385EF9FEFDF91CF910895E2
:1058C00081E090E00E94231E81E090E0998388832C
:1058D00090E080E0F2CF10DF10928D0510928C05E1
:1058E000089542E050E06CEB73E00C94411EFF928F
:1058F0000F931F93CF93DF938A01EC01C60FD71F3D
:10590000F980B9D20897F816190671F068F082E0AC
:1059100090E0F801918380838EEF9FEFDF91CF912C
:105920001F910F91FF9008956C817D818E819F81E1
:105930004B810E94D620811108C082E090E0F801DE
:105940009183808384EF9FEFE9CFF9800E94D1207B
:105950004F2D50E0BE01685F7F4F0E944045898116
:105960000E94402181E090E0F8019183808390E0E3
:1059700080E0D4CFDF92EF92FF920F931F93CF93EB
:10598000DF938A01EC01C60FD71F0E94D1207C0152
:10599000D98071D2DD2059F0029721E030E0D8168D
:1059A000190619F010F030E020E0232B79F482E0A2
:1059B00090E0F801918380838EEF9FEFDF91CF918C
:1059C0001F910F91FF90EF90DF900895EF2841F421
:1059D00082E090E0F8019183808384EF9FEFEECF27
:1059E000F9800E94D1204F2D50E0BE016E5F7F4FA5
:1059F0000E94404589810E94402181E090E0F801A9
:105A00009183808390E080E0D9CF81E79CE29093FE
:105A10009705809396050895809196059091970536
:105A200008950895FC011182108293838283089562
:105A3000DB011D921C92DC011296ED91FC911397F3
:105A40007183608313967C936E9312970895FC0183
:105A500080819181DB018D939C93A081B18110970E
:105A600041F08D919C9191838083892B11F4F38374
:105A7000E2830895FC0180819181DB018D939C93E9
:105A8000892B11F473836283718360830895FC0111
:105A900011821082938382830895CF93DF931F92A4
:105AA0001F92CDB7DEB71A821982F894BE016F5FDC
:105AB0007F4F8DE995E0CBDF89819A81009709F0CE
:105AC00011D389819A81892B89F7BE016F5F7F4F3E
:105AD00081EA95E0BCDF89819A81009709F002D3C1
